:020000022000DC
:1060000000FD032071B1030099B103009BB10300AF
:106010009DB103009FB10300A1B103000000000087
:10602000000000000000000000000000A3B1030019
:10603000A5B1030000000000A7B10300A9B103004F
:10604000ABB10300ABB10300ABB10300ABB10300D4
:10605000ABB10300ABB10300AD720200ABB1030002
:10606000ABB10300ABB10300C9FE0200ABB103004A
:10607000ABB10300ABB10300ABB10300ABB10300A4
:10608000ABB10300198A0300A5C00200ABB1030045
:10609000D98A0300ABB10300697E0200ABB10300F3
:1060A000ABB10300ABB10300ABB10300ABB1030074
:1060B000ABB10300ABB10300000000000000000022
:1060C000ABB10300ABB10300ABB10300ABB1030054
:1060D000ABB10300ABB10300ABB10300ABB1030044
:1060E000ABB10300ABB10300ABB103000000000093
:1060F00000000000ABB1030000000000ABB10300E2
:10610000000000000000000000000000000000008F
:10611000000000000000000000000000000000007F
:10612000000000000000000000000000000000006F
:10613000000000000000000000000000000000005F
:10614000000000000000000000000000000000004F
:10615000000000000000000000000000000000003F
:10616000000000000000000000000000000000002F
:10617000000000000000000000000000000000001F
:10618000000000000000000000000000000000000F
:1061900000000000000000000000000000000000FF
:1061A00000000000000000000000000000000000EF
:1061B00000000000000000000000000000000000DF
:1061C00000000000000000000000000000000000CF
:1061D00000000000000000000000000000000000BF
:1061E00000000000000000000000000000000000AF
:1061F000000000000000000000000000000000009F
:1062000010B5054C237833B9044B13B10448AFF3F0
:1062100000800123237010BD682F002000000000C3
:1062200028DF03000C4B43B10C480D4910B5AFF308
:1062300000800C48036823B910BD0A48036833B9CD
:106240007047094B002BF7D0BDE810401847064BAC
:10625000002BF5D0184700BF0000000028DF030026
:106260006C2F0020642F002000000000154B002B35
:1062700008BF134B9D46A3F5803A00218B460F467D
:106280001348144A121A16F093FB0F4B002B00D040
:1062900098470E4B002B00D09847002000210400A7
:1062A0000D000D48002802D00C48AFF3008016F016
:1062B00031FB2000290000F0ABFA16F017FB00BFFD
:1062C0000000080000FD03200000000000000000A6
:1062D000682F00203C580020000000000000000053
:1062E00041DF704710B50D200C4600F027FF2070ED
:1062F00010BD000013B5164B1B685B040C4617D588
:10630000144B1B68032B13DD2F21134816F024FCBC
:10631000A8B12F21104816F01FFC411C0F4B104A4A
:10632000D3F80435009201945F22042006F0A4FD06
:1063300021460D2002B0BDE8104000F00BBF5C21EB
:10634000054816F009FC08B15C21E3E70249E5E7DE
:10635000782E0020742E0020F4CB030000100140A2
:106360001FCC030007B5174B1B685B0416D5164BF3
:106370001B68032B12DD2F21144816F0EDFBC0B172
:106380002F21124816F0E8FB411C114B114AD3F89B
:10639000043500920420772206F06EFD0322C82106
:1063A0004FF4F03000F0EAFE03B05DF804EB00F0CB
:1063B0002BBD5C21054816F0CFFB08B15C21E0E75E
:1063C0000249E2E7782E0020742E0020F4CB03006F
:1063D00000100140FFCC030073B54A4D2B685904EF
:1063E000044640F18880484E3268032A40F3868094
:1063F0002F21464816F0B0FBF0B12F21434816F08C
:10640000ABFB411C424B434AD3F804350092019444
:106410008722042006F030FDBCB1032C60D100F0CF
:10642000A3FC002842D00BF085FE00F094FC02B0E3
:10643000BDE87040FFF796BF5C21344816F08CFB36
:1064400008B15C21DAE73149DCE72B685A0415D53D
:106450003368032B12DD2F212C4816F07DFBE0B1B1
:106460002F212A4816F078FB411C294B2A4AD3F8E1
:106470000435009204208F2206F0FEFC0D2000F06F
:106480005DFE80F00101C9B20D2000F063FE2348DB
:1064900002B0BDE8704000F0E3BB5C211B4816F081
:1064A0005BFB08B15C21DCE71849DEE72B685B0485
:1064B00016D5154B1B68032B12DD2F21134816F040
:1064C0004BFB78B12F21114816F046FB411C104BB5
:1064D000134AD3F8043500920420A32206F0CCFC22
:1064E00002B070BD5C21094816F036FB08B15C2192
:1064F000E9E70649EBE700288FD1BFE700288CD1F8
:10650000A6E700BF782E0020742E0020F4CB0300F5
:106510000010014037CC03004ACC0300A02D00201E
:1065200058CC03003038042801D8FFF755BF704716
:1065300003781C2B01D1FFF715BF704713B52B4C07
:106540002268520417D52A4B1B68032B13DD2F2119
:10655000284816F001FB002835D02F21254816F0D9
:10656000FBFA411C244B254AD3F804350092042041
:10657000D92206F081FC0021214800F093FB18B1DC
:106580001C4A6F2114F01FFE23685B0419D5184BB9
:106590001B68032B15DD2F21164816F0DDFAD8B144
:1065A0002F21144816F0D8FA411C154A124B1288B4
:1065B000D3F804350192134A00920420702206F0A9
:1065C0005BFC02B010BD5C210A4816F0C5FA08B1A8
:1065D0005C21C3E70749C5E75C21064816F0BCFA11
:1065E00008B15C21DDE70349DFE700BF782E00201A
:1065F000742E0020F4CB030000100140C3CC030034
:10660000A02D0020E3CC030030B56421C7B035488D
:1066100000F03AFD344B1B7883B9344D0FCD05ACF7
:106620000FC495E8030084E8030005A800F0D0FC3F
:1066300020B12F4A4FF48A7114F0C5FD01F088FE95
:106640002C4B1B685B042FD52B4B1B68032B2BDDBE
:106650002A4B05AC19680023C25C150902F00F0231
:106660004D5D04F813508D5C04EB43020133102B95
:106670005570F1D100232F211D4884F8203016F0E9
:106680006BFA30B32F211A4816F066FA411C1C4BE6
:106690001C4AD3F8043501921B4A0092029440F23E
:1066A0001912042006F0E8FB00F0A0FB20B1104A0C
:1066B00040F21B1114F087FD00214FF4F03000F080
:1066C00054FD0222C8214FF4F03000F057FD47B0CE
:1066D00030BD5C21064816F03FFA08B15C21D2E7D4
:1066E0000349D4E725650200842F0020D8CB03009E
:1066F000F4CB0300782E0020742E00207C2E002086
:106700000010014049CD030056CD030010B50446EA
:1067100000214FF4F03004EB840400F026FD620009
:1067200032214FF4C030BDE8104000F027BD00F02A
:1067300059BD00001FB5304C2268520417D52F4BAD
:106740001B68032B13DD2F212D4816F005FA0028B6
:1067500040D02F212A4816F0FFF9411C294B2A4A24
:10676000D3F8043500920420C52206F085FB00F022
:10677000E5FE00F017FF03A811F086F923685B041B
:1067800019D51E4B1B68032B15DD2F211C4816F055
:10679000E3F940B32F211A4816F0DEF9411C194BDA
:1067A000BDF80C20D3F804350192184A0092042059
:1067B000D02206F061FB00F015FD00214FF4F0300F
:1067C00000F0D3FC0422C8214FF4F03000F0D6FCD6
:1067D00004B010BD5C210A4816F0BEF908B15C2176
:1067E000B8E70749BAE75C21054816F0B5F908B1E2
:1067F0005C21D0E70249D2E7782E0020742E0020D9
:10680000F4CB03000010014018CD030032CD03008B
:1068100000B5394A91B0042146F2010006F012FB9E
:10682000364B1B685B0417D5354B1B68032B13DDF8
:106830002F21344816F090F9002853D02F213148E9
:1068400016F08AF9411C304B304AD3F804350092D7
:106850000420F12206F010FB12F086FA18B1294A42
:10686000F32114F0B0FC00F0CDFC294800F0F6FC58
:1068700018B1244AF72114F0A6FC00F045FE00F000
:106880005DFE00F08FFE234B03AC186802900422DB
:1068900002A9204600F03AFD18B11A4AE22114F08C
:1068A00092FC0021242207A816F082F801238DF81B
:1068B0001C3007238DF81F3006238DF82430164B2B
:1068C0000B931649164B0A9407A80F9300F058FA39
:1068D00018B10C4AEB2114F076FCFFF795FEFFF798
:1068E000FFFCFCE75C21074816F036F908B15C2193
:1068F000A5E70449A7E700BF19CE0200782E0020C3
:10690000742E0020F4CB03000010014094CC03004F
:10691000D9630200F0CB030031650200842F002010
:106920003D65020037B5244B1B685B0404461546E1
:1069300016D5224B1B68032B12DD2F21204816F0A1
:106940000BF968B32F211E4816F006F9411C1D4BA8
:106950001D4AD3F8043500920420AA2206F08CFACE
:10696000A36B04F13C012046984794F83C302B700F
:1069700094F83D306B70236CE3B1626CD2B912F0C5
:10698000B7FAA16C12F0BAFA4FF47A735843236C39
:10699000C00B98420DD860B1181A686003B030BDC2
:1069A0005C21074816F0D8F808B15C21CBE7044910
:1069B000CDE700236B60F1E7782E0020742E0020D5
:1069C0006ECD03000010014091CD0300F7B5036BBD
:1069D0000446186812F07CFA616C002933D04FF439
:1069E00000404FF4FA760027E0FB01674FF47A721B
:1069F00000233046394615F0F1FD236B014622464F
:106A0000186812F01FFA0546DDB1264B1B685B04BF
:106A100017D5254B1B68002B13DD2F21234816F0BB
:106A20009BF8002834D02F21204816F095F8411CFF
:106A30001F4B204AD3F8043500920120682206F04B
:106A40001BFA03B0F0BD216C0029FAD04FF40040CE
:106A50004FF4FA760027E0FB01674FF47A720023C7
:106A60003046394615F0BAFDB0F1807F0146224626
:106A7000236B09D36FF07F41186812F0E3F90546E4
:106A800012F036FAA064BFE7042898BF0521F3E7A7
:106A90005C21064816F060F808B15C21C4E70349A0
:106AA000C6E700BF782E0020742E00206ECD0300B4
:106AB00000100140B4CD030010B5436C88B004460B
:106AC000D3B9026C90F83D3002B1ABB184F83C30E0
:106AD00006A920468DF818308DF8193007920EF06F
:106AE00077FA94F84C303BB9636B94F83C1020462D
:106AF0009847012384F84C30174B1B685B0420D562
:106B0000164B1B68042B1CDD2F21154816F024F8AA
:106B1000C8B12F21124816F01FF8411C114B226CEE
:106B2000D3F804350492626C039294F83D200292EB
:106B300094F83C2001920C4A00920520852206F030
:106B40009BF908B010BD5C21054816F005F808B1A6
:106B50005C21DFE70249E1E7782E0020742E002057
:106B60006ECD030000100140D2CD0300F7B51D46E5
:106B7000234B089E1B685B040446174618D5214B1F
:106B80001B68032B14DD2F211F4815F0E5FF48B3C8
:106B90002F211D4815F0E0FF411C1C4B3A78D3F81B
:106BA000043501921A4A00920420CC2206F064F9BE
:106BB000002384F84C303B7884F83D30DDB96564BF
:106BC00025642046FFF778FF2046FFF7FFFE3EB121
:106BD00094F83C30337094F83D307370236C7360DC
:106BE00003B0F0BD5C21084815F0B6FF08B15C2188
:106BF000CFE70549D1E76B6863642B682364E0E75E
:106C0000782E0020742E00206ECD0300001001406D
:106C10009CCD0300F8B5466C044626B100234364BE
:106C2000FFF74AFF14E0056C95B14FF4FA700021AC
:106C30004FF400474FF47A720023E7FB050115F08B
:106C4000CDFCB0F1807F08D36FF4FF731D44256441
:106C50002046BDE8F840FFF7B9BE26642046DFE7CE
:106C600013B5044600F13C01836B984794F83C301F
:106C700084F83D30002363642364236B186812F0AA
:106C800027F994F83C308DF8003094F83D308DF8B9
:106C900001306946236C019320460EF099F902B049
:106CA00010BD000010B5044608B90E2010BD094BF8
:106CB000C362436B002BF8D0836B002BF5D00EF032
:106CC0005BF930B90146044A206BBDE8104012F070
:106CD000A7B810BDACCD0300156C020003780D2BD6
:106CE00002D1002004F0B6B9704730B5837DC27D73
:106CF00085B043EA02230446ADF80C3003A8012313
:106D00000D46ADF80E3010F083FE10BB02AA2146EE
:106D1000208A11F06DF8E0B90DF10A032A46BDF89A
:106D20000810E08A11F026FA98B9217ED4F81200F2
:106D300001F0010103F006FD10B1784601F0DAFA26
:106D4000BDF80A000DF0CAFD18B901900EF02CFC38
:106D5000019805B030BD08B50FF066F810F0E8FDF9
:106D6000BDE8084003F08CBA07B501A810F08CFE0E
:106D7000BDF80400003018BF012003B05DF804FB2B
:106D800073B50E46054660B304F038F8044628BBD8
:106D900010F020FE0FF008FD28690DF06FFD04468D
:106DA000E0B92B7F0193AB69009301466B690E48F4
:106DB00059220DF08BFF044680B92B6A03B1984726
:106DC00007F072FF10F028FD0EF07EFEFFF7CCFFFB
:106DD000054608B10BF0D6F806B13570204602B072
:106DE00070BD0E24FAE700BFA82F002008B5FFF7FA
:106DF000BBFF20B10BF07EF908B10BF005F9BDE83F
:106E0000084004F061B8000008B506F0ABFD20B101
:106E10000020BDE8084004F01DB90248BDE8084064
:106E200004F0BEB8F02D002003490448096903238B
:106E3000002212F018BC00BF083000205832002099
:106E400010B50378023B082B4AD8DFE803F01E0593
:106E50001249493849493F00224B5B68002B3FD01B
:106E6000007A00283CD0204A01211170BDE8104072
:106E700018471C4B9B68002B32D01B4A117879B302
:106E800000211170BDE810401847184B1A784AB914
:106E9000144BDB6813B114490A709847BDE81040E1
:106EA000FFF7C2BF124B134801221A7004F078F8A2
:106EB00004F05EF8A0B1BDE8104014F077B9094BBA
:106EC0000D485969102212F012FCF3E78168C0687E
:106ED000FFF70BFF08B114F069F9044B01221A7097
:106EE00010BD00BF08300020043000200530002015
:106EF00006300020FC2D00205832002030B5274DF0
:106F0000297885B019B1012803D003283FD005B0F6
:106F100030BD04AC002344F8083D214600F050FE8B
:106F200008B114F043F9204600F0B4FE08B114F0A3
:106F30003DF904A9012341F8043D0DF1060011F0CB
:106F4000E9F808B114F032F9BDF8060010F0BEFE01
:106F50000DF1050110F088FF08B114F027F90BF0CE
:106F600011F89DF8051000200BF0FAF810B17846E2
:106F700001F0C0F903F0A8FF08B114F017F90023DD
:106F80002B70074B1B68002BC1D09847BFE700F060
:106F9000EBFE0028BBD014F009F9B8E7063000205A
:106FA0000830002008B503781A2B0CD1064B1B784B
:106FB0004BB100F015FF08B114F0F8F80348BDE834
:106FC000084003F0EFBF08BD06300020FC2D002074
:106FD00070B51E4A1E4E5168044686B0106803AB59
:106FE00003C31189927A19809A700FCC35460FC568
:106FF00094E8030085E8030073692BB3154916482C
:1070000012F018FBF0B9154B0093124A12491448BC
:1070100003AB12F0E1FAA8B9124813F013FA0146D3
:107020000F4812F0F3FA68B90F4813F075FF48B92A
:107030000D4813F0A7FF0146094812F0E7FA08B916
:10704000FFF7F2FE06B070BD0720FBE712CE03008B
:1070500008300020203000208C330020416E0200D8
:1070600058320020403000200832002010B5054C76
:10707000226832B114F0DAF9002802DB236898475D
:10708000F8E710BDCC330020154B164A10B50C465E
:1070900018600121144811F0C3FE18B1134A4A21A7
:1070A00014F091F8610C0023E00341F26F728B42FF
:1070B00008BF824210D24FF47A72002315F08EFA84
:1070C000014600220A4811F0BDFE38B1074A4B21A3
:1070D000BDE8104014F077B80521F2E710BD00BFFD
:1070E000CC3300206D70020020CE030024CE0300BC
:1070F000D033002038B50D4C206808B914F056F88C
:107100004FF0A0450A4AD5F8043512685340C5F837
:1071100004352368013B236033B9064811F0D8FEDB
:10712000054B1B68C5F8043538BD00BFF03300209F
:10713000F4330020F8330020203400204FF0A04327
:10714000D3F80425012303FA00F010420CBF1846BF
:107150000020704701234FF0A042834011B1C2F8D4
:107160000C357047C2F8083570474FF0A04311B195
:10717000C3F80C057047C3F808057047F8B542B36B
:10718000132926D9134B144D5200013A4FF0A04455
:107190001A602860114BD4F804251A604FF400409F
:1071A0004FF4FA760027E0FB01674FF47A72002370
:1071B0003046394615F012FA00220146084811F00F
:1071C00041FE30B9D4F804352A6823EA0203C4F832
:1071D0000435F8BDF0330020F433002020340020C3
:1071E000F833002008B5054811F072FE044B1A6808
:1071F0004FF0A043C3F8082508BD00BFF8330020B6
:10720000F433002008B54FF0A04303224FF400519F
:10721000C3F83427C3F808154FF48041C3F8382762
:10722000C3F808154FF40041C3F83C27C3F808150C
:10723000C3F840274FF48032C3F808250121054ADE
:10724000054811F0EDFD18B1BDE8084013F0AEBFE0
:1072500008BD00BFF570020048CE0300D8B10F4B47
:107260000F4A18604FF0A0430020C3F82C27C3F842
:107270003027C3F86027C3F864270A4B4FF0004259
:10728000C3F80423C3F87C01074BC02283F806230C
:1072900040221A6070470E20704700BF183400204B
:1072A0000C0003000060004000E100E0124B70B5EC
:1072B0000024124E124DC3F87C414FF0A043A15D53
:1072C000D3F8102501238B40934311D00D49D5F8F5
:1072D00004250B68981A48BFD01A43F233339842FA
:1072E00006D9D5F804350B60074B20461B68984734
:1072F0000134042CE1D170BD006000404CCE03008D
:10730000001001401C34002018340020082A38B531
:10731000054614460ED815F040FBC4F108020021C2
:10732000281915F045FB08220349A81815F035FB6C
:10733000002038BD092038BD6000001072DF7047A2
:1073400073DF704774DF7047F0B52F4CA3B005466C
:107350000E46174600211022204615F029FB2B4827
:107360002B4A03782B49C3EB431E7244013371440B
:1073700003F00103A2601F2203702160A280A2819A
:1073800000213C2204A815F013FB062301AA8DF866
:1073900013300E9201233C22002113A88DF80230F5
:1073A000ADF820308DF83C30ADF80050CDF824D049
:1073B000ADF80450ADF80870039615F0F9FA022301
:1073C000221D21688DF84C3004A800F0D1F908B1D5
:1073D00013F0ECFE104AA16813A800F0C9F908B137
:1073E00013F0E4FE0D4A08490D48FFF7A7FF0828EF
:1073F00004D1002204490A48FFF7A0FF08B113F0A6
:10740000D5FE23B0F0BD00BF64340020243400203A
:107410007434002025340020703400200C2E00200D
:10742000082E0020034B00EB8000400098819960FB
:10743000704700BF0C2E002008B5064B01211878BC
:10744000FFF77EFF08B113F0B1FE0020BDE8084051
:1074500004F052BB082E002008B5054B1878FFF742
:1074600071FF18B1BDE8084013F0A0BE08BD00BF11
:10747000082E002076DF70477ADF70477CDF704788
:1074800013F094BE03F090BD07B503784BB93B21D0
:107490004088FFF7EFFF08B303B05DF804EB13F08B
:1074A00085BE012B1AD1134B1B685B0416D5124BFA
:1074B0001B68032B12DD2F21104815F04DFB80B106
:1074C0002F210E4815F048FB411C0D4B0D4AD3F8F7
:1074D000043500920420682205F0CEFC03B05DF86C
:1074E00004FB5C21054815F037FB08B15C21E8E797
:1074F0000249EAE7782E0020742E002061CE0300B6
:107500000010014091CE030013B500F02DFC08B12E
:1075100013F04CFE02AC002344F8043D0120214648
:1075200000F04EFB08B113F041FE204600F0B2FB24
:1075300008B113F03BFE02B010BD00001FB59DF86E
:1075400004301748012262F3030304AC62F307130B
:1075500004F80C3D15F0F8FA114982B22046FFF705
:107560008DFF08B113F022FE082200210DEB02006E
:1075700015F01EFA7823ADF80830C823ADF80A30AC
:107580000023ADF80C3002A84FF4C873ADF80E30EC
:10759000FFF772FF08B113F009FE04B010BD00BF81
:1075A00050CE030030B58BB001AD08220021284633
:1075B00015F0FEF978230024ADF80430C823ADF8A7
:1075C00006301C224FF4C873214603A8ADF80A30D8
:1075D000ADF8084015F0ECF940F6CD4304934FF4B4
:1075E0008033059303238DF81830084B089303A8C4
:1075F000074B0395ADF81A408DF81C40099300F035
:1076000035FD08B113F0D2FD0BB030BD8974020016
:107610008174020070B5EFF3108672B60C4A94685C
:1076200001239CB993600B4B0B4DD3F8801029407C
:107630001160C3F88050D3F8841051604FF0FF32CE
:10764000C3F88420047006B962B670BD0370FAE70F
:107650009057002000E100E0FC06FFBD10B5084B8C
:107660009A685AB150B9EFF3108272B605491C6896
:107670000C605C684C60986002B962B610BD00BFD7
:107680009057002000E100E06DDF704779DF704720
:107690007DDF704764DF70472DE9F74F0C9CBDF824
:1076A00034B02788002580468A4691462E46B8F891
:1076B000002096420BDB35B12288013AD21B92B2F0
:1076C000FF2A39D8DA55002003B0BDE8F08FD8F88A
:1076D000042052F82600019000220DF1030101A8B8
:1076E000FFF7D8FF0028EFD19DF803204A4521D1AC
:1076F0002288002D14BF0020022002EB0901014462
:10770000594519DC3DB9013292B2228003F802A03A
:1077100022880132228022880DF103011A4401A837
:10772000FFF7B8FF0028CFD121889DF803200A4435
:10773000228001250136BAE70C20C5E72DE9F34187
:10774000089CBDF8245017468DE8300002220646FA
:10775000FFF7A2FF48B91022394630460995089430
:1077600002B0BDE8F041FFF797BF02B0BDE8F0817D
:107770002DE9F04F00231788138090F82D3085B045
:1077800006460D46144643B3082F4ED902A8FFF70C
:107790007BFF002840F0208113880822CA542388E8
:1077A00001339BB21B222380CA542088013080B24F
:1077B000208006220DF10901284415F0EEF82388F7
:1077C0009DF8082006339BB212F0FE0218BF01227A
:1077D0002380EA54238801332380B378FBB12388C4
:1077E0000433BB4221D802A8FFF750FF002840F025
:1077F000F38023880322EA54238801339BB21922A1
:107800002380EA542388BDF8082001339BB2E9188D
:107810002380EA54120A4A70238802332380F278C4
:10782000AAB12388D91CB94201D90C20D4E0022185
:10783000E954238801339BB201212380E954238832
:107840000B449BB22380EA5423880B442380726844
:10785000AAB12388D91CB942E7D8022192F90020A5
:10786000E954238801339BB20A212380E9542388F9
:1078700001339BB22380EA54238801332380338968
:10788000002B40F09D80338A5BB18DE890002B4641
:107890000722032106F11000FFF750FF002840F0F7
:1078A0009B80338B5BB18DE890002B461522142111
:1078B00006F11800FFF742FF002840F08D80326A81
:1078C000002A40F08C80D6F82480B8F1000F2ED02A
:1078D000B8F804302188981C8A1C0244BA42A4D803
:1078E000FE28A2D803336B54238801339BB2FF22B6
:1078F0002380EA54238801339BB22380B8F8002008
:10790000EA54E918120A4A702088023080B22080B6
:10791000B8F804205AB1D8F80810002969D02844D2
:1079200015F03BF82388B8F804201344238096F818
:107930002C30002B40F09880307800284CD03388D1
:10794000012B56D021888A1CBA423FF66EAF01281F
:1079500005D1737802330B449F42FFF466AF023FB8
:107960007F1A04A9BFB221F8087DA818FFF790FE7E
:1079700090BB3378BDF80820022B02D07178914279
:1079800002D3BA4240F2B680012B40F0B080737847
:107990009F42C0F0AC80ADF808300821BDF8083037
:1079A000FE2B3FF642AF22880133AB5422880132CE
:1079B00092B22280A95422881344238000200BE035
:1079C0008DE890002B460622022106F10800FFF701
:1079D000B5FE00283FF457AF05B0BDE8F08FB4F80E
:1079E00000E00EF10603BB423FF61FAF11880529E8
:1079F00001D80720F0E76FF4486C01EB0C039BB251
:107A00004FF27D3C6345F4D95388052BF1D96FF4CF
:107A10004860181880B26045EBD94FF6FF7081427C
:107A200003D0834201D09942E3D8052305F80E30F4
:107A3000238801339BB212212380E9542388013328
:107A40009BB223801188E954E818090A4170238801
:107A500002339BB223805288EA54E918120A4A7012
:107A60002388023323802EE7B36A002BC1D04FF066
:107A700000094FF00C0A4FF0160B96F82C305FFA05
:107A800089F293427FF658AFB16A0AFB02F201EB2A
:107A90000208B8F80430981CFE283FF6C6AE2088CD
:107AA00003332B54238801339BB2238005F803B0A2
:107AB000238801339BB223808A5AEA54E918120AB8
:107AC0004A702088023080B22080B8F804205AB171
:107AD000D8F8081000298CD0284414F05EFF2388C1
:107AE000B8F804201344238009F10109C5E7ADF873
:107AF000087052E7092151E701600B6843604A684A
:107B0000934204BF002343607047436843B1026857
:107B100091680B4443605268934204BF0023436062
:107B200070474BDF704700001FB50D4C01A8FFF7F1
:107B3000F8FF70B9214602A8FFF7DEFF039B002B78
:107B4000F4D001981A685968904702A8FFF7DDFF42
:107B5000F4E7052801D013F029FB04B010BD00BFE5
:107B6000C0CE030060DF704769DF704761DF704798
:107B700030B5114B1B78A9B0E3B1104D94240DF131
:107B8000020103A8ADF80240FFF7F0FF70B92946E3
:107B900001A8FFF7B1FF029B002BF0D003A81A68E1
:107BA0005968904701A8FFF7B0FFF4E7052801D016
:107BB00013F0FCFA29B030BDB2340020CCCE030063
:107BC000F0B5074685B00D4600295ED0304B0B60FE
:107BD0000C22002101A814F0EBFE012606232A68DE
:107BE000ADF8083001A920208DF804708DF80660EA
:107BF000FFF7BAFF0C22002101A814F0D9FE0024DF
:107C00002A688DF8056001A940208DF806408DF89E
:107C10000740FFF7A9FF0C22214601A814F0C8FE77
:107C200045232A68ADF8063001A923208DF8047099
:107C3000FFF79AFF0C22214601A814F0B9FE2A682A
:107C40008DF8044001A93046FFF78EFF0C22214633
:107C500001A814F0ADFE4FF4B0632A68019301A9A6
:107C6000A120FFF781FF0C22214601A814F0A0FEFD
:107C70009DF804302A68334301A9A0208DF8043010
:107C8000FFF772FF204605B0F0BD0E20FBE700BFF6
:107C9000A02D002008B5FFF765FF10B9014B0122A8
:107CA0001A7008BDB234002010DF704711DF704732
:107CB00013B5044609496846FFF71EFF019808B945
:107CC00002B010BD036841682046984718B1684665
:107CD000FFF71BFFF2E71120F2E700BFDCCE030045
:107CE00013B5044607496846FFF706FF019B0BB929
:107CF00002B010BD20461A68596890476846FFF7E1
:107D000004FFF3E7F4CE0300064B9A6822B11A6829
:107D100022F480021A607047034B4FF48002C3F8CC
:107D2000802070479057002000E100E00C4991F856
:107D300016335A09EC231341DB0708D442F2020040
:107D400013F034BA1A6842F480021A607047054B87
:107D50009A68002AF6D14FF480030B60704700BF89
:107D600000E100E090570020F7B5184F3C785CBB6D
:107D7000174E012520463570FFF79AFF112820D0B5
:107D80002046FFF7ADFF134B1868019002A800F8DA
:107D9000054DFFF73FFC104901A8FFF785FF04469A
:107DA000B0FA80F0400938709DF80300FFF756FCE8
:107DB0003CB90A4B34701C70FFF7B8FF2846FFF738
:107DC0008FFF204603B0F0BD0824FAE7B43400204A
:107DD000B3340020D8CE0300ED800200B53400207B
:107DE000F7B5154F3B7813B3144E01203070FFF7F1
:107DF0005FFF11284FF000051BD00220FFF770FF36
:107E000002A800F8015DFFF705FCFFF74FFF0446ED
:107E10009DF807003D70FFF721FC2CB93470FFF787
:107E200073FF0320FFF75CFF204603B0F0BD08247A
:107E3000FAE72C46F8E700BFB4340020B334002042
:107E400007B508496846FFF757FE019B13B903B011
:107E50005DF804FB58681A6890476846FFF755FEBE
:107E6000F3E700BFE8CE0300FFF7EABF75DF704716
:107E700076DF70477ADF70477BDF7047034B1A88E5
:107E800082420CBF18460020704700BFD434002047
:107E9000024B9B6903B11847704700BFB8340020FC
:107EA00037B585B22846FFF7E9FF034670B1164C97
:107EB000017A227B91420BD200F10A012846FFF79A
:107EC000D5FFE8B1112801D0FFF7E2FF03B030BDC4
:107ED000237C0022027243B13B212846FFF7C8FFF2
:107EE00030F0080301D0FFF7D3FF6369002BEDD01A
:107EF00000228DF80420ADF8065001A89847E5E768
:107F00001A7A01321A72E1E7B834002013B50B4631
:107F1000497A0F4C024669B9A06861681C7A002C46
:107F200018BF0146586810F08DFF08B1FFF7B0FF89
:107F300002B010BD002119726369002BF8D0012135
:107F4000ADF806008DF8041001A89847F0E700BFCF
:107F5000B834002030B583880588B3F5FA7F24BF94
:107F60006FF4F9729C184A8838BF002495420CD8E7
:107F70004088904209D38A88A24206D303F2F310C4
:107F8000904234BF0020012030BD002030BD0000F1
:107F900070B50388112B01462ED002D8102B05D0C6
:107FA00070BD122B51D0502B35D070BDC37B012B2F
:107FB0004AD14FF6FF70FFF761FF054620B9042054
:107FC000BDE87040FFF764BF8E88264A0680002314
:107FD00003721368C5F80A300A30536843601031E1
:107FE000FFF7B8FF204B6872DB896BBB2946304630
:107FF000BDE87040FFF78ABF8088FFF73FFF044667
:1080000010B3406810F064FF08B1FFF741FF4FF66E
:10801000FF73238070BD144BC288DB899A4213D151
:10802000038A022B10D186883046FFF727FF0546CA
:1080300050B101F1120000F053F80028D6D1686861
:1080400010F046FF0028BBD170BD86883046FFF790
:1080500015FF05460028F7D008310A30FFF77AFFF0
:108060006872C3E7E8340020B8340020F8B506464B
:1080700050B305460FCD154F3C460FC495E8070099
:1080800084E807003068124B3B60B8B1FFF7F2FE9E
:10809000D8B931680A681A604A685A600D480E4AB1
:1080A0004FF6FF7303800D4B40F8043F002110F0A2
:1080B000B7FE002814BF03200020F8BD1846FFF7C4
:1080C000DBFE0028EAD0F8BD0E20F8BDB834002051
:1080D000E8340020D4340020A17E0200F0340020D7
:1080E000007800F0010070470620704730B541F27B
:1080F0000103984287B00D461446744B00F083800C
:108100001FD8012847D01B685B0460D5704B1B68E3
:10811000002B5CDD2F216F4814F01EFD002800F0BD
:10812000C9802F216B4814F017FD411C6A4B6B4A24
:10813000D3F80435009201957B22012004F09CFEC7
:1081400045E044F20102904200F0898044F20202CC
:108150009042D8D11B68590439D55D4B1B68002B60
:1081600035DD2F215B4814F0F7FC00286ED02F215D
:10817000584814F0F1FC411C574B2288D3F80435C1
:10818000039262680292564A009201956C22012085
:1081900004F072FE1BE01B685B0418D54C4B1B6897
:1081A000002B14DD2F214B4814F0D6FC10B32F21E7
:1081B000484814F0D1FC411C474B4A4AD3F80435D7
:1081C0000092029401956022012004F055FE4FF0C8
:1081D000A0434FF4F032C3F81825C3F80C25EFF391
:1081E000108372B64DF6AD6C3F4A1378002B6AD1FE
:1081F00007B030BD5C21374814F0AEFC08B15C21FB
:10820000D6E73449D8E71B685804E0D5304B1B68E3
:10821000002BDCDD2F212F4814F09EFC68B12F21AC
:108220002C4814F099FC411C2B4B304AD3F80435F0
:108230000092029401956322C6E75C21254814F060
:108240008BFC08B15C21EBE72249EDE75C2121487A
:1082500014F082FC08B15C218AE71E498CE71B6898
:108260005A04B4D51A4B1B68002BB0DD2F211948D6
:1082700014F072FCA8B12F21164814F06DFC411CBB
:10828000154B2268D3F80435049262680392029574
:10829000A2680192164A00920120772204F0ECFDB8
:1082A00095E75C210B4814F057FC08B15C21E3E72B
:1082B0000849E5E75C21074814F04EFC08B15C2151
:1082C00030E7044932E730BF8FE700BF782E002047
:1082D000742E002000CF030000100140A4CF030043
:1082E00064CF030028CF0300242E002042CF0300D8
:1082F00083CF030007B50023ADF800300146054BDE
:1083000001936A4644F20200FFF7F0FE03B05DF805
:1083100004FB00BF9BCD030001461022014814F06E
:108320003CBB00BF1035002010B5064C06490822A2
:10833000204614F032FB0822A0180449BDE8104082
:1083400014F02BBB1035002060000010A4000010BA
:108350000048704710350020002306491A46C81807
:10836000428042605A540833B3F5807FF7D1024B04
:108370001A6070472035002020360020F0B50C4BE5
:108380000C4C1B68064620227BB1013B14F83300DD
:1083900050B104EBC3056F88B74202D16D688D42BE
:1083A00002D0013AF0D11046F0BD1F23EEE700BF26
:1083B000203600202035002030B5084A084C1368CC
:1083C00004EBC3056960012104F833100B44202B32
:1083D00008BF00236880136030BD00BF2036002036
:1083E00020350020C0F30C038B42084438BFA0F5B1
:1083F0000050C01A70470000F0B50E4B0E4C1F68BD
:108400000022BA4213D0D10063185E6800230AE04C
:10841000655805EBC30E15F83350854202D1DEF8DE
:108420000400F0BD0133B342F2D10132E9E700208C
:10843000F0BD00BF243600202836002000B58DB0E6
:1084400040B99A1C06D0012201A88DF8042002939D
:1084500001F022F9034B186803F04EFD0DB05DF8F2
:1084600004FB00BF3036002010B50378044613B972
:108470007846FFF73FFFE079431C01209840013820
:1084800010BD0000F8B5037804460F4613B97846CE
:10849000FFF730FF0B4B0C4E1A68511C02F007021D
:1084A00006EBC2051960A38A6B80A188A069FFF75B
:1084B00099FF6860E36906F8327003F001036B709E
:1084C000F8BD00BF74360020343600202DE9F0419D
:1084D0000E468EB015461C46074610B97846FFF783
:1084E00009FF16B97846FFF705FF14B97846FFF77C
:1084F00001FF636A627802330593A378A2F1080052
:10850000002B14BF012102210DF104084242424117
:10851000434604F10C0003F022FE63788DF83430FA
:10852000237BADF82050022B16FA85F5CDF8188084
:1085300007970B960C950FD1236913B97846FFF76F
:10854000D9FE23690993102305A8ADF8283003F05C
:1085500002FE0EB0BDE8F0810023F5E738B5044611
:1085600004F13005C06E07F0AAF8284602F065FF56
:1085700010B1284602F02EFF94F84830022B08D1A3
:1085800004F15005284602F058FF10B1284602F0C9
:1085900021FF20467022002114F00AFA002084F8FE
:1085A0004800BDE8384002F07DB810B590F848307A
:1085B000012B8CB0044602D07846FFF79BFE0123C6
:1085C0008DF8043001A8636D029301F065F8204630
:1085D000FFF7C4FF0CB010BD4B1E012B2DE9F04777
:1085E00007468846914602D97846FFF783FEB9F5DB
:1085F000C07F02D97846FFF77DFE264B002570220A
:108600009A4602FB053494F848603EB9484607F0A4
:1086100054F8E06630B90020BDE8F0870135042D3C
:10862000EFD1F8E730223946204614F0B6F9E66477
:10863000A4F84A90B988B869FFF7D4FEB8F1010FE1
:10864000A0611CD1144B84F852601B7D84F851301A
:1086500084F8536084F85060BB6A63656FF001036F
:10866000A3620E4BA3632464012002F01BF8702365
:1086700003FB05A5204685F84880BDE8F0876FF02C
:108680000103A362064BA36584F868602466054B6A
:10869000E8E700BF9036002078360020658A0200A7
:1086A000159602005D8A02001FB500220B468DF868
:1086B0000F2028B30230086018460DF10F0103F0B7
:1086C0004CFD9DF80F30DBB1144B1B685B0717D5D1
:1086D000134B1B68032B13DD2F21124814F03CFAB7
:1086E00098B12F210F4814F037FA411C0E4B0F4A56
:1086F000D3F80435009204204FF4697204F0BCFBF7
:108700009DF80F0005B05DF804FB5C21054814F0EE
:1087100023FA08B15C21E5E70249E7E7782E00205B
:10872000742E0020F4CF03000010014011D003008C
:108730002DE9F04799461378D2F81880F2B0074631
:108740008A46144623B191884046FFF74BFE90615C
:10875000A3786278002BA2F1080003AD14BF0121B9
:10876000022104F10C06424242412B46304603F0FE
:10877000F6FC627808951FFA8AF5AB1A9BB2099746
:10878000ADF828301F440023ADF83030237B8DF83E
:108790003C20022B04BF1022ADF83020A2780E97A7
:1087A00012AFC4F818800D9704F12408002A5ED097
:1087B0004FF0000A237BC4F824A0022B04BF2369D6
:1087C0000B93206AE17842460FF052FF606A40BB8B
:1087D000237B022B05D13146E08910F00BF80028ED
:1087E000E8D1354B1B685B0718D5344B1B68052B4C
:1087F00014DD2F21324814F0AFF9002852D02F2178
:108800002F4814F0A9F9411C2E4B2F4AD3F80435F8
:108810000092062040F2176204F02EFB72B0BDE811
:10882000F08707A9FFF740FF0028CAD06178A28A25
:10883000ADF82A206D1A01218DF8281096E8030062
:1088400000230B938DF81C300CAB83E80300A37D51
:108850008DF84030236A0E9307A8636A0897ADF835
:1088600024500F93CDF8449000F016FFD6E7012B6B
:1088700062620CD000234146A08A63620FF03CFF85
:1088800007A9606AFFF710FF0028AAD0CEE741468B
:10889000E0890FF031FF07A9606AFFF705FF0028A4
:1088A000E8D0C3E75C21064814F056F908B15C2112
:1088B000A6E70349A8E700BF782E0020742E002009
:1088C000F4CF03000010014048D00300C37D0A78B4
:1088D00030B5002B3DD0837822F07F0203F07F0378
:1088E0001A430A700B78027803F07F0343EAC2133D
:1088F0000B70037863B34378083B5A425A414B7874
:1089000003F07F0343EAC2134B708A78858802F034
:108910000302C5F3861442EA850223F07F03234352
:10892000D2B28A704B70CB78857903F01F03C5F300
:10893000C10422F0030243EA45132243DBB2CB70A9
:108940008A70C27923F01F0302F01F021343CB7019
:1089500030BD83789B0122F0400203F040031343B3
:108960000B70C27823F03F0302F03F0213430B70F9
:10897000B8E7000038B590F84830012B044602D023
:108980007846FFF7B7FC02F071FD237B084A012B04
:1089900003BFA37D1569D168D16808BF05FB03112A
:1089A000014404F13000BDE8384002F02ABD00BFA8
:1089B0007836002070B50D4690B0044610B9784660
:1089C000FFF798FC00212046FFF75CFD2C220021D8
:1089D00005A8666D13F0ECFF0F2305A88DF8143081
:1089E00006968DF81C5000F057FE2046FFF7B6FDA6
:1089F000154B1B685B071BD5144B1B68032B17DD3E
:108A00002F21134814F0A8F8A0B12F21104814F01A
:108A1000A3F8411C0F4BD3F80435029594F8482075
:108A200001920D4A0092042040F2EF1204F024FA61
:108A300010B070BD5C21064814F08EF808B15C21BE
:108A4000E4E70349E6E700BF782E0020742E0020FB
:108A5000F4CF030000100140C3CF030008460021FB
:108A6000FFF7A8BF10B591F84830012B0C4602D093
:108A70007846FFF73FFC94F851305BB1013B84F836
:108A80005130002384F85030084BBDE8104018687E
:108A900003F032BA217B0129204603D1BDE8104002
:108AA000FFF788BFBDE81040FFF77FBD30360020DC
:108AB0002DE9F04F044687B00F4609B100230B6043
:108AC00094F850504FF0010804F10C09E2799542F6
:108AD00003D9002007B0BDE8F08FE16C08FA05F378
:108AE0000B4259D1E37DA571002B0CBF0C26082643
:108AF000954206FB05FA237808BFB4F84A60CDF822
:108B0000009008BFA6EB0A06002B14BF4FF0040B21
:108B10004FF0010B06EB0B030293A36A0193684627
:108B200094F82C308DF80C3003F0B5FC0028D1D12E
:108B3000059B9B4445B994F853302BB9A36984F83D
:108B40005380C3F30C03A380E37D8BB994F85230B8
:108B500073B915B17846FFF7CDFBB4F84A106278C7
:108B60008A1AE16E23460846FFF7B0FC84F852806B
:108B700005992046FFF7AAFEE16E32465144584659
:108B800013F00BFF684603F09EFC17B13B680133FE
:108B90003B606B1C84F850300135EDB296E7000065
:108BA0002DE9F041D47D8AB006460F461546984619
:108BB000002C00F092809478002C6BD106294AD1C9
:108BC000027843788178920102F4FE5242EA9302DD
:108BD000C3781B0443EA016341790B43017943EAFB
:108BE00001233F49084691F84860012E12D18F8A2F
:108BF000EE89B7420ED18E8896420BD1702202FBCD
:108C00000404E56C1D43E5648BBB03212046FFF79C
:108C1000D1FE20E00134042C01F17001E3D1314B8D
:108C20001B685B0717D5304B1B68012B13DD2F2109
:108C30002E4813F091FF88B12F212C4813F08CFFA0
:108C4000411C2B4B2B4AD3F804350092022040F2F2
:108C5000A55204F011F90AB0BDE8F0815C21234867
:108C600013F07AFF08B15C21E7E72049E9E72046E5
:108C7000FFF7FAFB854203D12046FFF796FCEAE7AF
:108C8000002184F850102046FFF712FF2046FFF71E
:108C900071FEE0E72046FFF7AFFB03460028DAD07D
:108CA00005F10C012A6A089203C9AA8AADF81620B8
:108CB00006AA82E80300AA7D8DF824202A788DF880
:108CC000142095F82C208DF80840039604978DF811
:108CD0002520414602A89847BDE7FFF729FDBAE7DE
:108CE00090360020782E0020742E0020F4CF030050
:108CF0000010014071D00300F0B5C37D15464278E5
:108D0000002B2A4414BF4FF480734FF4C073934276
:108D1000C7B00E4677D33F4B03F5E07193F8484058
:108D2000012C07D19F8A848AA74203D1DF89C48995
:108D3000A7426AD070339942F0D10121FFF74CFC71
:108D40000446002863D02A463146C06E13F025FE43
:108D5000002304A920460493FFF7AAFE30F004057F
:108D600006464BD1049B13B12046FFF703FE2A4B66
:108D70001B685B0728D5294B1B68032B24DDB4F83F
:108D80004A10274B8029186828BF8021002305AE90
:108D90008B421CD100222F21224806F8132013F009
:108DA000DBFE10B32F211F4813F0D6FE411C1E4BD3
:108DB0001E4AD3F8043501921D4A0092029640F2F1
:108DC000CF42042004F058F8284647B0F0BDE26EC8
:108DD000D25C170902F00F02C75D06F81370875CBA
:108DE00006EB430201335770D2E75C210D4813F0C4
:108DF000B3FE08B15C21D6E70A49D8E72046FFF761
:108E0000ADFB3546E0E70925DEE70825DCE704256C
:108E1000DAE700BF90360020782E0020742E002064
:108E20007C2E0020F4CF030000100140E6CF0300A9
:108E300056CD03002DE9F041044686B0808A0F46E6
:108E4000164601F0D7FE01284BD1237B002B48D0DA
:108E5000022B02D12369002B43D094F91630002B4A
:108E600041DB23784BB1324639462046FFF744FFB9
:108E70000546284606B0BDE8F081E27D6378002A09
:108E8000334414BF0B220F22934228D8013302939C
:108E900004F10C030093A36A0193684694F82C3004
:108EA0008DF80C3003F0F7FA05460028E1D105995A
:108EB000204601F10108FFF709FDE37D43B1324689
:108EC0003946404613F069FD684603F0FCFAD0E7E6
:108ED0002346324641463846FFF7F8FAF4E70925BB
:108EE000C7E71025C5E70725C3E7000010B54FF415
:108EF000E0720021144813F05BFD002404F0FEFE34
:108F0000124B13481C602146402213F051FD114BB7
:108F10001148124A12499C7583E805004CF2503200
:108F20009A601A6104221A750E48D96008225A758F
:108F300002F0C4FF0C4B18600C4B0D481C60BDE8E0
:108F4000104004F0D5BF00BF9036002074360020DA
:108F5000343600207836002080969800F0490200D0
:108F600020A107006991020030360020243600203D
:108F70003D840200F0B504468DB000284FD005694D
:108F8000002D4CD0C369002B49D08669002E46D0F5
:108F90005A788DF803201A780993037BC17A022B43
:108FA00004BF214B9B7D002B82F0010214BF0823DC
:108FB00004238DF802208DF80130828AC3F10F005E
:108FC00019B9824201DC082B2BD08242C8BF012193
:108FD0008DF8001051B113440B330C2193FBF1F3C6
:108FE000013B8DF8073000238DF8063094E803002C
:108FF00003AF87E803002189ADF81410A17A8DF83A
:109000001610216A0A910023294668468DF8173008
:1090100008968DF82C30FFF70DFF0DB0F0BD0E2037
:10902000FBE70720F9E700BF78360020F0B50346DC
:109030008DB00F4600283DD04468002C3AD0856999
:10904000002D37D0027C12F0FD0F35D002781106CA
:1090500034D48DF8022082680B2A98BF007B4FF031
:10906000000188BF012009918DF800008DF80110E2
:1090700030B1D01DC00801388DF807008DF80610FA
:1090800001218DF8171003F1100103C903AE86E822
:109090000300D989ADF81410197F8DF816105B7F85
:1090A0000895214668468DF82C300A97FFF7C2FED6
:1090B0000DB0F0BD0E20FBE71020F9E70720F7E721
:1090C000F0B5077B012F8DB004460D4647D101AEA8
:1090D0000B220021304613F06BFCA1889DF8042080
:1090E0008DF80950C1F3861322F07F021A439DF8D0
:1090F00005308DF8042003F0030343EA81038DF863
:1091000005302B0E8DF806302B0C8DF807302B0A0E
:109110008DF8083006230693A38AADF82230002389
:1091200009938DF810308DF81C30E389ADF81E30AE
:1091300094F82C308DF82D30A37D226A8DF82070A4
:1091400005960A9243B96FF0010104A88DF82C30FE
:10915000FFF76CFF0DB0F0BD024B5B7DF3E7002025
:10916000F8E700BF78360020F7B500241D4E2746EB
:10917000351995F84830012B0BD101A928460197E4
:10918000FFF796FC042801D0019B13B12846FFF796
:10919000F1FB7034B4F5E07FEAD1124C04F5E075D0
:1091A00094F84830022B17D194F86830022B13D171
:1091B000E16C2046FFF784FF70B984F86800204610
:1091C000E66CFFF751F9864206D120460121FFF7F0
:1091D00059F92046FFF7C2F97034AC42E0D10120C2
:1091E00003B0F0BD903600202DE9F0470D469CB04D
:1091F000144698460646002800F0F181002A00F047
:10920000EE810DF10C0900210822484613F0D0FB35
:10921000494660880FF0EEFA20B9002738461CB0A6
:10922000BDE8F0872269E168208902F0010204F0BC
:1092300035FD82460028F0D12269E168208902F0DC
:10924000010204F0FFFC0746A8B12C22514610A8E9
:109250002589247C13F0ACFB0E238DF840309DF85B
:109260004630ADF8445064F3000310A88DF8463042
:1092700000F012FAD2E70DF14C0A182221465046AE
:1092800013F08BFB337803F08002111C18BF01210F
:109290008DF840109DF85710E1B103F07F038DF871
:1092A00042308DF841705AB37278B378920102F46B
:1092B000FE5242EA9302ADF84420DB00F27803F05C
:1092C000180343EA521302F01F028DF846308DF85E
:1092D000472015E0C3F380118DF8421003F03F01E1
:1092E0008DF84310190608D596F90130002BACBF54
:1092F000042308238DF84130D5E704238DF841304D
:109300000023199398F80030052B02D97846FEF710
:10931000F1FF98F80030B54A99E80300D35C8DF866
:109320006C308AE8030002F059FD9DF84030002BB4
:1093300000F04E81AE4BBDF854200024194693F83E
:10934000480002280DD1988A90420AD1702303FB6D
:109350000414BDF84420A3889A4230D202F07EFD66
:109360005CE70134042C03F17003E8D100249DF87C
:10937000403013B97846FEF7BDFF179BBDF8441087
:109380001698BDF854A003F00109FFF72BF8994B8C
:1093900000229E465968884217D15988514514D1F8
:1093A0005978494511D11EF83230002BD6D010A87B
:1093B000FFF75AF8014610A8FFF782FECEE7D6D98C
:1093C00005212046FFF7F6FAD0E70132082A03F11B
:1093D0000803DFD1002C51D19DF857209DF847306C
:1093E000002A0CBF0C24082403FB04440CBF4FF4D8
:1093F000C0734FF480739C4226D97F4B1B685A0779
:10940000ACD57E4B1B68002BA8DD2F217C4813F0C8
:10941000A3FB80B12F217A4813F09EFB411C794BAE
:10942000794AD3F80435009201944FF44D7201202B
:1094300003F022FD92E75C21714813F08DFB08B127
:109440005C21E8E76E49EAE72246022110A8FFF70F
:10945000C3F8044690B9014610A8FFF731FE2C224C
:10946000214605A813F0A4FA0F238DF8143005A89F
:1094700002238DF81C3000F00FF96FE75E4B1B687C
:109480005B071CD55D4B1B68032B18DD2F215C4847
:1094900013F062FB002800F08A802F21584813F057
:1094A0005BFB411C574B9DF84620D3F804350192D5
:1094B000564A0092042040F24F3203F0DDFC94F84B
:1094C0004830022B02D07846FEF714FFDFF84091B7
:1094D000D9F800A001F0CAFF0AEB000104F1300046
:1094E00001F08FFF237B012B1CD194F86830CBB99E
:1094F00094F84830022B02D07846FEF7FBFED9F8EC
:10950000043099F81510D9F8082002FB013901F050
:10951000ADFF00EB090104F1500001F072FF0123DF
:1095200084F868309DF84630E16C01209840014293
:109530007FF414AF0143E164E1799942A5F104029B
:109540009DF857103CD1002914BF08210C2103FBC2
:109550000121E56EA4F84A100CBF0C20082000FB86
:109560000350311D13F019FA2046E56CFEF77CFF1D
:1095700085427FF4F3AE022384F86830E16C204624
:10958000FFF79EFD434605462246B4F84A10E06EBA
:10959000FFF706FB002D7FF4E1AE204684F868500B
:1095A0000121FEF76FFF2046FEF7D8FFD6E65C21CB
:1095B000134813F0D1FA08B15C216FE7104971E745
:1095C00079B90C2A0EE004212046FFF7F3F9C5E62D
:1095D000434610AA691E701CFFF7E2FABEE60E278A
:1095E0001CE6082AEFD1E56E1046B8E7BDCF0300B0
:1095F0009036002034360020782E0020742E002073
:10960000F4CF03000010014024D0030038D0030041
:109610007836002010B591F84830022B0C4602D065
:109620007846FEF767FE022384F86830E16C204636
:10963000FFF746FD08B984F8680010BD2DE9F04138
:1096400088460746E8B1124E3468C4B925464545F8
:1096500007D1104B1F605D60012333602046BDE8D9
:10966000F08107EBC5035B685BB117F835000306B3
:1096700009D450B1FEF7C0FE38B90135E7E704243C
:10968000ECE70E24EAE70B24E8E70F24E6E700BF47
:109690002436002028360020F8B5074610B9784651
:1096A000FEF728FE0F4E346894B10F4D01232B7046
:1096B00023791BB954F8043C384698472468002C99
:1096C000F6D12B78022B03D13168064C09B92970E9
:1096D000F8BD0B790E6813B1204603F055FB3146F7
:1096E000F4E700BF543800205038002010B504467D
:1096F00010B97846FEF7FEFD00232372211D0248B3
:10970000BDE8104003F01FBB5438002010B50446DC
:1097100010B97846FEF7EEFD074A1378013B012B9E
:1097200004D8022313700123237210BD211D0348A6
:10973000BDE8104003F028BB50380020543800200A
:109740000B888268D25A073222F00302134402883F
:109750009BB2043A934288BF00230B80704713B535
:109760008368CB1A02A921F8023DFFF7E9FFBDF893
:1097700006308068184402B010BD70B50646154624
:109780000C4611BB7846FEF7B5FDFEB17846FEF7F4
:10979000B1FD6B1E2344B3F1005F34D94FF080520A
:1097A000D2F80C2102F50022B3EB822F2ED2042D29
:1097B00002D87846FEF79EFD35800023043D738075
:1097C000B380B4602580A37070BD10B97846FEF7F1
:1097D00091FDB4F1005F12D94FF08053D3F80C31F2
:1097E00003F50023B4EB832FD3D34FF08053D3F88A
:1097F0000C3103F50053B4EB832FC7D2C9E7B4F59E
:10980000000FF2D8C2E7B3F5000F08D94FF080522D
:10981000D2F80C2102F50052B3EB822FC7D3784661
:10982000FEF768FDC3E738B5044610B97846FEF781
:1098300061FD6288A36813449B78012B02D17846AE
:10984000FEF758FDEFF3108572B6A268A1881144A7
:109850008B78032B0AD12046FFF781FFA368C31A38
:1098600063800023837005B962B638BD002393700E
:109870006380A380F7E7F8B50E461546044610B995
:109880007846FEF737FD16B97846FEF733FD628855
:10989000A36813449B78012B02D17846FEF72AFD7A
:1098A000002D37D02388043B9BB29D4232D8EFF382
:1098B000108772B66188A388EA1D22F003029942DC
:1098C00092B206D25B1A9A4212DD042027BB62B61E
:1098D000F8BD16D92088401A904209D29A42F4D88D
:1098E000032881BFA3685B1804229A700023638059
:1098F0006288A1688B188D5201229A700020336013
:10990000E4E7A26813449B78002BDED19370638058
:10991000A380EDE70920F8BDF8BDF8B50D46164661
:10992000044610B97846FEF7E5FC15B97846FEF70F
:10993000E1FCAB78012B02D07846FEF7DBFC2B88EC
:10994000B34202D27846FEF7D5FC16B97846FEF748
:10995000D1FCEFF3108772B60223AB70E1182E80B2
:109960002046FFF7EDFE6288A38893421FBFA368DD
:109970009B1800229A7007B962B6F8BD70B50D4603
:10998000044610B97846FEF7B5FC15B97846FEF7DF
:10999000B1FCEFF3108672B6A288A36813449A78DC
:1099A000042A06D1211D2046FFF7CAFEA288A3681B
:1099B00013449A78022A03D0032A08D0052003E032
:1099C00003229A702B60002006B962B670BD7846FB
:1099D000FEF790FCF7E738B5044610B97846FEF775
:1099E00089FCEFF3108572B6A088A16801448B78DA
:1099F000042B03D12046FFF7B2FE01468878831E70
:109A00005842584105B962B638BD38B5044610B958
:109A10007846FEF76FFCEFF3108572B6A088A16858
:109A200001448878C31E012B05D9831E5842584132
:109A300005B962B638BD2046FFF791FE0146F0E752
:109A4000F8B50D46044610B97846FEF753FC15B933
:109A50007846FEF74FFCEFF3108672B6AB78012B19
:109A600019D0032B22D1A288A36813449D4202D0AF
:109A70007846FEF73FFC0027AF70211D2046FFF718
:109A80005FFEA288A36813449B78042B00D1A780B3
:109A900006B962B6F8BD6288A36813449D4202D03D
:109AA0007846FEF727FC0023AB70F1E77846FEF717
:109AB00021FCEDE710B5EFF3108472B6828881685F
:109AC00011448B78042B02D1FFF749FE01468878B8
:109AD000B0FA80F0400904B962B610BD037942794A
:109AE0009B1A03F57F2303F6FF7300EB03307047E7
:109AF00010B5054884681C22002112F059FF204649
:109B0000BDE8104003F03EBF5838002070B51C4C33
:109B1000E36813B97846FEF7EDFB237E13B1784670
:109B2000FEF7E8FB6368092B02D97846FEF7E2FBF3
:109B3000144D0026636855F823309847022811D049
:109B400003280DD0012815D163680133092B636008
:109B500002D97846FEF7CEFB237E002BEAD00DE03B
:109B60006660F9E7237E0BB1207070BDBDE87040E0
:109B7000FFF7BEBF00F0FD000128EDD070BD00BFB3
:109B800058380020A0D0030010B50388044613B94C
:109B90007846FEF7AFFB2088074B04EB800030EAE5
:109BA000030203D06288B2F5FE4F04D11C4004F5D5
:109BB00080542078204410BD00F0FFFF70B50446AB
:109BC0000E4647F6FE65FFF7DFFFB04207D284423C
:109BD00005D24388013B9BB2AB42F4D870BD002054
:109BE00070BD00000B78032B094B04BF00221A76CE
:109BF0001A78012A03D11B7E43B9FFF787BF022AD7
:109C000004D10B78032B01D1FFF772BF704700BF5F
:109C10005838002010B50C4CE3681878002203F582
:109C20008051184404F028F950B9E1680846FFF75C
:109C300055FF814206D001F58051E160032010BD3F
:109C4000012010BD022010BD583800201FB50A4B5E
:109C500002221B688DF800200193084A4FF48053BC
:109C600069460120029300F005FFB0FA80F0400938
:109C700005B05DF804FB00BF783800207438002080
:109C80001FB501230190039102926946044A8DF8A1
:109C90000030184600F0EEFE05B05DF804FB00BF92
:109CA000743800202DE9F047264BD86802794179B5
:109CB000013A91421E4603D101205876BDE8F08753
:109CC00000F5805320491C781C440B6813F8045F8E
:109CD0001D44FFF703FF6388013B9BB247F6FE621A
:109CE000934200F58057884604D920463946FFF74D
:109CF00065FF0446DFF854A04FF0010934B9B4FA07
:109D000084F4640974760120BDE8F087D8F8001067
:109D10006288284601F5805104F0AEF80546002817
:109D2000EDD004225146204686F81890FFF7A8FF90
:109D300028B920463946FFF741FF0446DEE70020F8
:109D4000BDE8F087583800207838002040D2030062
:109D500038B5104CE36818784FF6FF7203F5805160
:109D6000184404F089F888B1E36819780B449842E4
:109D70000CD0657E084B09490422002D08BF194606
:109D8000FFF77EFF20B90120207638BD012038BDC5
:109D9000002038BD5838002044D2030048D20300C8
:109DA00070B50C4D0C4EE96830680C7804302246D2
:109DB000FFF766FF58B9336804F0FC0404341C4410
:109DC000EB686C611A7813442B61012070BD002090
:109DD00070BD00BF583800207838002008B5054B0A
:109DE000054918680422FFF74BFFB0FA80F04009DC
:109DF00008BD00BF783800206438002010B5074B3C
:109E0000074C1968E06840F6FC720431FFF738FF30
:109E100010B90120207610BD002010BD7838002038
:109E20005838002010B50C4CE1680846FFF756FE84
:109E300081420AD1094B0A4918680422FFF720FF22
:109E400040B901232376022010BD01F58051E16065
:109E5000032010BD002010BD5838002078380020A5
:109E60007C3800202DE9F74F334C236913B978462D
:109E7000FEF740FA636913B97846FEF73BFADFF85C
:109E8000BC9047F6FE6A63692769E06803EA09083F
:109E9000A8EB0308FFF722FE7B88013B9BB25345EA
:109EA00008F5805800F5805B06D938465946FFF71B
:109EB00085FE0746002837D03D4600265D4519D26D
:109EC0002A8806EB8202904509D987EA050313EA3E
:109ED000090F04D16B88013B9BB2534502D956B997
:109EE00001231AE028460192FFF74EFE019A05462B
:109EF0001646E3E7F6B1324639466069FFF7C0FE21
:109F0000A0B9636926F003063344636115B9784646
:109F1000FEF7F0F92561002335B1698847F6FF7235
:109F2000914201D0002BAED0012000E0002003B010
:109F3000BDE8F08F0123EFE75838002000F0FFFF65
:109F40001FB50A4B0222DB688DF800200193084AF6
:109F50004FF4805369460120029300F08BFDB0FA64
:109F600080F0400905B05DF804FB00BF58380020C0
:109F70007438002010B54FF010235A69013225D0F3
:109F80005A691AB35B69A3F58053A3F58053174A46
:109F9000196813604B1E033325D8C1F30B0313BBA1
:109FA000134A1448D1600121117013491376537676
:109FB000936051F8234084420ED153600F49012031
:109FC00000F048FDFFF7A2FD012010BD4FF08052C8
:109FD000516913694B43D8E701330A2BE9D178461D
:109FE000FEF788F9EAE7002010BD00BF78380020AE
:109FF00058380020419F0200A0D00300E59B0200DA
:10A0000010B5044610B97846FEF774F9094B187874
:10A0100070B1E068D9684379A0EB0333994206D365
:10A02000FFF75CFD81428CBF0020012010BD0020A5
:10A0300010BD00BF58380020024B1878003018BF00
:10A04000012070475838002038B50E4C237805465B
:10A0500013B17846FEF74EF92B78032B02D07846E1
:10A06000FEF748F9EB68E360012000230649A5608C
:10A07000636023762070637600F0ECFCBDE8384026
:10A08000FFF744BD58380020E59B0200014B1868DB
:10A09000704700BF7838002010B5044610B97846E4
:10A0A000FEF728F963681BB123680BB1A36813B9E5
:10A0B0007846FEF71FF9A3685A1E1A4202D0784666
:10A0C000FEF718F90023E360236110BD70B50E465A
:10A0D0000446F0B18368F3B1EFF3108572B60169FD
:10A0E000C368994203D105B962B605250FE04EB1A8
:10A0F0008368013B0B4090E80600304602FB0311E9
:10A1000012F04BFC23690133236135B962B628464E
:10A1100070BD0E25FBE70925F9E70025F7E70000EC
:10A12000024AD2F80034002BFBD0704700E0014017
:10A13000C0F30B0310B5E3B9E9B1104C0223C4F826
:10A140000435FFF7EDFF01F6FF7121F47F6121F087
:10A150000F010144884205D10020C4F80405FFF72F
:10A16000DFFF10BDC4F80805FFF7DAFF00F58050E7
:10A17000F0E7102010BD092010BD00BF00E0014035
:10A1800070B540EA010414F003041BD1E2B1950755
:10A190001AD10E4E0123C6F804359508FFF7C0FF0B
:10A1A000AC4205D10020C6F80405FFF7B9FF70BD29
:10A1B00051F824305A1C03D040F82430FFF7B0FF88
:10A1C0000134EDE7102070BD092070BD00E00140B2
:10A1D0004388012B05D0022B01D1043008600120F7
:10A1E000704704304860FAE708B5082202210948A0
:10A1F00003F01FFA20B90848BDE8084003F09ABBF5
:10A20000064A91684160127B0272BDE8084003F083
:10A210003FBA00BF88380020382E0020D4380020F4
:10A2200010B5044610B97846FEF764F82346BDE839
:10A230001040184738B50E4D2B78C3B90D4B5C68EC
:10A2400004F50054B4F1807F11D8042201210A489A
:10A2500003F0EFF920B90948BDE8384003F06ABBC4
:10A26000012344602B70BDE8384003F011BA38BDBB
:10A27000E8380020D438002088380020282E00201C
:10A2800010B501210C4803F019FA80B902210A48DF
:10A2900003F014FA044650B901461422074812F09C
:10A2A00087FB074B1C70BDE81040FFF7C3BF054894
:10A2B00003F040FBF7E700BF88380020D4380020C7
:10A2C000AC380020582E002030B50D468DB07AB93C
:10A2D0004B88012B0AD1124C227812B97846FEF72E
:10A2E00009F8104B6A685A60002323700DB030BD26
:10A2F000032A02D07846FDF7FDFF2C22002101A899
:10A3000012F056FB10238DF80430074B0395DA68E2
:10A310001B69059201A80693FFF7BEF9E6E700BFA7
:10A32000E8380020D43800208838002013B501F028
:10A3300055FD00216B46124A12480091019103F02D
:10A34000CBF8009B104C0BB1019A6AB90023236033
:10A35000A3602373FFF748FF23686360FFF76AFF7A
:10A3600001F07CFD02B010BD1968A160197921735C
:10A37000934203D91B790BB92360EDE71368FBE720
:10A38000D1A1020088380020D438002008B503F09D
:10A390001FFBA0F5805008BD7FB50021182268463C
:10A3A00012F006FB00230293FFF7F0FF0123009059
:10A3B00001936946054B0648039303F0A6F910B1D3
:10A3C000044803F0B7FA07B05DF804FBC9A2020025
:10A3D00088380020482E002008B5142200210A48A1
:10A3E00012F0E6FA01F042F8084B094A9A60094A6D
:10A3F000DA60002258601A615A61074B1A70BDE892
:10A400000840FFF7C9BF00BFD4380020B038002093
:10A4100035A5020000879303E938002010B5074CEA
:10A4200023784BB90648074B036000F0B9FD064896
:10A4300000F0AEFF0123237010BD00BF8438002060
:10A44000C83800209DA50200B038002030B58DB07E
:10A4500001F0C4FC154B1A7B1D4622BB9A7B12BB34
:10A460001A8A41F282639A4202D8114B1B78D3B107
:10A4700001232B73AB6800240133AB602C82FFF700
:10A48000B3FEAB682A7B8DF80820013B0CA804932F
:10A49000022300F82C3D0394FFF7FEF801F0DEFCE8
:10A4A00020460DB030BD0824F8E700BFD4380020A6
:10A4B000E938002010B58CB001F090FC1B4B5A7BA2
:10A4C00042B1997B99B9188A41F28261884201D8D8
:10A4D000174A127802F001047AB1197B00225A73EC
:10A4E00039B101290ED07846FDF704FF05E00022BE
:10A4F000F0E7FFF7ABFF0028F5D101F0AFFC2046F5
:10A500000CB010BD1A605A601A731A820CA89B68AE
:10A510000493022300F82C3D8DF808200392FFF7E6
:10A52000BBF8FFF761FEFFF785FEE6E7D4380020B1
:10A53000E938002038B5174C257B2DB1012D12D0FC
:10A540007846FDF7D7FE21E0228A41F282639A42E3
:10A5500002D8114B1B78CBB1FFF7ACFF638A0BB16C
:10A56000013B638238BD238A41F28262934202D862
:10A57000094A157855B142F2B012934282BF0123C5
:10A5800000256373FFF796FF002DE7D0238A013380
:10A590002382E3E7D4380020E938002030B503787F
:10A5A000042B8DB00FD143681B7863B1224C4369F3
:10A5B000217B027E002939D1618A61BB012AA26810
:10A5C00003D0934204D80DB030BD0132934224D958
:10A5D000A2682A329342F6D8A27B002AF3D185687A
:10A5E000A36042F606532260626022826382627335
:10A5F0002273FFF7F9FDFFF71DFE237B8DF808306E
:10A600000CA80223A26800F82C3D10350492039593
:10A61000FFF742F8D7E7012AD5D1A2680132934269
:10A62000D1D101236373FFF745FFCCE70129CAD1DC
:10A63000012AC8D0A268F2E7D438002038B5164CF9
:10A6400094E80C009A4205461FD2207B1349144B14
:10A65000012808BF0B46934207D963682268403B34
:10A660009A4208D3FFF7E6FD05E001236373FFF785
:10A6700021FF0028F1D0EFF3108072B623685A1C36
:10A6800022602B6028B962B638BDFFF7D3FD0F20DA
:10A6900038BD002038BD00BFD438002000E0FF00E6
:10A6A000FFFF7F0010B50C4C30B10C4B01229A73A8
:10A6B00023681344236010BD236813B97846FDF75F
:10A6C00019FE2368013B23602BB9044A9373BDE84C
:10A6D0001040FFF7EFBE10BD80380020D4380020B6
:10A6E00000B58DB00323ADF808000CA88DF810203C
:10A6F00000F82C3D0391FEF7CFFF0DB05DF804FB91
:10A70000014B9868704700BFD4380020034B1A7B78
:10A710009868012A08BF00F1FF307047D438002044
:10A72000044B9B685840C20748BF03F1FF331846EB
:10A73000704700BFD4380020014B187B704700BF22
:10A74000D438002038B5094B1C7864B9084D012273
:10A75000A8601A702973FFF747FD2C606C60FFF743
:10A7600069FD204638BD082038BD00BFAC38002048
:10A77000D43800202DE9F8431D4CDFF878900026EE
:10A780000221204602F075F95FFA86F80546002797
:10A79000ADB967B12946204602F0D3F9082806D1A1
:10A7A00054F8043C1BB12A464946404698470136B6
:10A7B000032E04F1BC04E3D10120BDE8F88354F872
:10A7C000043C23B134F80C2C29464046984734F811
:10A7D0000C3C013324F80C3C0221204602F065F9C0
:10A7E0000221204602F045F901370546D0E700BFB7
:10A7F00000390020C8D0030038B5012104460C30D0
:10A8000002F037F9054620B3164BC4F89C300023FC
:10A81000C4F8A03003786268012B07D0022B1AD04D
:10A820007846FDF767FD4FF4FA7306E081688B1AEE
:10A83000990829234B4303F5FA730B4A934294BFBB
:10A84000C4F8A830C4F8A8200123C4F8AC4084F8A8
:10A85000B830284638BD83689B1A1A0B034B534304
:10A86000E9E700BF91A8020060850100084C0100E3
:10A8700010B50446FFF7C0FF48B104F19C0005F095
:10A88000B1FB20B17846BDE81040FDF733BD10BDE7
:10A890002DE9F74F4A4B1B7880460D463BB105F03A
:10A8A000D7FB002385F8B83003B0BDE8F08F01F185
:10A8B0000C09D1F8A8704846012102F0DAF80646E2
:10A8C00010B97846FDF716FDDFF8FCA0A7F5FA777A
:10A8D00000244FF0290B3378012BA7EB040406D09A
:10A8E000022B3BD07846FDF705FD00231FE06B6887
:10A8F000B268B4FBFBF4D21AA400944228BF1446F9
:10A9000024B901937846FDF7F5FC019BF168706866
:10A9100023F00303224619441844FFF731FC10B119
:10A920007846FDF7E7FC6B681C446C60B3686A68A6
:10A930009A422AD105F08CFB4846012102F0B5F875
:10A9400000236B6085F8B8301E4B186801F0D4FA0C
:10A95000284603B0BDE8F04FFFF78ABF6B68B268C6
:10A96000B4FBFAF4D21A2403944228BF144624B943
:10A9700001937846FDF7BEFC019B706823F003034A
:10A9800021461844FFF7D4FBC9E701F015F93378E5
:10A99000B0EB080448BFA8EB0004012B0DD0022B3C
:10A9A00006D1534623449F4295D205F051FBCFE791
:10A9B0007846FDF79FFC0023F4E72923F2E700BF68
:10A9C000F0380020EC380020084C0100F8B51E4893
:10A9D0001E4C01F073FA1E4B186004F11C0308278B
:10A9E00010260325636104F10C0004F118032361B0
:10A9F000A7736673257302F07FF804F1D803C4F8D7
:10AA0000D03004F1C80004F1D403C4F8CC3084F889
:10AA1000CA7084F8C96084F8C85002F06DF804F573
:10AA2000CA73C4F88C3104F5C87384F8867184F84D
:10AA3000856184F88451C4F8883104F5C270BDE89A
:10AA4000F84002F059B800BF75A70200F4380020A2
:10AA5000EC380020022838B504460D4602D9784665
:10AA6000FDF748FC024BBC2202FB0434A56038BD54
:10AA7000F438002002282DE9F84F07460C4692468C
:10AA800002D97846FDF736FC14B97846FDF732FC5A
:10AA90002378012B12D16368990702D07846FDF71D
:10AAA00029FCE3689A0702D07846FDF723FCA368E7
:10AAB0009B0711D07846FDF71DFC0DE0022B0DD150
:10AAC0006368C3F30B0313B17846FDF713FCA36867
:10AAD000C3F30B03002BEDD1A36813B97846FDF740
:10AAE00009FCEFF3108872B6BC257D43224E05F1B8
:10AAF0000C09B1440021484601F0BBFF834690B3E6
:10AB00000021484601F0D1FF10222146584611F09D
:10AB100044FFBAF1000F03D073195B88AAF8003024
:10AB2000BC2303FB07677B8897F8B84001337B8021
:10AB300004BB124B1F78BFB97019FFF75DFEB8F167
:10AB4000000F0ED162B6444640B105F19C0030447E
:10AB500005F048FA10B17846FDF7CCFB2046BDE879
:10AB6000F88F3C46F0E70424B8F1000FF6D1A04678
:10AB70000020E7E70024F7E7F4380020F038002051
:10AB800070B5EFF3108672B6154C236818BB13B975
:10AB90007846FDF7AFFB2368013B236093B9114D65
:10ABA00095F8B83013B92846FFF762FE95F874316E
:10ABB00013B90D48FFF75CFE95F8303213B90B4816
:10ABC000FFF756FE23680A4A003318BF01231370AB
:10ABD00026B962B670BD01332360F3E770BD00BFD4
:10ABE000283B0020F4380020B03900206C3A0020C7
:10ABF000F038002010B1800B014B185C704700BF8B
:10AC0000D8D0030012DF704713B5137863B1042B5B
:10AC10000CBF0723002310F8011C292962D005D896
:10AC2000162973D002B010BD537DF4E72A2927D02E
:10AC30002B29F7D1022BF5D110F8021C0139C9B22A
:10AC400003F082F804460028ECD0374B1B685B0603
:10AC5000E8D5364B1B68012BE4DD2F21344811F079
:10AC60007BFF002849D02F21314811F075FF411C8E
:10AC7000304B314AD3F8043500920194A42224E0E9
:10AC8000022B01D0072BCDD110F8021C013901F0A5
:10AC90003DFC04460028C5D0234B1B685A06C1D58D
:10ACA000224B1B68012BBDDD2F21214811F054FFE1
:10ACB00078B12F211E4811F04FFF411C1D4B1F4A38
:10ACC000D3F80435009201949122022002F0D4F8C6
:10ACD000A8E75C21164811F03FFF08B15C21E9E7C5
:10ACE0001349EBE7022B9DD110F8021C0139C9B2C0
:10ACF00002B0BDE810400FF0C3BB5C210C4811F05E
:10AD00002BFF08B15C21AFE70949B1E701884FF695
:10AD1000E463994286D110F8021C0230033902B074
:10AD2000BDE81040FDF7E0B9782E0020742E002019
:10AD300001D103000010014046D103001DD10300E2
:10AD400070B58AB005F01AFE0446002834D00023FE
:10AD50008DF8103006460FCE05AD0FC533682B6059
:10AD6000627D052A0CD9207D00F00F03072B07D048
:10AD700004AB063A04F11D0100F00F0004F0D0FC12
:10AD8000114B1A68AAB104AB0393237DC3F30303E9
:10AD90008DF80430637D062B89BF063B00238DF8B8
:10ADA000053004F11D0398BF8DF80530029301A80A
:10ADB0009047204605F0CCFD05F0F8FD80F001003D
:10ADC000C0B20AB070BD00BF303B002000B50A4BD6
:10ADD0001A78032A8DB00CD104221A7000212C227B
:10ADE00001A811F0E5FD1A2301A88DF80430FEF743
:10ADF00053FC0DB05DF804FB2C3B0020F7B52E4F43
:10AE00003A780546002A4DD100284DD0067A0F2EFB
:10AE100001D0062E4AD104F04FFCE86800283ED04D
:10AE2000FDF77AFA0DF10700FFF7ECFE044698BB38
:10AE30009DF80730012B3BD1FDF78EFA00F092FA16
:10AE4000304600F07BFFE87800F01AF900F0AEFD24
:10AE500005F066F8194805F041FE04F0D3FDFFF750
:10AE6000B5FD03F0DBFE00F04DFC04F0E1FB2846ED
:10AE700001F0F8FA2846FEF739F803F0D5FAFDF7A5
:10AE800033F908B1062815D10D4804F01BFC0D4B11
:10AE900000221A6001233B70204603B0F0BDFDF78D
:10AEA00043FABFE70824F7E70E24F5E70724F3E7A2
:10AEB0000224F1E70446EFE72C3B002041AD0200FD
:10AEC000682E0020303B002037B5234D2A78012A18
:10AED00005D002D3033A012A36D9082426E005F02A
:10AEE00019FD01F0D1FAFDF7FFF8044650B306282A
:10AEF00028D01A4B1B685B0418D5194B1B68012B13
:10AF000014DD2F21174811F027FE90B12F2115488D
:10AF100011F022FE411C144B144AD3F80435009260
:10AF200001944FF4CB72022001F0A6FF204603B03B
:10AF300030BD5C210B4811F00FFE08B15C21E6E743
:10AF40000849E8E700F026FF05F03EF8044600282F
:10AF5000ECD102232B70E9E72C3B0020782E002057
:10AF6000742E002001D1030000100140DCD003004A
:10AF700008B5084B1A78022A0AD1032206481A702B
:10AF800004F0F0FF28B17846FDF7B4F9002008BDC1
:10AF9000082008BD2C3B0020CDAD0200FDF7EABF24
:10AFA000FEF7A4BBFEF7B2BB08B500F0CFFC002053
:10AFB00008BD07F03DB80000044B1A680132B2F139
:10AFC000704F08BF01221A6018687047343B002098
:10AFD00010B5044610B97846FDF78CF900232360BC
:10AFE000636010BD38B50D46044610B97846FDF7CC
:10AFF00081F915B97846FDF77DF900236B60EFF311
:10B00000108372B6226822B92560656003B962B602
:10B0100038BD62685560F8E710B5044610B9784647
:10B02000FDF768F9EFF3108272B6206808B1436843
:10B030002360236803B9636002B962B610BD10B51E
:10B04000044610B97846FDF755F9206810BD35DF84
:10B050007047000008B54FF0FF30FFF7F8FFBFF36F
:10B060004F8F0549054BCA6802F4E0621343CB6079
:10B07000BFF34F8F00BFFDE700ED00E00400FA05CD
:10B0800007289ABF024B33F81000FA20704700BF20
:10B0900072D10300024B5868103840B2704700BFAD
:10B0A00000ED00E0084A202390FBF3F352F8233030
:10B0B000424202F01F0200F01F0058BF504223FA24
:10B0C00000F000F00100704700E100E046DF70474B
:10B0D00030B501F110031032103013F8014D12F8A1
:10B0E000015D8B4284EA050400F8014DF5D130BDC5
:10B0F0002DE9F047144690B002F10F051022884662
:10B100002D1101460DEB0200994604F00F0411F0D9
:10B1100044FC0DB1002C44D04FF0000A022610224E
:10B12000002108A811F044FC04A8FFF7CFFF01227A
:10B130000DF13F0110AB13F9100D1F46994234D1A8
:10B140009DF83F3001325B00DBB20028D2B2B8BFBD
:10B1500083F0870396428DF83F30EBD2013D6E4677
:10B16000BAF1000F2CD03A4608EB05113046FFF734
:10B17000AFFF10220021384611F01AFC0024AC4227
:10B1800034DB3A46314608A8FFF7A2FF04A8FFF7D0
:10B190009DFF10223946484611F0FFFB10B0BDE874
:10B1A000F0874FF0010A5646B9E793F801E093F8AB
:10B1B00000C04FEADE1E4EEA4C0E03F801EBBDE77D
:10B1C000224608EB0511684611F0E7FB10AB23445B
:10B1D0008022013403F8402C6C44A31B102B02D1B5
:10B1E0003A463146C2E704F801ABF6E708EB041231
:10B1F000394608A8FFF76CFF04A8FFF767FF013482
:10B20000BDE7000038B5124B1A6804462AB11A6827
:10B2100045685268AA1A002A0DDA1A6862611C6031
:10B220009A88013292B29A8012B97846FDF762F894
:10B230000123237038BD19684A691AB15068401B50
:10B24000002802DB62614C61EAE71146F4E700BFC7
:10B250003C3B002010B5124B1A68824204461A4645
:10B260000BD142691A609A8892B2511E89B29980B4
:10B270008AB97846FDF73EF80DE01B685BB1596965
:10B280008C420BD16169596193889BB2591E89B276
:10B290009180002BEDD00023237010BD0B46EDE70D
:10B2A0003C3B0020014B186800F026BE383B0020D4
:10B2B000044B1A6822B11B680349586800F062B950
:10B2C00000F0B6B93C3B0020A5B202002DE9F041E8
:10B2D00000F0CCF8224E054637464FF000083368A0
:10B2E00023B133685B685B1B642B06D400F0BEF8A7
:10B2F000FFF7DEFF0120BDE8F08134682378012BE1
:10B3000002D07846FCF7F6FF63693B60BB88C4F85F
:10B3100014809BB25A1E92B2BA8013B97846FCF7D9
:10B32000E9FFA36813B97846FCF7E4FF0223284637
:10B3300023702169A368984700F098F82378022BBE
:10B340000546CCD1E2680AB92270C8E763681344A5
:10B35000591B6429FBD463602046FFF753FFBEE707
:10B360003C3B002008B508220021064811F020FBD4
:10B37000054800F0A3FD054B1860BDE8084000F04B
:10B3800067B800BF3C3B0020CDB20200383B002034
:10B3900010B5044600F088FE10B97846FCF7AAFF05
:10B3A00014B97846FCF7A6FFA36813B97846FCF7F2
:10B3B000A1FF2378012B02D17846FCF79BFF0023E5
:10B3C00063612046FFF71EFF00F050F8BDE8104013
:10B3D000FFF76EBF10B5044600F066FE10B9784660
:10B3E000FCF788FF14B97846FCF784FF2046FFF786
:10B3F00031FF0023636100F039F8BDE81040FFF72A
:10B4000057BF38B504460D4600F04EFE10B97846D9
:10B41000FCF770FF14B97846FCF76CFF2046FFF785
:10B4200019FF0023636120466560FFF7EBFE00F023
:10B430001DF8BDE83840FFF73BBF0378DBB2012BB6
:10B4400004D00078831E5842584170471846704710
:10B4500008B50DF057FD38B90DF086FC20B17846DF
:10B46000BDE80840FCF746BF08BD000010B5EFF38B
:10B47000108072B60C4A0D4B1968D2F80435D2F818
:10B480000441012C04BFD2F80435013100B962B681
:10B49000074843EA01614FF480420023E0FB0123A7
:10B4A000D00B40EA434010BD00100140443B002057
:10B4B00040420F0010B50A4B0A4C4FF40032C3F85B
:10B4C0004823C3F80823226812B97846FCF712FF14
:10B4D0002468FFF7CBFF2346BDE81040184700BFA4
:10B4E00000100140503B002010B5EFF3108272B6FF
:10B4F0001F4B20480021C3F804110168013101608D
:10B5000002B962B61C4A116800292FD011680139AE
:10B510001160126852BB194AD3F8040511688842B9
:10B5200017D2EFF3108072B6D3F804151468013106
:10B53000A1422ABFD3F8042512680232C3F8442579
:10B5400000B962B64FF40032C3F84423C3F80423B1
:10B5500010BD0B4C226812B97846FCF7CBFE24686C
:10B56000FFF784FF2346BDE81040184710BD00BF19
:10B5700000100140443B0020483B00204C3B002091
:10B58000503B002037B50023044601930D4611B906
:10B590007846FCF7AFFE204B1D60FFF767FF031BEB
:10B5A000002BB8BF241A1D481D4AA8BF00244FF421
:10B5B000004500210023E5FB040111F00FF8EFF333
:10B5C0001083019372B6174A174CD2F8043502283B
:10B5D000C3F1FF1101F57F4138BF022088421349B2
:10B5E00010D80344C2F844354FF40033C2F8443352
:10B5F000C2F80433002323600B60019B03B962B6D9
:10B6000003B030BD03F17F43013303441A0E01320E
:10B61000226023F07F43EFE7503B002020A107008A
:10B6200040420F0000100140483B00204C3B0020EE
:10B63000074B4FF40032C3F84823C3F80823054AE8
:10B6400000231360044A1360044A1360704700BF6C
:10B6500000100140483B00204C3B0020503B0020A4
:10B6600030DF704731DF704710B5034605C89C686E
:10B67000D968A0EB721082EAF4320C440144104401
:10B680001A605C609960D86010BD37B50C460546FD
:10B6900010B97846FCF72EFE0023A34201D303B075
:10B6A00030BD0DF10700FFF7DBFF9DF80710002903
:10B6B000F7D0E21A914288BF8DF80720E8189DF86C
:10B6C0000710FFF7CFFF9DF807201344E5E70000C0
:10B6D00037B5044602A8002340F8043D0421FFF7D3
:10B6E000D4FF074B2360019B6360A360E3601425D4
:10B6F0002046FFF7B9FF013DFAD103B030BD00BFCE
:10B70000ED5EEAF1704748DF704749DF70474ADF76
:10B7100070470000064A032313741168054B5361F8
:10B7200040F6D862914288BF43F2B0629A60704797
:10B73000803B0020A03B0020054B1B68A0F1780255
:10B7400028335843034BB0FBF3F0101A704700BF87
:10B750009C3B002040420F0038B50E4A0E4C01239E
:10B7600063711368002501331360257400F07EFABD
:10B7700004F0DCFC2068FFF7DFFF084A014628469A
:10B7800000F0E8F920B17846BDE83840FCF7B2BDDA
:10B7900038BD00BFB43B0020803B002015B702003D
:10B7A0001D4B30B1DA6859690132DA601A680A440F
:10B7B0001A60996801221A745A69013152080129E4
:10B7C00099605A610DD0022919D05A691B68134932
:10B7D00013448B4203D840F6D7639A421BD8FFF735
:10B7E000BBBFB2F5FA7F03D130B900225A61ECE752
:10B7F00040F6D8618A42E8D840F6D862F6E7DA68BF
:10B80000022A03D11968054A521AEFE7012ADCD14E
:10B810000028EAD0D9E77047803B00208096980046
:10B8200070B5424C424E0123237133781BB1414B1A
:10B830001D78002D5BD000232374042853D8DFE843
:10B8400000F0034D4A4844003B4DA179AA68A3602B
:10B85000E36023682260002934D001212174374934
:10B86000002B08BF0B46991AB1F57A7F26D39A426E
:10B8700024D8616143F2B0620123AA6043F69822A2
:10B880006B71EA60A371237C023B012B0DD86379B5
:10B8900043B104F067FC2068FFF74EFF00F01CFA8C
:10B8A00000236371234B00221A70237C2448022B4F
:10B8B00004BF012323760023237170BD4FF47A73F4
:10B8C0006361D7E7FFF748FFD4E70120FFF768FF80
:10B8D000D9E70020FAE704F0DFFBD4E700F08CF9A9
:10B8E00004F012FCCFE77846FCF704FDCBE700F04C
:10B8F00063F933782060022B0FD0032B06D0012B85
:10B9000010D10223237400233370BCE70A4B0D4A85
:10B910009A600D4A5D71DA60A57103232374064BAA
:10B920006361F0E77846FCF7E5FCECE7803B00203C
:10B93000B13B0020B03B0020A03B00208096980047
:10B94000903B0020A0860100FF1FA107043808B526
:10B95000042825D8DFE800F016220A030F00114B57
:10B960001B7E012B1CD1FFF7D0FEC8B17846BDE885
:10B970000840FCF7BFBC0B4B00221A76BDE808401C
:10B9800004F028BC08480123437143F69823C360A0
:10B9900040F6D8638360FFF7BAFEE6E70248FAE7AD
:10B9A00008BD00BF803B0020A03B00200D4A10B521
:10B9B00043F2B06400230121946043F6982413708D
:10B9C00013715171D460084A1060084A1370084A14
:10B9D0001370084A1360084A137153711360137689
:10B9E000917110BDA03B00209C3B0020B03B00208B
:10B9F000B13B0020B43B0020803B002010B50E4C32
:10BA0000227E012A0CD004D3022A0CBF1120002070
:10BA100010BD0A48FFF777FE10B17846FCF76AFCC4
:10BA20000748FFF774FE10B17846FCF763FC022369
:10BA30002376002010BD00BF803B002021B802000B
:10BA4000A03B0020074B1B7C023B012B07D9064B78
:10BA50001878013802288CBF00200120704701208F
:10BA6000704700BF803B0020B13B0020014B1868AD
:10BA7000704700BF803B002010B5074B587948B194
:10BA80001868FFF759FE044600F096F80346201A9E
:10BA900048BF181B10BD00BF803B0020014B187928
:10BAA000704700BF803B0020024B187E003018BF5B
:10BAB00001207047803B0020EFF3108372B6054AE7
:10BAC000527922B1044A4FF48071C2F8001103B9CF
:10BAD00062B67047803B002000E100E0044B1B7E13
