:020000022000DC
:1060000000FD002085B50300ADB50300AFB503006A
:10601000B1B50300B3B50300B5B50300000000003F
:10602000000000000000000000000000B7B5030001
:10603000B9B5030000000000BBB50300BDB5030007
:10604000BFB50300BFB50300BFB50300BFB5030074
:10605000BFB50300BFB5030055750200BFB503000F
:10606000BFB50300BFB50300D9100300BFB50300DF
:10607000BFB50300BFB50300BFB50300BFB5030044
:10608000BFB50300BD9D0300E9C40200BFB5030016
:106090007D9E0300BFB5030011810200BFB5030060
:1060A000BFB50300BFB50300BFB50300BFB5030014
:1060B000BFB50300BFB503000000000000000000F2
:1060C000BFB50300BFB50300BFB50300BFB50300F4
:1060D000BFB50300BFB50300BFB50300000000005B
:1060E00000000000000000000000000000000000B0
:1060F00000000000000000000000000000000000A0
:10610000000000000000000000000000000000008F
:10611000000000000000000000000000000000007F
:10612000000000000000000000000000000000006F
:10613000000000000000000000000000000000005F
:10614000000000000000000000000000000000004F
:10615000000000000000000000000000000000003F
:10616000000000000000000000000000000000002F
:10617000000000000000000000000000000000001F
:10618000000000000000000000000000000000000F
:1061900000000000000000000000000000000000FF
:1061A00000000000000000000000000000000000EF
:1061B00000000000000000000000000000000000DF
:1061C00000000000000000000000000000000000CF
:1061D00000000000000000000000000000000000BF
:1061E00000000000000000000000000000000000AF
:1061F000000000000000000000000000000000009F
:1062000010B5054C237833B9044B13B10448AFF3F0
:1062100000800123237010BD3C2F002000000000EF
:10622000D0E103000C4B43B10C480D4910B5AFF35E
:1062300000800C48036823B910BD0A48036833B9CD
:106240007047094B002BF7D0BDE810401847064BAC
:10625000002BF5D0184700BF00000000D0E103007C
:10626000402F0020382F002000000000154B002B8D
:1062700008BF134B9D46A3F5803A00218B460F467D
:106280001348144A121A16F09DFD0F4B002B00D034
:1062900098470E4B002B00D09847002000210400A7
:1062A0000D000D48002802D00C48AFF3008016F016
:1062B0003BFD2000290000F0E1FD16F021FD00BFAC
:1062C0000000080000FD00200000000000000000A9
:1062D0003C2F0020B8560020000000000000000005
:1062E0003FDF704741DF704730B52D4B1446526891
:1062F0001B6887B00D465AB35A041ED5294B1B683C
:10630000032B1ADD2F21284816F030FEB8B12F21BB
:10631000254816F02BFE411C244B6268D3F8043547
:10632000049262780392227802926A880192204A4B
:1063300000920420A92206F0E5FF07B030BD5C21E1
:10634000194816F013FE08B15C21E1E71649E3E7AE
:106350005B04F2D5134B1B68032BEEDD2F21124893
:1063600016F004FE90B12F210F4816F0FFFD411CDE
:106370000E4B2278D3F8043502926A8801920D4AB6
:1063800000920420AE2206F0BDFFD6E75C2106484D
:1063900016F0ECFD08B15C21E6E70349E8E700BF31
:1063A000402E00203C2E002023D00300001001408E
:1063B0004BD003009DD0030010B54F4A4F4C1378CB
:1063C00086B0591C8DF80D30322305936423049355
:1063D0002368117059048DF80C001AD5484B1B68BE
:1063E000032B16DD2F21474816F0C0FD00283DD0B5
:1063F0002F21444816F0BAFD411C434B9DF80C2058
:10640000D3F804350192414A00920420D92206F0C3
:1064100079FF022304AA03A93D480DF0E3F80728F9
:1064200041D02CD878B304285ED123685A0416D5FD
:10643000334B1B68002B12DD2F21324816F096FDDE
:1064400040B32F212F4816F091FD411C2E4B314AAD
:10645000D3F804350092ED22012006F053FF062206
:1064600032214FF4F01000F0DDFF11E05C212548EF
:1064700016F07CFD08B15C21BBE72249BDE7082886
:10648000D3D01128D0E79DF80C10112000F0B6FFF2
:1064900006B010BD5C211B4816F068FD08B15C21F8
:1064A000D0E71849D2E723685B04D8D5144B1B68A2
:1064B000002BD4DD2F21134816F058FD58B12F21A1
:1064C000104816F053FD411C0F4B134AD3F8043506
:1064D0000092FB22C0E75C210A4816F047FD08B194
:1064E0005C21EDE70749EFE70028D1D0054A4FF4DA
:1064F000817115F072F8CBE7B02F0020402E0020FC
:106500003C2E002023D00300001001402DD30300B7
:10651000582F002048D3030061D303000020FFF769
:106520004BBF000007B5174B1B685B0416D5164B15
:106530001B68032B12DD2F21144816F017FDC0B184
:106540002F21124816F012FD411C114B114AD3F8AD
:10655000043500920420BC2206F0D4FE0322C82198
:106560004FF4F01000F05EFF03B05DF804EB00F0B4
:10657000B5BD5C21054816F0F9FC08B15C21E0E7E7
:106580000249E2E7402E00203C2E002023D00300E9
:1065900000100140E3D2030030B58A4C23685A044E
:1065A00087B0054618D5884B1B68032B14DD2F21B7
:1065B000864816F0DBFC78B32F21844816F0D6FC11
:1065C000411C834B834AD3F804350092019540F275
:1065D0004512042006F096FE00F030FD70BB2368E3
:1065E0005B0417D5784B1B68012B13DD2F217748EF
:1065F00016F0BCFCC8B12F21744816F0B7FC411C42
:10660000734B754AD3F804350092022040F24912C8
:1066100006F078FE07B030BD5C216C4816F0A6FC91
:1066200008B15C21C9E76949CBE75C21674816F0EE
:106630009DFC08B15C21DFE76449E1E7674813F09E
:1066400019FE20B1614A40F24D1114F0C6FF032D2E
:10665000E0D8DFE815F0040017001D001E0101203E
:10666000FFF7AAFE00224FF420315C4813F0BCFD76
:106670000028CFD0554A4FF4AB7107B0BDE8304089
:1066800014F0ABBF002007B0BDE83040FFF794BE68
:1066900009F0E6FC2368002840F0A8805D0417D5C7
:1066A000494B1B68032B13DD2F21484816F05EFC75
:1066B00080B32F21454816F059FC411C444B484AF1
:1066C000D3F804350092042040F2091206F01AFEB5
:1066D0009DF81430042262F3061303F0F303022240
:1066E00062F301038DF8143006AA42F2107304938A
:1066F000642342F80C3D4FF47A7307CA09F0BAFBE1
:1067000007283DD008280ED0002883D02F4A40F219
:106710002711B2E75C212D4816F028FC08B15C2156
:10672000C8E72A49CAE72368580417D5264B1B68CF
:10673000002B13DD2F21254816F018FCB8B12F21AE
:10674000224816F013FC411C214B264AD3F804358D
:10675000009240F21912012006F0D4FD06223221E7
:106760004FF4F01007B0BDE8304000F05BBE5C2194
:10677000164816F0FBFB08B15C21E1E71349E3E79B
:1067800023685904EAD5104B1B68002BE6DD2F2146
:106790000E4816F0EBFB60B12F210C4816F0E6FB1B
:1067A000411C0B4B104AD3F8043500924FF4907201
:1067B000D1E75C21054816F0D9FB08B15C21ECE774
:1067C0000249EEE7402E00203C2E002023D003009B
:1067D0000010014095D10300A8D10300902F0020A4
:1067E000C8D10300FCD103001DD203005A0417D501
:1067F0002C4B1B68032B13DD2F212B4816F0B6FB07
:1068000070B32F21284816F0B1FB411C274B284AB2
:10681000D3F80435009204204FF4977206F072FD0D
:1068200009F00CFC00283FF4F5AE08282AD12368B3
:106830005B0493D51B4B1B68002B8FDD2F211A485F
:1068400016F094FBA8B12F21174816F08FFB411CBE
:10685000164B184AD3F80435009240F237127AE703
:106860005C21114816F082FB08B15C21CAE70E4991
:10687000CCE75C210C4816F079FB08B15C21E3E71A
:106880000949E5E700283FF4C5AE074A4FF49F7178
:10689000F3E60CF075FD00F0C8FB07B0BDE8304032
:1068A000FFF740BE3C2E002023D003000010014023
:1068B00051D2030074D203003038032801D8FFF707
:1068C0006BBE704703781C2B01D1FFF72BBE7047BE
:1068D0007FB50378143B0446052B00F29080DFE877
:1068E00013F006008E0099007200BF00ED008F4D7E
:1068F0002A68530400F1040619D58D4B1B68032B3D
:1069000015DD2F218B4816F031FB18B32F21894854
:1069100016F02CFB411C884BA288D3F80435019259
:10692000864A009204204FF4C67206F0EBFC304613
:1069300009F0F0FA0828044615D8072815D2002CCB
:106940005DD07C4A40F2A111204604B0BDE8704001
:1069500014F043BE5C21774816F008FB08B15C21B7
:10696000D5E77449D7E70E28E9D12B685D0418D51F
:106970006F4B1B68002B14DD2F216E4816F0F6FAC2
:10698000C0B12F216B4816F0F1FA411C6A4B6C4ADA
:10699000D3F804350092019440F29912012006F0D8
:1069A000B1FC062232214FF4F01004B0BDE8704073
:1069B00000F038BD5C215F4816F0D8FA08B15C21C0
:1069C000E0E75C49E2E7594B1B68580417D5584B80
:1069D0001B68032B13DD2F21564816F0C7FA80B130
:1069E0002F21544816F0C2FA411C534B554AD3F894
:1069F00004350092042040F2A91206F083FC04B092
:106A000070BD5C214B4816F0B1FA08B15C21E8E793
:106A10004849EAE7454B1B685904C2D5444B1B68FB
:106A2000032BBEDD2F21434816F0A0FA78B12F21A9
:106A3000404816F09BFA411C3F4B434AD3F80435BB
:106A40000092042040F2AD1206F05CFCA9E75C2144
:106A5000384816F08BFA08B15C21E9E73549EBE7D5
:106A6000324B1B685A0419D5314B1B68032B15DDBB
:106A70002F21304816F07AFAB8B12F212D4816F0A0
:106A800075FA411C2C4BE288D3F8043501922F4A49
:106A90000092042040F2BB1206F034FC01211220C7
:106AA00004B0BDE8704000F0A9BC5C21214816F09C
:106AB0005DFA08B15C21E1E71E49E3E71B4B1B6867
:106AC0005B041BD51A4B1B68032B17DD2F211948BC
:106AD00016F04CFA00B32F21164816F047FA411C65
:106AE000154B227AD3F804350292E2880192184AB3
:106AF000009204204FF4E57206F004FC12200021FD
:106B000000F07CFC134813F0B5FB00283FF477AF8E
:106B1000084A4FF4E87118E75C21064816F026FA97
:106B200008B15C21D8E70349DAE700BF402E002016
:106B30003C2E002023D0030000100140C6D00300EB
:106B4000E9D0030007D1030027D1030041D103009E
:106B500066D10300902F002007B51E4B1B685B0415
:106B600017D51D4B1B68032B13DD2F211B4816F077
:106B7000FDF918B32F21194816F0F8F9411C184BEC
:106B8000184AD3F804350092042040F2DB1206F0D4
:106B9000B9FB1548154B036301210023836280F87C
:106BA0002C3080F82D300CF0EDFC80B10B4A4FF406
:106BB000F17103B05DF804EB14F00FBD5C210748E0
:106BC00016F0D4F908B15C21D5E70449D7E703B042
:106BD0005DF804FB402E00203C2E002023D0030053
:106BE00000100140C3D20300582F002094D20300AC
:106BF00030B56421C7B03B4800F0A6FB3A4A3B4899
:106C0000002113F0DFFA20B1394A4FF4067114F075
:106C1000E4FC384B1B7883B9374D0FCD05AC0FC45E
:106C200095E8030084E8030005A800F03BFB20B1D1
:106C30002F4A40F2262114F0D0FC01F0DDFC2F4B4E
:106C40001B685B042FD52E4B1B68032B2BDD2D4BB4
:106C500005AC19680023C25C150902F00F024D5DF6
:106C600004F813508D5C04EB43020133102B557074
:106C7000F1D100232F211E4884F8203016F076F938
:106C800030B32F211A4816F071F9411C1E4B1F4AD0
:106C9000D3F8043501921E4A009202944FF40B720D
:106CA000042006F02FFB00F00BFA20B1104A40F24E
:106CB0002E2114F092FC00214FF4F01000F0A9FBFB
:106CC0000222C8214FF4F01000F0ACFB47B030BDF9
:106CD0005C21074816F04AF908B15C21D2E7044963
:106CE000D4E700BFB96802001D650200A0D203000E
:106CF00023D003008C2F0020ECCF0300402E002077
:106D00003C2E0020442E0020001001407DD30300C3
:106D10008AD3030010B5044600214FF4F01004EBB1
:106D2000840400F076FB620032214FF4C010BDE80D
:106D3000104000F077BB00F0A9BB00001FB5304C3D
:106D40002268520417D52F4B1B68032B13DD2F210C
:106D50002D4816F00BF9002840D02F212A4816F0B4
:106D600005F9411C294B2A4AD3F804350092042026
:106D7000892206F0C7FA00F035FD00F067FD03A890
:106D800011F0BAFF23685B0419D51E4B1B68032B57
:106D900015DD2F211C4816F0E9F840B32F211A48C1
:106DA00016F0E4F8411C194BBDF80C20D3F804355B
:106DB0000192184A00920420922206F0A3FA00F0F1
:106DC00065FB00214FF4F01000F023FB0422C821E2
:106DD0004FF4F01000F026FB04B010BD5C210A480F
:106DE00016F0C4F808B15C21B8E70749BAE75C219E
:106DF000054816F0BBF808B15C21D0E70249D2E79C
:106E0000402E00203C2E002023D003000010014023
:106E1000FCD2030016D3030007B5134B1B685B04B9
:106E200016D5124B1B68012B12DD2F21104816F0CE
:106E30009DF880B12F210E4816F098F8411C0D4B9B
:106E40000D4AD3F80435009202209E2206F05AFA29
:106E500003B05DF804FB5C21054816F087F808B123
:106E60005C21E8E70249EAE7402E00203C2E0020A2
:106E700023D003000010014004D0030000B5414AB4
:106E800091B004214FF4C04006F022FA3E4B1B683B
:106E90005B0418D53D4B1B68032B14DD2F213C48A8
:106EA00016F064F8002863D02F21394816F05EF8F8
:106EB000411C384B384AD3F804350092042040F284
:106EC000FB1206F01FFA13F021F920B1304A40F20C
:106ED000FD1114F082FB00F0E9FA304800F012FBDB
:106EE00020B12B4A4FF4017114F077FB00F060FCE5
:106EF00003AC00F077FC00F0A9FC0022114620460C
:106F000000F058FB20B1224A40F2E91114F065FB71
:106F10000021242207A815F055FF01238DF81C300D
:106F200007238DF81F3006238DF824301C4B0B935C
:106F30001C491D4B0A9407A80F9300F08BF820B151
:106F4000134A4FF4F97114F048FB184804F042FA60
:106F50000120FFF7C5F920B10D4A4FF4037114F079
:106F60003CFB08F065FFFFF743FEFFF7BBF9FCE7CA
:106F70005C21074815F0FAFF08B15C2195E7044948
:106F800097E700BFA5D20200402E00203C2E002033
:106F900023D0030000100140A4D203009965020031
:106FA000C56802008C2F0020596B0200A02D002024
:106FB00003780D2B02D1002004F068BA704730B579
:106FC000837DC27D85B043EA02230446ADF80C30D0
:106FD00003A802230D46ADF80E3011F051FE10BB90
:106FE00002AA2146208A12F047F8E0B90DF10A03FF
:106FF0002A46BDF80810E08A12F038FA98B9217EC6
:10700000D4F8120001F0010103F0B6FD10B178468A
:1070100001F0C4FABDF80A000EF080FE18B9019024
:107020000FF00CFB019805B030BD08B50FF090FFD4
:1070300011F0AAFDBDE8084003F02EBB07B501A87A
:1070400011F05AFEBDF80400003018BF012003B053
:107050005DF804FB73B50E46054660B304F0E8F82E
:10706000044628BB11F0E8FD10F050FC28690EF032
:1070700025FE0446E0B92B7F0193AB6900930146DE
:107080006B690E4859220FF041F8044680B92B6A0B
:1070900003B1984708F03AF811F0EAFC0FF09EFDB2
:1070A000FFF7CCFF054608B10CF092F806B1357039
:1070B000204602B070BD0E24FAE700BFB42F0020B6
:1070C00008B5FFF7BBFF20B10CF03AF908B10CF09E
:1070D000C1F8BDE8084004F013B9000008B506F097
:1070E00087FE20B10020BDE8084004F0CFB9024877
:1070F000BDE8084004F06EB9AC2D002003490448F7
:1071000009690223002213F076BC00BF143000206E
:107110009C30002010B50378023B082B4AD8DFE8EA
:1071200003F01E051249493849493F00224B5B686C
:10713000002B3FD0007A00283CD0204A012111705A
:10714000BDE8104018471C4B9B68002B32D01B4AEF
:10715000117879B300211170BDE810401847184B21
:107160001A784AB9144BDB6813B114490A7098476E
:10717000BDE81040FFF7C2BF124B134801221A703E
:1071800004F028F904F00EF9A0B1BDE8104014F0A5
:1071900017BA094B0D485969102213F070FCF3E738
:1071A0008168C068FFF70BFF08B114F009FA044BBF
:1071B00001221A7010BD00BF1430002010300020D2
:1071C0001130002012300020B82D00209C3000200B
:1071D00030B5274D297885B019B1012803D003288F
:1071E0003FD005B030BD04AC002344F8083D214633
:1071F00000F03AFE08B114F0E3F9204600F09EFEDC
:1072000008B114F0DDF904A9012341F8043D0DF1A2
:10721000060012F00DF908B114F0D2F9BDF806001D
:1072200011F0AAFE0DF1050111F062FF08B114F092
:10723000C7F90BF0CDFF9DF8051000200CF0B6F853
:1072400010B1784601F0AAF904F05AF808B114F028
:10725000B7F900232B70074B1B68002BC1D0984750
:10726000BFE700F0D5FE0028BBD014F0A9F9B8E7BD
:10727000123000201430002008B503781A2B0CD1EE
:10728000064B1B784BB100F0FFFE08B114F098F9E3
:107290000348BDE8084004F09FB808BD1230002044
:1072A000B82D002070B51A4A1A4E5168044686B0AF
:1072B000106803AB03C31189927A19809A700FCCBE
:1072C00035460FC594E8030085E803007369EBB108
:1072D0001149124813F076FBB0B9114B00930E4AD6
:1072E0000E49104803AB13F03FFB68B90E4813F08A
:1072F0009DFF48B90C4813F0CFFF0146094813F031
:107300004DFB08B9FFF7FAFE06B070BD0720FBE79A
:10731000A2D30300143000202C300020D0310020F4
:10732000157102009C3000204C30002010B5054C37
:10733000226832B114F084FA002802DB23689847EF
:10734000F8E710BD10320020154B164A10B50C4658
:1073500018600121144812F035FF18B1134A4A2170
:1073600014F03BF9610C0023E00341F26F728B4291
:1073700008BF824210D24FF47A72002315F038FB16
:10738000014600220A4812F02FFF38B1074A4B216C
:10739000BDE8104014F021B90521F2E710BD00BF8F
:1073A000103200202D730200B0D30300B4D30300C9
:1073B0001432002038B50D4C206808B914F000F9DB
:1073C0004FF0A0450A4AD5F8043512685340C5F875
:1073D00004352368013B236033B9064812F04AFFA5
:1073E000054B1B68C5F8043538BD00BF343200209A
:1073F000383200203C3200206432002001234FF05C
:10740000A042834011B1C2F80C357047C2F808356C
:1074100070474FF0A04311B1C3F80C057047C3F893
:1074200008057047F8B542B3132926D9134B144DFC
:107430005200013A4FF0A0441A602860114BD4F872
:1074400004251A604FF400404FF4FA760027E0FB61
:1074500001674FF47A7200233046394615F0C8FAB6
:1074600000220146084812F0BFFE30B9D4F80435B6
:107470002A6823EA0203C4F80435F8BD3432002038
:1074800038320020643200203C32002008B5054824
:1074900012F0F0FE044B1A684FF0A043C3F8082521
:1074A00008BD00BF3C3200203832002008B54FF044
:1074B000A04303224FF40031C3F84427C3F8081552
:1074C0004FF48021C3F84827C3F808154FF4002172
:1074D000C3F84C27C3F80815C3F850274FF480129F
:1074E000C3F808250121054A054812F06BFE18B1C2
:1074F000BDE8084014F064B808BD00BFB5730200D1
:10750000D8D30300D8B10F4B0F4A18604FF0A043F7
:107510000020C3F83427C3F83827C3F83C27C3F842
:1075200040270A4B4FF00042C3F80423C3F87C0104
:10753000074BC02283F8062340221A6070470E20B2
:10754000704700BF5C3200200C0003000060004068
:1075500000E100E0124B70B50024124E124DC3F84A
:107560007C414FF0A043A15DD3F8102501238B404F
:10757000934311D00D49D5F804250B68981A48BFDC
:10758000D01A43F23333984206D9D5F804350B604C
:10759000074B20461B6898470134042CE1D170BD8D
:1075A00000600040DCD30300001001406032002086
:1075B0005C320020082A38B5054614460ED815F06E
:1075C000F6FBC4F108020021281915F0FBFB082284
:1075D0000349A81815F0EBFB002038BD092038BD81
:1075E0006000001072DF704773DF704774DF704710
:1075F000F0B52F4CA3B005460E46174600211022C9
:10760000204615F0DFFB2B482B4A03782B49C3EBB0
:10761000431E72440133714403F00103A2601F2230
:1076200003702160A280A28100213C2204A815F0F1
:10763000C9FB062301AA8DF813300E9201233C22C8
:10764000002113A88DF80230ADF820308DF83C30C1
:10765000ADF80050CDF824D0ADF80450ADF8087066
:10766000039615F0AFFB0223221D21688DF84C30E4
:1076700004A800F0D1F908B113F0A2FF104AA168E4
:1076800013A800F0C9F908B113F09AFF0D4A084990
:107690000D48FFF7A7FF082804D1002204490A4833
:1076A000FFF7A0FF08B113F08BFF23B0F0BD00BFC0
:1076B000A832002068320020B83200206932002051
:1076C000B4320020C82D0020C42D0020034B00EB55
:1076D0008000400098819960704700BFC82D00204D
:1076E00008B5064B01211878FFF77EFF08B113F0AB
:1076F00067FF0020BDE8084004F020BCC42D002036
:1077000008B5054B1878FFF771FF18B1BDE80840C0
:1077100013F056BF08BD00BFC42D002076DF7047B0
:107720007ADF70477CDF704713F04ABF03F056BE24
:1077300007B503784BB93B214088FFF7EFFF08B34B
:1077400003B05DF804EB13F03BBF012B1AD1134BD0
:107750001B685B0416D5124B1B68032B12DD2F210F
:10776000104815F003FC80B12F210E4815F0FEFBE8
:10777000411C0D4B0D4AD3F80435009204206822B9
:1077800005F0C0FD03B05DF804FB5C21054815F071
:10779000EDFB08B15C21E8E70249EAE7402E002052
:1077A0003C2E0020F6D303000010014026D4030035
:1077B00013B500F02DFC08B113F002FF02AC00235A
:1077C00044F8043D0120214600F04EFB08B113F0BF
:1077D000F7FE204600F0B2FB08B113F0F1FE02B054
:1077E00010BD00001FB59DF804301748012262F358
:1077F000030304AC62F3071304F80C3D15F0AEFB71
:10780000114982B22046FFF78DFF08B113F0D8FE70
:10781000082200210DEB020015F0D4FA7823ADF810
:107820000830C823ADF80A300023ADF80C3002A8A8
:107830004FF4C873ADF80E30FFF772FF08B113F0C4
:10784000BFFE04B010BD00BFE0D3030030B58BB065
:1078500001AD08220021284615F0B4FA782300244F
:10786000ADF80430C823ADF806301C224FF4C873BD
:10787000214603A8ADF80A30ADF8084015F0A2FA89
:1078800040F6CD4304934FF48033059303238DF8E2
:107890001830084B089303A8074B0395ADF81A401E
:1078A0008DF81C40099300F035FD08B113F088FEF7
:1078B0000BB030BD317702002977020070B5EFF3CD
:1078C000108672B60C4A946801239CB993600B4BE6
:1078D0000B4DD3F8801029401160C3F88050D3F8C5
:1078E000841051604FF0FF32C3F88420047006B951
:1078F00062B670BD0370FAE70C56002000E100E0AC
:10790000FC06FFBD10B5084B9A685AB150B9EFF3A9
:10791000108272B605491C680C605C684C60986007
:1079200002B962B610BD00BF0C56002000E100E0B5
:107930006DDF704779DF70477DDF704764DF704728
:107940002DE9F74F0C9CBDF834B027880025804600
:107950008A4691462E46B8F8002096420BDB35B198
:107960002288013AD21B92B2FF2A39D8DA55002078
:1079700003B0BDE8F08FD8F8042052F8260001903B
:1079800000220DF1030101A8FFF7D8FF0028EFD175
:107990009DF803204A4521D12288002D14BF0020E4
:1079A000022002EB09010144594519DC3DB90132BD
:1079B00092B2228003F802A022880132228022881B
:1079C0000DF103011A4401A8FFF7B8FF0028CFD139
:1079D00021889DF803200A44228001250136BAE758
:1079E0000C20C5E72DE9F341089CBDF8245017464B
:1079F0008DE8300002220646FFF7A2FF48B91022A8
:107A0000394630460995089402B0BDE8F041FFF7C9
:107A100097BF02B0BDE8F0812DE9F04F0023178831
:107A2000138090F82D3085B006460D46144643B3BA
:107A3000082F4ED902A8FFF77BFF002840F02081D5
:107A400013880822CA54238801339BB21B22238047
:107A5000CA542088013080B2208006220DF109012D
:107A6000284415F0A4F923889DF8082006339BB21A
:107A700012F0FE0218BF01222380EA54238801334A
:107A80002380B378FBB123880433BB4221D802A8FA
:107A9000FFF750FF002840F0F38023880322EA54C8
:107AA000238801339BB219222380EA542388BDF82E
:107AB000082001339BB2E9182380EA54120A4A7065
:107AC000238802332380F278AAB12388D91CB942D3
:107AD00001D90C20D4E00221E954238801339BB260
:107AE00001212380E95423880B449BB22380EA546C
:107AF00023880B4423807268AAB12388D91CB94219
:107B0000E7D8022192F90020E954238801339BB27F
:107B10000A212380E954238801339BB22380EA544D
:107B20002388013323803389002B40F09D80338AE2
:107B30005BB18DE890002B460722032106F110006F
:107B4000FFF750FF002840F09B80338B5BB18DE83E
:107B500090002B461522142106F11800FFF742FF72
:107B6000002840F08D80326A002A40F08C80D6F8E0
:107B70002480B8F1000F2ED0B8F804302188981C6A
:107B80008A1C0244BA42A4D8FE28A2D803336B54FC
:107B9000238801339BB2FF222380EA5423880133D8
:107BA0009BB22380B8F80020EA54E918120A4A7000
:107BB0002088023080B22080B8F804205AB1D8F86A
:107BC0000810002969D0284415F0F1F82388B8F886
:107BD00004201344238096F82C30002B40F098802A
:107BE000307800284CD03388012B56D021888A1C4D
:107BF000BA423FF66EAF012805D1737802330B44C9
:107C00009F42FFF466AF023F7F1A04A9BFB221F87A
:107C1000087DA818FFF790FE90BB3378BDF80820C8
:107C2000022B02D07178914202D3BA4240F2B68060
:107C3000012B40F0B08073789F42C0F0AC80ADF86B
:107C400008300821BDF80830FE2B3FF642AF2288ED
:107C50000133AB542288013292B22280A954228887
:107C60001344238000200BE08DE890002B46062271
:107C7000022106F10800FFF7B5FE00283FF457AFD8
:107C800005B0BDE8F08FB4F800E00EF10603BB428A
:107C90003FF61FAF1188052901D80720F0E76FF4E0
:107CA000486C01EB0C039BB24FF27D3C6345F4D969
:107CB0005388052BF1D96FF44860181880B26045DD
:107CC000EBD94FF6FF70814203D0834201D0994235
:107CD000E3D8052305F80E30238801339BB2122127
:107CE0002380E954238801339BB223801188E9540F
:107CF000E818090A4170238802339BB22380528816
:107D0000EA54E918120A4A702388023323802EE7C6
:107D1000B36A002BC1D04FF000094FF00C0A4FF0AE
:107D2000160B96F82C305FFA89F293427FF658AF23
:107D3000B16A0AFB02F201EB0208B8F80430981CA1
:107D4000FE283FF6C6AE208803332B542388013328
:107D50009BB2238005F803B0238801339BB22380B4
:107D60008A5AEA54E918120A4A702088023080B20E
:107D70002080B8F804205AB1D8F8081000298CD017
:107D8000284415F014F82388B8F8042013442380FD
:107D900009F10109C5E7ADF8087052E7092151E77B
:107DA00001600B6843604A68934204BF002343604C
:107DB0007047436843B1026891680B44436052685E
:107DC000934204BF0023436070474BDF70470000BD
:107DD0001FB50D4C01A8FFF7F8FF70B9214602A8A6
:107DE000FFF7DEFF039B002BF4D001981A68596857
:107DF000904702A8FFF7DDFFF4E7052801D013F054
:107E0000DFFB04B010BD00BF54D4030060DF704737
:107E100069DF704761DF704730B5114B1B78A9B03F
:107E2000E3B1104D94240DF1020103A8ADF8024016
:107E3000FFF7F0FF70B9294601A8FFF7B1FF029BD9
:107E4000002BF0D003A81A685968904701A8FFF7E3
:107E5000B0FFF4E7052801D013F0B2FB29B030BD24
:107E6000F632002060D40300F0B5074685B00D4619
:107E700000295ED0304B0B600C22002101A814F0C9
:107E8000A1FF012606232A68ADF8083001A92020A9
:107E90008DF804708DF80660FFF7BAFF0C22002100
:107EA00001A814F08FFF00242A688DF8056001A94D
:107EB00040208DF806408DF80740FFF7A9FF0C22FF
:107EC000214601A814F07EFF45232A68ADF806304C
:107ED00001A923208DF80470FFF79AFF0C22214698
:107EE00001A814F06FFF2A688DF8044001A93046FC
:107EF000FFF78EFF0C22214601A814F063FF4FF418
:107F0000B0632A68019301A9A120FFF781FF0C2229
:107F1000214601A814F056FF9DF804302A68334327
:107F200001A9A0208DF80430FFF772FF204605B0AC
:107F3000F0BD0E20FBE700BFA02D002008B5FFF725
:107F400065FF10B9014B01221A7008BDF6320020FE
:107F500010DF704711DF704713B5044609496846C2
:107F6000FFF71EFF019808B902B010BD0368416811
:107F70002046984718B16846FFF71BFFF2E711202B
:107F8000F2E700BF70D4030013B504460749684602
:107F9000FFF706FF019B0BB902B010BD20461A681F
:107FA000596890476846FFF704FFF3E788D4030059
:107FB000064B9A6822B11A6822F480021A60704750
:107FC000034B4FF48002C3F8802070470C5600200A
:107FD00000E100E00C4991F816335A09EC231341F3
:107FE000DB0708D442F2020013F0EABA1A6842F43E
:107FF00080021A607047054B9A68002AF6D14FF448
:1080000080030B60704700BF00E100E00C560020C9
:10801000F7B5184F3C785CBB174E012520463570EC
:10802000FFF79AFF112820D02046FFF7ADFF134B32
:108030001868019002A800F8054DFFF73FFC1049B1
:1080400001A8FFF785FF0446B0FA80F040093870B8
:108050009DF80300FFF756FC3CB90A4B34701C70C6
:10806000FFF7B8FF2846FFF78FFF204603B0F0BDAB
:108070000824FAE7F8320020F73200206CD403001D
:1080800095830200F9320020F7B5154F3B7813B302
:10809000144E01203070FFF75FFF11284FF00005EC
:1080A0001BD00220FFF770FF02A800F8015DFFF768
:1080B00005FCFFF74FFF04469DF807003D70FFF7F2
:1080C00021FC2CB93470FFF773FF0320FFF75CFF2E
:1080D000204603B0F0BD0824FAE72C46F8E700BFBD
:1080E000F8320020F732002007B508496846FFF74C
:1080F00057FE019B13B903B05DF804FB58681A687A
:1081000090476846FFF755FEF3E700BF7CD40300B5
:10811000FFF7EABF75DF704776DF70477ADF704799
:108120007BDF7047034B1A8882420CBF1846002041
:10813000704700BF18330020024B9B6903B11847FA
:10814000704700BFFC32002037B585B22846FFF7E4
:10815000E9FF034670B1164C017A227B91420BD2A3
:1081600000F10A012846FFF7D5FFE8B1112801D038
:10817000FFF7E2FF03B030BD237C0022027243B15F
:108180003B212846FFF7C8FF30F0080301D0FFF776
:10819000D3FF6369002BEDD000228DF80420ADF8E9
:1081A000065001A89847E5E71A7A01321A72E1E70A
:1081B000FC32002013B50B46497A0F4C024669B9D0
:1081C000A06861681C7A002C18BF0146586812F03C
:1081D0000BF808B1FFF7B0FF02B010BD0021197213
:1081E0006369002BF8D00121ADF806008DF804106A
:1081F00001A89847F0E700BFFC32002030B5838823
:108200000588B3F5FA7F24BF6FF4F9729C184A8889
:1082100038BF002495420CD84088904209D38A8800
:10822000A24206D303F2F310904234BF0020012093
:1082300030BD002030BD000070B50388112B014611
:108240002ED002D8102B05D070BD122B51D0502B40
:1082500035D070BDC37B012B4AD14FF6FF70FFF7BD
:1082600061FF054620B90420BDE87040FFF764BFF8
:108270008E88264A0680002303721368C5F80A30E8
:108280000A30536843601031FFF7B8FF204B687223
:10829000DB896BBB29463046BDE87040FFF78ABFDB
:1082A0008088FFF73FFF044610B3406811F0E2FFFB
:1082B00008B1FFF741FF4FF6FF73238070BD144BE9
:1082C000C288DB899A4213D1038A022B10D1868897
:1082D0003046FFF727FF054650B101F1120000F0CC
:1082E00053F80028D6D1686811F0C4FF0028BBD12C
:1082F00070BD86883046FFF715FF05460028F7D089
:1083000008310A30FFF77AFF6872C3E72C33002088
:10831000FC320020F8B5064650B305460FCD154F88
:108320003C460FC495E8070084E807003068124B0C
:108330003B60B8B1FFF7F2FED8B931680A681A603D
:108340004A685A600D480E4A4FF6FF7303800D4B82
:1083500040F8043F002111F035FF002814BF03202E
:108360000020F8BD1846FFF7DBFE0028EAD0F8BD74
:108370000E20F8BDFC3200202C33002018330020E2
:108380004981020034330020007800F0010070477A
:108390000620704730B541F20103984287B00D4680
:1083A0001446744B00F083801FD8012847D01B6807
:1083B0005B0460D5704B1B68002B5CDD2F216F4880
:1083C00014F0D4FD002800F0C9802F216B4814F070
:1083D000CDFD411C6A4B6B4AD3F8043500920195E0
:1083E0007B22012004F08EFF45E044F2010290421E
:1083F00000F0898044F202029042D8D11B685904EF
:1084000039D55D4B1B68002B35DD2F215B4814F0FF
:10841000ADFD00286ED02F21584814F0A7FD411C57
:10842000574B2288D3F80435039262680292564A69
:10843000009201956C22012004F064FF1BE01B6890
:108440005B0418D54C4B1B68002B14DD2F214B48C7
:1084500014F08CFD10B32F21484814F087FD411C07
:10846000474B4A4AD3F804350092029401956022A2
:10847000012004F047FF4FF0A0434FF4F012C3F87F
:108480001825C3F80C25EFF3108372B64DF6AD6CCA
:108490003F4A1378002B6AD107B030BD5C213748C2
:1084A00014F064FD08B15C21D6E73449D8E71B68B5
:1084B0005804E0D5304B1B68002BDCDD2F212F4802
:1084C00014F054FD68B12F212C4814F04FFD411CCD
:1084D0002B4B304AD3F80435009202940195632265
:1084E000C6E75C21254814F041FD08B15C21EBE7AB
:1084F0002249EDE75C21214814F038FD08B15C21E8
:108500008AE71E498CE71B685A04B4D51A4B1B68CE
:10851000002BB0DD2F21194814F028FDA8B12F2120
:10852000164814F023FD411C154B2268D3F804357E
:108530000492626803920295A2680192164A009220
:108540000120772204F0DEFE95E75C210B4814F051
:108550000DFD08B15C21E3E70849E5E75C21074828
:1085600014F004FD08B15C2130E7044932E730BF64
:108570008FE700BF402E00203C2E002094D4030043
:108580000010014038D50300F8D40300BCD4030028
:10859000E02D0020D6D4030017D5030007B5002333
:1085A000ADF800300146054B01936A4644F20200E3
:1085B000FFF7F0FE03B05DF804FB00BF4EDE0300E2
:1085C00001461022014814F0F2BB00BF54330020D2
:1085D00010B5064C06490822204614F0E8FB082294
:1085E000A0180449BDE8104014F0E1BB543300204A
:1085F00060000010A40000100048704754330020B1
:10860000002306491A46C818428042605A5408336B
:10861000B3F5807FF7D1024B1A60704764330020B6
:1086200064340020F0B50C4B0C4C1B68064620222D
:108630007BB1013B14F8330050B104EBC3056F88E4
:10864000B74202D16D688D4202D0013AF0D1104696
:10865000F0BD1F23EEE700BF643400206433002028
:1086600030B5084A084C136804EBC3056960012162
:1086700004F833100B44202B08BF002368801360DC
:1086800030BD00BF6434002064330020C0F30C030D
:108690008B42084438BFA0F50050C01A7047000054
:1086A000F0B50E4B0E4C1F680022BA4213D0D10019
:1086B00063185E6800230AE0655805EBC30E15F8E1
:1086C0003350854202D1DEF80400F0BD0133B342DD
:1086D000F2D10132E9E70020F0BD00BF683400208C
:1086E0006C34002000B58DB040B99A1C06D0012230
:1086F00001A88DF80420029301F0DAF9034B186801
:1087000003F01CFE0DB05DF804FB00BF84340020B4
:1087100010B50378044613B97846FFF73FFFE079B8
:10872000431C01209840013810BD0000F8B50378C3
:1087300004460F4613B97846FFF730FF0B4B0C4E3B
:108740001A68511C02F0070206EBC2051960A38AE1
:108750006B80A188A069FFF799FF6860E36906F85C
:10876000327003F001036B70F8BD00BFC834002005
:10877000883400202DE9F0410E468EB015461C4687
:10878000074610B97846FFF709FF16B97846FFF794
:1087900005FF14B97846FFF701FF636A6278023378
:1087A0000593A378A2F10800002B14BF0121022138
:1087B0000DF1040842424241434604F10C0003F02B
:1087C000F0FE63788DF83430237BADF82050022B17
:1087D00016FA85F5CDF8188007970B960C950FD1F2
:1087E000236913B97846FFF7D9FE2369099310234B
:1087F00005A8ADF8283003F0D0FE0EB0BDE8F0813A
:108800000023F5E738B50446134B006F984201D0BA
:1088100008F06BF804F13005284603F030F810B189
:10882000284602F0F9FF94F84C30022B08D104F1ED
:108830005405284603F023F810B1284602F0ECFF57
:1088400020467422002114F0BDFA002084F84C0068
:10885000BDE8384002F040B9E434002010B590F88B
:108860004C30012B8CB0044602D07846FFF796FEC0
:1088700001238DF8043001A8A36D029301F018F9CB
:108880002046FFF7BFFF0CB010BD00004B1E012BB0
:108890002DE9F04780468946924602D97846FFF78F
:1088A0007DFEBAF5C07F02D97846FFF777FE09F161
:1088B000FF335E422E4F5E41742303FB067393F831
:1088C0004C20002A40D1742505FB0675002E36D1B8
:1088D000284B3B67742404FB0674236F002B38D0AD
:1088E00030224146284614F062FA00222265A4F89C
:1088F0004EA0B8F80410D8F81800FFF7C7FEB9F179
:10890000010FA06129D11C4B84F856201B7D84F8EF
:10891000553084F8572084F85420D8F82830A365BF
:108920006FF00103A362154BA3632564012002F0DD
:10893000D3F8742303FB067686F84C900AE0504681
:1089400007F0D1FF2867C5E70136042E03F1740351
:10895000B5D100252846BDE8F0876FF00103A3627A
:10896000074BE36584F86C206566064BDCE700BFC7
:1089700064360020E4340020CC340020998D0200BD
:108980001D9A02001F8E02001FB500220B468DF8B3
:108990000F2028B30230086018460DF10F0103F0D4
:1089A000FEFD9DF80F30DBB1144B1B685B0717D53C
:1089B000134B1B68032B13DD2F21124814F0D6FA3A
:1089C00098B12F210F4814F0D1FA411C0E4B0F4AD9
:1089D000D3F80435009204204FF4697204F092FC3D
:1089E0009DF80F0005B05DF804FB5C21054814F00C
:1089F000BDFA08B15C21E5E70249E7E7402E002017
:108A00003C2E002088D5030000100140A5D50300AE
:108A10002DE9F04799461378D2F81880F2B007464E
:108A20008A46144623B191884046FFF72FFE906195
:108A3000A3786278002BA2F1080003AD14BF0121D6
:108A4000022104F10C06424242412B46304603F01B
:108A5000A8FD627808951FFA8AF5AB1A9BB20997B0
:108A6000ADF828301F440023ADF83030237B8DF85B
:108A70003C20022B04BF1022ADF83020A2780E97C4
:108A800012AFC4F818800D9704F12408002A5ED0B4
:108A90004FF0000A237BC4F824A0022B04BF2369F3
:108AA0000B93206AE178424610F054FF606A40BBA5
:108AB000237B022B05D13146E08911F013F8002801
:108AC000E8D1354B1B685B0718D5344B1B68052B69
:108AD00014DD2F21324814F049FA002852D02F21FA
:108AE0002F4814F043FA411C2E4B2F4AD3F804357B
:108AF0000092062040F2176204F004FC72B0BDE858
:108B0000F08707A9FFF740FF0028CAD06178A28A42
:108B1000ADF82A206D1A01218DF8281096E803007F
:108B200000230B938DF81C300CAB83E80300A37D6E
:108B30008DF84030236A0E9307A8636A0897ADF852
:108B400024500F93CDF8449000F0B2FFD6E7012BEC
:108B500062620CD000234146A08A636210F032FFAB
:108B600007A9606AFFF710FF0028AAD0CEE74146A8
:108B7000E08910F027FF07A9606AFFF705FF0028CA
:108B8000E8D0C3E75C21064814F0F0F908B15C2195
:108B9000A6E70349A8E700BF402E00203C2E002096
:108BA00088D503000010014007D60300C37D0A7872
:108BB00030B5002B3DD0837822F07F0203F07F0395
:108BC0001A430A700B78027803F07F0343EAC2135A
:108BD0000B70037863B34378083B5A425A414B7891
:108BE00003F07F0343EAC2134B708A78858802F052
:108BF0000302C5F3861442EA850223F07F03234370
:108C0000D2B28A704B70CB78857903F01F03C5F31D
:108C1000C10422F0030243EA45132243DBB2CB70C6
:108C20008A70C27923F01F0302F01F021343CB7036
:108C300030BD83789B0122F0400203F040031343D0
:108C40000B70C27823F03F0302F03F0213430B7016
:108C5000B8E7000038B590F84C30012B044602D03C
:108C60007846FFF79BFC02F023FE237B094A012B89
:108C700003BF1569D168A37DD16808BF05FB031147
:108C8000012284F84820014404F13000BDE8384056
:108C900002F0D9BDCC34002070B50D4690B004462A
:108CA00010B97846FFF77AFC00212046FFF73EFD19
:108CB0002C22002105A8A66D14F084F80F2305A826
:108CC0008DF8143006968DF81C5000F0F1FE204609
:108CD000FFF798FD154B1B685B071BD5144B1B68F2
:108CE000032B17DD2F21134814F040F9A0B12F21D9
:108CF000104814F03BF9411C0F4BD3F80435029592
:108D000094F84C2001920D4A0092042040F2EF1298
:108D100004F0F8FA10B070BD5C21064814F026F992
:108D200008B15C21E4E70349E6E700BF402E0020DC
:108D30003C2E002088D503000010014057D50300C9
:108D400090F855204AB1013A074B80F8552000228F
:108D500080F85420186803F0F1BA017B012901D191
:108D6000FFF79ABFFFF77ABD8434002038B5094C6D
:108D700004F5E87594F84C30012B06D194F848308E
:108D8000022B02D12046FFF7DBFF7434AC42F1D155
:108D900038BD00BF6436002091F84C30012B10B56F
:108DA0000C4602D07846FFF7F9FB07F059F930B1CD
:108DB000002007F0F7F8022384F8483010BD204661
:108DC000BDE81040FFF7BCBF70B5084E0546002453
:108DD000301990F84C30022B02D12946FFF75CFF86
:108DE0007434B4F5E87FF3D170BD00BF6436002061
:108DF00008B50378182B0CD0192B08D0172B0DD1E0
:108E00000820FFF7E1FFBDE80840FFF7AFBF0620ED
:108E1000F7E70720BDE80840FFF7D6BF08BD0846C2
:108E20000021FFF739BF2DE9F04F044687B00F4608
:108E300009B100230B6094F854504FF0010804F17D
:108E40000C09E279954203D9002007B0BDE8F08F04
:108E5000216D08FA05F30B4259D1E37DA571002B72
:108E60000CBF0C260826954206FB05FA237808BF9E
:108E7000B4F84E60CDF8009008BFA6EB0A06002BB0
:108E800014BF4FF0040B4FF0010B06EB0B030293E2
:108E9000A36A0193684694F82C308DF80C3003F0E7
:108EA00017FD0028D1D1059B9B4445B994F8573054
:108EB0002BB9A36984F85780C3F30C03A380E37D27
:108EC0008BB994F8563073B915B17846FFF766FB45
:108ED000B4F84E1062788A1A216F23460846FFF7CD
:108EE00049FC84F8568005992046FFF75FFE216F04
:108EF00032465144584613F05AFF684603F000FDCD
:108F000017B13B6801333B606B1C84F8543001356A
:108F1000EDB296E72DE9F041D47D8AB006460F46C2
:108F200015469846002C00F092809478002C6BD166
:108F300006294AD1027843788178920102F4FE52E0
:108F400042EA9302C3781B0443EA016341790B436D
:108F5000017943EA01233F49084691F84C60012E0C
:108F600012D18F8AEE89B7420ED18E8896420BD1EC
:108F7000742202FB0404256D1D4325658BBB032170
:108F80002046FFF789FE20E00134042C01F1740132
:108F9000E3D1314B1B685B0717D5304B1B68012BA6
:108FA00013DD2F212E4813F0E1FF88B12F212C482B
:108FB00013F0DCFF411C2B4B2B4AD3F804350092F5
:108FC000022040F2A55204F09DF90AB0BDE8F081FC
:108FD0005C21234813F0CAFF08B15C21E7E7204970
:108FE000E9E72046FFF794FB854203D12046FFF7CF
:108FF00035FCEAE7002184F854102046FFF713FF00
:109000002046FFF727FEE0E72046FFF749FB03462F
:109010000028DAD005F10C012A6A089203C9AA8A4D
:10902000ADF8162006AA82E80300AA7D8DF8242058
:109030002A788DF8142095F82C208DF80840039696
:1090400004978DF82520414602A89847BDE7FFF711
:10905000DFFCBAE764360020402E00203C2E0020C2
:1090600088D503000010014030D60300F0B5C37D61
:1090700015464278002B2A4414BF4FF480734FF4F6
:10908000C0739342C7B00E4677D33F4B03F5E871E8
:1090900093F84C40012C07D19F8A848AA74203D1C0
:1090A000DF89C489A7426AD074339942F0D1012183
:1090B000FFF7ECFB0446002863D02A463146006FD8
:1090C00013F075FE002304A920460493FFF7ABFEBE
:1090D00030F0040506464BD1049B13B12046FFF740
:1090E000B9FD2A4B1B685B0728D5294B1B68032B4E
:1090F00024DDB4F84E10274B8029186828BF802142
:10910000002305AE8B421CD100222F21224806F8F5
:10911000132013F02BFF10B32F211F4813F026FF4D
:10912000411C1E4B1E4AD3F8043501921D4A009281
:10913000029640F2CF42042004F0E4F8284647B0FB
:10914000F0BD226FD25C170902F00F02C75D06F86E
:109150001370875C06EB430201335770D2E75C2142
:109160000D4813F003FF08B15C21D6E70A49D8E7A0
:109170002046FFF747FB3546E0E70925DEE70825EF
:10918000DCE70425DAE700BF64360020402E00202B
:109190003C2E0020442E002088D503000010014002
:1091A0007AD503008AD303002DE9F041044686B046
:1091B000808A0F46164601F037FF01284BD1237BEA
:1091C000002B48D0022B02D12369002B43D094F905
:1091D0001630002B41DB23784BB13246394620460E
:1091E000FFF744FF0546284606B0BDE8F081E27D62
:1091F0006378002A334414BF0B220F22934228D8ED
:109200000133029304F10C030093A36A01936846AF
:1092100094F82C308DF80C3003F05AFB05460028EA
:10922000E1D10599204601F10108FFF7BFFCE37D7C
:1092300043B132463946404613F0B9FD684603F063
:109240005FFBD0E72346324641463846FFF792FAA5
:10925000F4E70925C7E71025C5E70725C3E70000A0
:1092600010B54FF4E8720021154813F0ABFD00244F
:1092700004F08AFF134B14481C602146402213F06F
:10928000A1FD124B1248134A1349D96083E8050027
:109290004CF250329A601A6104221A750F489C757C
:1092A00008225A7503F02CF80D4B18600D4B0E4830
:1092B0001C6005F063F80D48BDE8104002F08AB864
:1092C00064360020C834002088340020CC340020CC
:1092D00080969800F049020020A10700E594020062
:1092E0008434002068340020E5860200E42D00204C
:1092F000F0B504468DB000284FD00569002D4CD044
:10930000C369002B49D08669002E46D05A788DF863
:1093100003201A780993037BC17A022B04BF214BE7
:109320009B7D002B82F0010214BF082304238DF8DB
:1093300002208DF80130828AC3F10F0019B98242F0
:1093400001DC082B2BD08242C8BF01218DF8001010
:1093500051B113440B330C2193FBF1F3013B8DF816
:10936000073000238DF8063094E8030003AF87E848
:1093700003002189ADF81410A17A8DF81610216A26
:109380000A910023294668468DF8173008968DF813
:109390002C30FFF709FF0DB0F0BD0E20FBE70720D2
:1093A000F9E700BFCC340020F0B503468DB00F467E
:1093B00000283DD04468002C3AD08569002D37D074
:1093C000027C12F0FD0F35D00278110634D48DF8EE
:1093D000022082680B2A98BF007B4FF0000188BFF3
:1093E000012009918DF800008DF8011030B1D01DD9
:1093F000C00801388DF807008DF8061001218DF89E
:10940000171003F1100103C903AE86E80300D989E0
:10941000ADF81410197F8DF816105B7F0895214662
:1094200068468DF82C300A97FFF7BEFE0DB0F0BDF0
:109430000E20FBE71020F9E70720F7E7F0B5077BE0
:10944000012F8DB004460D4647D101AE0B220021FD
:10945000304613F0B7FCA1889DF804208DF8095020
:10946000C1F3861322F07F021A439DF805308DF870
:10947000042003F0030343EA81038DF805302B0E2B
:109480008DF806302B0C8DF807302B0A8DF808303C
:1094900006230693A38AADF82230002309938DF8A2
:1094A00010308DF81C30E389ADF81E3094F82C3064
:1094B0008DF82D30A37D226A8DF8207005960A92D2
:1094C00043B96FF0010104A88DF82C30FFF76CFF51
:1094D0000DB0F0BD024B5B7DF3E70020F8E700BF65
:1094E000CC340020F7B500241D4E2746351995F8D9
:1094F0004C30012B0BD101A928460197FFF793FCB3
:10950000042801D0019B13B12846FFF7A3FB743454
:10951000B4F5E87FEAD1124C04F5E87594F84C30C4
:10952000022B17D194F86C30022B13D1216D2046F9
:10953000FFF784FF70B984F86C002046266DFFF7B2
:10954000E7F8864206D120460121FFF7EFF82046D2
:10955000FFF758F97434AC42E0D1012003B0F0BDFC
:10956000643600202DE9F0470D469CB0144699461C
:109570000746002800F04182002A00F03E82104693
:1095800003AE06F073FD00210822304613F01AFCEA
:109590003146608810F0A6FA28B94FF0000840461E
:1095A0001CB0BDE8F0872269E168208902F0010261
:1095B00004F0BAFD82460028EFD12269E1682089D3
:1095C00002F0010204F084FD8046A8B12C2251462D
:1095D00010A82589247C13F0F5FB0E238DF840306C
:1095E0009DF84630ADF8445064F3000310A88DF8A0
:1095F000463000F05DFAD2E70DF14C0A1822214600
:10960000504613F0D4FB3B7803F08002111C18BFC6
:1096100001218DF840109DF85710E1B103F07F0350
:109620008DF842308DF841805AB37A78BB78920138
:1096300002F4FE5242EA9302ADF84420DB00FA78CD
:1096400003F0180343EA521302F01F028DF846306C
:109650008DF8472015E0C3F380118DF842101806ED
:1096600003F03F018DF8431008D597F90130002B26
:10967000ACBF042308238DF84130D5E704238DF8CF
:1096800041300023199399F80030052B02D9784610
:10969000FEF784FF99F80030734A96E80300D35C24
:1096A0008DF86C308AE8030002F0BAFD9DF8403076
:1096B000002B00F09B8106F0D3FC6C4BBDF85420CE
:1096C00006461946002093F84C40022C3FD19C8A54
:1096D00094423CD1742303FB0010BDF844208388DE
:1096E0009A4264D3044640F2D1800521FFF7D4FAB0
:1096F0009DF857209DF84730002A0CBF0C24082401
:1097000003FB04440CBF4FF4C0734FF480739C42BE
:1097100040F28B80564B1B685A0745D5554B1B684A
:10972000002B41DD2F21544813F020FC002873D07A
:109730002F21514813F01AFC411C504B504AD3F8CA
:109740000435009201944FF44D7201204EE0013037
:10975000042803F17403B6D1002E53D19DF8403094
:1097600013B97846FEF71AFFBDF844101698179CF7
:10977000BDF854A0FEF78AFF424B04F0010400221A
:109780009E465968884241D1598851453ED1597801
:10979000A1423BD11EF8323033B110A8FEF7B8FF1A
:1097A000014610A8FFF74AFE02F07AFDF7E6002E08
:1097B000FAD02F4B1B685907F6D52E4B1B68012B8F
:1097C000F2DD2F212C4813F0D1FB90B12F212A4834
:1097D00013F0CCFB411C294BBDF84420D3F80435D1
:1097E0000192294A0092022040F2073203F08AFDDA
:1097F000DAE75C21204813F0B9FB08B15C21E6E709
:109800001D49E8E70520FFF7DFFA71E70132082A72
:1098100003F10803B5D16BE75C21174813F0A6FBF1
:1098200008B15C2185E7144987E72246022110A888
:10983000FFF72CF8044648BB1EB17846FEF7AEFE93
:10984000B2E7314610A8FFF7F9FD2C22314605A8F2
:1098500013F0B8FA0F238DF8143005A802238DF801
:109860001C3000F025F99FE751D503006436002035
:10987000402E00203C2E002088D50300001001401F
:10988000E3D5030088340020B8D503005D4B1B6886
:109890005B071CD55C4B1B68032B18DD2F215B4835
:1098A00013F064FB002800F08B802F21574813F041
:1098B0005DFB411C564B9DF84620D3F804350192C0
:1098C000544A0092042040F24F3203F01BFD8EB93F
:1098D00094F84C30022B02D07846FEF75FFE4E4BD8
:1098E000D3F800A001F0E4FF0AEB000104F130001E
:1098F00001F0A9FF237B012B1CD194F86C30CBB96C
:10990000C6B994F84C30022B02D07846FEF746FEDA
:10991000414B596893F815A09A6802FB0A1A01F0A6
:10992000C7FF00EB0A0104F1540001F08CFF012392
:1099300084F86C309DF84630216D0120984001423A
:109940007FF432AF01432165E1799942A5F1040228
:109950009DF857103DD1002914BF08210C2103FBAD
:109960000121256FA4F84E100CBF0C20082000FB2D
:109970000350391D13F01BFA2046256DFEF7C8FE73
:1099800085427FF411AF7EBB022384F86C30216DD9
:109990002046FFF753FD05464B462246B4F84E10CD
:1099A000206FFFF7B7FA002D7FF4FEAE204684F853
:1099B0006C500121FEF7BAFE2046FEF723FFF3E6C6
:1099C0005C21124813F0D2FA08B15C216EE70F490E
:1099D00070E7A9B90C2A02D1256F1046C7E7042108
:1099E0002046FFF759F9DFE60025D5E74B4610AAD8
:1099F000691E781CFFF78EFAD6E64FF00E08CEE50A
:109A0000082AE8E7402E00203C2E002088D50300DD
:109A100000100140F7D50300CC34002010B591F8B8
:109A20004C30022B0C4602D07846FEF7B7FD0223DD
:109A300084F86C30216D2046FFF700FD08B984F8EA
:109A40006C0010BD2DE9F0418846074610B3164E54
:109A50003468022C1BD8002545450AD1134B43F826
:109A6000347003EBC40301345D6034600020BDE852
:109A7000F08107EBC5035B6863B117F83500030697
:109A80000BD468B1FEF70CFE50B90135E4E70420B1
:109A9000BDE8F0810E20BDE8F0810B20BDE8F0812B
:109AA0000F20BDE8F08100BF683400206C34002036
:109AB000F8B5074610B97846FEF770FD0F4E3468CA
:109AC00094B10F4D01232B7023791BB954F8043C3A
:109AD000384698472468002CF6D12B78022B03D106
:109AE0003168064C09B92970F8BD0B790E6813B1BD
:109AF000204603F08FFB3146F4E700BF38380020E2
:109B00003438002010B5044610B97846FEF746FDFB
:109B100000232372211D0248BDE8104003F059BB09
:109B20003838002010B5044610B97846FEF736FDE7
:109B3000074A1378013B012B04D802231370012339
:109B4000237210BD211D0348BDE8104003F062BB25
:109B500034380020383800200B888268D25A073207
:109B600022F00302134402889BB2043A934288BF56
:109B700000230B80704713B58368CB1A02A921F824
:109B8000023DFFF7E9FFBDF806308068184402B0D7
:109B900010BD70B5064615460C4611BB7846FEF75B
:109BA000FDFCFEB17846FEF7F9FC6B1E2344B3F1D1
:109BB000005F34D94FF08052D2F80C2102F5002218
:109BC000B3EB822F2ED2042D02D87846FEF7E6FCA6
:109BD00035800023043D7380B380B4602580A3707A
:109BE00070BD10B97846FEF7D9FCB4F1005F12D908
:109BF0004FF08053D3F80C3103F50023B4EB832FDF
:109C0000D3D34FF08053D3F80C3103F50053B4EBAA
:109C1000832FC7D2C9E7B4F5000FF2D8C2E7B3F576
:109C2000000F08D94FF08052D2F80C2102F50052F3
:109C3000B3EB822FC7D37846FEF7B0FCC3E738B545
:109C4000044610B97846FEF7A9FC6288A36813445D
:109C50009B78012B02D17846FEF7A0FCEFF310852C
:109C600072B6A268A18811448B78032B0AD12046D2
:109C7000FFF781FFA368C31A63800023837005B9CF
:109C800062B638BD002393706380A380F7E7F8B510
:109C90000E461546044610B97846FEF77FFC16B905
:109CA0007846FEF77BFC6288A36813449B78012BFF
:109CB00002D17846FEF772FC002D37D02388043B92
:109CC0009BB29D4232D8EFF3108772B66188A388A9
:109CD000EA1D22F00302994292B206D25B1A9A421E
:109CE00012DD042027BB62B6F8BD16D92088401AC1
:109CF000904209D29A42F4D8032881BFA3685B1826
:109D000004229A70002363806288A1688B188D52A8
:109D100001229A7000203360E4E7A26813449B7824
:109D2000002BDED193706380A380EDE70920F8BD9E
:109D3000F8BDF8B50D461646044610B97846FEF74C
:109D40002DFC15B97846FEF729FCAB78012B02D023
:109D50007846FEF723FC2B88B34202D27846FEF702
:109D60001DFC16B97846FEF719FCEFF3108772B6A2
:109D70000223AB70E1182E802046FFF7EDFE6288CB
:109D8000A38893421FBFA3689B1800229A7007B94B
:109D900062B6F8BD70B50D46044610B97846FEF7B8
:109DA000FDFB15B97846FEF7F9FBEFF3108672B6A6
:109DB000A288A36813449A78042A06D1211D20465C
:109DC000FFF7CAFEA288A36813449A78022A03D038
:109DD000032A08D0052003E003229A702B6000209C
:109DE00006B962B670BD7846FEF7D8FBF7E738B51E
:109DF000044610B97846FEF7D1FBEFF3108572B632
:109E0000A088A16801448B78042B03D12046FFF77A
:109E1000B2FE01468878831E5842584105B962B6A1
:109E200038BD38B5044610B97846FEF7B7FBEFF3F6
:109E3000108572B6A088A16801448878C31E012BE2
:109E400005D9831E5842584105B962B638BD20462F
:109E5000FFF791FE0146F0E7F8B50D46044610B94C
:109E60007846FEF79BFB15B97846FEF797FBEFF3B4
:109E7000108672B6AB78012B19D0032B22D1A288A1
:109E8000A36813449D4202D07846FEF787FB002763
:109E9000AF70211D2046FFF75FFEA288A368134420
:109EA0009B78042B00D1A78006B962B6F8BD628802
:109EB000A36813449D4202D07846FEF76FFB00234F
:109EC000AB70F1E77846FEF769FBEDE710B5EFF30D
:109ED000108472B68288816811448B78042B02D179
:109EE000FFF749FE01468878B0FA80F0400904B9CE
:109EF00062B610BD037942799B1A03F57F2303F6FE
:109F0000FF7300EB0330704710B5054884681C22CE
:109F1000002112F057FF2046BDE8104003F078BF43
:109F20003C38002070B51C4CE36813B97846FEF746
:109F300035FB237E13B17846FEF730FB6368092BAF
:109F400002D97846FEF72AFB144D0026636855F8BF
:109F500023309847022811D003280DD0012815D1AD
:109F600063680133092B636002D97846FEF716FB5C
:109F7000237E002BEAD00DE06660F9E7237E0BB16B
:109F8000207070BDBDE87040FFF7BEBF00F0FD005F
:109F90000128EDD070BD00BF3C38002060D6030022
:109FA00010B50388044613B97846FEF7F7FA2088FF
:109FB000074B04EB800030EA030203D06288B2F55D
:109FC000FE4F04D11C4004F580542078204410BD7D
:109FD00000F0FFFF70B504460E4647F6FE65FFF73A
:109FE000DFFFB04207D2844205D24388013B9BB2D7
:109FF000AB42F4D870BD002070BD00000B78032B7D
:10A00000094B04BF00221A761A78012A03D11B7E5D
:10A0100043B9FFF787BF022A04D10B78032B01D184
:10A02000FFF772BF704700BF3C38002010B50C4CE2
:10A03000E3681878002203F58051184404F062F9AF
:10A0400050B9E1680846FFF755FF814206D001F597
:10A050008051E160032010BD012010BD022010BD21
:10A060003C3800201FB50A4B02221B688DF80020E7
:10A070000193084A4FF4805369460120029300F08F
:10A0800013FFB0FA80F0400905B05DF804FB00BF93
:10A090005C380020583800201FB50123019003913F
:10A0A00002926946044A8DF80030184600F0FCFE22
:10A0B00005B05DF804FB00BF583800202DE9F047DB
:10A0C000264BD86802794179013A91421E4603D164
:10A0D00001205876BDE8F08700F5805320491C78B0
:10A0E0001C440B6813F8045F1D44FFF703FF6388EB
:10A0F000013B9BB247F6FE62934200F580578846CB
:10A1000004D920463946FFF765FF0446DFF854A01E
:10A110004FF0010934B9B4FA84F46409747601206B
:10A12000BDE8F087D8F800106288284601F5805114
:10A1300004F0E8F805460028EDD0042251462046F8
:10A1400086F81890FFF7A8FF28B920463946FFF790
:10A1500041FF0446DEE70020BDE8F0873C380020E0
:10A160005C38002000D8030038B5104CE36818783C
:10A170004FF6FF7203F58051184404F0C3F888B11C
:10A18000E36819780B4498420CD0657E084B094966
:10A190000422002D08BF1946FFF77EFF20B90120D9
:10A1A000207638BD012038BD002038BD3C38002065
:10A1B00004D8030008D8030070B50C4D0C4EE968B4
:10A1C00030680C7804302246FFF766FF58B93368D0
:10A1D00004F0FC0404341C44EB686C611A781344EA
:10A1E0002B61012070BD002070BD00BF3C380020F5
:10A1F0005C38002008B5054B054918680422FFF7B4
:10A200004BFFB0FA80F0400908BD00BF5C38002069
:10A210004838002010B5074B074C1968E06840F635
:10A22000FC720431FFF738FF10B90120207610BD11
:10A23000002010BD5C3800203C38002010B50C4CCC
:10A24000E1680846FFF756FE81420AD1094B0A49E8
:10A2500018680422FFF720FF40B90123237602206B
:10A2600010BD01F58051E160032010BD002010BD3C
:10A270003C3800205C380020603800202DE9F74F82
:10A28000334C236913B97846FEF788F9636913B92B
:10A290007846FEF783F9DFF8BC9047F6FE6A6369FB
:10A2A0002769E06803EA0908A8EB0308FFF722FE24
:10A2B0007B88013B9BB2534508F5805800F5805BD5
:10A2C00006D938465946FFF785FE0746002837D09D
:10A2D0003D4600265D4519D22A8806EB820290454C
:10A2E00009D987EA050313EA090F04D16B88013BFA
:10A2F0009BB2534502D956B901231AE02846019270
:10A30000FFF74EFE019A05461646E3E7F6B13246E0
:10A3100039466069FFF7C0FEA0B9636926F00306FD
:10A320003344636115B97846FEF738F92561002397
:10A3300035B1698847F6FF72914201D0002BAED04B
:10A34000012000E0002003B0BDE8F08F0123EFE71B
:10A350003C38002000F0FFFF1FB50A4B0222DB68EB
:10A360008DF800200193084A4FF48053694601207C
:10A37000029300F099FDB0FA80F0400905B05DF855
:10A3800004FB00BF3C3800205838002010B54FF0C7
:10A3900010235A69013225D05A691AB35B69A3F5B3
:10A3A0008053A3F58053174A196813604B1E03337B
:10A3B00025D8C1F30B0313BB134A1448D160012104
:10A3C0001170134913765376936051F823408442F9
:10A3D0000ED153600F49012000F056FDFFF7A2FD9A
:10A3E000012010BD4FF08052516913694B43D8E7EB
:10A3F00001330A2BE9D17846FEF7D0F8EAE70020CE
:10A4000010BD00BF5C3800203C38002059A302007A
:10A4100060D60300FD9F020010B5044610B97846CF
:10A42000FEF7BCF8094B187870B1E068D968437939
:10A43000A0EB0333994206D3FFF75CFD81428CBF4A
:10A440000020012010BD002010BD00BF3C380020BE
:10A45000024B1878003018BF012070473C380020AC
:10A4600038B50E4C2378054613B17846FEF796F8BA
:10A470002B78032B02D07846FEF790F8EB68E36068
:10A48000012000230649A56063602376207063766F
:10A4900000F0FAFCBDE83840FFF744BD3C3800202E
:10A4A000FD9F0200014B1868704700BF5C38002018
:10A4B00010B5044610B97846FEF770F863681BB112
:10A4C00023680BB1A36813B97846FEF767F8A36851
:10A4D0005A1E1A4202D07846FEF760F80023E36065
:10A4E000236110BD70B50E460446F0B18368F3B128
:10A4F000EFF3108572B60169C368994203D105B9BB
:10A5000062B605250FE04EB18368013B0B4090E831
:10A510000600304602FB031112F049FC23690133A7
:10A52000236135B962B6284670BD0E25FBE70925C3
:10A53000F9E70025F7E70000024AD2F80034002BC3
:10A54000FBD0704700E00140C0F30B0310B5E3B946
:10A55000E9B1104C0223C4F80435FFF7EDFF01F612
:10A56000FF7121F47F6121F00F010144884205D180
:10A570000020C4F80405FFF7DFFF10BDC4F808058C
:10A58000FFF7DAFF00F58050F0E7102010BD09203A
:10A5900010BD00BF00E0014070B540EA010414F0B6
:10A5A00003041BD1E2B195071AD10E4E0123C6F860
:10A5B00004359508FFF7C0FFAC4205D10020C6F86E
:10A5C0000405FFF7B9FF70BD51F824305A1C03D0C1
:10A5D00040F82430FFF7B0FF0134EDE7102070BDE4
:10A5E000092070BD00E001404388012B05D0022BFB
:10A5F00001D1043008600120704704304860FAE758
:10A6000008B508220221094803F059FA20B9084880
:10A61000BDE8084003F0D4BB064A91684160127B54
:10A620000272BDE8084003F079BA00BF6C38002020
:10A63000002E0020B838002010B5044610B9784626
:10A64000FDF7ACFF2346BDE81040184738B50E4D66
:10A650002B78C3B90D4B5C6804F50054B4F1807FCE
:10A6600011D8042201210A4803F029FA20B9094827
:10A67000BDE8384003F0A4BB012344602B70BDE863
:10A68000384003F04BBA38BDCC380020B838002031
:10A690006C380020F02D002010B501210C4803F08B
:10A6A00053FA80B902210A4803F04EFA044650B921
:10A6B00001461422074812F085FB074B1C70BDE8C9
:10A6C0001040FFF7C3BF054803F07AFBF7E700BF70
:10A6D0006C380020B838002090380020202E002050
:10A6E00030B50D468DB07AB94B88012B0AD1124C8A
:10A6F000227812B97846FDF751FF104B6A685A600C
:10A70000002323700DB030BD032A02D07846FDF738
:10A7100045FF2C22002101A812F054FB10238DF8D4
:10A720000430074B0395DA681B69059201A806936C
:10A73000FFF7BEF9E6E700BFCC380020B8380020AC
:10A740006C38002013B501F06BFD00216B46124AF6
:10A7500012480091019103F005F9009B104C0BB1D8
:10A76000019A6AB900232360A3602373FFF748FFAF
:10A7700023686360FFF76AFF01F092FD02B010BD2D
:10A780001968A16019792173934203D91B790BB918
:10A790002360EDE71368FBE7E9A502006C380020B1
:10A7A000B838002008B503F059FBA0F5805008BD6B
:10A7B0007FB500211822684612F004FB00230293A3
:10A7C000FFF7F0FF0123009001936946054B06480F
:10A7D000039303F0E0F910B1044803F0F1FA07B075
:10A7E0005DF804FBE1A602006C380020102E00206A
:10A7F00008B5142200210A4812F0E4FA01F058F8D2
:10A80000084B094A9A60094ADA60002258601A61C6
:10A810005A61074B1A70BDE80840FFF7C9BF00BF77
:10A82000B8380020943800204DA902000087930317
:10A83000CD38002010B5074C23784BB90648074B9C
:10A84000036000F0C7FD064800F0C4FF0123237039
:10A8500010BD00BF68380020AC38002041AA0200BB
:10A860009438002030B58DB001F0DAFC154B1A7B1E
:10A870001D4622BB9A7B12BB1A8A41F282639A421E
:10A8800002D8114B1B78D3B101232B73AB68002482
:10A890000133AB602C82FFF7B3FEAB682A7B8DF8E7
:10A8A0000820013B0CA80493022300F82C3D0394DC
:10A8B000FFF7FEF801F0F4FC20460DB030BD08248F
:10A8C000F8E700BFB8380020CD38002010B58CB0B4
:10A8D00001F0A6FC1B4B5A7B42B1997B99B9188AAF
:10A8E00041F28261884201D8174A127802F00104CD
:10A8F0007AB1197B00225A7339B101290ED07846FA
:10A90000FDF74CFE05E00022F0E7FFF7ABFF002863
:10A91000F5D101F0C5FC20460CB010BD1A605A609C
:10A920001A731A820CA89B680493022300F82C3D2A
:10A930008DF808200392FFF7BBF8FFF761FEFFF7E1
:10A9400085FEE6E7B8380020CD38002038B5174C32
:10A95000257B2DB1012D12D07846FDF71FFE21E099
:10A96000228A41F282639A4202D8114B1B78CBB102
:10A97000FFF7ACFF638A0BB1013B638238BD238ACA
:10A9800041F28262934202D8094A157855B142F2E7
:10A99000B012934282BF012300256373FFF796FF35
:10A9A000002DE7D0238A01332382E3E7B838002063
:10A9B000CD38002030B5214C237B8DB00546002BCF
:10A9C00036D1638A4BBBA3681AB98B4204D30DB04E
:10A9D00030BD0133994222D9A3682A339942F6D86F
:10A9E000A37B002BF3D142F60652236063602382DF
:10A9F000628263732373A160FFF702FEFFF726FEF6
:10AA0000237B8DF808300CA80223A26800F82C3DA7
:10AA100004920395FFF74CF8D9E7002AD7D0A36832
:10AA200001339942D3D101236373FFF74FFFCEE780
:10AA3000012BCCD1002ACAD1A368F2E7B838002094
:10AA40000378042B0CD143681B787BB1027E8368AA
:10AA5000511E4A424A41416903F11000FFF7AABF63
:10AA6000152B03D1427AC1680020F7E77047000038
:10AA700038B5164C94E80C009A4205461FD2207B4C
:10AA80001349144B012808BF0B46934207D963684A
:10AA90002268403B9A4208D3FFF7D8FD05E0012326
:10AAA0006373FFF713FF0028F1D0EFF3108072B645
:10AAB00023685A1C22602B6028B962B638BDFFF7A4
:10AAC000C5FD0F2038BD002038BD00BFB8380020BC
:10AAD00000E0FF00FFFF7F0010B50C4C30B10C4BC5
:10AAE00001229A7323681344236010BD236813B9AD
:10AAF0007846FDF753FD2368013B23602BB9044AD8
:10AB00009373BDE81040FFF7E1BE10BD643800202C
:10AB1000B838002000B58DB00323ADF808000CA8AC
:10AB20008DF8102000F82C3D0391FEF7C1FF0DB009
:10AB30005DF804FB014B9868704700BFB8380020EF
:10AB4000034B1A7B9868012A08BF00F1FF30704759
:10AB5000B8380020044B9B685840C20748BF03F137
:10AB6000FF331846704700BFB8380020014B187BF0
:10AB7000704700BFB838002038B5094B1C7864B95D
:10AB8000084D0122A8601A702973FFF739FD2C6067
:10AB90006C60FFF75BFD204638BD082038BD00BF64
:10ABA00090380020B83800202DE9F8431D4CDFF81C
:10ABB000789000260221204602F079F95FFA86F8A3
:10ABC00005460027ADB967B12946204602F0D7F9FE
:10ABD000082806D154F8043C1BB12A464946404691
:10ABE00098470136032E04F1BC04E3D10120BDE8EF
:10ABF000F88354F8043C23B134F80C2C2946404621
:10AC0000984734F80C3C013324F80C3C02212046D0
:10AC100002F069F90221204602F049F901370546A0
:10AC2000D0E700BFE438002088D6030038B5012102
:10AC300004460C3002F03BF9054628B3164BC4F825
:10AC40009C300023C4F8A03003786268012B07D041
:10AC5000022B1BD07846FDF7A1FC4FF4FA7307E0F6
:10AC600081688B1A99084FF4A9734B4303F5FA7363
:10AC70000A4A934294BFC4F8A830C4F8A82001231C
:10AC8000C4F8AC4084F8B830284638BD83689B1AB5
:10AC90001A0B034B5343E9E7C5AC02006085010082
:10ACA000645E010010B50446FFF7C0FF48B104F12F
:10ACB0009C0006F09FFA20B17846BDE81040FDF7F1
:10ACC0006DBC10BD2DE9F74F4A4B1B7880460D46F1
:10ACD0003BB106F0C5FA002385F8B83003B0BDE8F3
:10ACE000F08F01F10C09D1F8A8704846012102F05B
:10ACF000DEF8064610B97846FDF750FCDFF8FCA0F8
:10AD0000A7F5FA7700244FF4A97B3378012BA7EB42
:10AD1000040406D0022B3BD07846FDF73FFC00230D
:10AD20001FE06B68B268B4FBFBF4D21AA400944233
:10AD300028BF144624B901937846FDF72FFC019BE8
:10AD4000F168706823F00303224619441844FFF7A2
:10AD500023FC10B17846FDF721FC6B681C446C6045
:10AD6000B3686A689A422AD106F07AFA4846012105
:10AD700002F0B9F800236B6085F8B8301E4B1868F4
:10AD800001F0DCFA284603B0BDE8F04FFFF78ABFB8
:10AD90006B68B268B4FBFAF4D21A2403944228BF59
:10ADA000144624B901937846FDF7F8FB019B7068BF
:10ADB00023F0030321461844FFF7C6FBC9E701F05F
:10ADC0001DF93378B0EB080448BFA8EB0004012B51
:10ADD0000DD0022B06D1534623449F4295D206F054
:10ADE0003FFACFE77846FDF7D9FB0023F4E74FF4AD
:10ADF000A973F1E7D4380020D0380020645E010048
:10AE0000F8B51E481E4C01F07BFA1E4B186004F189
:10AE10001C03082710260325636104F10C0004F1CC
:10AE200018032361A7736673257302F083F804F196
:10AE3000D803C4F8D03004F1C80004F1D403C4F836
:10AE4000CC3084F8CA7084F8C96084F8C85002F025
:10AE500071F804F5CA73C4F88C3104F5C87384F82A
:10AE6000867184F8856184F88451C4F8883104F5CA
:10AE7000C270BDE8F84002F05DB800BFA9AB0200A7
:10AE8000D8380020D0380020022838B504460D46B6
:10AE900002D97846FDF782FB024BBC2202FB043448
:10AEA000A56038BDD838002002282DE9F84F0746A4
:10AEB0000C46924602D97846FDF770FB14B97846E5
:10AEC000FDF76CFB2378012B12D16368990702D040
:10AED0007846FDF763FBE3689A0702D07846FDF7F2
:10AEE0005DFBA3689B0711D07846FDF757FB0DE08B
:10AEF000022B0DD16368C3F30B0313B17846FDF742
:10AF00004DFBA368C3F30B03002BEDD1A36813B96A
:10AF10007846FDF743FBEFF3108872B6BC257D43FE
:10AF2000224E05F10C09B1440021484601F0BFFF53
:10AF3000834690B30021484601F0D5FF10222146F8
:10AF4000584611F034FFBAF1000F03D073195B8833
:10AF5000AAF80030BC2303FB07677B8897F8B8404A
:10AF600001337B8004BB124B1F78BFB97019FFF708
:10AF70005DFEB8F1000F0ED162B6444640B105F156
:10AF80009C00304406F036F910B17846FDF706FB18
:10AF90002046BDE8F88F3C46F0E70424B8F1000FE6
:10AFA000F6D1A0460020E7E70024F7E7D8380020D4
:10AFB000D438002070B5EFF3108672B6154C2368B4
:10AFC00018BB13B97846FDF7E9FA2368013B236003
:10AFD00093B9114D95F8B83013B92846FFF762FEC2
:10AFE00095F8743113B90D48FFF75CFE95F83032CF
:10AFF00013B90B48FFF756FE23680A4A003318BFFF
:10B000000123137026B962B670BD01332360F3E7E4
:10B0100070BD00BF0C3B0020D838002094390020C0
:10B02000503A0020D438002010B1800B014B185C3E
:10B03000704700BF98D6030012DF704713B513782E
:10B0400063B1042B0CBF0723002310F8011C29292E
:10B0500062D005D8162973D002B010BD537DF4E735
:10B060002A2927D02B29F7D1022BF5D110F8021C61
:10B070000139C9B203F0AEF804460028ECD0374BD2
:10B080001B685B06E8D5364B1B68012BE4DD2F21DE
:10B09000344811F06BFF002849D02F21314811F0BE
:10B0A00065FF411C304B314AD3F8043500920194BE
:10B0B000A42224E0022B01D0072BCDD110F8021CD2
:10B0C000013901F041FC04460028C5D0234B1B6820
:10B0D0005A06C1D5224B1B68012BBDDD2F2121480B
:10B0E00011F044FF78B12F211E4811F03FFF411CA1
:10B0F0001D4B1F4AD3F8043500920194912202207F
:10B1000002F000F9A8E75C21164811F02FFF08B102
:10B110005C21E9E71349EBE7022B9DD110F8021CF3
:10B120000139C9B202B0BDE81040FDF731B95C2168
:10B130000C4811F01BFF08B15C21AFE70949B1E7EA
:10B1400001884FF6E463994286D110F8021C023060
:10B15000033902B0BDE81040FDF71AB9402E0020B7
:10B160003C2E0020C1D603000010014006D703008A
:10B17000DDD6030070B58AB006F026FD044600282F
:10B1800034D000238DF8103006460FCE05AD0FC524
:10B1900033682B60627D052A0CD9207D00F00F03F7
:10B1A000072B07D004AB063A04F11D0100F00F0095
:10B1B00005F0CCFB114B1A68AAB104AB0393237DB5
:10B1C000C3F303038DF80430637D062B89BF063B70
:10B1D00000238DF8053004F11D0398BF8DF805306C
:10B1E000029301A89047204606F0D8FC06F004FD23
:10B1F00080F00100C0B20AB070BD00BF143B002057
:10B2000000B50A4B1A78032A8DB00CD104221A70AB
:10B2100000212C2201A811F0D5FD1A2301A88DF8D8
:10B220000430FEF745FC0DB05DF804FB103B002038
:10B23000F7B52F4F3A780546002A4FD100284FD056
:10B24000067A0F2E01D0062E4CD105F04BFBE86894
:10B25000002840D0FDF7B4F90DF10700FFF7ECFE30
:10B260000446A8BB9DF80730012B3DD1FDF7C8F976
:10B2700000F09AFA304600F083FFE87800F022F9F7
:10B2800000F0B6FD05F054FF1A4806F04DFD05F03C
:10B29000CFFCFFF7B5FD03F0F3FE00F055FC05F021
:10B2A000DDFA04F0ABFF284601F0FEFA2846FDF770
:10B2B000D7FF03F0FFFAFDF76BF808B1062815D1A8
:10B2C0000D4805F015FB0D4B00221A6001233B7061
:10B2D000204603B0F0BDFDF77BF9BDE70824F7E792
:10B2E0000E24F5E70724F3E70224F1E70446EFE72D
:10B2F000103B002075B10200302E0020143B0020CE
:10B3000037B5224D2A78012A05D002D3033A012A03
:10B3100034D9082424E001F0D9FAFDF739F80446BD
:10B3200050B3062828D01A4B1B685B0418D5194B5C
:10B330001B68012B14DD2F21174811F017FE90B167
:10B340002F21154811F012FE411C144B144AD3F85A
:10B350000435009201944FF4CB72022001F0D2FF29
:10B36000204603B030BD5C210B4811F0FFFD08B151
:10B370005C21E6E70849E8E700F02EFF05F02CFF26
:10B3800004460028ECD102232B70E9E7103B002093
:10B39000402E00203C2E0020C1D6030000100140AA
:10B3A0009CD6030008B5084B1A78022A0AD103225A
:10B3B00006481A7005F0DEFE28B17846FDF7EEF873
:10B3C000002008BD082008BD103B002001B202008B
:10B3D000FDF78EBFFEF796BBFEF7A4BB08B500F0E5
:10B3E000D7FC002008BD07F049BF0000044B1A68D5
:10B3F0000132B2F1704F08BF01221A60186870471D
:10B40000183B002010B5044610B97846FDF7C6F881
:10B4100000232360636010BD38B50D46044610B9A3
:10B420007846FDF7BBF815B97846FDF7B7F8002365
:10B430006B60EFF3108372B6226822B925606560F5
:10B4400003B962B638BD62685560F8E710B50446C6
:10B4500010B97846FDF7A2F8EFF3108272B62068B3
:10B4600008B143682360236803B9636002B962B618
:10B4700010BD10B5044610B97846FDF78FF8206866
:10B4800010BD35DF70473CDF7047000008B503464C
:10B490004FF0FF30FFF7F5FF4FF0FF311846FFF791
:10B4A000F2FFBFF34F8F0549054BCA6802F4E06213
:10B4B0001343CB60BFF34F8F00BFFDE700ED00E00B
:10B4C0000400FA0507289ABF024B33F81000FA204F
:10B4D000704700BF32D70300024B5868103840B2A3
:10B4E000704700BF00ED00E0084A202390FBF3F313
:10B4F00052F82330424202F01F0200F01F0058BFF2
:10B50000504223FA00F000F00100704700E100E033
:10B5100046DF704730B501F110031032103013F8D8
:10B52000014D12F8015D8B4284EA050400F8014DDB
:10B53000F5D130BD2DE9F047144690B002F10F056A
:10B54000102288462D1101460DEB0200994604F0A9
:10B550000F0411F02CFC0DB1002C44D04FF0000A68
:10B5600002261022002108A811F02CFC04A8FFF7E5
:10B57000CFFF01220DF13F0110AB13F9100D1F4653
:10B58000994234D19DF83F3001325B00DBB2002894
:10B59000D2B2B8BF83F0870396428DF83F30EBD22A
:10B5A000013D6E46BAF1000F2CD03A4608EB05116A
:10B5B0003046FFF7AFFF10220021384611F002FCA1
:10B5C0000024AC4234DB3A46314608A8FFF7A2FF1C
:10B5D00004A8FFF79DFF10223946484611F0E7FB0B
:10B5E00010B0BDE8F0874FF0010A5646B9E793F86E
:10B5F00001E093F800C04FEADE1E4EEA4C0E03F85D
:10B6000001EBBDE7224608EB0511684611F0CFFBC0
:10B6100010AB23448022013403F8402C6C44A31B5C
:10B62000102B02D13A463146C2E704F801ABF6E7E7
:10B6300008EB0412394608A8FFF76CFF04A8FFF7CF
:10B6400067FF0134BDE7000038B5124B1A680446A5
:10B650002AB11A6845685268AA1A002A0DDA1A68CF
:10B6600062611C609A88013292B29A8012B978465F
:10B67000FCF794FF0123237038BD19684A691AB199
:10B680005068401B002802DB62614C61EAE711460A
:10B69000F4E700BF203B002010B5124B1A6882422D
:10B6A00004461A460BD142691A609A8892B2511E1A
:10B6B00089B299808AB97846FCF770FF0DE01B6863
:10B6C0005BB159698C420BD16169596193889BB216
:10B6D000591E89B29180002BEDD00023237010BD3C
:10B6E0000B46EDE7203B0020014B186800F026BE1A
:10B6F0001C3B0020044B1A6822B11B6803495868A0
:10B7000000F062B900F0B6B9203B0020E9B60200B3
:10B710002DE9F04100F0CCF8224E054637464FF0B7
:10B720000008336823B133685B685B1B642B06D465
:10B7300000F0BEF8FFF7DEFF0120BDE8F0813468BD
:10B740002378012B02D07846FCF728FF63693B6021
:10B75000BB88C4F814809BB25A1E92B2BA8013B947
:10B760007846FCF71BFFA36813B97846FCF716FF71
:10B770000223284623702169A368984700F098F8AF
:10B780002378022B0546CCD1E2680AB92270C8E7BB
:10B7900063681344591B6429FBD463602046FFF798
:10B7A00053FFBEE7203B002008B5082200210648D1
:10B7B00011F008FB054800F0A3FD054B1860BDE83B
:10B7C000084000F067B800BF203B002011B702001E
:10B7D0001C3B002010B5044600F088FE10B97846E6
:10B7E000FCF7DCFE14B97846FCF7D8FEA36813B961
:10B7F0007846FCF7D3FE2378012B02D17846FCF77C
:10B80000CDFE002363612046FFF71EFF00F050F8D5
:10B81000BDE81040FFF76EBF10B5044600F066FEAD
:10B8200010B97846FCF7BAFE14B97846FCF7B6FEB4
:10B830002046FFF731FF0023636100F039F8BDE8CF
:10B840001040FFF757BF38B504460D4600F04EFED6
:10B8500010B97846FCF7A2FE14B97846FCF79EFEB4
:10B860002046FFF719FF0023636120466560FFF75C
:10B87000EBFE00F01DF8BDE83840FFF73BBF037852
:10B88000DBB2012B04D00078831E58425841704728
:10B890001846704708B50EF0FDFC38B90EF036FCBE
:10B8A00020B17846BDE80840FCF778BE08BD00002E
:10B8B00010B5EFF3108072B60C4A0D4B1968D2F830
:10B8C0000435D2F80441012C04BFD2F8043501310B
:10B8D00000B962B6074843EA01614FF48042002391
:10B8E000E0FB0123D00B40EA434010BD00100140B3
:10B8F000283B002040420F0010B50A4B0A4C4FF481
:10B900000032C3F84823C3F80823226812B97846E6
:10B91000FCF744FE2468FFF7CBFF2346BDE8104048
:10B92000184700BF00100140343B002010B5EFF372
:10B93000108272B61F4B20480021C3F80411016821
:10B940000131016002B962B61C4A116800292FD08A
:10B95000116801391160126852BB194AD3F8040505
:10B960001168884217D2EFF3108072B6D3F804152D
:10B9700014680131A1422ABFD3F8042512680232AB
:10B98000C3F8442500B962B64FF40032C3F844232B
:10B99000C3F8042310BD0B4C226812B97846FCF79B
:10B9A000FDFD2468FFF784FF2346BDE810401847DB
:10B9B00010BD00BF00100140283B00202C3B0020A0
:10B9C000303B0020343B002037B500230446019370
:10B9D0000D4611B97846FCF7E1FD204B1D60FFF7DD
:10B9E00067FF031B002BB8BF241A1D481D4AA8BFC0
:10B9F00000244FF4004500210023E5FB040110F072
:10BA0000F7FFEFF31083019372B6174A174CD2F881
:10BA100004350228C3F1FF1101F57F4138BF022030
:10BA20008842134910D80344C2F844354FF4003318
:10BA3000C2F84433C2F80433002323600B60019B37
:10BA400003B962B603B030BD03F17F430133034451
:10BA50001A0E0132226023F07F43EFE7343B0020CF
:10BA600020A1070040420F00001001402C3B0020A5
:10BA7000303B0020074B4FF40032C3F84823C3F893
:10BA80000823054A00231360044A1360044A136024
:10BA9000704700BF001001402C3B0020303B0020CD
:10BAA000343B002030DF704731DF704710B503466C
:10BAB00005C89C68D968A0EB721082EAF4320C4485
:10BAC000014410441A605C609960D86010BD37B5BD
:10BAD0000C46054610B97846FCF760FD0023A342EA
