:020000040000FA
:1000000000040020E90800007D050000C908000088
:1000100087050000910500009B050000000000001E
:100020000000000000000000000000000D090000BA
:10003000A505000000000000AF050000B9050000A4
:10004000C3050000CD050000D7050000E105000054
:10005000EB050000F5050000FF05000009060000A3
:10006000130600001D0600002706000031060000F0
:100070003B060000450600004F0600005906000040
:10008000630600006D060000770600008106000090
:100090008B060000950600009F060000A9060000E0
:1000A000B3060000BD060000C7060000D106000030
:1000B000DB060000E5060000EF060000F906000080
:1000C000030700000D0700001707000021070000CC
:1000D0002B070000350700003F070000490700001C
:1000E000530700005D07000067070000710700006C
:1000F0007B070000850700008F07000099070000BC
:10010000A30700001FB500F003F88DE80F001FBD26
:1001100000F0E0BB1FB56FF00100009040100390AD
:10012000029001904FF010208069000B420900F00E
:100130001F045DF822300120A04083434DF8223097
:10014000684600F045F91FBDF0B54FF6FF734FF458
:10015000B4751A466E1E11E0A94201D3344600E080
:100160000C46091B30F8027B641E3B441A44F9D14B
:100170009CB204EB134394B204EB12420029EBD17E
:1001800098B200EB134002EB124140EA0140F0BD8F
:10019000DE4992B00446D1E90001CDE91001FF2209
:1001A0004021684600F03CFB94E80F008DE80F000A
:1001B000684610A902E004C841F8042D8842FAD12B
:1001C00010216846FFF7C0FF1090AA208DF8440068
:1001D000FFF7A0FF00F0F3F84FF01024A069102201
:1001E0006946803000F002F9A069082210A900F0E9
:1001F000FDF800F0D8F84FF080510A6949690068AD
:100200004A43824201D8102070470020704710B541
:10021000D0E900214FF0805002EB8103026944696C
:100220006243934209D84FF01022536903EB8103D4
:100230000169406941438B4201D9092010BD5069D1
:10024000401C01D0002010BD0F2010BD70B501680A
:100250000446AF4D4FF01020072952D2DFE801F0DD
:10026000330419293C1E2500D4E902656468294637
:10027000304600F0CDF82A462146304600F0B6F868
:10028000AA002146304600F09FFA002800D0032043
:1002900070BD00F051FB4FF4805007E0201DFFF7C8
:1002A000AAFF0028F4D100F047FB60682860002016
:1002B00070BD241D94E80700920000F085FA002824
:1002C000F6D00E2070BD8069401C12D0201DFFF7B3
:1002D0009EFF0028F6D109E08069401C09D0201D4E
:1002E000FFF789FF0028EDD1606820B12046FFF7B5
:1002F0004FFF042070BDFFF70DFF00F060F800F025
:1003000052F8072070BD10B50C46182802D0012005
:10031000086010BD2068FFF799FF206010BD4FF006
:100320001024A069401C05D0A569A66980353079E4
:10033000AA2808D06069401C2DD060690068401C64
:1003400029D060692CE010212846FFF7FDFE3168B6
:1003500081421CD1A16901F18002C03105E030B1B8
:1003600008CA51F8040D984201D1012000E0002094
:100370008A42F4D158B1286810B1042803D0FEE7AE
:10038000284600F057F862496868086008E000F005
:1003900016F800F008F84FF480500168491C01D0AD
:1003A00000F0A4FAFEE7BFF34F8F5A4801685A4A9B
:1003B00001F4E06111430160BFF34F8FFEE74FF09E
:1003C00010208169491C02D0806900F0AEB87047E6
:1003D000524A01681160121D416811604F4A8168DC
:1003E00010321160111DC068086070472DE9F0419E
:1003F00017460D460646002406E03046296800F000
:10040000A7F8641C2D1D361DBC42F6D3BDE8F08153
:1004100070B50C4605464FF4806608E0284600F0AB
:1004200084F8B44205D3A4F5806405F58055002C0A
:10043000F4D170BD4168044609B1012500E00025F2
:100440004FF010267069A268920000F0BDF9C8B1A3
:10045000204600F01AF89DB17669A56864684FF4EB
:10046000002084420AD2854208D229463046FFF74E
:10047000CFFF2A4621463046FFF7B8FFFFF79FFF20
:10048000FFF791FFFFF746FEF8E72DE9FF414FF038
:100490001024616980680D0B01EB800000F6FF708D
:1004A000010B0020009001900290024603906846E4
:1004B00001230BE0560902F01F0C50F8267003FAD6
:1004C0000CFC47EA0C0740F82670521CAA42F1D3F4
:1004D0000AE04A0901F01F0650F8225003FA06F616
:1004E000354340F82250491C8029F2D3A169090BF9
:1004F0004A0901F01F0150F822408B409C4340F80C
:100500002240FFF765FFBDE8FF8100005C090000A5
:10051000000000200CED00E00400FA050006004099
:10052000144801680029FCD07047134A0221116069
:1005300010490B68002BFCD00F4B1B1D186008687E
:100540000028FCD00020106008680028FCD070470C
:10055000094B10B501221A60064A1468002CFCD021
:10056000016010680028FCD0002018601068002886
:10057000FCD010BD00E4014004E5014008208F4993
:1005800009680958084710208C4909680958084724
:1005900014208A49096809580847182087490968BA
:1005A0000958084730208549096809580847382004
:1005B00082490968095808473C2080490968095858
:1005C000084740207D4909680958084744207B496D
:1005D00009680958084748207849096809580847B0
:1005E0004C20764909680958084750207349096822
:1005F0000958084754207149096809580847582084
:100600006E490968095808475C206C49096809580F
:100610000847602069490968095808476420674904
:100620000968095808476820644909680958084753
:100630006C20624909680958084770205F490968B9
:100640000958084774205D49096809580847782007
:100650005A490968095808477C20584909680958C7
:10066000084780205549096809580847842053499C
:1006700009680958084788205049096809580847F7
:100680008C204E4909680958084790204B49096851
:10069000095808479420494909680958084798208B
:1006A00046490968095808479C204449096809587F
:1006B0000847A0204149096809580847A4203F4934
:1006C000096809580847A8203C490968095808479B
:1006D000AC203A49096809580847B02037490968E9
:1006E00009580847B4203549096809580847B8200F
:1006F0003249096809580847BC2030490968095837
:100700000847C0202D49096809580847C4202B49CB
:10071000096809580847C82028490968095808473E
:10072000CC202649096809580847D0202349096880
:1007300009580847D4202149096809580847D82092
:100740001E49096809580847DC201C4909680958EE
:100750000847E0201949096809580847E420174963
:10076000096809580847E8201449096809580847E2
:10077000EC201249096809580847F0200F49096818
:1007800009580847F4200D49096809580847F82016
:100790000A49096809580847FC20084909680958A6
:1007A00008475FF480700549096809580847000048
:1007B00003480449024A034B704700000000002030
:1007C000680900006809000040EA010310B59B07B2
:1007D0000FD1042A0DD310C808C9121F9C42F8D0AB
:1007E00020BA19BA884201D9012010BD4FF0FF305C
:1007F00010BD1AB1D30703D0521C07E0002010BD72
:1008000010F8013B11F8014B1B1B07D110F8013BFD
:1008100011F8014B1B1B01D1921EF1D1184610BDDE
:1008200002F0FF0343EA032242EA024200F005B865
:100830007047704770474FF000020429C0F01280E3
:1008400010F0030C00F01B80CCF1040CBCF1020F83
:1008500018BF00F8012BA8BF20F8022BA1EB0C0158
:1008600000F00DB85FEAC17C24BF00F8012B00F84E
:10087000012B48BF00F8012B70474FF0000200B574
:10088000134694469646203922BFA0E80C50A0E8B3
:100890000C50B1F12001BFF4F7AF090728BFA0E861
:1008A0000C5048BF0CC05DF804EB890028BF40F82D
:1008B000042B08BF704748BF20F8022B11F0804F6F
:1008C00018BF00F8012B7047014B1B68DB68184705
:1008D0000000002009480A497047FFF7FBFFFFF7B7
:1008E00011FC00BD20BFFDE7064B1847064A10600B
:1008F000016881F30888406800470000680900002B
:10090000680900001F030000000000201EF0040F13
:100910000CBFEFF30881EFF3098188690238007892
:10092000182803D100E00000074A1047074A126860
:100930002C3212681047000000B5054B1B68054AB1
:100940009B58984700BD00000703000000000020EE
:100950005809000004000000001000000000000022
:0809600000FFFFFF0090D0032F
:1010000078130020394D0200EDBF00009F4C020014
:10101000EDBF0000EDBF0000EDBF000000000000CC
:10102000000000000000000000000000954D0200DC
:10103000EDBF000000000000EDBF0000EDBF0000AC
:10104000FD4D0200034E0200EDBF0000EDBF0000A9
:10105000EDBF0000EDBF0000EDBF0000EDBF0000E0
:10106000094E0200EDBF0000EDBF00000F4E020070
:10107000EDBF0000154E02001B4E0200214E020083
:10108000EDBF0000EDBF0000EDBF0000EDBF0000B0
:10109000EDBF0000EDBF0000EDBF0000EDBF0000A0
:1010A000EDBF0000274E0200EDBF0000EDBF0000C5
:1010B000EDBF0000EDBF0000EDBF0000EDBF000080
:1010C0002D4E0200EDBF0000EDBF0000EDBF00009F
:1010D000EDBF0000EDBF0000EDBF0000EDBF000060
:1010E000EDBF0000EDBF0000EDBF0000EDBF000050
:1010F000EDBF0000EDBF0000EDBF0000EDBF000040
:10110000EDBF0000EDBF000000F002F823F003FE89
:101110000AA090E8000C82448344AAF10107DA4552
:1011200001D123F0F8FDAFF2090EBAE80F0013F079
:10113000010F18BFFB1A43F001031847DC410200FE
:10114000FC4102000A444FF0000C10F8013B13F080
:10115000070408BF10F8014B1D1108BF10F8015B10
:10116000641E05D010F8016B641E01F8016BF9D103
:1011700013F0080F1EBF10F8014BAD1C0C1B09D15A
:101180006D1E58BF01F801CBFAD505E014F8016BCC
:1011900001F8016B6D1EF9D59142D6D3704700005E
:1011A0000023002400250026103A28BF78C1FBD870
:1011B000520728BF30C148BF0B6070471FB500F011
:1011C0003DF88DE80F001FBD1EF0040F0CBFEFF3BC
:1011D0000880EFF30980014A104700002FBF00008C
:1011E000F0B44046494652465B460FB402A0013077
:1011F00001B50648004700BF01BC86460FBC8046CB
:10120000894692469B46F0BC7047000009110000D9
:101210008269034981614FF001001044704700006A
:101220002512000001B41EB400B514F01FFD01B476
:101230000198864601BC01B01EBD000023F068BDC8
:1012400070B51A4C054609202070A01C00F0D1F89A
:101250005920A08029462046BDE8704008F0B0B86B
:1012600008F0B9B870B50C461149097829B1A0F158
:1012700060015E2908D3012013E0602804D06928AA
:1012800002D043F201000CE020CC0A4E94E80E009C
:1012900006EB8000A0F58050241FD0F8806E284611
:1012A000B047206070BD012070470000080000209A
:1012B00018000020784E02003249884201D20120F5
:1012C00070470020704770B50446A0F500002E4E10
:1012D000B0F1786F02D23444A4F500042948844266
:1012E00001D2012500E0002500F043F848B125B9FE
:1012F000B44204D32548006808E0012070BD0020F6
:1013000070BD002DF9D1B442F9D321488442F6D200
:10131000F3E710B50446A0F50000B0F1786F03D2F2
:1013200019480444A4F5000400F023F84FF080416C
:1013300030B11648006804E08C4204D2012003E07A
:1013400013488442F8D2002080F0010010BD10B58F
:1013500020B1FFF7DEFF08B1012010BD002010BD55
:1013600010B520B1FFF7AFFF08B1012010BD00207C
:1013700010BD084808490068884201D10120704723
:101380000020704700600200000000201C000020C8
:101390000800002054000020BEBAFECA10B5044662
:1013A0000021012000F03DF800210B2000F039F869
:1013B0000421192000F035F804210D2000F031F847
:1013C00004210E2000F02DF804210F2000F029F850
:1013D0000421C84300F025F80621162000F021F86A
:1013E0000621152000F01DF82046FFF729FF0020F8
:1013F00010BDAF2101807047FFF732BF1148704721
:1014000010487047104A10B514680F4B0F4A083344
:101410001A60FFF727FF0C48001D046010BD7047DD
:1014200070474907090E002804DB00F1E02080F82E
:101430000014704700F00F0000F1E02080F8141D48
:101440007047000003F9004210050240010000014E
:10145000FE48002101604160018170472DE9F7439A
:10146000044692B091464068FFF771FF40B1606852
:10147000FFF776FF20B9607800F00300022801D062
:10148000012000E00020F14E30724846FFF71BFFBC
:1014900018B1102015B0BDE8F0834946012001F0D5
:1014A0008EFE0028F6D101258DF842504FF4C05031
:1014B000ADF84000002210A9284606F0F7FB0028EE
:1014C000E8D18DF842504FF428504FF00008ADF8A5
:1014D000400047461C216846CDF81C8023F0B3FB32
:1014E0009DF81C0008AA20F00F00401C20F0F0001E
:1014F00010308DF81C0020788DF81D0061789DF863
:101500001E0061F3420040F001008DF81E009DF8BE
:1015100000000AA940F002008DF800002089ADF813
:101520003000ADF83270608907AFADF834000B972A
:10153000606810AC0E900A94684606F0AAF900287C
:10154000A8D1BDF8200030808DF8425042F601202D
:10155000ADF840009DF81E0008AA20F00600801C8F
:1015600020F001008DF81E000220ADF83000ADF82B
:10157000340013A80E900AA9684606F08AF90028DC
:1015800088D1BDF820007080311D484600F033F945
:10159000002887D18DF8425042F6A620ADF84000D1
:1015A0001C216846CDF81C8023F04DFB9DF81C00E3
:1015B000ADF8345020F00F00401C20F0F000103047
:1015C0008DF81C009DF81D0008AA20F0FF008DF882
:1015D0001D009DF81E000AA920F0060040F0010041
:1015E000801C8DF81E009DF800008DF8445040F0DE
:1015F00002008DF80000CDE90A4711A80E90ADF861
:101600003050684606F045F9002899D1BDF8200011
:10161000F08000203EE73EB504460820ADF800000B
:101620002046FFF750FE08B110203EBD21460120A4
:1016300001F0C5FD0028F8D12088ADF804006088CD
:10164000ADF80600A088ADF80800E088ADF80A0003
:101650007E4801AB6A468088002106F023FDBDF874
:1016600000100829E1D003203EBD1FB5044600202C
:1016700002900820ADF80800CDF80CD02046FFF706
:1016800022FE10B1102004B010BD704802AA81885B
:101690004FF6FF7006F048FF0028F4D1BDF808109F
:1016A000082901D00320EEE7BDF800102180BDF825
:1016B00002106180BDF80410A180BDF80610E18021
:1016C000E1E701B582B00220ADF800005F4802AB4F
:1016D0006A464088002106F0E5FCBDF800100229AA
:1016E00000D003200EBD1CB5002100910221ADF8F1
:1016F00000100190FFF70DFE08B110201CBD5348EB
:101700006A4641884FF6FF7006F00EFFBDF80010E4
:101710000229F3D003201CBDFEB54C4C06461546ED
:10172000207A0F46C00705D00846FFF7CCFD18B158
:101730001020FEBD0F20FEBDF82D01D90C20FEBDEE
:101740003046FFF7C0FD18BB208801A905F0A6FDB3
:101750000028F4D130788DF80500208801A906F022
:101760007FFC0028EBD100909DF800009DF805104B
:1017700040F002008DF80000090703D040F0080097
:101780008DF800002088694606F007FC0028D6D1B5
:10179000ADF8085020883B4602AA002106F082FCE2
:1017A000BDF80810A942CAD00320FEBD7CB505468D
:1017B0000020009001900888ADF800000C462846F3
:1017C0000195FFF7C4FD18B92046FFF7A2FD08B147
:1017D00010207CBD15B1BDF8000050B11B486A4611
:1017E00001884FF6FF7006F09FFEBDF800102180C3
:1017F0007CBD0C207CBD30B593B0044600200D4666
:101800000090142101A823F01EFA1C2108A823F03F
:101810001AFA9DF80000CDF808D020F00F00401C07
:1018200020F0F00010308DF800009DF8010020F04D
:10183000FF008DF801009DF8200040F002008DF8B7
:10184000200001208DF8460002E000001C0200206C
:1018500042F60420ADF8440011A801902088ADF8AC
:101860003C006088ADF83E00A088ADF84000E088FC
:10187000ADF842009DF8020006AA20F00600801C88
:1018800020F001008DF802000820ADF80C00ADF842
:1018900010000FA8059001A908A805F0FAFF00287C
:1018A00003D1BDF818002880002013B030BD00001F
:1018B000F0B5007B059F1E4614460D46012800D05A
:1018C000FFDF0C2030803A203880002C08D0287AA6
:1018D000032806D0287B012800D0FFDF1720608175
:1018E000F0BDA889FBE72DE9F04786B0144691F8D2
:1018F0000C900E9A0D46B9F1010F0BD01021007B10
:101900002E8A8846052807D0062833D0FFDF06B088
:10191000BDE8F0870221F2E7E8890C2100EB4000E6
:1019200001EB4000188033201080002CEFD0E889B4
:10193000608100271AE00096688808F1020301AA76
:10194000696900F084FF06EB0800801C07EB470183
:1019500086B204EB4102BDF8040090810DF106014E
:1019600040460E3212F02FFC7F1CBFB26089B84295
:10197000E1D8CCE734201080E889B9F1010F11D00B
:10198000122148430E301880002CC0D0E8896081B5
:101990004846B9F1010F00D00220207300270DF155
:1019A000040A1FE00621ECE70096688808F10203AC
:1019B00001AA696900F04BFF06EB0800801C86B2A3
:1019C000B9F1010F12D007EBC70004EB4000BDF8DE
:1019D0000410C18110220AF10201103023F092F8A4
:1019E0007F1CBFB26089B842DED890E707EB4701A1
:1019F00004EB4102BDF80400D0810AF10201404627
:101A0000103212F0E0FBEBE72DE9F0470E4688B00C
:101A100090F80CC096F80C80378AF5890C20109944
:101A200002F10C044FF0000ABCF1030F08D0BCF126
:101A3000040F3ED0BCF1070F7DD0FFDF08B067E791
:101A400005EB850C00EB4C00188031200880002A43
:101A5000F4D0A8F1060000F0FF09558125E0182117
:101A600001A823F0F0F800977088434601AA716935
:101A700000F0EDFEBDF804002080BDF80600E08017
:101A8000BDF808002081A21C0DF10A01484612F0A1
:101A90009AFBB9F1000F00D018B184F804A0A4F8A3
:101AA00002A007EB080087B20A346D1EADB2D6D291
:101AB000C4E705EB850C00EB4C0018803220088051
:101AC000002ABBD0A8F1050000F0FF09558137E0DE
:101AD00000977088434601AA716900F0B8FE9DF82E
:101AE0000600BDF80410E1802179420860F300018E
:101AF00062F34101820862F38201C20862F3C3010A
:101B0000020962F30411420962F34511820962F38A
:101B100086112171C0096071BDF80700208122463D
:101B20000DF10901484612F04EFB18B184F802A0ED
:101B3000A4F800A000E007E007EB080087B20A3431
:101B40006D1EADB2C4D279E7A8F1020084B205FBE4
:101B500008F000F10E0CA3F800C035230B80002A1A
:101B6000A6D055819481009783B270880E32716936
:101B700000F06DFE62E72DE9F84F1E460A9D0C4607
:101B800081462AB1607A00F58070D080E0891081AA
:101B900099F80C000C274FF000084FF00E0A0D28A2
:101BA00073D2DFE800F09E070E1C28303846556AD5
:101BB00073737300214648460095FFF779FEBDE830
:101BC000F88F207B9146082802D0032800D0FFDF41
:101BD000378030200AE000BFA9F80A80EFE7207BB9
:101BE0009146042800D0FFDF378031202880B9F1EA
:101BF000000FF1D1E3E7207B9146042800D0FFDFFE
:101C000037803220F2E7207B9146022800D0FFDFA8
:101C100037803320EAE7207B1746022800D0FFDF19
:101C20003420A6F800A02880002FC8D0A7F80A808A
:101C3000C5E7207B1746042800D0FFDF3520A6F833
:101C400000A02880002FBAD04046A7F80A8012E0F2
:101C5000207B1746052802D0062800D0FFDF102081
:101C6000308036202880002FA9D0E0897881A7F81D
:101C70000E80B9F80E00B881A1E7207B91460728B5
:101C800000D0FFDF37803720B0E72AE04FF01200A6
:101C900018804FF038001700288090D0E0897881B4
:101CA000A7F80E80A7F8108099F80C000A2805D034
:101CB0000B2809D00C280DD0FFDF80E7207B0A28F5
:101CC00000D0FFDF01200AE0207B0B2800D0FFDFDF
:101CD000042004E0207B0C2800D0FFDF05203873AF
:101CE0006DE7FFDF6BE770B50C46054601F0ABFB17
:101CF00020B10078222804D2082070BD43F20200EF
:101D000070BD0521284610F0D1FC206008B10020EC
:101D100070BD032070BD30B44880087820F00F00FB
:101D2000C01C20F0F000903001F8080B1DCA81E8BB
:101D30001D0030BC07F0C5BB2DE9FF4784B000276C
:101D40008246029707989046894612300AF09EF91B
:101D5000401D20F00306079828B907A95046FFF751
:101D6000C2FF002854D1B9F1000F05D00798017BBC
:101D700019BB052504681BE098F80000092803D06A
:101D80000D2812D0FFDF46E0079903254868B0B35D
:101D9000497B42887143914239D98AB2B3B2011D5D
:101DA00010F0F7FA0446078002E0079C0425083487
:101DB0000CB1208810B1032D29D02CE00798012107
:101DC00012300AF095F9ADF80C00024602AB294634
:101DD000504608F0E4F9070001D1A01C02900798D2
:101DE0003A461230C8F80400A8F802A003A94046F9
:101DF000029B0AF08AF9D8B10A2817D200E006E05F
:101E0000DFE800F007091414100B0D14141213204E
:101E100014E6002012E6112010E608200EE643F238
:101E200003000BE6072009E60D2007E6032005E680
:101E3000BDF80C002346CDE900702A4650460799AC
:101E400000F015FD57B9032D08D10798B3B2417BB7
:101E5000406871438AB2011D10F0AFFAB9F1000F6A
:101E6000D7D0079981F80C90D3E72DE9FE4F914622
:101E70001A881C468A468046FAB102AB494608F0E9
:101E80008EF9050019D04046A61C278810F052FD97
:101E90003246072629463B46009610F060F9208816
:101EA0002346CDE900504A465146404600F0DFFC4B
:101EB000002020800120BDE8FE8F0020FBE710B548
:101EC00086B01C46AAB104238DF800301388ADF803
:101ED00008305288ADF80A208A788DF80E200988DB
:101EE000ADF80C1000236A462146FFF725FF06B027
:101EF00010BD1020FBE770B50D46052110F0D6FB94
:101F0000040000D1FFDF294604F11200BDE8704053
:101F10000AF0D7B82DE9F8430D468046002607F0B1
:101F2000CDFA04462878102878D2DFE800F0773B15
:101F30003453313112313131083131313131287975
:101F4000001FC0B2022801D0102810D114BBFFDF3F
:101F500035E004B9FFDF0521404610F0A7FB007B08
:101F6000032806D004280BD0072828D0FFDF072637
:101F700055E02879801FC0B2022820D050B1F6E782
:101F80002879401FC0B2022819D0102817D0EEE7D8
:101F900004B9FFDF13E004B9FFDF287901280ED16F
:101FA000172137E00521404610F080FB070000D1E3
:101FB000FFDF07F1120140460AF060F82CB12A4613
:101FC00021464046FFF7A7FE29E01321404602F0D4
:101FD000F1FC24E004B9FFDF0521404610F066FB68
:101FE000060000D1FFDF694606F112000AF050F842
:101FF000060000D0FFDFA988172901D2172200E0D0
:102000000A46BDF80000824202D9014602E005E01E
:102010001729C5D3404600F03AFCD0E7FFDF304631
:10202000BDE8F883401D20F0030219B102FB01F066
:10203000001D00E000201044704713B5009848B11F
:102040000024684610F04FF9002C02D1F74A00999D
:1020500011601CBD01240020F4E72DE9F0470C4677
:1020600015462421204622F0EEFD05B9FFDFA878B1
:1020700060732888DFF8B4A3401D20F00301AF7817
:102080008946DAF8000010F04CF9060000D1FFDFB5
:102090004FF000082660A6F8008077B109FB07F131
:1020A000091D0AD0DAF8000010F03BF9060000D153
:1020B000FFDF6660C6F8008001E0C4F8048029886C
:1020C00004F11200BDE8F04709F0CABF2DE9F0475E
:1020D000804601F112000D46814609F0D7FF401DF0
:1020E000D24F20F003026E7B14462968386810F046
:1020F00043F93EB104FB06F2121D03D0696838684B
:1021000010F03AF9052010F079FA0446052010F095
:102110007DFA201A012802D1386810F0F7F84946F4
:102120004046BDE8F04709F0B0BF70B5054605214F
:1021300010F0BCFA040000D1FFDF04F112012846C0
:10214000BDE8704009F09ABF2DE9F04F91B04FF013
:10215000000BADF834B0ADF804B047880C46054626
:1021600092460521384610F0A1FA060000D1FFDFA3
:1021700024B1A780A4F806B0A4F808B029780922F1
:102180000B20B2EB111F7DD12A7A04F11001382700
:102190004FF00C084FF001090391102A73D2DFE8C9
:1021A00002F072F2F1F07F08D2888D9F3DDBF3EEF2
:1021B000B6B6307B022800D0FFDFA88908EBC0014B
:1021C000ADF804103021ADF83410002C25D060811A
:1021D000B5F80E9000271DE004EBC708317C88F8A5
:1021E0000E10F189A8F80C10CDF80090688804232F
:1021F00004AA296900F02BFBBDF81010A8F81010F4
:1022000009F10400BDF812107F1C1FFA80F9A8F82C
:102210001210BFB26089B842DED80DE1307B0228CF
:1022200000D0FFDFE98908EBC100ADF804003020E1
:10223000ADF83400287B0A90001FC0B20F90002C2C
:10224000EBD06181B5F81090002725E0CDF8009023
:102250006888696903AA0A9B00F0F9FA0A9804EBF6
:10226000C70848441FFA80F908F10C0204A90F9826
:1022700011F0A9FF18B188F80EB0A8F80CB0BDF89D
:102280000C1001E0D4E0CFE0A8F81010BDF80E105B
:102290007F1CA8F81210BFB26089B842D6D8CBE034
:1022A0000DA8009001AB224629463046FFF71BFBE4
:1022B000C2E0307B082805D0FFDF03E0307B082830
:1022C00000D0FFDFE8891030ADF804003620ADF80B
:1022D0003400002C3FD0A9896181F189A18127E0D8
:1022E000307B092800D0FFDFA88900F10C01ADF890
:1022F00004103721ADF83410002C2CD06081E8890F
:102300000090AB89688804F10C02296956E0E889DD
:102310003921103080B2ADF80400ADF83410002C33
:1023200074D0A9896181287A0E280AD002212173EC
:10233000E989E181288A0090EB8968886969039AB4
:102340003CE00121F3E70DA8009001AB22462946AD
:102350003046FFF759FB6FE0307B0A2800D0FFDFE3
:102360001220ADF80400ADF834704CB3A989618136
:10237000A4F810B0A4F80EB084F80C905CE020E053
:1023800002E031E039E042E0307B0B2800D0FFDF93
:10239000288AADF834701230ADF8040084B10421FD
:1023A0002173A9896181E989E181298A2182688A69
:1023B00000902B8A688804F11202696900F047FADC
:1023C0003AE0307B0C2800D0FFDF1220ADF804008B
:1023D000ADF834703CB305212173A4F80AB0A4F819
:1023E0000EB0A4F810B027E00DA8009001AB224673
:1023F00029463046FFF75CFA1EE00DA8009001ABBD
:10240000224629463046FFF7B6FB15E034E03B2173
:10241000ADF80400ADF8341074B3A4F80690A4F835
:1024200008B084F80AB007E0FFDF05E010000020E4
:10243000297A012917D0FFDFBDF80400AAF80000AF
:102440006CB1BDF834002080BDF804006080BDF898
:102450003400392803D03C2801D086F80CB011B0E4
:102460000020BDE8F08F3C21ADF80400ADF8341039
:1024700014B1697AA172DFE7AAF80000EFE72DE94D
:10248000F84356880F46804615460521304610F021
:102490000DF9040000D1FFDF123400943B464146A1
:1024A00030466A6809F065FFBAE570B50D4605214A
:1024B00010F0FCF8040000D1FFDF294604F11200FF
:1024C000BDE8704009F0EFBD70B50D46052110F074
:1024D000EDF8040000D1FFDF294604F11200BDE849
:1024E000704009F00DBE70B50546052110F0DEF80C
:1024F000040000D1FFDF04F1080321462846BDE8AF
:1025000070400422B1E470B50546052110F0CEF804
:10251000040000D1FFDF214628462368BDE8704053
:102520000522A2E470B50646052110F0BFF80400AC
:1025300000D1FFDF04F1120009F0A8FD401D20F0DA
:10254000030511E0011D008803224318214630468F
:10255000FFF78BFC00280BD0607BABB2684382B2E4
:102560006068011D0FF05FFF606841880029E9D1B4
:1025700070BD70B50E46054606F0A0FF040000D100
:10258000FFDF0120207266726580207820F00F0046
:10259000C01C20F0F00030302070BDE8704006F024
:1025A00090BF2DE9F0438BB00D461446814606A935
:1025B000FFF799FB002814D14FF6FF7601274FF45F
:1025C00020588CB103208DF800001020ADF81000C9
:1025D00007A8059007AA204604A911F013FE78B1B8
:1025E00007200BB0BDE8F0830820ADF808508DF847
:1025F0000E708DF80000ADF80A60ADF80C800CE0AC
:102600000698A17801742188C1818DF80E70ADF80B
:102610000850ADF80C80ADF80A606A4602214846C1
:10262000069BFFF789FBDCE708B501228DF8022045
:1026300042F60202ADF800200A4603236946FFF77E
:102640003EFC08BD08B501228DF8022042F60302C7
:10265000ADF800200A4604236946FFF730FC08BDA8
:1026600000B587B079B102228DF800200A88ADF854
:1026700008204988ADF80A1000236A460521FFF7B3
:102680005BFB07B000BD1020FBE709B1072316E490
:102690000720704770B588B00D461446064606A957
:1026A000FFF721FB00280ED17CB10620ADF80850C1
:1026B0008DF80000ADF80A40069B6A460821DC81CF
:1026C0003046FFF739FB08B070BD05208DF80000DB
:1026D000ADF80850F0E700B587B059B107238DF881
:1026E0000030ADF80820039100236A460921FFF766
:1026F00023FBC6E71020C4E770B588B00C46064639
:10270000002506A9FFF7EFFA0028DCD10698012181
:10271000123009F0EDFC9CB12178062921D2DFE8C6
:1027200001F0200505160318801E80B2C01EE28845
:1027300080B20AB1A3681BB1824203D90C20C2E760
:102740001020C0E7042904D0A08850B901E0062079
:10275000B9E7012913D0022905D004291CD0052985
:102760002AD00720AFE709208DF800006088ADF877
:102770000800E088ADF80A00A068039023E00A2072
:102780008DF800006088ADF80800E088ADF80A0018
:10279000A0680A25039016E00B208DF800006088E1
:1027A000ADF80800A088ADF80A00E088ADF80C008C
:1027B000A0680B25049006E00C208DF800006078DE
:1027C0008DF808000C256A4629463046069BFFF71F
:1027D000B3FA78E700B587B00D228DF80020ADF888
:1027E000081000236A461946FFF7A6FA49E700B524
:1027F00087B071B102228DF800200A88ADF8082058
:102800004988ADF80A1000236A460621FFF794FABA
:1028100037E7102035E770B586B0064601200D4633
:10282000ADF808108DF80000014600236A463046D6
:10283000FFF782FA040008D12946304605F04CFC27
:102840000021304605F066FC204606B070BDF8B5A4
:102850001C4615460E46069F10F05AF82346FF1DEB
:10286000BCB231462A4600940FF045FCF8BD30B4A6
:102870001146DDE902423CB1032903D0002330BCFC
:1028800008F018BB0123FAE71A8030BC704770B516
:102890000C460546FFF72FFB2146284605F02BFC8A
:1028A0002846BDE87040012105F034BC4FF0E0221D
:1028B0004FF400400021C2F88001BFF34F8FBFF3F7
:1028C0006F8F1748016001601649900208607047D9
:1028D000134900B500220A600A60124B4FF0607283
:1028E0001A60002808BF00BD0F4A104BDFF840C037
:1028F00001280CD002281CBFFFDF00BD03200860A8
:102900001A604FF4000000BFCCF8000000BD0220A8
:1029100008601A604FF04070F6E700B5FFDF00BDB9
:1029200000F5004008F501409C02002014F500402D
:1029300004F5014070B50B2000F0BDF9082000F04F
:10294000BAF900210B2000F0D4F90021082000F092
:10295000D0F9F44C01256560A5600020C4F8400161
:10296000C4F84401C4F848010B2000F0B5F9082070
:1029700000F0B2F90B2000F091F9256070BD10B5A0
:102980000B2000F098F9082000F095F9E5480121A6
:1029900041608160E4490A68002AFCD10021C0F846
:1029A0004011C0F84411C0F848110B2000F094F910
:1029B000BDE81040082000F08FB910B50B2000F0E2
:1029C0008BF9BDE81040082000F086B900B530B1A1
:1029D000012806D0022806D0FFDF002000BDD34822
:1029E00000BDD34800BDD248001D00BD70B5D1491F
:1029F0004FF000400860D04DC00BC5F80803CF4829
:102A000000240460C5F840410820C43500F053F9A3
:102A1000C5F83C41CA48047070BD08B5C14A0021E0
:102A200028B1012811D002281CD0FFDF08BD4FF4C7
:102A30008030C2F80803C2F84803BB483C3001604C
:102A4000C2F84011BDE80840D0E74FF40030C2F8AA
:102A50000803C2F84803B44840300160C2F844118A
:102A6000B3480CE04FF48020C2F80803C2F84803D2
:102A7000AD4844300160C2F84811AD48001D0068FF
:102A8000009008BD70B516460D460446022800D9D0
:102A9000FFDF0022A348012304F110018B4000EB6B
:102AA0008401C1F8405526B1C1F84021C0F8043373
:102AB00003E0C0F80833C1F84021C0F8443370BDCA
:102AC0002DE9F0411D46144630B1012833D00228CB
:102AD00038D0FFDFBDE8F081891E002221F07F4160
:102AE0001046FFF7CFFF012D23D00020944D924FC9
:102AF000012668703E61914900203C39086002203F
:102B0000091D08608D490420303908608B483D3428
:102B1000046008206C6000F0DFF83004C7F804039C
:102B2000082000F0BBF88349F007091F08602E70E9
:102B3000D0E70120DAE7012B02D00022012005E0D6
:102B40000122FBE7012B04D000220220BDE8F04166
:102B500098E70122F9E774480068704770B500F003
:102B6000D8F8704C0546D4F840010026012809D158
:102B7000D4F80803C00305D54FF48030C4F8080327
:102B8000C4F84061D4F8440101280CD1D4F80803FA
:102B9000800308D54FF40030C4F80803C4F844613A
:102BA000012012F0FCFAD4F8480101280CD1D4F825
:102BB0000803400308D54FF48020C4F80803C4F884
:102BC0004861022012F0EBFA5E48056070BD70B5F6
:102BD00000F09FF85A4D0446287850B1FFF706FFE1
:102BE000687818B10020687012F0D9FA554804606E
:102BF00070BD0320F8E74FF0E0214FF40010C1F85A
:102C000000027047152000F067B84B4901200861A9
:102C1000082000F061B848494FF47C10C1F808035F
:102C20000020024601EB8003C3F84025C3F8402191
:102C3000401CC0B20628F5D37047410A43F609523A
:102C40005143C0F3080010FB02F000F5807001EB67
:102C50005020704710B5430B48F2376463431B0C98
:102C60005C020C60384C03FB0400384B4CF2F72438
:102C700043435B0D13FB04F404EB402000F580702C
:102C80004012107008681844086010BD2C48406855
:102C9000704729490120C1F800027047002809DB6C
:102CA00000F01F02012191404009800000F1E02066
:102CB000C0F80011704700280DDB00F01F02012151
:102CC00091404009800000F1E020C0F88011BFF37E
:102CD0004F8FBFF36F8F7047002809DB00F01F0292
:102CE000012191404009800000F1E020C0F88012ED
:102CF00070474907090E002804DB00F1E02080F846
:102D00000014704700F00F0000F1E02080F8141D5F
:102D100070470C48001F00680A4A0D49121D1160D7
:102D20007047000000B0004004B500404081004002
:102D300044B1004008F5014000800040408500405B
:102D40003400002014050240F7C2FFFF6F0C0100A1
:102D5000010000010A4810B5046809490948083112
:102D6000086012F0B0FA0648001D046010BD064964
:102D7000002008604FF0E0210220C1F88002704777
:102D80001005024001000001FC1F004010B50D209D
:102D900000F077F8C4B26FF0040000F072F8C0B22F
:102DA000844200D0FFDF3E490120086010BD70B5AD
:102DB0000D2000F048F83B4C0020C4F8000101252C
:102DC000C4F804530D2000F04FF825604FF0E021C7
:102DD0006014C1F8000170BD10B50D2000F033F88B
:102DE0003048012141600021C0F80011BDE81040C9
:102DF0000D2000F039B82C4810B504682A492B483A
:102E0000083108602749D1F80001012804D0FFDF0C
:102E10002548001D046010BD2148001D00680022E7
:102E2000C0B2C1F8002112F09BFEF1E710B51D48B9
:102E3000D0F800110029FBD0FFF7DDFFBDE81040FE
:102E40000D2000F011B800280DDB00F01F02012159
:102E500091404009800000F1E020C0F88011BFF3EC
:102E60004F8FBFF36F8F7047002809DB00F01F0200
:102E7000012191404009800000F1E020C0F880125B
:102E80007047002804DB00F1E02090F8000405E022
:102E900000F00F0000F1E02090F8140D4009704799
:102EA00004D5004000D000401005024001000001A0
:102EB0004FF0E0214FF00070C1F8800101F5C071C2
:102EC000BFF34F8FBFF36F8FC1F80001384B8022E3
:102ED00083F8002441F8800C704700B502460420B6
:102EE000344903E001EBC0031B792BB1401EC0B293
:102EF000F8D2FFDFFF2000BD41F8302001EBC00118
:102F000000224A718A7101220A7100BD294A0021FA
:102F100002EBC0000171704710B50446042800D3CD
:102F2000FFDF244800EBC4042079012800D0FFDF34
:102F30006079A179401CC0B2814200D060714FF02D
:102F4000E0214FF00070C1F8000210BD2DE9F04102
:102F500019480568184919480831086014480426BA
:102F600090F80004134F4009154C042818D0FFDFD7
:102F700016E0217807EBC1000279012A08D14279D5
:102F800083799A4204D04279827157F831008047A0
:102F90002078401CC0B22070042801D3002020708B
:102FA000761EF6B2E5D20448001D0560BDE8F0814A
:102FB00019E000E0D40500201005024001000001E6
:102FC000500000200548064A0168914201D10021C5
:102FD000016004490120086070470000540000208F
:102FE000BEBAFECA40E5014070B50C46054609F080
:102FF0005DFB21462846BDE870400AF042BC7047A0
:103000002CFFFFFFDBE5B15100600200AF00FFFFC6
:103010008400000068915B008308DF2FACFED63986
:1030200029D64B9DC15EF1868A16B47C30B5F84D29
:103030000446062CA9780ED2DFE804F0030E0E0E2B
:103040000509FFDF08E0022906D0FFDF04E00329BD
:1030500002D0FFDF00E0FFDFAC7030BD30B50446CA
:103060001038EB4D07280CD2DFE800F0040C060CFA
:103070000C0C0C00FFDF05E0287E112802D0FFDFDA
:1030800000E0FFDF2C7630BD2DE9F04111F024FA8D
:10309000044612F0F5FB201AC5B206200FF0AEFA76
:1030A000044606200FF0B2FA211AD94C207E1228CD
:1030B00018D000200F1807200FF0A0FA06460720AE
:1030C0000FF0A4FA301A3918207E13280CD00020F3
:1030D0000144A078042809D000200844281AC0B26E
:1030E000BDE8F0810120E5E70120F1E70120F4E7E8
:1030F000C74810B590F825004108C54800F12600E2
:1031000005D00DF09CFABDE8104005F0F9BF0DF0B8
:1031100077FAF8E730B50446A1F120000D460A28F9
:103120004AD2DFE800F005070C1C2328353A3F445B
:10313000FFDF42E0207820283FD1FFDF3DE0B448A8
:103140008178052939D0007E122836D020782428AD
:1031500033D0252831D023282FD0FFDF2DE0207851
:1031600022282AD0232828D8FFDF26E0207822280A
:1031700023D0FFDF21E0207822281ED024281CD075
:1031800026281AD0272818D0292816D0FFDF14E0C7
:103190002078252811D0FFDF0FE0207825280CD0DB
:1031A000FFDF0AE02078252807D0FFDF05E0207840
:1031B000282802D0FFDF00E0FFDF257030BD1FB5FB
:1031C00004466A46002001F02FFEB4B1BDF802208B
:1031D0004FF6FF700621824201D1ADF80210BDF812
:1031E0000420824201D1ADF80410BDF808108142DC
:1031F00003D14FF44860ADF8080068460DF090FF29
:1032000005F07EFF04B010BD70B514460D460646AD
:10321000FEF759F858B90DB1A54201D90C2070BD7F
:10322000002408E056F82400FEF74DF808B11020FD
:1032300070BD641CE4B2AC42F4D3002070BD2DE933
:10324000F04105461F4690460E4600240068FEF7F2
:1032500087F830B9A98828680844401EFEF780F82E
:1032600008B110203CE728680028A88802D0B8429E
:1032700002D850E00028F5D0092031E72968085D20
:10328000B8B1671CCA5D152A2ED03CDC152A3AD28B
:10329000DFE802F03912222228282A2A313139396E
:1032A00039393939393939392200085D30BB641C64
:1032B000A4B2A242F9D833E00228DDD1A01C085CF8
:1032C00088F80000072801D2400701D40A2007E748
:1032D000307840F0010015E0C143C90707E001283C
:1032E00007D010E00620FBE60107A1F1805100297C
:1032F000F5D01846F4E63078810701D50B20EFE6CB
:1033000040F0020030702868005D384484B2A8881C
:10331000A04202D2B0E74FF4485382B2A242ADD8E5
:103320000020DDE610B5027843F2022354080122A2
:10333000022C12D003DC3CB1012C16D106E0032C88
:1033400010D07F2C11D112E0002011E080790324ED
:10335000B4EB901F09D10A700BE08079B2EB901F9B
:1033600003D1F8E780798009F5D0184610BDFF2019
:103370000870002010BD08B500208DF8000024481A
:1033800090F82E1049B190F82F0002280ED0032893
:103390000ED0FFDF9DF8000008BD1D4869462530AE
:1033A00001F091FD0028F5D0FFDFF3E7032000E0F6
:1033B00001208DF80000EDE738B50C46054669465A
:1033C00001F081FD00280DD19DF80010207861F3F7
:1033D0004700207055F8010FC4F80100A888A4F830
:1033E0000500002038BD38B51378A8B1022813D0E5
:1033F000FF281AD007A46D46246800944C7905EB89
:103400009414247864F347031370032809D00FE061
:10341000E80100200302FF0123F0FE0313700228DD
:10342000F3D1D8B240F0010005E043F0FE00107087
:10343000107820F0010010700868C2F80100888838
:10344000A2F8050038BD02210FF030B938B50C469E
:103450000978222901D2082038BDADF800008DF886
:10346000022068460DF02DF905F04AFE050003D153
:1034700021212046FFF74EFE284638BD1CB500200E
:103480008DF80000CDF80100ADF80500FE4890F879
:103490002E00022801D0012000E000208DF8070056
:1034A00068460DF069FA002800D0FFDF1CBD00223D
:1034B0000A80437892B263F3451222F040020A80F8
:1034C00000780C282BD2DFE800F02A06090E11162E
:1034D000191C1F220C2742F0110009E042F01D00C8
:1034E00008800020704742F0110012E042F0100006
:1034F00040F00200F4E742F01000F1E742F0010072
:10350000EEE742F0010004E042F00200E8E742F09A
:10351000020040F00400E3E742F00400E0E7072087
:1035200070472DE9FF478AB00025BDF82C60824620
:103530001C4690468DF81C50700703D56068FDF757
:10354000C2FE68B9D04F4FF0010997F82E0058B16C
:1035500097F82F00022807D16068FDF701FF18B126
:1035600010200EB0BDE8F087300702D5A089802872
:1035700016D8700705D4B8F1000F02D097F82400D0
:1035800070B1E07DC0F300108DF81B00617D072055
:1035900041B1012906D00229E3D00429E1D12CE070
:1035A0000720DEE749468DF81790F00609D4A27D82
:1035B000072032B1012A04D0022A05D0042AD0D132
:1035C0001BE08DF8191002E002208DF819008DF82B
:1035D00015806068B0B107A9FFF7A4FE0028C0D12C
:1035E0009DF81C00FF280AD0606850F8011FCDF834
:1035F0000F108088ADF8130008E00620B1E743F211
:103600000220AEE7CDF80F50ADF81350E07B002854
:10361000F3D1207C0028F0D1607C0028EDD1A07C83
:103620000028EAD1E07CC006E7D18DF800A0BDF803
:103630002C00ADF80200A0680190A068029004F18F
:103640000F0001F034FC8DF80C00FFF794FE8DF8AC
:103650000D009DF81C008DF80E008DF816508DF8A9
:103660001850E07D08A900F00F008DF81A00684698
:103670000DF09DFE05F044FD73E7F0B58FB0002519
:103680008DF830508DF814508DF8345006468DF872
:103690002850019502950395049519B10FC901AC05
:1036A00084E80F00784CA078052801D004280CD1BC
:1036B00001986168884200D120B90398E168884286
:1036C00003D110B108200FB0F0BD207DC00601D598
:1036D0001F2700E0FF273B460DAA05A903A8FFF717
:1036E000AEFD0028EFD1A08AC10702D0C00600D4E9
:1036F000EE273B460AAA0CA901A8FFF7A0FD002867
:10370000E1D19DF81400C00701D00A20DBE7A08AB0
:10371000410708D4A17D31B19DF82810890702D056
:1037200043F20120CFE79DF82810C90709D04007D0
:1037300007D4208818B144F25061884201D907208B
:10374000C1E78DF818508DF81960BDF80800ADF884
:103750001A000198079006A80DF043FE05F0D0FC72
:103760000028B0D18DF820508DF82160BDF81000F0
:10377000ADF822000398099008A80DF051FE05F05D
:10378000BFFC00289FD101AD241D95E80F0084E8FF
:103790000F00002097E770B586B00D46040005D0F5
:1037A000FDF7DEFD20B1102006B070BD0820FBE75C
:1037B0002078C107A98802D0FF2902D303E01F297E
:1037C00001D20920F0E780073BD4FFF75DFC38B158
:1037D0002178C1F3C100012804D0032802D005E0FC
:1037E0001320E1E7284890F82400C8B1C8074FF03B
:1037F00001064FF0000502D08DF80F6001E08DF852
:103800000F50FFF7B8FD8DF8000020786946C0F32F
:10381000C1008DF8010060788DF80250C20801D017
:103820000720C1E778B1C20701D08DF80260820796
:1038300005D59DF8022042F002028DF802204007D3
:1038400003D50620B0E78DF80260002022780B181F
:10385000C2F38002DA7001EB40026388D380401C1F
:10386000A388C0B253810228F0D3207A0028E8D17F
:10387000607A0028E5D1A07A0028E2D1E07A002819
:10388000DFD1207BC00601E0E8010020D9D104F19E
:10389000080001F00CFB8DF80E0068460DF097F95A
:1038A00005F02EFC00288DD18DF810608DF8115098
:1038B000E088ADF81200ADF8145004A80DF0DAF964
:1038C00005F01EFC00288CD12078C00701D01520FF
:1038D00000E01320FFF7C2FB002065E72DE9FF475A
:1038E0000220FC4E8DF804000027708EADF8060013
:1038F000B84643F202094CE001A80EF03EFE050076
:1039000006D0708EA8B3A6F83280ADF806803EE0EF
:10391000039CA07F01072DD504F124000090A28E06
:10392000BDF80800214604F1360301F054FC0500FF
:1039300005D04D452AD0112D3CD0FFDF3AE0A07FC5
:1039400020F00801E07F420862F3C711A1778108E7
:1039500061F30000E07794F8210000F01F0084F884
:1039600020002078282826D129212046FFF7D2FBE5
:1039700021E014E040070AD5BDF8080004F10E016B
:1039800001F0ABFA05000DD04D4510D100257F1C8C
:10399000FFB202200EF032FE401CB842ACD8052D1A
:1039A00011D008E0A07F20F00400A07703E0112DE3
:1039B00000D0FFDF0025BDF806007086052D04D07D
:1039C000284604B0CEE5A6F832800020F9E770B5AD
:1039D0000646FFF738FD054605F070FD040000D1EE
:1039E000FFDF6680207820F00F00801C20F0F000C0
:1039F000203020700320207295F83E006072BDE8F0
:103A0000704005F05EBD2DE9F04786B0040000D19E
:103A1000FFDF2078AF4D20F00F00801C20F0F00079
:103A20007030207060680178491F1B2933D2DFE8AD
:103A300001F0FC32323255FB320EFBFB42FA3232DD
:103A40003278FAFAF9F83232FAFAF7F6FA00C6885A
:103A50003046FFF7F8FC0546304607F029F9E0B19B
:103A60006068007A85F83E0021212846FFF752FB66
:103A70003046FEF75AFB304603F050FE3146012037
:103A800012F02EFBA87F20F01000A877FFF726FF8A
:103A9000002800D0FFDF06B064E5207820F0F000B9
:103AA000203020700320207266806068007A607287
:103AB00005F007FDD8E7C5882846FFF7C4FC00B924
:103AC000FFDF60680079012800D0FFDF6068017ABD
:103AD00006B02846BDE8F04707F0C9BCC6883046A6
:103AE000FFF7B1FC050000D1FFDF05F0EAFC6068DC
:103AF00031460089288160684089688160688089D2
:103B0000A881012012F0ECFA0020A875A87F00F02F
:103B100003000228BFD1FFF7E1FE0028BBD0FFDF82
:103B2000B9E700790228B6D000B1FFDF05F0C9FC83
:103B30006668B6F806A0307A361D012806D0687E81
:103B4000814605F049FA070003D101E0E878F7E77C
:103B5000FFDF0022022150460EF09FFD040000D13D
:103B6000FFDF22212046FFF7D5FA3079012800D067
:103B70000220A17F804668F30101A177308B20816C
:103B8000708B6081B08BA08184F822908DF80880C2
:103B9000B8680090F86801906A46032150460EF01C
:103BA0007CFD00B9FFDFB888ADF81000B8788DF85B
:103BB000120004AA052150460EF06FFD00B9FFDF88
:103BC000B888ADF80C00F8788DF80E0003AA04212F
:103BD00050460EF062FD00B9FFDF062106F112002B
:103BE00001F099F940B37079800700D5FFDF717952
:103BF000E07D61F34700E075D6F80600A0617089AA
:103C0000A083062106F10C0001F085F9F0B195F8CA
:103C100025004108607861F34700607006E040E0ED
:103C200038E070E058E04DE02EE042E0D5F82600A4
:103C3000C4F80200688D12E0E07D20F0FE00801CD8
:103C4000E075D6F81200A061F08AD9E7607820F01C
:103C5000FE00801C6070F068C4F80200308AE080CA
:103C6000B8F1010F04D0B8F1020F05D0FFDF12E761
:103C70000320FFF7DBF90EE7287E122800D0FFDFD4
:103C80001120FFF7EBF906E706B02046BDE8F04744
:103C900001F02ABD05F015FC15F8300F40F00200C8
:103CA00005E005F00EFC15F8300F40F00400287018
:103CB000F1E6287E13280AD01528D8D15FF0160027
:103CC000FFF7CCF906B0BDE8F04705F0FABB1420C9
:103CD000F6E70000E8010020A978052909D00429A9
:103CE000C5D105F0EEFB022006B0BDE8F047FFF7B6
:103CF0009DB900790028BAD0E87801F0BFF805F046
:103D0000E0FB0320F0E7287E122802D1687E01F054
:103D1000B5F81120D4E72DE9F047054600784FF0BB
:103D200000080009DFF8C0A891460C464646012865
:103D300075D0022874D007280AD00A2871D0FFDF76
:103D4000A9F8006014B1A4F800806680002009E49E
:103D50006968012704F108000A784FF0020C4FF659
:103D6000FF73172A7ED00EDC142A32D006DC052A17
:103D700068D0092A10D0102A75D120E0152A73D0F6
:103D8000162AF9D1F8E0183A082A6CD2DFE802F0D6
:103D9000F36B6B0ACAF2DFF1C8884FF012081026E5
:103DA00021468DE14FF01C080A26BCB38888A0800C
:103DB0006868807920726868C0796072C0E74FF0E7
:103DC0001B08142654B30320207268688088A080E2
:103DD000B6E70A793C2AB3D00D1D4FF010082C2607
:103DE000E4B16988A180298B6182298B2182698B4A
:103DF000A182A98BE1826B790246A91D1846FFF7C3
:103E0000F2FA2979002001290CD084F80FC0FF2193
:103E10002176E06120626062A06291E70FE02EE10E
:103E200051E18CE1E77320760AF1040090E80E007E
:103E3000DAF81000C4E90930C4E9071280E7A9F8EC
:103E4000006083E72C264FF01D08002CF7D00546B4
:103E5000A380887B2A880F1D60F300022A80887B5C
:103E6000400802E09DE007E1BEE060F341022A80E5
:103E7000887B800860F382022A80887BB91CC00896
:103E800060F3C3022A80B87A0011401C60F3041268
:103E900002F07F0028807878AA1CFFF7A4FA387D0A
:103EA00005F1090207F11501FFF79DFA387B01F0D2
:103EB00041F82874787B01F03DF86874F87EA874A6
:103EC000787AE874387F2875B87B6875388AE88214
:103ED000DAF81C00A861B87A524697F808A0C0F337
:103EE0004111012904D0108C504503D2824609E0CB
:103EF000FFDF10E0022903D0288820F0600009E0ED
:103F0000504504D1288820F06000403002E0288825
:103F100040F060002880A4F824A0524607F11D015B
:103F2000A86996E011264FF02008002C87D0A380C6
:103F3000686804F10A02007920726868007B607288
:103F400069688B1D48791946FFF74DFAF8E60A268D
:103F50004FF02108002CE9D08888A080686880791B
:103F600020726868C07960729AF8301021F00401FC
:103F70009FE065E04CE06FE00B264FF02208002C3C
:103F8000D4D0C888A0806868007920726868007AF8
:103F900000F0D0FF60726868407A00F0CBFFA0723A
:103FA000CEE61C264FF02608002CBFD0A380686800
:103FB000407960726868007AA0720AF1040090E8A3
:103FC0000E00DAF81000C4E90530C4E9031268688D
:103FD00000793C2803D0432803D0FFDFB0E62772E6
:103FE000AEE684F808C0ABE610264FF02408002C9B
:103FF0009CD08888A0806868807920816868807AF1
:10400000608168680089A08168688089E08197E69E
:1040100010264FF02308002C88D08888A08068687C
:10402000C088208168680089608168684089A081B3
:1040300068688089E0819AF8301021F0020138E048
:1040400030264FF02508002C85D0A38069682822EF
:10405000496820F057FD73E614264FF01B08002C2A
:104060008ED0A380686800790128BAD02772DAE977
:104070000710C4E9031063E64A46214660E0287A47
:10408000012803D0022817D0FFDF59E610264FF091
:104090001F08002C89D06888A080A8892081E88921
:1040A0006081288AA081688AE0819AF8301021F026
:1040B00001018AF8301043E64FF012081026688894
:1040C00000F016FF3CE6287AC8B3012838D0022851
:1040D00036D0032801D0FFDF32E609264FF0110861
:1040E000002C85D06F883846FFF7ADF990F822A0F4
:1040F000A780687A2072042138460EF0E9FA05217B
:1041000038460EF0E5FA002138460EF0E1FA0121BA
:1041100038460EF0DDFA032138460EF0D9FA0221B6
:1041200038460EF0D5FA062138460EF0D1FA0721AE
:1041300038460EF0CDFA504600F0A0FE00E6FFE74C
:104140002846BDE8F04701F059BC70B5012803D0FE
:10415000052800D0FFDF70BD8DB22846FFF773F948
:10416000040000D1FFDF20782128F4D005F0A6F963
:1041700080B1017821F00F01891C21F0F00110318C
:1041800001700221017245800020A075BDE87040D9
:1041900005F097B921462846BDE870401322FFF785
:1041A00055B92DE9F04116460C00804600D1FFDFDD
:1041B000307820F00F00801C20F0F00010303070BC
:1041C0002078012804D0022818D0FFDFBDE8F08154
:1041D0004046FFF738F9050000D1FFDF0320A8753E
:1041E00005F06FF994E80F00083686E80F00FE48E6
:1041F00010F8301F41F001010170E7E74046FFF77A
:1042000022F9050000D1FFDFA1884FF6FF700027DB
:10421000814202D1E288824203D0814201D1E0880A
:1042200040B105F04EF994E80F00083686E80F001B
:10423000AF75CBE7A87D0128C8D17823002241467D
:1042400011F0A4FE0220A875C0E738B505460C465B
:104250000846FDF738F818BB203D062D4AD2DFE8A6
:1042600005F0031B373C42300021052011F00EFF02
:1042700008B1112038BDA01C0CF0A5FF04F040FFD0
:10428000050038D1002208231146052011F07EFEDA
:10429000052830D0FFDF2EE06068FDF758F808B140
:1042A000102038BD618820886A460DF03AFA04F083
:1042B00027FF05001FD16068E8B1BDF8001001803C
:1042C00019E0A07800F0010120880DF05BFA0EE003
:1042D000206801F03FFE05460DE0207800F0010067
:1042E0000CF076F903E0618820880DF096F904F06F
:1042F00007FFF0E70725284638BD70B505460C4690
:104300000846FDF706F808B1102070BD202D07D033
:10431000212D0DD0222D0BD0252D09D0072070BDC9
:104320002088A11C0CF02AFABDE8704004F0E8BE19
:10433000062070BDAC482530704708B53421AA4826
:1043400020F081FC0120FEF771FE1120FEF786FEB1
:10435000A5496846263105F047F8A3489DF8002096
:1043600010F8251F62F3470121F0010101700021BF
:1043700041724FF46171A0F8071002218172FEF7BB
:10438000B7FE00B1FFDFFDF763F801F078F908BD73
:1043900010B50C464021204620F033FCA07F20F0D1
:1043A0000300A077202020700020A07584F823004F
:1043B00010BD70472DE9FC410746FCF784FF10B1A2
:1043C0001020BDE8FC81884E06F12501D6F82500B5
:1043D0000090B6F82950ADF8045096F82B408DF8AF
:1043E00006403846FEF7E8FF0028EAD1FEF780FED7
:1043F0000028E6D0009946F8251FB580B471E0E7A3
:1044000010B50446FCF785FF08B1102010BD7648B2
:104410007549224690F8250026314008FEF7E3FF53
:10442000002010BD3EB504460D460846FCF771FF5E
:1044300008B110203EBD14B143F204003EBD6A48ED
:104440008078052803D0042801D008203EBD6946A5
:1044500002A80AF05DFA2A4669469DF80800FEF7B0
:10446000C2FF00203EBDFEB50D4604004FF0000720
:1044700011D00822FEF7C8FE002811D1002608E05E
:1044800054F826006946FEF74DFF002808D1761C37
:10449000F6B2AE42F4D30BF0E5FF10B143F20320C5
:1044A000FEBD514E86F824700CB300271BE000BF00
:1044B00054F8270002A9FEF735FF00B1FFDF9DF891
:1044C00008008DF8000054F8270050F8011FCDF8BF
:1044D00001108088ADF8050068460BF0E8FF00B1D8
:1044E000FFDF7F1CFFB2AF42E2D386F824500020EA
:1044F000FEBD2DE9F0478AB01546894604001ED05E
:104500000F4608222946FEF77FFE002811D100261B
:1045100013E000BF54F826006946103000F0D3FCC9
:10452000002806D13FB157F82600FCF7CCFE10B1A9
:1045300010200AB00BE4761CF6B2AE42EAD3002695
:10454000A5F101081CE000BF06F1010A0AF0FF070F
:1045500012E000BF54F82600017C4A0854F82710E6
:104560000B7CB2EB530F05D106221130113120F034
:104570009DFA58B17F1CFFB2AF42EBD30AF0FF06A1
:104580004645E1DB4E4624B1012003E043F205201D
:10459000CFE700200BF0B0FF10B90BF0B9FF10B15E
:1045A00043F20420C5E774B300270DF1170828E093
:1045B00054F827006946103000F085FC00B1FFDF99
:1045C00054F82700102250F8111FCDF801108088F0
:1045D000ADF8050054F827100DF1070020F092FA0D
:1045E000AEB156F8271001E0E80100201022404645
:1045F00020F088FA68460BF03FFF00B1FFDF7F1C18
:10460000FFB2AF42D4D3FEF739FF002091E7404616
:1046100001F094FCEEE730B585B00446FCF753FE9C
:1046200018B96068FCF79CFE10B1102005B030BDD1
:1046300060884AF2B811884206D82078F84D28B12F
:10464000012806D0022804D00720EFE7FEF750FD2E
:1046500018E06078022804D0032802D043F2022038
:10466000E4E785F82F00C1B200200090ADF8040007
:1046700002292CD0032927D0FFDF68460BF0DFFF8B
:1046800004F03EFD0028D1D1606801F04AFC20789A
:1046900058B101208DF800000DF1010001F04EFC31
:1046A00068460DF0D3F800B1FFDF207885F82E00C2
:1046B000FEF7E4FE608860B1A88580B20BF014FFBD
:1046C00000B1FFDF0020B1E78DF80500D5E74020FD
:1046D000FAE74FF46170EFE710B50446FCF719FEF6
:1046E00020B9606838B1FCF732FE08B1102010BD67
:1046F000606801F023FCCA4830F82C1F6180C17843
:10470000617080782070002010BD2DE9F8431446B8
:1047100089460646FCF7FDFDA0B94846FCF720FE99
:1047200080B92046FCF71CFE60B9BD4DA878012871
:1047300000D13CB13178FF2906D049B143F20400E1
:10474000BDE8F8831020FBE7012801D00420F7E73B
:10475000CCB3052811D004280FD069462046FEF7B7
:10476000A6FE0028ECD1217D49B1012909D00229FA
:1047700009D0032909D00720E2E70820E0E7024634
:1047800004E0012202E0022200E0032280462346E8
:10479000174600200099FEF7C4FE0028D0D1A0895A
:1047A0002880A07BE875BDF80000A882AF75BDF831
:1047B0000010090701D5A18931B1A1892980C0075D
:1047C00004D0032003E006E08021F7E70220FEF793
:1047D0002DFC86F800804946BDE8F8430020FEF72E
:1047E0004CBF7CB58E4C05460E46A078022803D0FF
:1047F000032801D008207CBD15B143F204007CBD24
:1048000007200DF003FF10B9A078032806D0FEF7AB
:104810003BFC28B1A078032804D009E012207CBD1D
:1048200013207CBD304600F00CFB0028F9D1E67067
:10483000FEF7A1FD09F0A9FF01208DF800008DF819
:1048400001008DF802502088ADF80400E07D8DF85D
:10485000060068460CF0A4FE04F052FC0028E0D1EB
:10486000A078032804D00420FEF7E0FB00207CBDE4
:10487000E07800F0F6FA0520F6E71CB510B143F237
:1048800004001CBD664CA078042803D0052801D084
:1048900008201CBD00208DF8000001218DF80110BA
:1048A0008DF8020068460CF07BFE04F029FC00281D
:1048B000EFD1A078052805D05FF00200FEF7B6FB27
:1048C00000201CBDE07800F0D9FA0320F6E72DE9BE
:1048D000FC4180460E4603250846FCF741FD0028B2
:1048E00066D14046FEF7AFFD040004D020782228B0
:1048F00004D2082065E543F2020062E5A07F00F0E3
:1049000003073EB1012F0CD000203146FEF757FCC3
:104910000500EFD1012F06D0022F1AD0FFDF284665
:104920004FE50120F1E7A07D3146022801D011B109
:1049300007E0112045E56846FCF797FE0028D9D12D
:104940006946404606F056FD0500E8D10120A075F5
:10495000E5E7A07D032804D1314890F83000C00776
:1049600001D02EB30EE026B1A07F40071ED4002157
:1049700000E00121404606F05DFD0500CFD1A075A5
:10498000002ECCD03146404600F0A7FA054611284B
:10499000C5D1A07F4107C2D4316844F80E1F7168A9
:1049A000616040F0040020740025B8E71125B6E7E7
:1049B000102006E570B50C460546FEF744FD0100E3
:1049C00005D022462846BDE87040FEF73FBD43F2C1
:1049D000020070BD10B5012807D1114B9B78012B47
:1049E00000D011B143F2040010BD0BF0AFFDBDE8E3
:1049F000104004F085BB012300F04ABA00231A4698
:104A0000194600F045BA70B506460C460846FCF754
:104A10005AFC18B92068FCF77CFC18B1102070BD56
:104A2000E8010020F94D2A7E112A04D0132A00D370
:104A30003EB10820F3E721463046FEF7ACFE60B1F8
:104A4000EDE70920132A0DD0142A0BD0A188FF29E5
:104A5000E5D31520FEF702FB0020D4E90012C5E9DA
:104A60000712DCE7A1881F29D9D31320F2E71CB570
:104A7000E648007E132801D208201CBD00208DF8D6
:104A8000000068460CF0F6F804F03AFB0028F4D178
:104A90001120FEF7E3FA00201CBD2DE9F04FDFF8EE
:104AA0006CA3814691B09AF818009B4615460C46B7
:104AB000132803D3FFF7DBFF00281FD12046FCF7A4
:104AC00002FC78BB2846FCF7FEFB58BB20784FF071
:104AD0000107C0074FF0000102D08DF83A7001E0E5
:104AE0008DF83A1020788846C0F3C1008DF8000098
:104AF00060788DF80910C10803D0072011B0BDE817
:104B0000F08F80B1C10701D08DF80970810705D5FC
:104B10009DF8091041F002018DF80910400704D5F5
:104B20000620EBE718E08DF8097000206E4606EBD2
:104B3000400162884A81401CA288C0B20A820328D0
:104B4000F5D32078C0F3C100012821D003281FD05D
:104B50004846FCF7B8FB08B11020CFE799F80000F1
:104B6000400808D0012809D0022807D0032805D022
:104B700043F20220C2E78DF8028001E08DF8027056
:104B8000484650F8011FCDF803108088ADF80700A3
:104B9000FEF7F1FB8DF801000020424606EB4001D4
:104BA0002B88CB826B888B83AB884B84EB880B85FF
:104BB000401CCA85C0B28A860328EFD3E088ADF8CE
:104BC0003C0068460CF074F9002896D19AF8180059
:104BD0005546112801D0082090E706200DF016FD5B
:104BE00038B12078C0F3C100012804D0032802D0D6
:104BF00006E0122082E795F8240000283FF47DAFFC
:104C0000FEF742FA022801D2132077E7584600F057
:104C100018F9002885D185F819B068460CF05AFAC1
:104C200004F06EFA040098D1687E00F01AF91220A0
:104C3000FEF714FA204661E770B5744D287E1228FD
:104C400001D00820EBE60CF048FA04F059FA040011
:104C500005D1687E00F012F91120FEF7FFF9204619
:104C6000DDE670B5064615460C460846FCF751FBD6
:104C700018B92846FCF74DFB08B11020CFE62A46AC
:104C8000214630460CF02DFD04F03AFA0028F5D10B
:104C900021787F29F2D10520C1E67CB505460C4676
:104CA0000846FCF710FB08B110207CBD2846FEF733
:104CB000CAFB20B10078222804D208207CBD43F230
:104CC00002007CBD514890F83000400701D511200A
:104CD0007CBD2178C80802D16078C20801D00720C5
:104CE0007CBD890801D1800801D006207CBDADF8CB
:104CF000005020788DF8020060788DF803000220C3
:104D0000ADF8040068460BF0D1FE04F0F9F97CBD63
:104D100070B586B014460D460646FEF794FB28B1E2
:104D20000078222805D2082006B078E643F2020077
:104D3000FAE72846FCF714FB20B944B12046FCF7FB
:104D400006FB08B11020EFE700202060A0802F486C
:104D500090F83000800701D51120E5E703A930461F
:104D60000BF058FD18B100BF04F0CAF9DCE7ADF84C
:104D70000060BDF81400ADF80200BDF81600ADF8F3
:104D80000400BDF81000BDF81210ADF80600ADF833
:104D900008107DB1298809B1ADF80610698809B1FC
:104DA000ADF80210A98809B1ADF80810E98809B179
:104DB000ADF80410DCB1BDF80610814201D9081A23
:104DC0002080BDF80210BDF81400814201D9081AF4
:104DD0006080BDF80800BDF80410BDF8162001443D
:104DE000BDF812001044814201D9081AA08068461B
:104DF0000BF0C1FDB8E71CB505490968CDE9001005
:104E000068460CF057F804F07BF91CBDE80100205F
:104E1000EC4F02001CB500200090019068460CF099
:104E200049F804F06DF9F0E7108008885080488850
:104E30009080C88810818888D0800020508190811F
:104E4000704710B5044604F0C7F830B1407830B16F
:104E5000204604F0DAFB002010BD052010BD122012
:104E600010BD10B504F0B8F8040000D1FFDF607881
:104E700000B9FFDF6078401E607010BD10B504F00F
:104E8000ABF8040000D1FFDF6078401C607010BDFB
:104E90001CB5ADF800008DF802308DF803108DF8C8
:104EA000042068460CF0E0FB04F02AF9ADE70CB5ED
:104EB00026A2D2E90012CDE900120079694601EB81
:104EC000501000780CBD0278520804D0012A02D09C
:104ED00043F202207047FEF725BA1FB56A46FFF776
:104EE000A3FF68460CF02CF904F00AF904B010BDD9
:104EF00070B50C0006460DD0FEF7A5FA050000D1EE
:104F0000FFDFA68028892081288960816889A081A7
:104F1000A889E08183E510B500231A4603E0845C8C
:104F20002343521CD2B28A42F9D30BB1002010BDE8
:104F3000012010BD00B530B1012803D0022801D0F6
:104F4000FFDF002000BDFF2000BD000007060504B4
:104F50000302010010B50446FCF7B5F908B11020B2
:104F600010BD2078C0F30210042807D86078072805
:104F700004D3A178102901D8814201D2072010BDA5
:104F8000E078410706D421794A0703D4000701D409
:104F9000080701D5062010BD002010BD10B51378FC
:104FA0005C08837F64F3C713837713789C08C37FFF
:104FB00064F30003C3771078C309487863F34100B2
:104FC000487013781C090B7864F347130B7013783F
:104FD000DB0863F3000048705078487110BD10B5CD
:104FE000C4780B7864F300030B70C478640864F32E
:104FF00041030B70C478A40864F382030B70C47877
:10500000E40864F3C3030B700379117863F30001C0
:10501000117003795B0863F34101117003799B08F8
:1050200063F3820111700079C00860F3C30111704D
:1050300010BD70B514460D46064604F03FFA80B127
:105040000178182221F00F01891C21F0F001A03114
:1050500000F8081B21461FF09AFDBDE8704004F0DF
:1050600030BA29463046BDE870401322FEF7EEB94B
:105070002DE9F047064608A8894690E830041F4607
:105080009046142128461FF0DEFD0021CAF80010CA
:10509000B8F1000F03D0B9F1000F03D114E0387854
:1050A000C00711D02068FCF734F9C0BBB8F1000F7D
:1050B00007D12068123028602068143068602068AA
:1050C000A8602168CAF800103878800724D5606885
:1050D000FCF73DF918BBB9F1000F21D0FFF72AF911
:1050E0000168C6F868118188A6F86C11807986F885
:1050F0006E0101F0F8FCF94FEF60626862B196F85A
:10510000680106F2691140081032FEF76CF91022AE
:10511000394660681FF0F6FC0020BDE8F08706E025
:10512000606820B1E8606068C6F86401F4E71020A8
:10513000F3E730B5054608780C4620F00F00401C18
:1051400020F0F001103121700020607095F82300EC
:1051500030B104280FD0052811D0062814D0FFDF65
:1051600020780121B1EB101F04D295F8200000F047
:105170001F00607030BD21F0F000203002E021F00F
:10518000F00030302070EBE721F0F0004030F9E71C
:10519000F0B591B0022715460C4606463A46ADF8E2
:1051A0000870092103AB04F0FAFF0490002810D026
:1051B00004208DF804008DF80170E0340996059400
:1051C0008DF818500AA968460EF060FF00B1FFDFA5
:1051D000012011B0F0BD10B588B00C460A99ADF8A9
:1051E0000000C3B11868CDF802005868CDF8060079
:1051F000ADF80A20102203A81FF084FC68460CF0CA
:105200000FF803F07DFF002803D1A17F41F01001CA
:10521000A17708B010BD0020CDF80200E6E72DE927
:10522000F84F0646808A0D4680B28246FEF70BF99B
:1052300004463078DFF8A48200274FF00209A8F175
:1052400020080F2870D2DFE800F06FF23708387DB1
:105250008CC8F1F0EFF35FF3F300A07F00F00300E0
:10526000022809D05FF0000080F0010150460DF0E7
:105270001DFA050003D101E00120F5E7FFDF98F8F2
:105280005C10C90702D0D8F860000BE0032105F1DB
:105290001D0010F046FCD5F81D009149B0FBF1F25D
:1052A00001FB1200C5F81D0070686867B068A86748
:1052B0002078252800D0FFDFCAE0A07F00F003009F
:1052C000022809D05FF0000080F0010150460DF087
:1052D000EDF9060003D101E00120F5E7FFDF3078AA
:1052E000810702D52178252904D040F001003070D3
:1052F000BDE8F88F85F80090307F287106F11D0019
:105300002D36C5E90206F3E7A07F00F0030002286E
:1053100008D0002080F0010150460DF0C7F90400CC
:1053200004D102E00120F5E7A7E1FFDF2078C10604
:1053300004D5072028703D346C60D9E740F00800A0
:105340002070D5E7E07F000700D5FFDF307CB28812
:1053500000F0010301B05046BDE8F04F092105F00F
:10536000A9BD04B9FFDF716821B1102204F1240046
:105370001FF0C8FB28212046FDF7CCFEA07F00F0DF
:10538000030002280ED104F12400002300901A46E5
:1053900021465046FFF71FFF112807D0292120463C
:1053A000FDF7B8FE307A84F82000A1E7A07F00075F
:1053B00000D5FFDF14F81E0F40F008002070E782D0
:1053C000A761E761C109607861F34100014660F3BC
:1053D00082016170307AE0708AE7A07F00F00300FC
:1053E000022809D05FF0000080F0010150460DF066
:1053F0005DF9040003D101E00120F5E7FFDF0221A0
:1054000004F1850010F08DFB0420287004F5B470C1
:105410006860B4F885002882304810387C346C61AC
:10542000C5E9028064E703E024E15BE02DE015E0DC
:10543000A07F00F00300022807D0002080F00101C7
:1054400050460DF033F918B901E00120F6E7FFDF0F
:10545000324621465046BDE8F84FEAE504B9FFDF81
:1054600020782128A1D93079012803D1E07F40F0AC
:105470000800E077324621465046FFF7DAFD204625
:10548000BDE8F84F2321FDF745BE3279AA8005F12A
:1054900008030921504604F082FEE86010B105209F
:1054A000287025E7A07F00F00300022808D0002024
:1054B00080F0010150460DF0F9F8040003D101E03D
:1054C0000120F5E7FFDF04F1620102231022081F2B
:1054D0000CF073FF07703179417009E74802002032
:1054E00040420F00A07F00F00300022808D00020F7
:1054F00080F0010150460DF0D9F8050003D101E01C
:105500000120F5E7FFDF95F8840000F00300012893
:105510007AD1A07F00F00307E07F10F0010602D0EF
:10552000022F04D133E095F8A000C0072BD0D5F8A6
:10553000601121B395F88320087C62F3870008741A
:10554000A17FCA09D5F8601162F341000874D5F84B
:10555000601166F300000874AEB1D5F86001102246
:1055600004F1240188351FF0CDFA287E40F00100B7
:105570002876287820F0010005F8880900E016B1A7
:10558000022F04D02DE095F88800C00727D0D5F869
:105590005C1121B395F88320087C62F387000874BE
:1055A000A17FCA09D5F85C1162F341000874D5F8EF
:1055B0005C1166F3000008748EB1D5F85C0110220E
:1055C00004F1240188351FF09DFA287840F001008D
:1055D00005F8180B287820F0010005F8A009022F23
:1055E00044D0002000EB400005EBC00090F888009C
:1055F000800709D595F87C00D5F86421400805F1AD
:105600007D011032FDF7EFFE8DF8009095F88400D3
:105610006A4600F003008DF8010095F888108DF8B7
:10562000021095F8A0008DF803002146504601F0C5
:1056300043FA2078252805D0212807D0FFDF2078DD
:10564000222803D922212046FDF764FDA07F00F027
:10565000030002280CD0002080F0010150460DF01C
:1056600037F800283FF44FAEFFDF41E60120B9E7ED
:105670000120F1E7706847703AE6FFDF38E670B561
:10568000FE4C002584F85C5025660EF0CCFC04F13D
:105690001001204603F0CEFE84F8305070BD70B586
:1056A0000D46FDF7D0FE040000D1FFDF4FF4B871C6
:1056B00028461FF0C8FA04F124002861A07F00F0FA
:1056C0000300022808D0012105F1E0000EF0ACFC37
:1056D000002800D0FFDF70BD0221F5E70A46014631
:1056E00002F1E0000EF0C0BC70B50546406886B01F
:1056F00001780A2906D00D2933D00E292FD0FFDFDB
:1057000006B070BD86883046FDF79DFE040000D1CE
:10571000FFDF20782128F3D028281BD168680221D8
:105720000E3001F0BEF9A8B168680821801D01F0B3
:10573000B8F978B104F1240130460BF033FF03F0DF
:10574000DFFC00B1FFDF06B02046BDE87040292134
:10575000FDF7E0BC06B0BDE8704003F0B2BE012129
:1057600001726868C6883046FDF76DFE040000D1FE
:10577000FFDFA07F00F00301022902D120F010001A
:10578000A077207821280AD06868017A09B10079C9
:1057900080B1A07F00F00300022862D0FFDFA07F6D
:1057A00000F003000228ABD1FEF798F80028A7D03C
:1057B000FFDFA5E703F085FEA17F08062BD5E07F7C
:1057C000C00705D094F8200000F01F00102820D05A
:1057D0005FF0050084F82300207829281DD02428B4
:1057E000DDD13146042010F07BFC22212046FDF75C
:1057F00091FCA07F00F00300022830D05FF0000091
:1058000080F0010130460CF063FF0028C7D0FFDFB5
:10581000C5E70620DEE70420DCE701F003000228EC
:1058200008D0002080F0010130460CF03FFF050059
:1058300003D101E00120F5E7FFDF25212046FDF738
:1058400069FC03208DF80000694605F1E0000EF0C8
:1058500002FC0228A3D00028A1D0FFDF9FE701208F
:10586000CEE703F02EFE9AE72DE9F04387B0994684
:10587000164688460746FDF7E6FD04004BD0207823
:10588000222848D3232846D0E07F000743D4A07FB6
:1058900000F00300022809D05FF0000080F0010151
:1058A00038460CF003FF050002D00CE00120F5E7BC
:1058B000A07F00F00300022805D001210022384615
:1058C0000CF0EBFE05466946284601F01CF90098ED
:1058D00000B9FFDF45B10098E03505612078222846
:1058E00006D0242804D007E000990020086103E0D6
:1058F00025212046FDF70EFC0098012141704762EA
:10590000868001A9C0E902890EF0C0FB022802D0FE
:10591000002800D0FFDF07B0BDE8F08370B586B087
:105920000546FDF790FD017822291ED9807F00F001
:105930000300022808D0002080F0010128460CF066
:10594000B5FE04002FD101E00120F5E7FFDF2AE0DA
:10595000B4F85E0004F1620630440178427829B15F
:1059600021462846FFF714FCB0B9C9E6ADF804207B
:105970000921284602AB04F012FC03900028F4D061
:1059800005208DF80000694604F1E0000EF063FB8D
:10599000022801D000B1FFDF02231022314604F1BA
:1059A0005E000CF040FDB4F860000028D0D1A7E6FE
:1059B00010B586B00446FDF746FD017822291BD9B3
:1059C000807F00F00300022808D0002080F0010151
:1059D00020460CF06BFE040003D101E00120F5E746
:1059E000FFDF06208DF80000694604F1E0000EF0AC
:1059F00032FB002800D0FFDF06B010BD2DE9F05FBC
:105A000005460C4600270078904601093E4604F101
:105A1000080BBA4602297DD0072902D00A2909D1EC
:105A200046E0686801780A2905D00D2930D00E2992
:105A30002ED0FFDFBBE114271C26002C6BD0808802
:105A4000A080FDF700FD5FEA000900D1FFDF99F8B3
:105A500017005A46400809F11801FDF7C4FC6868B0
:105A6000C0892082696851F8060FC4F8120048689E
:105A7000C4F81600A07E20F0060001E028020020F5
:105A800040F00100A07699F81E0040F020014DE0A2
:105A90001A270A26002CD1D0C088A080FDF7D3FC9D
:105AA000050000D1FFDF59462846FFF742FB7EE1A3
:105AB0000CB1A88BA080287A0B287DD006DC0128A9
:105AC0007BD0022808D0032804D135E00D2875D0FA
:105AD0000E2874D0FFDF6AE11E270926002CADD006
:105AE000A088FDF7B0FC5FEA000900D1FFDF287B4A
:105AF00000F003000128207A1BD020F00100207262
:105B0000297B890861F341002072297BC90861F370
:105B1000820001E041E1F2E02072297B090961F392
:105B2000C300207299F81E0040F0400189F81E1051
:105B30003DE140F00100E2E713270D26002CAAD03A
:105B4000A088FDF780FC8146807F00F003000228DA
:105B500008D0002080F00101A0880CF0A7FD05000E
:105B600003D101E00120F5E7FFDF99F81E0000F006
:105B70000302022A50D0686F817801F003010129E5
:105B8000217A4BD021F00101217283789B0863F3C5
:105B9000410121728378DB0863F3820121728378EB
:105BA0001B0963F3C3012172037863F306112172A9
:105BB000437863F3C71103E061E0A9E090E0A1E05E
:105BC000217284F809A0C178A172022A29D0027931
:105BD000E17A62F30001E1720279520862F3410155
:105BE000E1720279920862F38201E1720279D208CD
:105BF00062F3C301E1724279217B62F300012173F8
:105C00004279520862F3410121734279920862F3AA
:105C100082012173407928E0A86FADE741F00101CE
:105C2000B2E74279E17A62F30001E1724279520807
:105C300062F34101E1724279920862F38201E172FA
:105C40004279D20862F3C301E1720279217B62F3E7
:105C5000000121730279520862F341012173027934
:105C6000920862F3820121730079C00860F3C301D6
:105C7000217399F80000232831D9262140E0182704
:105C80001026E4B3A088FDF7DEFB8346807F00F09A
:105C90000300022809D0002080F00101A0880CF048
:105CA00005FD5FEA000903D101E00120F4E7FFDF11
:105CB000E868A06099F8000040F0040189F800103D
:105CC00099F80100800708D5012020739BF8000097
:105CD00023286CD92721584651E084F80CA066E0AF
:105CE00015270F265CB1A088FDF7ADFB8146062283
:105CF0005946E86808F093FA0120A073A0E041E05B
:105D000048463CE016270926E4B3287B20724EE083
:105D1000287B19270E26ACB3C4F808A0A4F80CA061
:105D2000012807D0022805D0032805D0042803D075
:105D3000FFDF0DE0207207E0697B042801F00F010E
:105D400041F0800121721ED0607A20F00300607261
:105D5000A088FDF778FB05460078212827D0232866
:105D600000D0FFDFA87F00F00300022813D000203E
:105D700080F00101A0880CF0ABFC22212846FDF741
:105D8000C9F914E004E0607A20F00300401CDEE76B
:105D9000A8F8006010E00120EAE70CB16888A08054
:105DA000287A68B301280AD002284FD0FFDFA8F86C
:105DB00000600CB1278066800020BDE8F09F1527A9
:105DC0000F26002CE4D0A088FDF73DFB807F00F07B
:105DD0000300022808D0002080F00101A0880CF008
:105DE00065FC050003D101E00120F5E7FFDFD5F8F0
:105DF0001D000622594608F012FA84F80EA0D6E7D4
:105E000017270926002CC3D0A088FDF71CFB81466C
:105E1000807F00F00300022808D0002080F00101FC
:105E2000A0880CF043FC050003D101E00120F5E758
:105E3000FFDF6878800701D5022000E00120207292
:105E400099F800002328B2D9272159E719270E26EF
:105E5000002C9DD0A088FDF7F6FA5FEA000900D17A
:105E6000FFDFC4F808A0A4F80CA084F808A0A07A6A
:105E700040F00300A07299F81E10C90961F3820076
:105E8000A07299F81F2099F81E1012EAD11F05D0B0
:105E900099F8201001F01F0110292BD020F00800E4
:105EA000A07299F81F10607A61F3C3006072697A7A
:105EB00001F003010129A2D140F00400607299F8B9
:105EC0001E0000F003000228E87A16D0217B60F360
:105ED00000012173AA7A607B62F300006073EA7AA2
:105EE000520862F341012173A97A490861F3410024
:105EF00060735CE740F00800D2E7617B60F300016B
:105F00006173AA7A207B62F300002073EA7A520858
:105F100062F341016173A97A490861F3410020737A
:105F200045E710B5FE4C30B10146102204F12000C7
:105F30001EF0E8FD012084F8300010BD10B50446C5
:105F400000F0D1FDF64920461022BDE81040203176
:105F50001EF0D8BD70B5F24D06004FF0000413D00E
:105F6000FBF7B1F908B110240CE00621304608F027
:105F70003DF9411C05D028665FF0010085F85C0002
:105F800000E00724204670BD0020F7E7007810F0FD
:105F90000F0204D0012A05D0022A0CD110E000091A
:105FA00009D10AE00009012807D0022805D00328FA
:105FB00003D0042801D007207047087000207047E4
:105FC0000620704705282AD2DFE800F003070F17E4
:105FD0001F00087820F0FF001EE0087820F00F0076
:105FE000401C20F0F000103016E0087820F00F0080
:105FF000401C20F0F00020300EE0087820F00F0068
:10600000401C20F0F000303006E0087820F00F004F
:10601000401C20F0F000403008700020704707203E
:1060200070472DE9F041804688B00D4600270846AC
:10603000FBF796F9A8B94046FDF705FA040003D02E
:106040002078222815D104E043F2020008B0BDE810
:10605000F08145B9A07F410603D500F00300022876
:1060600001D01020F2E7A07FC10601D4010702D5BC
:106070000DB10820EAE7E17F090701D50D20E5E72A
:1060800000F00300022805D125B12846FEF762FF83
:106090000700DBD1A07F00F00300022808D0002019
:1060A00080F0010140460CF001FB060002D00FE039
:1060B0000120F5E7A07F00F0030002280ED00020A9
:1060C00080F00101002240460CF0E7FA060007D0FC
:1060D000A07F00F00300022804D009E00120EFE7D0
:1060E0000420B3E725B12A4631462046FEF756FF85
:1060F0006946304600F007FD009800B9FFDF0099BF
:10610000022006F1E0024870C1F824804A610022B2
:106110000A81A27F02F00302022A1CD0012008712A
:10612000287800F00102087E62F3010008762A78E0
:10613000520862F3820008762A78920862F3C3005C
:1061400008762A78D20862F30410087624212046C3
:10615000FCF7E0FF33E035B30871301D886130781B
:10616000400908777078C0F340004877287800F03D
