:020000022000DC
:1060000000FD00208DB20300B5B20300B7B203005B
:10601000B9B20300BBB20300BDB203000000000030
:10602000000000000000000000000000BFB20300FC
:10603000C1B2030000000000C3B20300C5B20300F8
:10604000C7B20300C7B20300C7B20300C7B2030060
:10605000C7B20300C7B203005D710200C7B20300FC
:10606000C7B20300C7B2030089FD0200C7B2030034
:10607000C7B20300C7B20300C7B20300C7B2030030
:10608000C7B20300498A030065BF0200C7B203001C
:10609000098B0300C7B20300197D0200C7B20300D9
:1060A000C7B20300C7B20300C7B20300C7B2030000
:1060B000C7B20300C7B203000000000000000000E8
:1060C000C7B20300C7B20300C7B20300C7B20300E0
:1060D000C7B20300C7B20300C7B20300000000004C
:1060E00000000000000000000000000000000000B0
:1060F00000000000000000000000000000000000A0
:10610000000000000000000000000000000000008F
:10611000000000000000000000000000000000007F
:10612000000000000000000000000000000000006F
:10613000000000000000000000000000000000005F
:10614000000000000000000000000000000000004F
:10615000000000000000000000000000000000003F
:10616000000000000000000000000000000000002F
:10617000000000000000000000000000000000001F
:10618000000000000000000000000000000000000F
:1061900000000000000000000000000000000000FF
:1061A00000000000000000000000000000000000EF
:1061B00000000000000000000000000000000000DF
:1061C00000000000000000000000000000000000CF
:1061D00000000000000000000000000000000000BF
:1061E00000000000000000000000000000000000AF
:1061F000000000000000000000000000000000009F
:1062000010B5054C237833B9044B13B10448AFF3F0
:1062100000800123237010BD182F00200000000013
:1062200008E003000C4B43B10C480D4910B5AFF327
:1062300000800C48036823B910BD0A48036833B9CD
:106240007047094B002BF7D0BDE810401847064BAC
:10625000002BF5D0184700BF0000000008E0030045
:106260001C2F0020142F002000000000154B002BD5
:1062700008BF134B9D46A3F5803A00218B460F467D
:106280001348144A121A16F021FC0F4B002B00D0B1
:1062900098470E4B002B00D09847002000210400A7
:1062A0000D000D48002802D00C48AFF3008016F016
:1062B000BFFB2000290000F0E7FB16F0A5FB00BFA4
:1062C0000000080000FD00200000000000000000A9
:1062D000182F002098590020000000000000000046
:1062E00041DF704730B52D4B144652681B6887B0AC
:1062F0000D465AB35A041ED5294B1B68032B1ADDD1
:106300002F21284816F0B6FCB8B12F21254816F0E9
:10631000B1FC411C244B6268D3F8043504926278C6
:106320000392227802926A880192204A0092042005
:10633000AC2206F001FD07B030BD5C21194816F013
:1063400099FC08B15C21E1E71649E3E75B04F2D56B
:10635000134B1B68032BEEDD2F21124816F08AFC2D
:1063600090B12F210F4816F085FC411C0E4B22786E
:10637000D3F8043502926A8801920D4A00920420F3
:10638000B12206F0D9FCD6E75C21064816F072FC73
:1063900008B15C21E6E70349E8E700BF282E0020AA
:1063A000242E002091CD030000100140BCCD03003D
:1063B0000ECE0300012A07B531D009D3022A56D0E8
:1063C0003C4A9F21032003B05DF804EB14F089BF21
:1063D000394B1B68590416D5384B1B68032B12DD4B
:1063E0002F21344816F046FC80B12F21314816F099
:1063F00041FC411C324B334AD3F8043500929222BF
:10640000042006F099FC03B05DF804FB5C212948E8
:1064100016F030FC08B15C21E8E72649EAE70622DD
:1064200032214FF4F01000F001FE234B1B685A0498
:10643000E9D5224B1B68032BE5DD2F211D4816F003
:1064400019FC58B12F211B4816F014FC411C1C4BA1
:106450001D4AD3F8043500929722D1E75C211548F4
:1064600016F008FC08B15C21EDE71249EFE7124B8A
:106470001B685B04C7D5114B1B68032BC3DD2F21A1
:106480000C4816F0F7FB58B12F210A4816F0F2FB22
:10649000411C0B4B0D4AD3F8043500929B22AFE709
:1064A0005C21044816F0E6FB08B15C21EDE70149E8
:1064B000EFE700BF91CD0300282E0020242E0020FE
:1064C000001001402FCD03004FCD03006FCD03001E
:1064D00070B5744E33680546580486B017D5724BB4
:1064E0001B68032B13DD2F21704816F0C3FBA0B1EE
:1064F0002F216E4816F0BEFB411C6D4B6D4AD3F840
:10650000043500920195C722042006F015FC032DE6
:106510000FD8DFE805F00B3B0B3B5C21634816F01E
:10652000A9FB08B15C21E4E76049E6E701238DF8A7
:106530000C30614A13788DF80D30591C32230593C5
:106540006423049333681170590419D5564B1B68A2
:10655000032B15DD2F21554816F08CFBC0B12F21E0
:10656000524816F087FB411C514B9DF80C20D3F884
:1065700004350192514A00920420E22206F0DCFB2D
:10658000032D45D8DFE805F00D0D46460023CEE784
:106590005C21464816F06EFB08B15C21E0E74349F8
:1065A000E2E7474C208810F015FA03A9204604AA18
:1065B0000BF052FE9DF80C100446112000F022FD55
:1065C000072C3FD031D81CB3042C61D133685A0456
:1065D00018D5354B1B68032B14DD2F21334816F0DB
:1065E00049FB30B32F21314816F044FB411C304B9E
:1065F000344AD3F80435009201954FF48072042098
:1066000006F09AFB062232214FF4F01000F00EFD46
:1066100006B070BD03A9022304AA2B480BF06EFE3E
:106620009DF80C1004461220C8E7082CCED0112C7F
:10663000CBE75C211D4816F01DFB08B15C21D2E7B9
:106640001A49D4E733685B04E2D5174B1B68032B68
:10665000DEDD2F21154816F00DFB80B12F211348E8
:1066600016F008FB411C124B184AD3F8043500926F
:1066700001954FF48672042006F05EFBC8E75C21AA
:106680000A4816F0F7FA08B15C21E8E70749EAE79B
:10669000002CBDD0054A4FF48871204614F021FE2D
:1066A000B6E700BF282E0020242E002091CD030045
:1066B0000010014037CE03009D2F00204ACE03007A
:1066C000342F002065CE0300682F00207CCE03000D
:1066D0003038032801D8FFF7FBBE704737B5274B8A
:1066E0001B685B0418D5264B1B68032B14DD2F2178
:1066F000244816F0BFFA002835D02F21214816F083
:10670000B9FA411C204B214AD3F8043500920420E9
:106710004FF4907206F010FB1D4C1E4D25630023B4
:1067200001212046A36284F82C3084F82D300BF030
:1067300063FD20B1134A40F2291114F0D2FD002369
:10674000022115486566E36584F8603084F861309D
:106750000BF052FD80B10B4A40F2291103B0BDE8A5
:10676000304014F0BEBD5C21064816F083FA08B133
:106770005C21C3E70349C5E703B030BD282E0020E4
:10678000242E002091CD030000100140FCCE030018
:10679000342F0020A8CE0300682F002007B503780F
:1067A0001C2B2ED1184B1B685B0416D5174B1B688E
:1067B000032B12DD2F21164816F05CFAC0B12F21F1
:1067C000134816F057FA411C124B134AD3F80435FC
:1067D00000920420B72206F0AFFA0322C8214FF43A
:1067E000F01000F023FC03B05DF804EB00F070BA89
:1067F0005C21074816F03EFA08B15C21E0E7044945
:10680000E2E703B05DF804FB282E0020242E0020D0
:1068100091CD030000100140B4CE030030B56421D7
:10682000C7B0354800F094FB344B1B7883B9344D26
:106830000FCD05AC0FC495E8030084E8030005A85C
:1068400000F02AFB20B12F4A4FF4B27114F049FD39
:1068500001F0D6FC2C4B1B685B042FD52B4B1B681F
:10686000032B2BDD2A4B05AC19680023C25C1509EC
:1068700002F00F024D5D04F813508D5C04EB4302EF
:106880000133102B5570F1D100232F211D4884F8BE
:10689000203016F0EFF930B32F211A4816F0EAF93C
:1068A000411C1C4B1C4AD3F8043501921B4A009230
:1068B000029440F26912042006F03EFA00F0FAF960
:1068C00020B1104A40F26B1114F00BFD00214FF47F
:1068D000F01000F0A2FB0222C8214FF4F01000F0EB
:1068E000A5FB47B030BD5C21064816F0C3F908B1DE
:1068F0005C21D2E70349D4E7D16602009C2F002037
:10690000F4CC030091CD0300282E0020242E00207B
:106910002C2E0020001001404DCF03005ACF030061
:1069200010B5044600214FF4F01004EB840400F08D
:1069300074FB620032214FF4C010BDE8104000F03B
:1069400075BB00F0A7BB00001FB5304C2268520495
:1069500017D52F4B1B68032B13DD2F212D4816F065
:1069600089F9002840D02F212A4816F083F9411CCC
:10697000294B2A4AD3F80435009204206F2206F0EE
:10698000DBF900F033FD00F065FD03A811F094F889
:1069900023685B0419D51E4B1B68032B15DD2F21C3
:1069A0001C4816F067F940B32F211A4816F062F917
:1069B000411C194BBDF80C20D3F804350192184A3C
:1069C000009204207A2206F0B7F900F063FB002160
:1069D0004FF4F01000F021FB0422C8214FF4F01016
:1069E00000F024FB04B010BD5C210A4816F042F907
:1069F00008B15C21B8E70749BAE75C21054816F001
:106A000039F908B15C21D0E70249D2E7282E0020ED
:106A1000242E002091CD0300001001401CCF030064
:106A200036CF030007B5134B1B685B0416D5124B1A
:106A30001B68012B12DD2F21104816F01BF980B1C5
:106A40002F210E4816F016F9411C0D4B0D4AD3F8B4
:106A5000043500920220842206F06EF903B05DF83E
:106A600004FB5C21054816F005F908B15C21E8E754
:106A70000249EAE7282E0020242E002091CD0300B1
:106A80000010014010CD030000B53B4A91B0042135
:106A900046F2010006F036F9384B1B685B0418D546
:106AA000374B1B68032B14DD2F21364816F0E2F814
:106AB000002858D02F21334816F0DCF8411C324B07
:106AC000324AD3F804350092042040F2411206F015
:106AD00033F912F061F920B12A4A40F2431114F05F
:106AE00000FC00F0E7FA2A4800F010FB20B1254A2C
:106AF00040F2471114F0F5FB00F05EFC00F076FC6C
:106B000000F0A8FC234B03AC18680290042202A9F1
:106B1000204600F053FB20B11A4A4FF4997114F04B
:106B2000E0FB0021242207A815F0D0FF01238DF8F7
:106B30001C3007238DF81F3006238DF82430164BA8
:106B40000B931649164B0A9407A80F9300F07CF894
:106B500020B10C4A40F23B1114F0C3FBFFF75EFE7C
:106B6000FFF7BEFBFCE75C21064816F083F808B18E
:106B70005C21A0E70349A2E7D9CC0200282E00201F
:106B8000242E002091CD030000100140CDCE030043
:106B9000D16402000CCD03009D6702009C2F0020F1
:106BA000DD66020003780D2B02D1002004F0ACB9A1
:106BB000704730B5837DC27D85B043EA0223044629
:106BC000ADF80C3003A803230D46ADF80E3010F0DD
:106BD00037FF10BB02AA2146208A11F021F9E0B943
:106BE0000DF10A032A46BDF80810E08A11F0DAFA1E
:106BF00098B9217ED4F8120001F0010103F0FAFCEB
:106C000010B1784601F0CEFABDF80A000DF012FF7F
:106C100018B901900EF09EFB019805B030BD08B583
:106C20000FF008F810F09AFEBDE8084003F080BAB3
:106C300007B501A810F040FFBDF80400003018BFF0
:106C4000012003B05DF804FB73B50E46054660B342
:106C500004F02CF8044628BB10F0D4FE0FF0CCFC56
:106C600028690DF0B7FE0446E0B92B7F0193AB69AC
:106C7000009301466B690E4859220EF0D3F8044682
:106C800080B92B6A03B1984707F06EFF10F0DAFD68
:106C90000EF018FEFFF7CCFF054608B10BF0D2F856
:106CA00006B13570204602B070BD0E24FAE700BF71
:106CB000A02F002008B5FFF7BBFF20B10BF07AF939
:106CC00008B10BF001F9BDE8084004F055B8000028
:106CD00008B506F0A7FD20B10020BDE8084004F08B
:106CE00013B90248BDE8084004F0B2B8A02D002056
:106CF0000349044809690323002212F0C2BC00BF03
:106D0000003000205032002010B50378023B082BE1
:106D10004AD8DFE803F01E051249493849493F00C7
:106D2000224B5B68002B3FD0007A00283CD0204AE1
:106D300001211170BDE8104018471C4B9B68002BC7
:106D400032D01B4A117879B300211170BDE8104090
:106D50001847184B1A784AB9144BDB6813B1144919
:106D60000A709847BDE81040FFF7C2BF124B1348A6
:106D700001221A7004F06CF804F052F8A0B1BDE8DA
:106D8000104014F0A1BA094B0D485969102212F0B5
:106D9000BCFCF3E78168C068FFF70BFF08B114F093
:106DA00093FA044B01221A7010BD00BF003000207E
:106DB000FC2F0020FD2F0020FE2F0020AC2D0020F6
:106DC0005032002030B5274D297885B019B10128FF
:106DD00003D003283FD005B030BD04AC002344F8F5
:106DE000083D214600F044FE08B114F06DFA20463B
:106DF00000F0A8FE08B114F067FA04A9012341F8D5
:106E0000043D0DF1060011F09DF908B114F05CFA93
:106E1000BDF8060010F072FF0DF1050111F03CF80D
:106E200008B114F051FA0BF00DF89DF80510002090
:106E30000BF0F6F810B1784601F0B4F903F09CFFBE
:106E400008B114F041FA00232B70074B1B68002B8C
:106E5000C1D09847BFE700F0DFFE0028BBD014F098
:106E600033FAB8E7FE2F00200030002008B5037881
:106E70001A2B0CD1064B1B784BB100F009FF08B15F
:106E800014F022FA0348BDE8084003F0E3BF08BD50
:106E9000FE2F0020AC2D002070B51E4A1E4E5168FA
:106EA000044686B0106803AB03C31189927A198037
:106EB0009A700FCC35460FC594E8030085E80300AF
:106EC00073692BB31549164812F0C2FBF0B9154B84
:106ED0000093124A1249144803AB12F08BFBA8B975
:106EE000124813F0BDFA01460F4812F09DFB68B935
:106EF0000F4814F01FF848B90D4814F051F8014636
:106F0000094812F091FB08B9FFF7F2FE06B070BD18
:106F10000720FBE772CF030000300020183000206C
:106F200084330020096D02005032002038300020E8
:106F30000032002010B5054C226832B114F004FB79
:106F4000002802DB23689847F8E710BDC43300200F
:106F5000154B164A10B50C4618600121144811F063
:106F600077FF18B1134A4A2114F0BBF9610C0023D2
:106F7000E00341F26F728B4208BF824210D24FF49D
:106F80007A72002315F0B8FB014600220A4811F07E
:106F900071FF38B1074A4B21BDE8104014F0A1B988
:106FA0000521F2E710BD00BFC4330020356F020099
:106FB00080CF030084CF0300C833002038B50D4CC8
:106FC000206808B914F080F94FF0A0450A4AD5F8B6
:106FD000043512685340C5F804352368013B23602B
:106FE00033B9064811F08CFF054B1B68C5F8043512
:106FF00038BD00BFE8330020EC330020F033002020
:107000001834002001234FF0A042834011B1C2F890
:107010000C357047C2F8083570474FF0A04311B1E6
:10702000C3F80C057047C3F808057047F8B542B3BC
:10703000132926D9134B144D5200013A4FF0A044A6
:107040001A602860114BD4F804251A604FF40040F0
:107050004FF4FA760027E0FB01674FF47A720023C1
:107060003046394615F048FB00220146084811F029
:1070700001FF30B9D4F804352A6823EA0203C4F8C2
:107080000435F8BDE8330020EC330020183400202C
:10709000F033002008B5054811F032FF044B1A68A0
:1070A0004FF0A043C3F8082508BD00BFF03300200F
:1070B000EC33002008B54FF0A04303224FF4003119
:1070C000C3F84427C3F808154FF48021C3F84827B4
:1070D000C3F808154FF40021C3F84C27C3F808156E
:1070E000C3F850274FF48012C3F808250121054A40
:1070F000054811F0ADFE18B1BDE8084014F0E4B841
:1071000008BD00BFBD6F0200A8CF0300D8B10F4B70
:107110000F4A18604FF0A0430020C3F83427C3F88B
:107120003827C3F83C27C3F840270A4B4FF00042EA
:10713000C3F80423C3F87C01074BC02283F806235D
:1071400040221A6070470E20704700BF10340020A4
:107150000C0003000060004000E100E0124B70B53D
:107160000024124E124DC3F87C414FF0A043A15DA4
:10717000D3F8102501238B40934311D00D49D5F846
:1071800004250B68981A48BFD01A43F2333398424B
:1071900006D9D5F804350B60074B20461B68984785
:1071A0000134042CE1D170BD00600040ACCF03007D
:1071B000001001401434002010340020082A38B593
:1071C000054614460ED815F076FCC4F108020021DD
:1071D000281915F07BFC08220349A81815F06BFC50
:1071E000002038BD092038BD6000001072DF7047F4
:1071F00073DF704774DF7047F0B52F4CA3B00546BE
:107200000E46174600211022204615F05FFC2B4841
:107210002B4A03782B49C3EB431E7244013371445C
:1072200003F00103A2601F2203702160A280A281EB
:1072300000213C2204A815F049FC062301AA8DF880
:1072400013300E9201233C22002113A88DF8023046
:10725000ADF820308DF83C30ADF80050CDF824D09A
:10726000ADF80450ADF80870039615F02FFC02231A
:10727000221D21688DF84C3004A800F0D1F908B126
:1072800014F022F8104AA16813A800F0C9F908B157
:1072900014F01AF80D4A08490D48FFF7A7FF08280F
:1072A00004D1002204490A48FFF7A0FF08B114F0F6
:1072B0000BF823B0F0BD00BF5C3400201C3400206C
:1072C0006C3400201D34002068340020BC2D0020C8
:1072D000B82D0020034B00EB80004000988199609E
:1072E000704700BFBC2D002008B5064B012118785F
:1072F000FFF77EFF08B113F0E7FF0020BDE808406C
:1073000004F05ABBB82D002008B5054B1878FFF7DC
:1073100071FF18B1BDE8084013F0D6BF08BD00BF2B
:10732000B82D002076DF70477ADF70477CDF70472A
:1073300013F0CABF03F090BD07B503784BB93B21EA
:107340004088FFF7EFFF08B303B05DF804EB13F0DC
:10735000BBBF012B1AD1134B1B685B0416D5124B14
:107360001B68032B12DD2F21104815F083FC80B120
:107370002F210E4815F07EFC411C0D4B0D4AD3F811
:10738000043500920420682205F0D6FC03B05DF8B5
:1073900004FB5C21054815F06DFC08B15C21E8E7B1
:1073A0000249EAE7282E0020242E0020C2CF030045
:1073B00000100140F2CF030013B500F02DFC08B11E
:1073C00013F082FF02AC002344F8043D0120214663
:1073D00000F04EFB08B113F077FF204600F0B2FB3F
:1073E00008B113F071FF02B010BD00001FB59DF889
:1073F00004301748012262F3030304AC62F307135D
:1074000004F80C3D15F02EFC114982B22046FFF71E
:107410008DFF08B113F058FF082200210DEB020088
:1074200015F054FB7823ADF80830C823ADF80A30C6
:107430000023ADF80C3002A84FF4C873ADF80E303D
:10744000FFF772FF08B113F03FFF04B010BD00BF9B
:10745000B0CF030030B58BB001AD08220021284623
:1074600015F034FB78230024ADF80430C823ADF8C0
:1074700006301C224FF4C873214603A8ADF80A3029
:10748000ADF8084015F022FB40F6CD4304934FF4CD
:107490008033059303238DF81830084B089303A815
:1074A000074B0395ADF81A408DF81C40099300F086
:1074B00035FD08B113F008FF0BB030BD3973020081
:1074C0003173020070B5EFF3108672B60C4A9468FF
:1074D00001239CB993600B4B0B4DD3F880102940CE
:1074E0001160C3F88050D3F8841051604FF0FF3220
:1074F000C3F88420047006B962B670BD0370FAE761
:10750000EC58002000E100E0FC06FFBD10B5084B80
:107510009A685AB150B9EFF3108272B605491C68E7
:107520000C605C684C60986002B962B610BD00BF28
:10753000EC58002000E100E06DDF704779DF704714
:107540007DDF704764DF70472DE9F74F0C9CBDF875
:1075500034B02788002580468A4691462E46B8F8E2
:10756000002096420BDB35B12288013AD21B92B241
:10757000FF2A39D8DA55002003B0BDE8F08FD8F8DB
:10758000042052F82600019000220DF1030101A809
:10759000FFF7D8FF0028EFD19DF803204A4521D1FD
:1075A0002288002D14BF0020022002EB09010144B3
:1075B000594519DC3DB9013292B2228003F802A08C
:1075C00022880132228022880DF103011A4401A889
:1075D000FFF7B8FF0028CFD121889DF803200A4487
:1075E000228001250136BAE70C20C5E72DE9F341D9
:1075F000089CBDF8245017468DE83000022206464C
:10760000FFF7A2FF48B91022394630460995089481
:1076100002B0BDE8F041FFF797BF02B0BDE8F081CE
:107620002DE9F04F00231788138090F82D3085B096
:1076300006460D46144643B3082F4ED902A8FFF75D
:107640007BFF002840F0208113880822CA54238839
:1076500001339BB21B222380CA542088013080B2A0
:10766000208006220DF10901284415F024FA238810
:107670009DF8082006339BB212F0FE0218BF0122CB
:107680002380EA54238801332380B378FBB1238815
:107690000433BB4221D802A8FFF750FF002840F076
:1076A000F38023880322EA54238801339BB21922F2
:1076B0002380EA542388BDF8082001339BB2E918DF
:1076C0002380EA54120A4A70238802332380F27816
:1076D000AAB12388D91CB94201D90C20D4E00221D7
:1076E000E954238801339BB201212380E954238884
:1076F0000B449BB22380EA5423880B442380726896
:10770000AAB12388D91CB942E7D8022192F90020F6
:10771000E954238801339BB20A212380E95423884A
:1077200001339BB22380EA542388013323803389B9
:10773000002B40F09D80338A5BB18DE890002B4692
:107740000722032106F11000FFF750FF002840F048
:107750009B80338B5BB18DE890002B461522142162
:1077600006F11800FFF742FF002840F08D80326AD2
:10777000002A40F08C80D6F82480B8F1000F2ED07B
:10778000B8F804302188981C8A1C0244BA42A4D854
:10779000FE28A2D803336B54238801339BB2FF2207
:1077A0002380EA54238801339BB22380B8F8002059
:1077B000EA54E918120A4A702088023080B2208008
:1077C000B8F804205AB1D8F80810002969D0284424
:1077D00015F071F92388B8F804201344238096F833
:1077E0002C30002B40F09880307800284CD0338823
:1077F000012B56D021888A1CBA423FF66EAF012871
:1078000005D1737802330B449F42FFF466AF023F09
:107810007F1A04A9BFB221F8087DA818FFF790FECF
:1078200090BB3378BDF80820022B02D071789142CA
:1078300002D3BA4240F2B680012B40F0B080737898
:107840009F42C0F0AC80ADF808300821BDF8083088
:10785000FE2B3FF642AF22880133AB54228801321F
:1078600092B22280A95422881344238000200BE086
:107870008DE890002B460622022106F10800FFF752
:10788000B5FE00283FF457AF05B0BDE8F08FB4F85F
:1078900000E00EF10603BB423FF61FAF1188052939
:1078A00001D80720F0E76FF4486C01EB0C039BB2A2
:1078B0004FF27D3C6345F4D95388052BF1D96FF421
:1078C0004860181880B26045EBD94FF6FF708142CE
:1078D00003D0834201D09942E3D8052305F80E3046
:1078E000238801339BB212212380E954238801337A
:1078F0009BB223801188E954E818090A4170238853
:1079000002339BB223805288EA54E918120A4A7063
:107910002388023323802EE7B36A002BC1D04FF0B7
:1079200000094FF00C0A4FF0160B96F82C305FFA56
:1079300089F293427FF658AFB16A0AFB02F201EB7B
:107940000208B8F80430981CFE283FF6C6AE20881E
:1079500003332B54238801339BB2238005F803B0F3
:10796000238801339BB223808A5AEA54E918120A09
:107970004A702088023080B22080B8F804205AB1C2
:10798000D8F8081000298CD0284415F094F82388E2
:10799000B8F804201344238009F10109C5E7ADF8C4
:1079A000087052E7092151E701600B6843604A689B
:1079B000934204BF002343607047436843B10268A9
:1079C00091680B4443605268934204BF00234360B4
:1079D00070474BDF704700001FB50D4C01A8FFF743
:1079E000F8FF70B9214602A8FFF7DEFF039B002BCA
:1079F000F4D001981A685968904702A8FFF7DDFF94
:107A0000F4E7052801D013F05FFC04B010BD00BFFF
:107A100020D0030060DF704769DF704761DF704787
:107A200030B5114B1B78A9B0E3B1104D94240DF182
:107A3000020103A8ADF80240FFF7F0FF70B9294634
:107A400001A8FFF7B1FF029B002BF0D003A81A6832
:107A50005968904701A8FFF7B0FFF4E7052801D067
:107A600013F032FC29B030BDAA3400202CD0030022
:107A7000F0B5074685B00D4600295ED0304B0B604F
:107A80000C22002101A815F021F8012606232A68FE
:107A9000ADF8083001A920208DF804708DF806603B
:107AA000FFF7BAFF0C22002101A815F00FF80024FF
:107AB0002A688DF8056001A940208DF806408DF8F0
:107AC0000740FFF7A9FF0C22214601A814F0FEFF92
:107AD00045232A68ADF8063001A923208DF80470EB
:107AE000FFF79AFF0C22214601A814F0EFFF2A6845
:107AF0008DF8044001A93046FFF78EFF0C22214685
:107B000001A814F0E3FF4FF4B0632A68019301A9C0
:107B1000A120FFF781FF0C22214601A814F0D6FF17
:107B20009DF804302A68334301A9A0208DF8043061
:107B3000FFF772FF204605B0F0BD0E20FBE700BF47
:107B4000A02D002008B5FFF765FF10B9014B0122F9
:107B50001A7008BDAA34002010DF704711DF70478B
:107B600013B5044609496846FFF71EFF019808B996
:107B700002B010BD036841682046984718B16846B6
:107B8000FFF71BFFF2E71120F2E700BF3CD0030034
:107B900013B5044607496846FFF706FF019B0BB97A
:107BA00002B010BD20461A68596890476846FFF732
:107BB00004FFF3E754D00300064B9A6822B11A6819
:107BC00022F480021A607047034B4FF48002C3F81E
:107BD00080207047EC58002000E100E00C4991F84B
:107BE00016335A09EC231341DB0708D442F2020092
:107BF00013F06ABB1A6842F480021A607047054BA2
:107C00009A68002AF6D14FF480030B60704700BFDA
:107C100000E100E0EC580020F7B5184F3C785CBB61
:107C2000174E012520463570FFF79AFF112820D006
:107C30002046FFF7ADFF134B1868019002A800F82B
:107C4000054DFFF73FFC104901A8FFF785FF0446EB
:107C5000B0FA80F0400938709DF80300FFF756FC39
:107C60003CB90A4B34701C70FFF7B8FF2846FFF789
:107C70008FFF204603B0F0BD0824FAE7AC340020A3
:107C8000AB34002038D003009D7F0200AD340020CB
:107C9000F7B5154F3B7813B3144E01203070FFF742
:107CA0005FFF11284FF000051BD00220FFF770FF87
:107CB00002A800F8015DFFF705FCFFF74FFF04463F
:107CC0009DF807003D70FFF721FC2CB93470FFF7D9
:107CD00073FF0320FFF75CFF204603B0F0BD0824CC
:107CE000FAE72C46F8E700BFAC340020AB340020A4
:107CF00007B508496846FFF757FE019B13B903B063
:107D00005DF804FB58681A6890476846FFF755FE0F
:107D1000F3E700BF48D00300FFF7EABF75DF704705
:107D200076DF70477ADF70477BDF7047034B1A8836
:107D300082420CBF18460020704700BFCC340020A0
:107D4000024B9B6903B11847704700BFB034002055
:107D500037B585B22846FFF7E9FF034670B1164CE8
:107D6000017A227B91420BD200F10A012846FFF7EB
:107D7000D5FFE8B1112801D0FFF7E2FF03B030BD15
:107D8000237C0022027243B13B212846FFF7C8FF43
:107D900030F0080301D0FFF7D3FF6369002BEDD06B
:107DA00000228DF80420ADF8065001A89847E5E7B9
:107DB0001A7A01321A72E1E7B034002013B50B468B
:107DC000497A0F4C024669B9A06861681C7A002C98
:107DD00018BF0146586811F04DF808B1FFF7B0FF21
:107DE00002B010BD002119726369002BF8D0012187
:107DF000ADF806008DF8041001A89847F0E700BF21
:107E0000B034002030B583880588B3F5FA7F24BFED
:107E10006FF4F9729C184A8838BF002495420CD838
:107E20004088904209D38A88A24206D303F2F31015
:107E3000904234BF0020012030BD002030BD000042
:107E400070B50388112B01462ED002D8102B05D017
:107E500070BD122B51D0502B35D070BDC37B012B80
:107E60004AD14FF6FF70FFF761FF054620B90420A5
:107E7000BDE87040FFF764BF8E88264A0680002365
:107E800003721368C5F80A300A3053684360103132
:107E9000FFF7B8FF204B6872DB896BBB2946304681
:107EA000BDE87040FFF78ABF8088FFF73FFF0446B8
:107EB00010B3406811F024F808B1FFF741FF4FF606
:107EC000FF73238070BD144BC288DB899A4213D1A3
:107ED000038A022B10D186883046FFF727FF05461C
:107EE00050B101F1120000F053F80028D6D16868B3
:107EF00011F006F80028BBD170BD86883046FFF728
:107F000015FF05460028F7D008310A30FFF77AFF41
:107F10006872C3E7E0340020B0340020F8B50646AC
:107F200050B305460FCD154F3C460FC495E80700EA
:107F300084E807003068124B3B60B8B1FFF7F2FEEF
:107F4000D8B931680A681A604A685A600D480E4A02
:107F50004FF6FF7303800D4B40F8043F002110F0F3
:107F600077FF002814BF03200020F8BD1846FFF754
:107F7000DBFE0028EAD0F8BD0E20F8BDB0340020AA
:107F8000E0340020CC340020517D0200E834002091
:107F9000007800F0010070470620704730B541F2CC
:107FA0000103984287B00D461446744B00F083805D
:107FB0001FD8012847D01B685B0460D5704B1B6835
:107FC000002B5CDD2F216F4814F054FE002800F0D8
:107FD000C9802F216B4814F04DFE411C6A4B6B4A3F
:107FE000D3F80435009201957B22012004F0A4FE11
:107FF00045E044F20102904200F0898044F202021E
:108000009042D8D11B68590439D55D4B1B68002BB1
:1080100035DD2F215B4814F02DFE00286ED02F2176
:10802000584814F027FE411C574B2288D3F80435DA
:10803000039262680292564A009201956C220120D6
:1080400004F07AFE1BE01B685B0418D54C4B1B68E0
:10805000002B14DD2F214B4814F00CFE10B32F2100
:10806000484814F007FE411C474B4A4AD3F80435F0
:108070000092029401956022012004F05DFE4FF011
:10808000A0434FF4F012C3F81825C3F80C25EFF302
:10809000108372B64DF6AD6C3F4A1378002B6AD14F
:1080A00007B030BD5C21374814F0E4FD08B15C2115
:1080B000D6E73449D8E71B685804E0D5304B1B6835
:1080C000002BDCDD2F212F4814F0D4FD68B12F21C7
:1080D0002C4814F0CFFD411C2B4B304AD3F804350B
:1080E0000092029401956322C6E75C21254814F0B2
:1080F000C1FD08B15C21EBE72249EDE75C21214895
:1081000014F0B8FD08B15C218AE71E498CE71B68B2
:108110005A04B4D51A4B1B68002BB0DD2F21194827
:1081200014F0A8FDA8B12F21164814F0A3FD411C9E
:10813000154B2268D3F804350492626803920295C5
:10814000A2680192164A00920120772204F0F4FD01
:1081500095E75C210B4814F08DFD08B15C21E3E745
:108160000849E5E75C21074814F084FD08B15C216B
:1081700030E7044932E730BF8FE700BF282E0020E8
:10818000242E002060D003000010014004D1030021
:10819000C4D0030088D00300D42D0020A2D0030057
:1081A000E3D0030007B50023ADF800300146054BCE
:1081B00001936A4644F20200FFF7F0FE03B05DF857
:1081C00004FB00BF9ED8030001461022014814F0B2
:1081D00072BC00BF0835002010B5064C06490822C5
:1081E000204614F068FC0822A0180449BDE810409D
:1081F00014F061BC0835002060000010A4000010DD
:108200000048704708350020002306491A46C81860
:10821000428042605A540833B3F5807FF7D1024B55
:108220001A6070471835002018360020F0B50C4B46
:108230000C4C1B68064620227BB1013B14F833002E
:1082400050B104EBC3056F88B74202D16D688D420F
:1082500002D0013AF0D11046F0BD1F23EEE700BF77
:10826000183600201835002030B5084A084C13682D
:1082700004EBC3056960012104F833100B44202B83
:1082800008BF00236880136030BD00BF183600208F
:1082900018350020C0F30C038B42084438BFA0F50A
:1082A0000050C01A70470000F0B50E4B0E4C1F680E
:1082B0000022BA4213D0D10063185E6800230AE09E
:1082C000655805EBC30E15F83350854202D1DEF830
:1082D0000400F0BD0133B342F2D10132E9E70020DE
:1082E000F0BD00BF1C3600202036002000B58DB048
:1082F00040B99A1C06D0012201A88DF804200293EF
:1083000001F022F9034B186803F056FD0DB05DF83B
:1083100004FB00BF2836002010B50378044613B9CB
:108320007846FFF73FFFE079431C01209840013871
:1083300010BD0000F8B5037804460F4613B978461F
:10834000FFF730FF0B4B0C4E1A68511C02F007026E
:1083500006EBC2051960A38A6B80A188A069FFF7AC
:1083600099FF6860E36906F8327003F001036B70EF
:10837000F8BD00BF6C3600202C3600202DE9F041FE
:108380000E468EB015461C46074610B97846FFF7D4
:1083900009FF16B97846FFF705FF14B97846FFF7CD
:1083A00001FF636A627802330593A378A2F10800A3
:1083B000002B14BF012102210DF104084242424169
:1083C000434604F10C0003F02AFE63788DF8343044
:1083D000237BADF82050022B16FA85F5CDF81880D6
:1083E00007970B960C950FD1236913B97846FFF7C1
:1083F000D9FE23690993102305A8ADF8283003F0AE
:108400000AFE0EB0BDE8F0810023F5E738B504465A
:1084100004F13005C06E07F0B2F8284602F06DFF97
:1084200010B1284602F036FF94F84830022B08D1EC
:1084300004F15005284602F060FF10B1284602F012
:1084400029FF20467022002114F040FB002084F810
:108450004800BDE8384002F07DB810B590F84830CB
:10846000012B8CB0044602D07846FFF79BFE012317
:108470008DF8043001A8636D029301F065F8204681
:10848000FFF7C4FF0CB010BD4B1E012B2DE9F047C8
:1084900007468846914602D97846FFF783FEB9F52C
:1084A000C07F02D97846FFF77DFE264B002570225B
:1084B0009A4602FB053494F848603EB9484607F0F6
:1084C0005CF8E06630B90020BDE8F0870135042D86
:1084D000EFD1F8E730223946204614F0ECFAE66492
:1084E000A4F84A90B988B869FFF7D4FEB8F1010F33
:1084F000A0611CD1144B84F852601B7D84F851306C
:1085000084F8536084F85060BB6A63656FF00103C0
:10851000A3620E4BA3632464012002F01BF87023B6
:1085200003FB05A5204685F84880BDE8F0876FF07D
:108530000103A362064BA36584F868602466054BBB
:10854000E8E700BF88360020703600201589020059
:10855000C59402000D8902001FB500220B468DF85C
:108560000F2028B30230086018460DF10F0103F008
:1085700054FD9DF80F30DBB1144B1B685B0717D51A
:10858000134B1B68032B13DD2F21124814F072FBD1
:1085900098B12F210F4814F06DFB411C0E4B0F4A70
:1085A000D3F80435009204204FF4697204F0C4FB40
:1085B0009DF80F0005B05DF804FB5C21054814F040
:1085C00059FB08B15C21E5E70249E7E7282E0020C6
:1085D000242E002054D103000010014071D103006B
:1085E0002DE9F04799461378D2F81880F2B0074683
:1085F0008A46144623B191884046FFF74BFE9061AE
:10860000A3786278002BA2F1080003AD14BF01210A
:10861000022104F10C06424242412B46304603F04F
:10862000FEFC627808951FFA8AF5AB1A9BB209978F
:10863000ADF828301F440023ADF83030237B8DF88F
:108640003C20022B04BF1022ADF83020A2780E97F8
:1086500012AFC4F818800D9704F12408002A5ED0E8
:108660004FF0000A237BC4F824A0022B04BF236927
:108670000B93206AE178424610F012F8606A40BB22
:10868000237B022B05D13146E08910F0CBF800287E
:10869000E8D1354B1B685B0718D5344B1B68052B9D
:1086A00014DD2F21324814F0E5FA002852D02F2192
:1086B0002F4814F0DFFA411C2E4B2F4AD3F8043513
:1086C0000092062040F2176204F036FB72B0BDE85B
:1086D000F08707A9FFF740FF0028CAD06178A28A77
:1086E000ADF82A206D1A01218DF8281096E80300B4
:1086F00000230B938DF81C300CAB83E80300A37DA3
:108700008DF84030236A0E9307A8636A0897ADF886
:1087100024500F93CDF8449000F016FFD6E7012BBC
:1087200062620CD000234146A08A63620FF0FCFF16
:1087300007A9606AFFF710FF0028AAD0CEE74146DC
:10874000E0890FF0F1FF07A9606AFFF705FF002835
:10875000E8D0C3E75C21064814F08CFA08B15C212C
:10876000A6E70349A8E700BF282E0020242E0020FA
:1087700054D1030000100140A8D10300C37D0A7842
:1087800030B5002B3DD0837822F07F0203F07F03C9
:108790001A430A700B78027803F07F0343EAC2138E
:1087A0000B70037863B34378083B5A425A414B78C5
:1087B00003F07F0343EAC2134B708A78858802F086
:1087C0000302C5F3861442EA850223F07F032343A4
:1087D000D2B28A704B70CB78857903F01F03C5F352
:1087E000C10422F0030243EA45132243DBB2CB70FB
:1087F0008A70C27923F01F0302F01F021343CB706B
:1088000030BD83789B0122F0400203F04003134304
:108810000B70C27823F03F0302F03F0213430B704A
:10882000B8E7000038B590F84830012B044602D074
:108830007846FFF7B7FC02F079FD237B084A012B4D
:1088400003BFA37D1569D168D16808BF05FB03117B
:10885000014404F13000BDE8384002F032BD00BFF1
:108860007036002070B50D4690B0044610B97846B9
:10887000FFF798FC00212046FFF75CFD2C22002129
:1088800005A8666D14F022F90F2305A88DF81430A1
:1088900006968DF81C5000F057FE2046FFF7B6FDF7
:1088A000154B1B685B071BD5144B1B68032B17DD8F
:1088B0002F21134814F0DEF9A0B12F21104814F035
:1088C000D9F9411C0F4BD3F80435029594F8482090
:1088D00001920D4A0092042040F2EF1204F02CFAAB
:1088E00010B070BD5C21064814F0C4F908B15C21D9
:1088F000E4E70349E6E700BF282E0020242E0020ED
:1089000054D103000010014023D103000846002188
:10891000FFF7A8BF10B591F84830012B0C4602D0E4
:108920007846FFF73FFC94F851305BB1013B84F887
:108930005130002384F85030084BBDE810401868CF
:1089400003F03ABA217B0129204603D1BDE810404B
:10895000FFF788BFBDE81040FFF77FBD2836002035
:108960002DE9F04F044687B00F4609B100230B6094
:1089700094F850504FF0010804F10C09E279954247
:1089800003D9002007B0BDE8F08FE16C08FA05F3C9
:108990000B4259D1E37DA571002B0CBF0C26082694
:1089A000954206FB05FA237808BFB4F84A60CDF873
:1089B000009008BFA6EB0A06002B14BF4FF0040B73
:1089C0004FF0010B06EB0B030293A36A0193684679
:1089D00094F82C308DF80C3003F0BDFC0028D1D178
:1089E000059B9B4445B994F853302BB9A36984F88F
:1089F0005380C3F30C03A380E37D8BB994F852300A
:108A000073B915B17846FFF7CDFBB4F84A10627818
:108A10008A1AE16E23460846FFF7B0FC84F85280BC
:108A200005992046FFF7AAFEE16E324651445846AA
:108A300014F041F8684603F0A6FC17B13B68013317
:108A40003B606B1C84F850300135EDB296E70000B6
:108A50002DE9F041D47D8AB006460F46154698466A
:108A6000002C00F092809478002C6BD106294AD11A
:108A7000027843788178920102F4FE5242EA93022E
:108A8000C3781B0443EA016341790B43017943EA4C
:108A900001233F49084691F84860012E12D18F8A80
:108AA000EE89B7420ED18E8896420BD1702202FB1E
:108AB0000404E56C1D43E5648BBB03212046FFF7EE
:108AC000D1FE20E00134042C01F17001E3D1314BDF
:108AD0001B685B0717D5304B1B68012B13DD2F215B
:108AE0002E4814F0C7F888B12F212C4814F0C2F892
:108AF000411C2B4B2B4AD3F804350092022040F244
:108B0000A55204F019F90AB0BDE8F0815C212348B0
:108B100014F0B0F808B15C21E7E72049E9E7204606
:108B2000FFF7FAFB854203D12046FFF796FCEAE700
:108B3000002184F850102046FFF712FF2046FFF76F
:108B400071FEE0E72046FFF7AFFB03460028DAD0CE
:108B500005F10C012A6A089203C9AA8AADF8162009
:108B600006AA82E80300AA7D8DF824202A788DF8D1
:108B7000142095F82C208DF80840039604978DF862
:108B80002520414602A89847BDE7FFF729FDBAE72F
:108B900088360020282E0020242E002054D10300E7
:108BA00000100140D1D10300F0B5C37D15464278D5
:108BB000002B2A4414BF4FF480734FF4C0739342C8
:108BC000C7B00E4677D33F4B03F5E07193F84840AA
:108BD000012C07D19F8A848AA74203D1DF89C489E7
:108BE000A7426AD070339942F0D10121FFF74CFCC3
:108BF0000446002863D02A463146C06E13F05BFF5E
:108C0000002304A920460493FFF7AAFE30F00405D0
:108C100006464BD1049B13B12046FFF703FE2A4BB7
:108C20001B685B0728D5294B1B68032B24DDB4F890
:108C30004A10274B8029186828BF8021002305AEE1
:108C40008B421CD100222F21224806F8132014F059
:108C500011F810B32F211F4814F00CF8411C1E4BC3
:108C60001E4AD3F8043501921D4A0092029640F242
:108C7000CF42042004F060F8284647B0F0BDE26E11
:108C8000D25C170902F00F02C75D06F81370875C0B
:108C900006EB430201335770D2E75C210D4813F015
:108CA000E9FF08B15C21D6E70A49D8E72046FFF77B
:108CB000ADFB3546E0E70925DEE70825DCE70425BE
:108CC000DAE700BF88360020282E0020242E00205E
:108CD0002C2E002054D103000010014046D1030087
:108CE0005ACF03002DE9F041044686B0808A0F4632
:108CF000164601F0D7FE01284BD1237B002B48D02C
:108D0000022B02D12369002B43D094F91630002B9B
:108D100041DB23784BB1324639462046FFF744FF0A
:108D20000546284606B0BDE8F081E27D6378002A5A
:108D3000334414BF0B220F22934228D801330293ED
:108D400004F10C030093A36A0193684694F82C3055
:108D50008DF80C3003F0FFFA05460028E1D10599A3
:108D6000204601F10108FFF709FDE37D43B13246DA
:108D70003946404613F09FFE684603F004FBD0E7F7
:108D80002346324641463846FFF7F8FAF4E709250C
:108D9000C7E71025C5E70725C3E7000010B54FF466
:108DA000E0720021144813F091FE002404F006FF45
:108DB000124B13481C602146402213F087FE114BD2
:108DC0001148124A12499C7583E805004CF2503252
:108DD0009A601A6104221A750E48D96008225A75E1
:108DE00002F0CCFF0C4B18600C4B0D481C60BDE82A
:108DF000104004F0DDBF00BF883600206C36002034
:108E00002C3600207036002080969800F049020031
:108E100020A1070019900200283600201C360020EF
:108E2000ED820200F0B504468DB000284FD00569F0
:108E3000002D4CD0C369002B49D08669002E46D046
:108E40005A788DF803201A780993037BC17A022B94
:108E500004BF214B9B7D002B82F0010214BF08232D
:108E600004238DF802208DF80130828AC3F10F00AF
:108E700019B9824201DC082B2BD08242C8BF0121E4
:108E80008DF8001051B113440B330C2193FBF1F317
:108E9000013B8DF8073000238DF8063094E803007D
:108EA00003AF87E803002189ADF81410A17A8DF88B
:108EB0001610216A0A910023294668468DF817305A
:108EC00008968DF82C30FFF70DFF0DB0F0BD0E2089
:108ED000FBE70720F9E700BF70360020F0B5034636
:108EE0008DB00F4600283DD04468002C3AD08569EB
:108EF000002D37D0027C12F0FD0F35D0027811061C
:108F000034D48DF8022082680B2A98BF007B4FF082
:108F1000000188BF012009918DF800008DF8011033
:108F200030B1D01DC00801388DF807008DF806104B
:108F300001218DF8171003F1100103C903AE86E873
:108F40000300D989ADF81410197F8DF816105B7FD6
:108F50000895214668468DF82C300A97FFF7C2FE27
:108F60000DB0F0BD0E20FBE71020F9E70720F7E772
:108F7000F0B5077B012F8DB004460D4647D101AEF9
:108F80000B220021304613F0A1FDA1889DF804209A
:108F90008DF80950C1F3861322F07F021A439DF821
:108FA00005308DF8042003F0030343EA81038DF8B4
:108FB00005302B0E8DF806302B0C8DF807302B0A60
:108FC0008DF8083006230693A38AADF822300023DB
:108FD00009938DF810308DF81C30E389ADF81E3000
:108FE00094F82C308DF82D30A37D226A8DF82070F6
:108FF00005960A9243B96FF0010104A88DF82C3050
:10900000FFF76CFF0DB0F0BD024B5B7DF3E7002076
:10901000F8E700BF70360020F7B500241D4E274644
:10902000351995F84830012B0BD101A92846019735
:10903000FFF796FC042801D0019B13B12846FFF7E7
:10904000F1FB7034B4F5E07FEAD1124C04F5E07521
:1090500094F84830022B17D194F86830022B13D1C2
:10906000E16C2046FFF784FF70B984F86800204661
:10907000E66CFFF751F9864206D120460121FFF741
:1090800059F92046FFF7C2F97034AC42E0D1012013
:1090900003B0F0BD883600202DE9F0470D469CB0A6
:1090A000144698460646002800F0F181002A00F098
:1090B000EE810DF10C0900210822484613F006FD4F
:1090C000494660880FF0AEFB20B9002738461CB037
:1090D000BDE8F0872269E168208902F0010204F00E
:1090E0003DFD82460028F0D12269E168208902F026
:1090F000010204F007FD0746A8B12C22514610A832
:109100002589247C13F0E2FC0E238DF840309DF875
:109110004630ADF8445064F3000310A88DF8463093
:1091200000F012FAD2E70DF14C0A182221465046FF
:1091300013F0C1FC337803F08002111C18BF012129
:109140008DF840109DF85710E1B103F07F038DF8C2
:1091500042308DF841705AB37278B378920102F4BC
:10916000FE5242EA9302ADF84420DB00F27803F0AD
:10917000180343EA521302F01F028DF846308DF8AF
:10918000472015E0C3F380118DF8421003F03F0132
:109190008DF84310190608D596F90130002BACBFA5
:1091A000042308238DF84130D5E704238DF841309E
:1091B0000023199398F80030052B02D97846FEF762
:1091C000F1FF98F80030B54A99E80300D35C8DF8B8
:1091D0006C308AE8030002F061FD9DF84030002BFE
:1091E00000F04E81AE4BBDF854200024194693F890
:1091F000480002280DD1988A90420AD1702303FBBF
:109200000414BDF84420A3889A4230D202F086FDAF
:109210005CE70134042C03F17003E8D100249DF8CD
:10922000403013B97846FEF7BDFF179BBDF84410D8
:109230001698BDF854A003F00109FFF72BF8994BDD
:1092400000229E465968884217D15988514514D149
:109250005978494511D11EF83230002BD6D010A8CC
:10926000FFF75AF8014610A8FFF782FECEE7D6D9DD
:1092700005212046FFF7F6FAD0E70132082A03F16C
:109280000803DFD1002C51D19DF857209DF84730BD
:10929000002A0CBF0C24082403FB04440CBF4FF429
:1092A000C0734FF480739C4226D97F4B1B685A07CA
:1092B000ACD57E4B1B68002BA8DD2F217C4813F01A
:1092C000D9FC80B12F217A4813F0D4FC411C794B92
:1092D000794AD3F80435009201944FF44D7201207D
:1092E00003F02AFD92E75C21714813F0C3FC08B13A
:1092F0005C21E8E76E49EAE72246022110A8FFF761
:10930000C3F8044690B9014610A8FFF731FE2C229D
:10931000214605A813F0DAFB0F238DF8143005A8B9
:1093200002238DF81C3000F00FF96FE75E4B1B68CD
:109330005B071CD55D4B1B68032B18DD2F215C4898
:1093400013F098FC002800F08A802F21584813F071
:1093500091FC411C574B9DF84620D3F804350192EF
:10936000564A0092042040F24F3203F0E5FC94F894
:109370004830022B02D07846FEF714FFDFF8409108
:10938000D9F800A001F0D2FF0AEB000104F130008F
:1093900001F097FF237B012B1CD194F86830CBB9E7
:1093A00094F84830022B02D07846FEF7FBFED9F83D
:1093B000043099F81510D9F8082002FB013901F0A2
:1093C000B5FF00EB090104F1500001F07AFF012321
:1093D00084F868309DF84630E16C012098400142E5
:1093E0007FF414AF0143E164E1799942A5F10402ED
:1093F0009DF857103CD1002914BF08210C2103FB14
:109400000121E56EA4F84A100CBF0C20082000FBD7
:109410000350311D13F04FFB2046E56CFEF77CFF37
:1094200085427FF4F3AE022384F86830E16C204675
:10943000FFF79EFD434605462246B4F84A10E06E0B
:10944000FFF706FB002D7FF4E1AE204684F868505C
:109450000121FEF76FFF2046FEF7D8FFD6E65C211C
:10946000134813F007FC08B15C216FE7104971E75E
:1094700079B90C2A0EE004212046FFF7F3F9C5E67E
:10948000434610AA691E701CFFF7E2FABEE60E27DB
:109490001CE6082AEFD1E56E1046B8E71DD103009F
:1094A000883600202C360020282E0020242E002074
:1094B00054D103000010014084D1030098D103006F
:1094C0007036002010B591F84830022B0C4602D0BF
:1094D0007846FEF767FE022384F86830E16C204688
:1094E000FFF746FD08B984F8680010BD2DE9F0418A
:1094F00088460746E8B1124E3468C4B9254645454A
:1095000007D1104B1F605D60012333602046BDE82A
:10951000F08107EBC5035B685BB117F83500030604
:1095200009D450B1FEF7C0FE38B90135E7E704248D
:10953000ECE70E24EAE70B24E8E70F24E6E700BF98
:109540001C36002020360020F8B5074610B97846B2
:10955000FEF728FE0F4E346894B10F4D01232B7097
:1095600023791BB954F8043C384698472468002CEA
:10957000F6D12B78022B03D13168064C09B929703A
:10958000F8BD0B790E6813B1204603F05DFB314640
:10959000F4E700BF4C3800204838002010B50446DE
:1095A00010B97846FEF7FEFD00232372211D024804
:1095B000BDE8104003F027BB4C38002010B504462E
:1095C00010B97846FEF7EEFD074A1378013B012BF0
:1095D00004D8022313700123237210BD211D0348F8
:1095E000BDE8104003F030BB483800204C38002064
:1095F0000B888268D25A073222F003021344028891
:109600009BB2043A934288BF00230B80704713B586
:109610008368CB1A02A921F8023DFFF7E9FFBDF8E4
:1096200006308068184402B010BD70B50646154675
:109630000C4611BB7846FEF7B5FDFEB17846FEF745
:10964000B1FD6B1E2344B3F1005F34D94FF080525B
:10965000D2F80C2102F50022B3EB822F2ED2042D7A
:1096600002D87846FEF79EFD35800023043D7380C6
:10967000B380B4602580A37070BD10B97846FEF742
:1096800091FDB4F1005F12D94FF08053D3F80C3143
:1096900003F50023B4EB832FD3D34FF08053D3F8DB
:1096A0000C3103F50053B4EB832FC7D2C9E7B4F5EF
:1096B000000FF2D8C2E7B3F5000F08D94FF080527F
:1096C000D2F80C2102F50052B3EB822FC7D37846B3
:1096D000FEF768FDC3E738B5044610B97846FEF7D3
:1096E00061FD6288A36813449B78012B02D1784600
:1096F000FEF758FDEFF3108572B6A268A1881144F9
:109700008B78032B0AD12046FFF781FFA368C31A89
:1097100063800023837005B962B638BD002393705F
:109720006380A380F7E7F8B50E461546044610B9E6
:109730007846FEF737FD16B97846FEF733FD6288A6
:10974000A36813449B78012B02D17846FEF72AFDCB
:10975000002D37D02388043B9BB29D4232D8EFF3D3
:10976000108772B66188A388EA1D22F0030299422D
:1097700092B206D25B1A9A4212DD042027BB62B66F
:10978000F8BD16D92088401A904209D29A42F4D8DE
:10979000032881BFA3685B1804229A7000236380AA
:1097A0006288A1688B188D5201229A700020336064
:1097B000E4E7A26813449B78002BDED193706380AA
:1097C000A380EDE70920F8BDF8BDF8B50D461646B3
:1097D000044610B97846FEF7E5FC15B97846FEF761
:1097E000E1FCAB78012B02D07846FEF7DBFC2B883E
:1097F000B34202D27846FEF7D5FC16B97846FEF79A
:10980000D1FCEFF3108772B60223AB70E1182E8003
:109810002046FFF7EDFE6288A38893421FBFA3682E
:109820009B1800229A7007B962B6F8BD70B50D4654
:10983000044610B97846FEF7B5FC15B97846FEF730
:10984000B1FCEFF3108672B6A288A36813449A782D
:10985000042A06D1211D2046FFF7CAFEA288A3686C
:1098600013449A78022A03D0032A08D0052003E083
:1098700003229A702B60002006B962B670BD78464C
:10988000FEF790FCF7E738B5044610B97846FEF7C6
:1098900089FCEFF3108572B6A088A16801448B782B
:1098A000042B03D12046FFF7B2FE01468878831EC1
:1098B0005842584105B962B638BD38B5044610B9AA
:1098C0007846FEF76FFCEFF3108572B6A088A168AA
:1098D00001448878C31E012B05D9831E5842584184
:1098E00005B962B638BD2046FFF791FE0146F0E7A4
:1098F000F8B50D46044610B97846FEF753FC15B985
:109900007846FEF74FFCEFF3108672B6AB78012B6A
:1099100019D0032B22D1A288A36813449D4202D000
:109920007846FEF73FFC0027AF70211D2046FFF769
:109930005FFEA288A36813449B78042B00D1A78004
:1099400006B962B6F8BD6288A36813449D4202D08E
:109950007846FEF727FC0023AB70F1E77846FEF768
:1099600021FCEDE710B5EFF3108472B682888168B0
:1099700011448B78042B02D1FFF749FE0146887809
:10998000B0FA80F0400904B962B610BD037942799B
:109990009B1A03F57F2303F6FF7300EB0330704738
:1099A00010B5054884681C22002113F08FF820466A
:1099B000BDE8104003F046BF5038002070B51C4C85
:1099C000E36813B97846FEF7EDFB237E13B17846C2
:1099D000FEF7E8FB6368092B02D97846FEF7E2FB45
:1099E000144D0026636855F823309847022811D09B
:1099F00003280DD0012815D163680133092B63605A
:109A000002D97846FEF7CEFB237E002BEAD00DE08C
:109A10006660F9E7237E0BB1207070BDBDE8704031
:109A2000FFF7BEBF00F0FD000128EDD070BD00BF04
:109A30005038002000D2030010B50388044613B943
:109A40007846FEF7AFFB2088074B04EB800030EA36
:109A5000030203D06288B2F5FE4F04D11C4004F526
:109A600080542078204410BD00F0FFFF70B50446FC
:109A70000E4647F6FE65FFF7DFFFB04207D284428D
:109A800005D24388013B9BB2AB42F4D870BD0020A5
:109A900070BD00000B78032B094B04BF00221A761F
:109AA0001A78012A03D11B7E43B9FFF787BF022A28
:109AB00004D10B78032B01D1FFF772BF704700BFB1
:109AC0005038002010B50C4CE3681878002203F5DC
:109AD0008051184404F030F950B9E1680846FFF7A6
:109AE00055FF814206D001F58051E160032010BD91
:109AF000012010BD022010BD503800201FB50A4BB8
:109B000002221B688DF800200193084A4FF480530D
:109B100069460120029300F005FFB0FA80F0400989
:109B200005B05DF804FB00BF703800206C380020E1
:109B30001FB501230190039102926946044A8DF8F2
:109B40000030184600F0EEFE05B05DF804FB00BFE3
:109B50006C3800202DE9F047264BD868027941790E
:109B6000013A91421E4603D101205876BDE8F087A4
:109B700000F5805320491C781C440B6813F8045FDF
:109B80001D44FFF703FF6388013B9BB247F6FE626B
:109B9000934200F58057884604D920463946FFF79E
:109BA00065FF0446DFF854A04FF0010934B9B4FA58
:109BB00084F4640974760120BDE8F087D8F80010B9
:109BC0006288284601F5805104F0B6F80546002861
:109BD000EDD004225146204686F81890FFF7A8FFE2
:109BE00028B920463946FFF741FF0446DEE700204A
:109BF000BDE8F0875038002070380020A0D3030063
:109C000038B5104CE36818784FF6FF7203F58051B1
:109C1000184404F091F888B1E36819780B4498422D
:109C20000CD0657E084B09490422002D08BF194657
:109C3000FFF77EFF20B90120207638BD012038BD16
:109C4000002038BD50380020A4D30300A8D303005F
:109C500070B50C4D0C4EE96830680C780430224623
:109C6000FFF766FF58B9336804F0FC0404341C4461
:109C7000EB686C611A7813442B61012070BD0020E1
:109C800070BD00BF503800207038002008B5054B6B
:109C9000054918680422FFF74BFFB0FA80F040092D
:109CA00008BD00BF703800205C38002010B5074B9D
:109CB000074C1968E06840F6FC720431FFF738FF82
:109CC00010B90120207610BD002010BD7038002092
:109CD0005038002010B50C4CE1680846FFF756FEDE
:109CE00081420AD1094B0A4918680422FFF720FF74
:109CF00040B901232376022010BD01F58051E160B7
:109D0000032010BD002010BD503800207038002006
:109D1000743800202DE9F74F334C236913B9784686
:109D2000FEF740FA636913B97846FEF73BFADFF8AD
:109D3000BC9047F6FE6A63692769E06803EA090890
:109D4000A8EB0308FFF722FE7B88013B9BB253453B
:109D500008F5805800F5805B06D938465946FFF76C
:109D600085FE0746002837D03D4600265D4519D2BE
:109D70002A8806EB8202904509D987EA050313EA8F
:109D8000090F04D16B88013B9BB2534502D956B9E8
:109D900001231AE028460192FFF74EFE019A05467C
:109DA0001646E3E7F6B1324639466069FFF7C0FE72
:109DB000A0B9636926F003063344636115B9784698
:109DC000FEF7F0F92561002335B1698847F6FF7287
:109DD000914201D0002BAED0012000E0002003B062
:109DE000BDE8F08F0123EFE75038002000F0FFFFBF
:109DF0001FB50A4B0222DB688DF800200193084A48
:109E00004FF4805369460120029300F08BFDB0FAB5
:109E100080F0400905B05DF804FB00BF5038002019
:109E20006C38002010B54FF010235A69013225D04C
:109E30005A691AB35B69A3F58053A3F58053174A97
:109E4000196813604B1E033325D8C1F30B0313BBF2
:109E5000134A1448D16001211170134913765376C7
:109E6000936051F8234084420ED153600F49012082
:109E700000F048FDFFF7A2FD012010BD4FF0805219
:109E8000516913694B43D8E701330A2BE9D178466E
:109E9000FEF788F9EAE7002010BD00BF7038002007
:109EA00050380020F19D020000D20300959A020074
:109EB00010B5044610B97846FEF774F9094B1878C6
:109EC00070B1E068D9684379A0EB0333994206D3B7
:109ED000FFF75CFD81428CBF0020012010BD0020F7
:109EE00010BD00BF50380020024B1878003018BF5A
:109EF000012070475038002038B50E4C23780546B5
:109F000013B17846FEF74EF92B78032B02D0784632
:109F1000FEF748F9EB68E360012000230649A560DD
:109F2000636023762070637600F0ECFCBDE8384077
:109F3000FFF744BD50380020959A0200014B186885
:109F4000704700BF7038002010B5044610B978463D
:109F5000FEF728F963681BB123680BB1A36813B936
:109F60007846FEF71FF9A3685A1E1A4202D07846B7
:109F7000FEF718F90023E360236110BD70B50E46AB
:109F80000446F0B18368F3B1EFF3108572B601694E
:109F9000C368994203D105B962B605250FE04EB1F9
:109FA0008368013B0B4090E80600304602FB03113A
:109FB00012F081FD23690133236135B962B6284669
:109FC00070BD0E25FBE70925F9E70025F7E700003E
:109FD000024AD2F80034002BFBD0704700E0014069
:109FE000C0F30B0310B5E3B9E9B1104C0223C4F878
:109FF0000435FFF7EDFF01F6FF7121F47F6121F0D9
:10A000000F010144884205D10020C4F80405FFF780
:10A01000DFFF10BDC4F80805FFF7DAFF00F5805038
:10A02000F0E7102010BD092010BD00BF00E0014086
:10A0300070B540EA010414F003041BD1E2B19507A6
:10A040001AD10E4E0123C6F804359508FFF7C0FF5C
:10A05000AC4205D10020C6F80405FFF7B9FF70BD7A
:10A0600051F824305A1C03D040F82430FFF7B0FFD9
:10A070000134EDE7102070BD092070BD00E0014003
:10A080004388012B05D0022B01D104300860012048
:10A09000704704304860FAE708B5082202210948F1
:10A0A00003F027FA20B90848BDE8084003F0A2BB36
:10A0B000064A91684160127B0272BDE8084003F0D5
:10A0C00047BA00BF80380020E82D0020CC3800209F
:10A0D00010B5044610B97846FEF764F82346BDE88B
:10A0E0001040184738B50E4D2B78C3B90D4B5C683E
:10A0F00004F50054B4F1807F11D8042201210A48EC
:10A1000003F0F7F920B90948BDE8384003F072BB05
:10A11000012344602B70BDE8384003F019BA38BD04
:10A12000E0380020CC38002080380020D82D0020D6
:10A1300010B501210C4803F021FA80B902210A4828
:10A1400003F01CFA044650B901461422074812F0E5
:10A15000BDFC074B1C70BDE81040FFF7C3BF0548AE
:10A1600003F048FBF7E700BF80380020CC38002020
:10A17000A4380020082E002030B50D468DB07AB9E5
:10A180004B88012B0AD1124C227812B97846FEF77F
:10A1900009F8104B6A685A60002323700DB030BD77
:10A1A000032A02D07846FDF7FDFF2C22002101A8EA
:10A1B00012F08CFC10238DF80430074B0395DA68FD
:10A1C0001B69059201A80693FFF7BEF9E6E700BFF9
:10A1D000E0380020CC3800208038002013B501F092
:10A1E0005DFD00216B46124A12480091019103F077
:10A1F000D3F8009B104C0BB1019A6AB9002323607D
:10A20000A3602373FFF748FF23686360FFF76AFFCB
:10A2100001F084FD02B010BD1968A16019792173A5
:10A22000934203D91B790BB92360EDE71368FBE771
:10A2300081A0020080380020CC38002008B503F04F
:10A2400027FBA0F5805008BD7FB500211822684685
:10A2500012F03CFC00230293FFF7F0FF0123009073
:10A2600001936946054B0648039303F0AEF910B11C
:10A27000044803F0BFFA07B05DF804FB79A10200BF
:10A2800080380020F82D002008B5142200210A484B
:10A2900012F01CFC01F04AF8084B094A9A60094A7E
:10A2A000DA60002258601A615A61074B1A70BDE8E3
:10A2B0000840FFF7C9BF00BFCC380020A8380020F5
:10A2C000E5A3020000879303E138002010B5074C96
:10A2D00023784BB90648074B036000F0B9FD0648E8
:10A2E00000F0B6FF0123237010BD00BF7C380020B2
:10A2F000C03800204DA40200A838002030B58DB031
:10A3000001F0CCFC154B1A7B1D4622BB9A7B12BB7D
:10A310001A8A41F282639A4202D8114B1B78D3B158
:10A3200001232B73AB6800240133AB602C82FFF751
:10A33000B3FEAB682A7B8DF80820013B0CA8049380
:10A34000022300F82C3D0394FFF7FEF801F0E6FC31
:10A3500020460DB030BD0824F8E700BFCC380020FF
:10A36000E138002010B58CB001F098FC1B4B5A7BF3
:10A3700042B1997B99B9188A41F28261884201D829
:10A38000174A127802F001047AB1197B00225A733D
:10A3900039B101290ED07846FDF704FF05E000220F
:10A3A000F0E7FFF7ABFF0028F5D101F0B7FC20463E
:10A3B0000CB010BD1A605A601A731A820CA89B6800
:10A3C0000493022300F82C3D8DF808200392FFF738
:10A3D000BBF8FFF761FEFFF785FEE6E7CC3800200B
:10A3E000E138002038B5174C257B2DB1012D12D056
:10A3F0007846FDF7D7FE21E0228A41F282639A4235
:10A4000002D8114B1B78CBB1FFF7ACFF638A0BB1BD
:10A41000013B638238BD238A41F28262934202D8B3
:10A42000094A157855B142F2B012934282BF012316
:10A4300000256373FFF796FF002DE7D0238A0133D1
:10A440002382E3E7CC380020E138002030B50378E0
:10A45000042B8DB00FD143681B7863B1224C436944
:10A46000217B027E002939D1618A61BB012AA26861
:10A4700003D0934204D80DB030BD0132934224D9A9
:10A48000A2682A329342F6D8A27B002AF3D18568CB
:10A49000A36042F606532260626022826382627386
:10A4A0002273FFF7F9FDFFF71DFE237B8DF80830BF
:10A4B0000CA80223A26800F82C3D103504920395E5
:10A4C000FFF742F8D7E7012AD5D1A26801329342BB
:10A4D000D1D101236373FFF745FFCCE70129CAD12E
:10A4E000012AC8D0A268F2E7CC38002038B5164C53
:10A4F00094E80C009A4205461FD2207B1349144B66
:10A50000012808BF0B46934207D963682268403B85
:10A510009A4208D3FFF7E6FD05E001236373FFF7D6
:10A5200021FF0028F1D0EFF3108072B623685A1C87
:10A5300022602B6028B962B638BDFFF7D3FD0F202B
:10A5400038BD002038BD00BFCC38002000E0FF003F
:10A55000FFFF7F0010B50C4C30B10C4B01229A73F9
:10A5600023681344236010BD236813B97846FDF7B0
:10A5700019FE2368013B23602BB9044A9373BDE89D
:10A580001040FFF7EFBE10BD78380020CC38002017
:10A5900000B58DB00323ADF808000CA88DF810208D
:10A5A00000F82C3D0391FEF7CFFF0DB05DF804FBE2
:10A5B000014B9868704700BFCC380020034B1A7BD2
:10A5C0009868012A08BF00F1FF307047CC3800209E
:10A5D000044B9B685840C20748BF03F1FF3318463D
:10A5E000704700BFCC380020014B187B704700BF7C
:10A5F000CC38002038B5094B1C7864B9084D0122CD
:10A60000A8601A702973FFF747FD2C606C60FFF794
:10A6100069FD204638BD082038BD00BFA4380020A1
:10A62000CC3800202DE9F8431D4CDFF87890002647
:10A630000221204602F07DF95FFA86F805460027E0
:10A64000ADB967B12946204602F0DBF9082806D1EA
:10A6500054F8043C1BB12A46494640469847013607
:10A66000032E04F1BC04E3D10120BDE8F88354F8C3
:10A67000043C23B134F80C2C29464046984734F862
:10A680000C3C013324F80C3C0221204602F06DF909
:10A690000221204602F04DF901370546D0E700BF00
:10A6A000F838002028D2030038B5012104460C30C8
:10A6B00002F03FF9054628B3164BC4F89C3000233E
:10A6C000C4F8A03003786268012B07D0022B1BD09E
:10A6D0007846FDF767FD4FF4FA7307E081688B1A3F
:10A6E00099084FF4A9734B4303F5FA730A4A93424E
:10A6F00094BFC4F8A830C4F8A8200123C4F8AC4023
:10A7000084F8B830284638BD83689B1A1A0B034B6F
:10A710005343E9E741A7020060850100645E010040
:10A7200010B50446FFF7C0FF48B104F19C0005F0E6
:10A73000B9FB20B17846BDE81040FDF733BD10BD30
:10A740002DE9F74F4A4B1B7880460D463BB105F08B
:10A75000DFFB002385F8B83003B0BDE8F08F01F1CE
:10A760000C09D1F8A8704846012102F0E2F806462B
:10A7700010B97846FDF716FDDFF8FCA0A7F5FA77CB
:10A7800000244FF4A97B3378012BA7EB040406D0F7
:10A79000022B3BD07846FDF705FD00231FE06B68D8
:10A7A000B268B4FBFBF4D21AA400944228BF14464A
:10A7B00024B901937846FDF7F5FC019BF1687068B8
:10A7C00023F00303224619441844FFF731FC10B16B
:10A7D0007846FDF7E7FC6B681C446C60B3686A68F8
:10A7E0009A422AD105F094FB4846012102F0BDF8B7
:10A7F00000236B6085F8B8301E4B186801F0DCFA56
:10A80000284603B0BDE8F04FFFF78ABF6B68B26817
:10A81000B4FBFAF4D21A2403944228BF144624B994
:10A8200001937846FDF7BEFC019B706823F003039B
:10A8300021461844FFF7D4FBC9E701F01DF933782E
:10A84000B0EB080448BFA8EB0004012B0DD0022B8D
:10A8500006D1534623449F4295D205F059FBCFE7DA
:10A860007846FDF79FFC0023F4E74FF4A973F1E766
:10A87000E8380020E4380020645E0100F8B51E4886
:10A880001E4C01F07BFA1E4B186004F11C030827D4
:10A8900010260325636104F10C0004F11803236101
:10A8A000A7736673257302F087F804F1D803C4F820
:10A8B000D03004F1C80004F1D403C4F8CC3084F8DB
:10A8C000CA7084F8C96084F8C85002F075F804F5BD
:10A8D000CA73C4F88C3104F5C87384F8867184F89F
:10A8E000856184F88451C4F8883104F5C270BDE8EC
:10A8F000F84002F061B800BF25A60200EC38002045
:10A90000E4380020022838B504460D4602D97846BE
:10A91000FDF748FC024BBC2202FB0434A56038BDA5
:10A92000EC38002002282DE9F84F07460C469246E5
:10A9300002D97846FDF736FC14B97846FDF732FCAB
:10A940002378012B12D16368990702D07846FDF76E
:10A9500029FCE3689A0702D07846FDF723FCA36838
:10A960009B0711D07846FDF71DFC0DE0022B0DD1A1
:10A970006368C3F30B0313B17846FDF713FCA368B8
:10A98000C3F30B03002BEDD1A36813B97846FDF791
:10A9900009FCEFF3108872B6BC257D43224E05F109
:10A9A0000C09B1440021484601F0C3FF834690B32F
:10A9B0000021484601F0D9FF10222146584612F0E6
:10A9C0007AF8BAF1000F03D073195B88AAF8003047
:10A9D000BC2303FB07677B8897F8B84001337B8073
:10A9E00004BB124B1F78BFB97019FFF75DFEB8F1B9
:10A9F000000F0ED162B6444640B105F19C003044D0
:10AA000005F050FA10B17846FDF7CCFB2046BDE8C2
:10AA1000F88F3C46F0E70424B8F1000FF6D1A046C9
:10AA20000020E7E70024F7E7EC380020E8380020B2
:10AA300070B5EFF3108672B6154C236818BB13B9C6
:10AA40007846FDF7AFFB2368013B236093B9114DB6
:10AA500095F8B83013B92846FFF762FE95F87431BF
:10AA600013B90D48FFF75CFE95F8303213B90B4867
:10AA7000FFF756FE23680A4A003318BF01231370FC
:10AA800026B962B670BD01332360F3E770BD00BF25
:10AA9000203B0020EC380020A8390020643A002038
:10AAA000E838002010B1800B014B185C704700BFE4
:10AAB00038D2030012DF704713B5137863B1042B4B
:10AAC0000CBF0723002310F8011C292962D005D8E8
:10AAD000162973D002B010BD537DF4E72A2927D080
:10AAE0002B29F7D1022BF5D110F8021C0139C9B27C
:10AAF00003F08AF804460028ECD0374B1B685B064D
:10AB0000E8D5364B1B68012BE4DD2F21344812F0C9
:10AB1000B1F8002849D02F21314812F0ABF8411C80
:10AB2000304B314AD3F8043500920194A42224E03A
:10AB3000022B01D0072BCDD110F8021C013901F0F6
:10AB400045FC04460028C5D0234B1B685A06C1D5D6
:10AB5000224B1B68012BBDDD2F21214812F08AF802
:10AB600078B12F211E4812F085F8411C1D4B1F4A59
:10AB7000D3F80435009201949122022002F0DCF80F
:10AB8000A8E75C21164812F075F808B15C21E9E7E6
:10AB90001349EBE7022B9DD110F8021C0139C9B211
:10ABA00002B0BDE810400FF079BC5C210C4812F0F7
:10ABB00061F808B15C21AFE70949B1E701884FF6B8
:10ABC000E463994286D110F8021C0230033902B0C6
:10ABD000BDE81040FDF7E0B9282E0020242E00200B
:10ABE00061D2030000100140A6D203007DD2030011
:10ABF00070B58AB005F022FE0446002834D0002348
:10AC00008DF8103006460FCE05AD0FC533682B60AA
:10AC1000627D052A0CD9207D00F00F03072B07D099
:10AC200004AB063A04F11D0100F00F0004F0D8FC5B
:10AC3000114B1A68AAB104AB0393237DC3F303033A
:10AC40008DF80430637D062B89BF063B00238DF809
:10AC5000053004F11D0398BF8DF80530029301A85B
:10AC60009047204605F0D4FD05F000FE80F001007D
:10AC7000C0B20AB070BD00BF283B002000B50A4B2F
:10AC80001A78032A8DB00CD104221A7000212C22CC
:10AC900001A811F01BFF1A2301A88DF80430FEF75C
:10ACA00053FC0DB05DF804FB243B0020F7B52E4F9C
:10ACB0003A780546002A4DD100284DD0067A0F2E4D
:10ACC00001D0062E4AD104F057FCE86800283ED097
:10ACD000FDF77AFA0DF10700FFF7ECFE044698BB8A
:10ACE0009DF80730012B3BD1FDF78EFA00F09AFA60
:10ACF000304600F083FFE87800F022F900F0B6FD5E
:10AD000005F06EF8194805F049FE04F0DBFDFFF789
:10AD1000B5FD03F0E3FE00F055FC04F0E9FB284626
:10AD200001F000FB2846FEF739F803F0DDFAFDF7E5
:10AD300033F908B1062815D10D4804F023FC0D4B5A
:10AD400000221A6001233B70204603B0F0BDFDF7DE
:10AD500043FABFE70824F7E70E24F5E70724F3E7F3
:10AD60000224F1E70446EFE7243B0020F1AB0200A8
:10AD7000182E0020283B002037B5234D2A78012AC1
:10AD800005D002D3033A012A36D9082426E005F07B
:10AD900021FD01F0D9FAFDF7FFF8044650B306286B
:10ADA00028D01A4B1B685B0418D5194B1B68012B64
:10ADB00014DD2F21174811F05DFF90B12F211548A8
:10ADC00011F058FF411C144B144AD3F8043500927B
:10ADD00001944FF4CB72022001F0AEFF204603B085
:10ADE00030BD5C210B4811F045FF08B15C21E6E75E
:10ADF0000849E8E700F02EFF05F046F80446002871
:10AE0000ECD102232B70E9E7243B0020282E002000
:10AE1000242E002061D20300001001403CD2030028
:10AE200008B5084B1A78022A0AD1032206481A707C
:10AE300004F0F8FF28B17846FDF7B4F9002008BD0A
:10AE4000082008BD243B00207DAC0200FDF7EABFCE
:10AE5000FEF7A4BBFEF7B2BB08B500F0D7FC00209C
:10AE600008BD07F045B80000044B1A680132B2F182
:10AE7000704F08BF01221A60186870472C3B0020F1
:10AE800010B5044610B97846FDF78CF9002323600D
:10AE9000636010BD38B50D46044610B97846FDF71D
:10AEA00081F915B97846FDF77DF900236B60EFF362
:10AEB000108372B6226822B92560656003B962B654
:10AEC00038BD62685560F8E710B5044610B9784699
:10AED000FDF768F9EFF3108272B6206808B1436895
:10AEE0002360236803B9636002B962B610BD10B570
:10AEF000044610B97846FDF755F9206810BD35DFD6
:10AF000070473CDF7047000008B503464FF0FF3044
:10AF1000FFF7F5FF4FF0FF311846FFF7F2FFBFF3E1
:10AF20004F8F0549054BCA6802F4E0621343CB60BA
:10AF3000BFF34F8F00BFFDE700ED00E00400FA050E
:10AF400007289ABF024B33F81000FA20704700BF61
:10AF5000D2D20300024B5868103840B2704700BF8D
:10AF600000ED00E0084A202390FBF3F352F8233071
:10AF7000424202F01F0200F01F0058BF504223FA65
:10AF800000F000F00100704700E100E046DF70478C
:10AF900030B501F110031032103013F8014D12F8E2
:10AFA000015D8B4284EA050400F8014DF5D130BD06
:10AFB0002DE9F047144690B002F10F0510228846A3
:10AFC0002D1101460DEB0200994604F00F0411F01B
:10AFD00072FD0DB1002C44D04FF0000A0226102261
:10AFE000002108A811F072FD04A8FFF7CFFF01228D
:10AFF0000DF13F0110AB13F9100D1F46994234D1EA
:10B000009DF83F3001325B00DBB20028D2B2B8BFFE
:10B0100083F0870396428DF83F30EBD2013D6E46B8
:10B02000BAF1000F2CD03A4608EB05113046FFF775
:10B03000AFFF10220021384611F048FD0024AC4239
:10B0400034DB3A46314608A8FFF7A2FF04A8FFF711
:10B050009DFF10223946484611F02DFD10B0BDE885
:10B06000F0874FF0010A5646B9E793F801E093F8EC
:10B0700000C04FEADE1E4EEA4C0E03F801EBBDE7BE
:10B08000224608EB0511684611F015FD10AB23446C
:10B090008022013403F8402C6C44A31B102B02D1F6
:10B0A0003A463146C2E704F801ABF6E708EB041272
:10B0B000394608A8FFF76CFF04A8FFF767FF0134C3
:10B0C000BDE7000038B5124B1A6804462AB11A6869
:10B0D00045685268AA1A002A0DDA1A6862611C6073
:10B0E0009A88013292B29A8012B97846FDF75AF8DE
:10B0F0000123237038BD19684A691AB15068401B92
:10B10000002802DB62614C61EAE71146F4E700BF08
:10B11000343B002010B5124B1A68824204461A468E
:10B120000BD142691A609A8892B2511E89B29980F5
:10B130008AB97846FDF736F80DE01B685BB15969AE
:10B140008C420BD16169596193889BB2591E89B2B7
:10B150009180002BEDD00023237010BD0B46EDE74E
:10B16000343B0020014B186800F026BE303B002025
:10B17000044B1A6822B11B680349586800F062B991
:10B1800000F0B6B9343B002065B102002DE9F04172
:10B1900000F0CCF8224E054637464FF000083368E1
:10B1A00023B133685B685B1B642B06D400F0BEF8E8
:10B1B000FFF7DEFF0120BDE8F08134682378012B22
:10B1C00002D07846FCF7EEFF63693B60BB88C4F8A9
:10B1D00014809BB25A1E92B2BA8013B97846FCF71B
:10B1E000E1FFA36813B97846FCF7DCFF0223284689
:10B1F00023702169A368984700F098F82378022B00
:10B200000546CCD1E2680AB92270C8E763681344E6
:10B21000591B6429FBD463602046FFF753FFBEE748
:10B22000343B002008B508220021064811F04EFCEE
:10B23000054800F0A3FD054B1860BDE8084000F08C
:10B2400067B800BF343B00208DB10200303B0020C6
:10B2500010B5044600F088FE10B97846FCF7A2FF4E
:10B2600014B97846FCF79EFFA36813B97846FCF73B
:10B2700099FF2378012B02D17846FCF793FF002336
:10B2800063612046FFF71EFF00F050F8BDE8104054
:10B29000FFF76EBF10B5044600F066FE10B97846A1
:10B2A000FCF780FF14B97846FCF77CFF2046FFF7D7
:10B2B00031FF0023636100F039F8BDE81040FFF76B
:10B2C00057BF38B504460D4600F04EFE10B978461B
:10B2D000FCF768FF14B97846FCF764FF2046FFF7D7
:10B2E00019FF0023636120466560FFF7EBFE00F065
:10B2F0001DF8BDE83840FFF73BBF0378DBB2012BF8
:10B3000004D00078831E5842584170471846704751
:10B3100008B50DF005FE38B90DF03EFD20B17846B8
:10B32000BDE80840FCF73EBF08BD000010B5EFF3D4
:10B33000108072B60C4A0D4B1968D2F80435D2F859
:10B340000441012C04BFD2F80435013100B962B6C2
:10B35000074843EA01614FF480420023E0FB0123E8
:10B36000D00B40EA434010BD001001403C3B0020A0
:10B3700040420F0010B50A4B0A4C4FF40032C3F89C
:10B380004823C3F80823226812B97846FCF70AFF5D
:10B390002468FFF7CBFF2346BDE81040184700BFE5
:10B3A00000100140483B002010B5EFF3108272B648
:10B3B0001F4B20480021C3F80411016801310160CE
:10B3C00002B962B61C4A116800292FD011680139F0
:10B3D0001160126852BB194AD3F8040511688842FB
:10B3E00017D2EFF3108072B6D3F804151468013148
:10B3F000A1422ABFD3F8042512680232C3F84425BB
:10B4000000B962B64FF40032C3F84423C3F80423F2
:10B4100010BD0B4C226812B97846FCF7C3FE2468B5
:10B42000FFF784FF2346BDE81040184710BD00BF5A
:10B43000001001403C3B0020403B0020443B0020EA
:10B44000483B002037B50023044601930D4611B94F
:10B450007846FCF7A7FE204B1D60FFF767FF031B34
:10B46000002BB8BF241A1D481D4AA8BF00244FF462
:10B47000004500210023E5FB040111F03DF9EFF345
:10B480001083019372B6174A174CD2F8043502287C
:10B49000C3F1FF1101F57F4138BF022088421349F3
:10B4A00010D80344C2F844354FF40033C2F8443393
:10B4B000C2F80433002323600B60019B03B962B61A
:10B4C00003B030BD03F17F43013303441A0E013250
:10B4D000226023F07F43EFE7483B002020A10700D4
:10B4E00040420F0000100140403B0020443B002040
:10B4F000074B4FF40032C3F84823C3F80823054A2A
:10B5000000231360044A1360044A1360704700BFAD
:10B5100000100140403B0020443B0020483B0020FD
:10B5200030DF704731DF704710B5034605C89C68AF
:10B53000D968A0EB721082EAF4320C440144104442
:10B540001A605C609960D86010BD37B50C4605463E
:10B5500010B97846FCF726FE0023A34201D303B0BE
:10B5600030BD0DF10700FFF7DBFF9DF80710002944
:10B57000F7D0E21A914288BF8DF80720E8189DF8AD
:10B580000710FFF7CFFF9DF807201344E5E7000001
:10B5900037B5044602A8002340F8043D0421FFF714
:10B5A000D4FF074B2360019B6360A360E360142515
:10B5B0002046FFF7B9FF013DFAD103B030BD00BF0F
:10B5C000ED5EEAF1704748DF704749DF70474ADFB8
:10B5D00070470000064A032313741168054B53613A
:10B5E00040F6D862914288BF43F2B0629A607047D9
:10B5F000783B0020983B0020054B1B68A0F17802A7
:10B6000028335843034BB0FBF3F0101A704700BFC8
:10B61000943B002040420F0038B50E4A0E4C0123E7
:10B6200063711368002501331360257400F07EFAFE
:10B6300004F0DCFC2068FFF7DFFF084A01462846DB
:10B6400000F0E8F920B17846BDE83840FCF7AABD23
:10B6500038BD00BFAC3B0020783B0020D5B50200D0
:10B660001D4B30B1DA6859690132DA601A680A4450
:10B670001A60996801221A745A6901315208012925
:10B6800099605A610DD0022919D05A691B68134973
:10B6900013448B4203D840F6D7639A421BD8FFF776
:10B6A000BBBFB2F5FA7F03D130B900225A61ECE793
:10B6B00040F6D8618A42E8D840F6D862F6E7DA6800
:10B6C000022A03D11968054A521AEFE7012ADCD190
:10B6D0000028EAD0D9E77047783B00208096980090
:10B6E00070B5424C424E0123237133781BB1414B5C
:10B6F0001D78002D5BD000232374042853D8DFE885
:10B7000000F0034D4A4844003B4DA179AA68A3606C
:10B71000E36023682260002934D001212174374975
:10B72000002B08BF0B46991AB1F57A7F26D39A42AF
:10B7300024D8616143F2B0620123AA6043F69822E3
:10B740006B71EA60A371237C023B012B0DD86379F6
:10B7500043B104F067FC2068FFF74EFF00F01CFACD
:10B7600000236371234B00221A70237C2448022B90
:10B7700004BF012323760023237170BD4FF47A7335
:10B780006361D7E7FFF748FFD4E70120FFF768FFC1
:10B79000D9E70020FAE704F0DFFBD4E700F08CF9EA
:10B7A00004F012FCCFE77846FCF7FCFCCBE700F096
:10B7B00063F933782060022B0FD0032B06D0012BC6
:10B7C00010D10223237400233370BCE70A4B0D4AC7
:10B7D0009A600D4A5D71DA60A57103232374064BEC
:10B7E0006361F0E77846FCF7DDFCECE7783B00208E
:10B7F000A93B0020A83B0020983B002080969800A1
:10B80000883B0020A0860100FF1FA107043808B56F
:10B81000042825D8DFE800F016220A030F00114B98
:10B820001B7E012B1CD1FFF7D0FEC8B17846BDE8C6
:10B830000840FCF7B7BC0B4B00221A76BDE8084065
:10B8400004F028BC08480123437143F69823C360E1
:10B8500040F6D8638360FFF7BAFEE6E70248FAE7EE
:10B8600008BD00BF783B0020983B00200D4A10B572
:10B8700043F2B06400230121946043F698241370CE
:10B8800013715171D460084A1060084A1370084A55
:10B890001370084A1360084A1371537113601376CA
:10B8A000917110BD983B0020943B0020A83B0020E4
:10B8B000A93B0020AC3B0020783B002010B50E4C8B
:10B8C000227E012A0CD004D3022A0CBF11200020B2
:10B8D00010BD0A48FFF777FE10B17846FCF762FC0E
:10B8E0000748FFF774FE10B17846FCF75BFC0223B3
:10B8F0002376002010BD00BF783B0020E1B6020097
:10B90000983B0020074B1B7C023B012B07D9064BC1
:10B910001878013802288CBF0020012070470120D0
:10B92000704700BF783B0020A93B0020014B1868FE
:10B93000704700BF783B002010B5074B587948B1DD
:10B940001868FFF759FE044600F096F80346201ADF
:10B9500048BF181B10BD00BF783B0020014B187971
:10B96000704700BF783B0020024B187E003018BFA4
:10B9700001207047783B0020EFF3108372B6054A30
:10B98000527922B1044A4FF48071C2F8001103B910
:10B9900062B67047783B002000E100E0044B1B7E5C
:10B9A000022B04D1034B01221A70FFF7E5BF704749
:10B9B000783B0020A93B0020064B1B7E022B07D1C1
:10B9C0000128054B0CBF032202221A70FFF7D4BFD7
:10B9D000704700BF783B0020A93B0020074A13783E
:10B9E0002BB140B9064B1B78003318BF01231070F0
:10B9F0001BB1FFF7C1BF0023F9E77047A83B002048
:10BA0000A93B0020024B1B6803B962B6704700BF18
:10BA1000C03B0020022810B522D8EFF31083114C50
:10BA2000236072B6104B43F82020104B002243F8DD
:10BA300020200F4B1B787BB1830003F1804303F57B
:10BA400000431030C3F84021012202FA00F0094AF5
:10BA5000C2F80403C3F84015FFF7D4FF002010BD5F
:10BA6000072010BDC03B0020B03B0020CC3B002095
:10BA7000BC3B00200080004008B5EFF310830A4A69
:10BA8000136072B6094B1B7853B1094B0022C3F8FF
:10BA90004C210122DA64D3F84C05FFF7B3FF08BD4F
:10BAA000044B1868F9E700BFC03B0020BC3B0020F6
:10BAB00000800040C43B00202DE9F84FDFF858809B
:10BAC000DFF858900024A70007F1804505F50045F0
:10BAD000D5F84031D3B1D8F8043304F1100201266F
