:020000022000DC
:1060000000FD032075B703009DB703009FB7030091
:10601000A1B70300A3B70300A5B703000000000069
:10602000000000000000000000000000A7B703000F
:10603000A9B7030000000000ABB70300ADB7030031
:10604000AFB70300AFB70300B9A90200AFB70300B1
:10605000AFB70300AFB70300596B0200AFB703003F
:10606000AFB70300AFB70300F9A10300AFB7030058
:10607000AFB70300AFB70300AFB70300AFB703007C
:10608000AFB70300B9B0030029660300AFB7030040
:1060900079B10300AFB70300056F0200AFB703008B
:1060A000AFB70300AFB70300AFB70300AFB703004C
:1060B000AFB70300AFB7030000000000000000000E
:1060C000AFB70300AFB70300AFB70300AFB703002C
:1060D000AFB70300AFB70300AFB70300AFB703001C
:1060E000AFB70300AFB70300AFB703000000000075
:1060F00000000000AFB7030000000000AFB70300CE
:10610000000000000000000000000000000000008F
:10611000000000000000000000000000000000007F
:10612000000000000000000000000000000000006F
:10613000000000000000000000000000000000005F
:10614000000000000000000000000000000000004F
:10615000000000000000000000000000000000003F
:10616000000000000000000000000000000000002F
:10617000000000000000000000000000000000001F
:10618000000000000000000000000000000000000F
:1061900000000000000000000000000000000000FF
:1061A00000000000000000000000000000000000EF
:1061B00000000000000000000000000000000000DF
:1061C00000000000000000000000000000000000CF
:1061D00000000000000000000000000000000000BF
:1061E00000000000000000000000000000000000AF
:1061F000000000000000000000000000000000009F
:1062000010B5054C237833B9044B13B10448AFF3F0
:1062100000800123237010BDF82E00200000000034
:1062200010E603000C4B43B10C480D4910B5AFF319
:1062300000800C48036823B910BD0A48036833B9CD
:106240007047094B002BF7D0BDE810401847064BAC
:10625000002BF5D0184700BF0000000010E6030037
:10626000FC2E0020F42E002000000000154B002B17
:1062700008BF134B9D46A3F5803A00218B460F467D
:106280001348144A121A16F033FE0F4B002B00D09D
:1062900098470E4B002B00D09847002000210400A7
:1062A0000D000D48002802D00C48AFF3008016F016
:1062B000D1FD2000290000F0BDF816F0B7FD00BFA9
:1062C0000000080000FD03200000000000000000A6
:1062D000F82E0020F0610020000000000000000007
:1062E00041DF704707B503781C2B2ED1184B1B6874
:1062F0005B0416D5174B1B68032B12DD2F211648A4
:1063000016F0CAFEC0B12F21134816F0C5FE411C7D
:10631000124B134AD3F8043500920420A22210F045
:10632000F1FF0322C8214FF4F03000F0B5FB03B0B9
:106330005DF804EB00F0D4BA5C21074816F0ACFE1F
:1063400008B15C21E0E70449E2E703B05DF804FB33
:10635000702E00206C2E002018D103000010014088
:1063600033D1030010B50378083B0446042B5BD8F7
:10637000DFE803F041454E0303000079022804F1F1
:10638000050126D004282DD1B4F81320B4F8093023
:106390009A4225D1D4F80F20D4F805309A421FD163
:1063A000D4F81530D4F80B2093422CBF00230123DE
:1063B000C3B11E4B1A680CF031F818B11C4A822187
:1063C00015F003FA00214FF4F030BDE8104000F062
:1063D00059BBE27B63799A4202D1237CA279E3E73D
:1063E0000023E5E70CF066F8F0B1114A8821BDE81A
:1063F000104015F0EAB901214FF42040E5E70021F3
:106400004FF4F03000F03EFB01214FF4C040DCE7D8
:106410004FF4F030002100F035FB20790CF0ACF89F
:1064200010B1034A9721E2E710BD00BF3861002098
:1064300018D1030080B58CB014F0E6FF18B1AD4A56
:10644000C82115F0C2F9AC4C00F05AFBAB4A04214C
:106450004CF2870010F03CFF23685A0418D5A84B73
:106460001B68032B14DD2F21A24816F015FE00280F
:1064700000F038812F219F4816F00EFE411CA14BE1
:10648000A14AD3F8043500920420CC2210F03AFF40
:106490009E4E9F4D9F4F2B6831685B1A3B602B6867
:1064A0009D4923F47F6323F00F0303F580530B60B2
:1064B000236813F4804FB0460E461BD0904B1B68E8
:1064C000052B17DD2F218B4816F0E6FD002800F084
:1064D0003F812F21874816F0DFFD411C894BD3F8FF
:1064E0000435D8F8002001928C4A00920620D5226B
:1064F00010F008FF23685B041AD5814B1B68052B3D
:1065000016DD2F217B4816F0C7FD002800F02981F9
:106510002F21784816F0C0FD411C7A4BD3F8043582
:106520002A6801927E4A00920620D62210F0EAFEE6
:1065300023685D041AD5724B1B68052B16DD2F21CD
:106540006C4816F0A9FD002800F014812F2169483D
:1065500016F0A2FD411C6B4B3A68D3F8043501924A
:10656000704A00920620D72210F0CCFE236858040F
:106570001AD5634B1B68052B16DD2F215D4816F0DD
:106580008BFD002800F0FF802F215A4816F084FD73
:10659000411C5C4B3268D3F804350192624A009288
:1065A0000620D82210F0AEFE00F00CFB00212422C1
:1065B00003A816F09DFC01238DF80C3007238DF8FD
:1065C0000F3006238DF814305849594B079303A810
:1065D00000F054F918B1474AB82115F0F6F8002038
:1065E00006F082F818B1434ABB2115F0EEF8514885
:1065F000514B03600EF080FF2368590418D5404BBF
:106600001B68032B14DD2F213A4816F045FD0028A6
:1066100000F0C2802F21374816F03EFD411C394B57
:10662000464AD3F8043500920420DE2210F06AFEB8
:106630003E4B1B7873B9039304930593069307931A
:1066400003A83F4B089300F0B9F918B1294AEF218C
:1066500015F0BBF823685A0418D5294B1B68032B87
:1066600014DD2F21234816F017FD002800F09D802F
:106670002F21204816F010FD411C224B314AD3F83F
:10668000043500920420F32210F03CFE06F047F897
:1066900018B1184AF42115F098F800F0A2F818B1D2
:1066A000144AF72115F091F823685B0417D5144BB1
:1066B0001B68032B13DD2F210E4816F0EDFC00287C
:1066C0007CD02F210B4816F0E7FC411C0D4B1E4AD5
:1066D000D3F8043500920420F92210F013FEFFF7DE
:1066E000FFFDFCE75C21034816F0D6FC70B35C218B
:1066F000C1E600BF18D10300702E0020A572030070
:106700006C2E0020001001404CD10300A02D002071
:10671000A42D00203C6100203861002074D10300CA
:1067200083D1030092D10300A1D10300142F0020D4
:10673000E5620200182F002065630200B1D103005A
:10674000FFD10300CBD10300E9D10300204996E635
:106750005C211F4816F0A0FC08B15C21BAE61C4978
:10676000BCE65C211A4816F097FC08B15C21D0E623
:106770001749D2E65C21164816F08EFC08B15C2160
:10678000E5E61349E7E65C21114816F085FC08B1FF
:106790005C21FAE60E49FCE65C210D4816F07CFC13
:1067A00008B15C2137E70A4939E75C21084816F04F
:1067B00073FC08B15C215CE705495EE75C21044895
:1067C00016F06AFC08B15C217CE701497EE700BF56
:1067D00018D1030003780D2B02D100200EF0E2BE89
:1067E00070470EF01DBE30B5837DC27D85B043EA93
:1067F00002230446ADF80C3003A801230D46ADF882
:106800000E3003F067F810BB02AA2146208A03F07D
:106810008FFAE0B90DF10A032A46BDF80810E08AA4
:1068200003F03EFC98B9217ED4F8120001F001017A
:106830000EF01AFA10B178460BF0B6FFBDF80A0058
:1068400008F014FA18B9019000F0BCFD019805B0E9
:1068500030BD08B501F01CFA02F0C4FFBDE80840E5
:106860000DF0A0BF07B501A803F070F8BDF8040053
:10687000003018BF012003B05DF804FB73B50E466D
:10688000054648B30EF066FD044610BB03F004F85D
:1068900001F0B4FE286908F0B9F90446C8B92B7FA5
:1068A0000193AB69009301466B690C484FF6FF7288
:1068B00008F0D4FB044660B92B6A03B1984712F084
:1068C00005FC02F003FF01F031F8FFF7CBFF06B142
:1068D0003070204602B070BD0E24FAE7242F00204D
:1068E00008B511F085FA20B10020BDE808400EF08F
:1068F00059BE0248BDE808400EF0FEBDA82D00209C
:106900000349044809690123002209F044BA00BF81
:10691000842F00208431002010B50378023B082B1F
:106920002CD8DFE803F01B05102B2B2C2B2B380069
:106930001E4B5B6813B3007A00B31D4A012111702E
:10694000BDE810401847194B9B68BBB1184A117835
:10695000A1B100211170BDE810401847154B1A78FD
:10696000124B42B9DB6813B111490A709847BDE870
:106970001040FFF7C5BF1B68002BECD110BD0B4BBF
:106980000D485969102209F084FA0028F6D0BDE8B4
:10699000104014F00DBF8168C068FFF724FF08B1F4
:1069A00014F006FF034B01221A70E7E7842F002042
:1069B000802F0020812F00208431002070B5184ADC
:1069C000184E5168044686B0106803AB03C31189A2
:1069D000927A19809A700FCC35460FC594E803005F
:1069E00085E803007369CBB10F49104809F0BAF983
:1069F00090B90F4B00930C4A0C490E4803AB09F0B9
:106A000083F948B90C480AF039F90146094809F0F8
:106A100095F908B9FFF774FF06B070BD0720FBE7D2
:106A20000FD20300842F00209C2F0020B8320020BA
:106A30001969020084310020BC2F002038B50D4CAC
:106A4000206808B914F0B4FE4FF0A0450A4AD5F802
:106A5000043512685340C5F804352368013B2360B0
:106A600033B9064814F084FD054B1B68C5F804359E
:106A700038BD00BFF8320020FC3200200033002077
:106A8000283300204FF0A04311B1C3F80C05704724
:106A9000C3F8080570470000F8B542B3132926D99A
:106AA000134B144D5200013A4FF0A0441A60286075
:106AB000114BD4F804251A604FF400404FF4FA76D5
:106AC0000027E0FB01674FF47A7200233046394615
:106AD00016F024F800220146084814F003FD30B9EE
:106AE000D4F804352A6823EA0203C4F80435F8BD53
:106AF000F8320020FC320020283300200033002030
:106B000008B54FF0A04303224FF40051C3F83427D7
:106B1000C3F808154FF48041C3F83827C3F80815A7
:106B20004FF40041C3F83C27C3F80815C3F84027C9
:106B30004FF48032C3F808250121054A054814F0B6
:106B4000BFFC18B1BDE8084014F032BE08BD00BF5C
:106B50003D6A02001CD20300124B70B50024124E95
:106B6000124DC3F87C414FF0A043A15DD3F810252E
:106B700001238B40934311D00D49D5F804250B68B0
:106B8000981A48BFD01A43F23333984206D9D5F841
:106B900004350B60074B20461B6898470134042CD2
:106BA000E1D170BD0060004020D203000010014020
:106BB000243300202033002060DF704769DF7047F6
:106BC0000EF09CBC10B588B000F04CF908B114F080
:106BD000EFFD2B4B0393039B04930C22002105A88C
:106BE00016F086F90023049A8DF8143005A90120C7
:106BF000FFF7E4FF08B114F0DBFD0C22002105A82B
:106C000016F076F9F823049A059305A9A120FFF759
:106C1000D5FF08B114F0CCFD04A8FFF7CDFF039B0E
:106C2000049A9A4204461CD0164B1B685B0418D584
:106C3000154B1B68012B14DD2F21144816F02CFA7C
:106C4000A8B12F21114816F027FA411C104B049AC5
:106C5000D3F8043501920F4A00920220A22210F0CC
:106C600051FB14B1204614F0A3FD08B010BD5C2107
:106C7000064816F011FA08B15C21E3E70349E5E79D
:106C8000A02D0020702E00206C2E002024D20300A6
:106C90000010014054D2030070B5EFF3108672B6B5
:106CA0000C4A946801239CB993600B4B0B4DD3F8AD
:106CB000801029401160C3F88050D3F884105160CF
:106CC0004FF0FF32C3F88420047006B962B670BD7D
:106CD0000370FAE74061002000E100E0FC06FFBD20
:106CE00010B5084B9A685AB150B9EFF3108272B6DA
:106CF00005491C680C605C684C60986002B962B61B
:106D000010BD00BF4061002000E100E001600B68A1
:106D100043604A68934204BF00234360704743685E
:106D200043B1026891680B4443605268934204BFC8
:106D30000023436070474BDF704700001FB50D4CC8
:106D400001A8FFF7F8FF70B9214602A8FFF7DEFFA0
:106D5000039B002BF4D001981A685968904702A849
:106D6000FFF7DDFFF4E7052801D014F021FD04B0A2
:106D700010BD00BF90D2030061DF704730B5114BEA
:106D80001B7891B0E3B1104D34240DF1020103A83A
:106D9000ADF80240FFF7F0FF70B9294601A8FFF7F0
:106DA000B5FF029B002BF0D003A81A6859689047E2
:106DB00001A8FFF7B4FFF4E7052801D014F0F8FCB0
:106DC00011B030BD2C3300209CD2030010DF70477F
:106DD00013B5044609496846FFF798FF019808B9BA
:106DE00002B010BD036841682046984718B1684654
:106DF000FFF795FFF2E71120F2E700BFACD20300E6
:106E000013B5044607496846FFF780FF019B0BB99D
:106E100002B010BD20461A68596890476846FFF7CF
:106E20007EFFF3E7C4D203000C4991F816335A09E8
:106E3000EC231341DB0708D442F2020014F0B8BC83
:106E40001A6842F480021A607047054B9A68002A5B
:106E5000F6D14FF480030B60704700BF00E100E003
:106E600040610020F7B5184F3C785CBB174E0125F8
:106E700020463570FFF7ACFF112820D02046FFF7E1
:106E8000BFFF134B1868019002A800F8054DFFF7EB
:106E900003FF104901A8FFF799FF0446B0FA80F0FC
:106EA000400938709DF80300FFF71AFF3CB90A4B00
:106EB00034701C70FFF7B8FF2846FFF7A1FF20468B
:106EC00003B0F0BD0824FAE72E3300202D33002054
:106ED000A8D20300A12503002F33002007B50849DD
:106EE0006846FFF713FF019B13B903B05DF804FB7D
:106EF00058681A6890476846FFF711FFF3E700BF2C
:106F0000B8D20300FFF7EABF38B5837803F0030275
:106F10000446032A22D8DFE802F00214191D9B0858
:106F2000154A1648126813440268A3600021EAB1AA
:106F300095685D1B002D16DAD1B91146E160046039
:106F400038BD9B0803EB83035B00E9E79B086422E1
:106F50005343E5E79B0841F27072F9E778460BF07E
:106F600023FC0023DCE71146D268E0E70029E5D0E6
:106F7000CC60E26038BD00BF4833002050330020B1
:106F800008B5032809D8DFE800F00D02040606481A
:106F900008BD064808BD064808BD78460BF004FC4D
:106FA000002008BD034808BD40420F0080969800AD
:106FB0000046C323A08601002DE9F041574D2B78F0
:106FC000A3B1574B574E5C680EF0F8FC241A30788A
:106FD000FFF7D6FF3278544B001B002A40D14CF209
:106FE000503290423CD91A6801321A60DFF8488169
:106FF000D8F80020002A00F087804A4E9378307835
:1070000003F003038342344664DD474B97681B68F3
:10701000FB1A464F5F43FFF7B3FFD8F80030B7FBCA
:10702000F0F09F78C7F30107FBB2022B1FD031D8D5
:10703000012B47D10A22B0FBF2F302FB1300002818
:1070400040D10EF0BBFC00F5742101F510713770D2
:107050002B78002B50D03248BDE8F0410EF079BCBF
:107060001A683249B0FBF1F010441860BEE733787B
:1070700063B96422B0FBF2F302FB130010BB0EF005
:107080009DFC2B49022301442370E1E7012B19D118
:107090000A22EFE7337863B941F27072B0FBF2F382
:1070A00002FB130070B90EF089FC2249032301444E
:1070B000EAE7012B02D14FF41672EFE7022B01D160
:1070C0003C22EBE70EF07AFC06462078FFF758FFEB
:1070D0003118BDE70EF072FCD8F8003004469878FD
:1070E00000F00300FFF74CFFD8F800309B78C3F3A3
:1070F000010321183370ABE7094801232B7041606D
:10710000BDE8F0410EF0ECBB2B7823B10448BDE89C
:10711000F0410EF007BCBDE8F08100BF4C33002009
:10712000303300204D33002048330020A08601007A
:10713000809698000046C323503300202DE9F34188
:10714000244B1B78032B2AD8DFE803F0021B1F23F4
:10715000214A136801331360204B214E1E4D00223B
:107160001A70B04634683CB1A3682A6893421AD0BA
:107170002A689B1A002B16DBFFF71EFF02B0BDE842
:10718000F081154A13680A33E5E7134A136864333C
:10719000E1E7114A136803F5BB531033DBE7784688
:1071A0000BF002FBD8E72788E368C8F8003002A993
:1071B000002341F8043D384601F086F910B17846C5
:1071C0000BF0F2FA38466368019998472046FFF7BA
:1071D0009BFEC7E74D330020483300204C3300208E
:1071E0005033002010B5084C18220021204615F01D
:1071F0007FFE064B064AA36000231360054A136016
:10720000054A137010BD00BF303300203D710200ED
:1072100048330020503300204C330020F8B50F468F
:107220001646044610B978460BF0BEFA124D0FF020
:1072300097F82B6800220BB1A34216D1A17867F30F
:10724000010166F38701A1709BB1DB6882B92B60F5
:107250002EB12046FFF758FE2B689C4201D1FFF764
:10726000ABFEBDE8F8400FF0BBB81A46DB68E2E7BA
:10727000D360002EF5D0ECE75033002070B50E46F9
:107280001546044610B978460BF08EFAA378C3F37E
:1072900001033370A378C3F385032B7070BD4A09D3
:1072A000012301F01F0103FA01F150F822301942C5
:1072B00014BF0120002070474FF6FF72B2EB104F51
:1072C00082B083B215D113F47F4007D003F440435A
:1072D000B3F5004F14BF0020012006E023F07F0229
:1072E0002AB97F3B18BF0123184602B070470346F6
:1072F000FAE723F03F03C02BECE7000001289FBF13
:10730000054B342202FB003090F8300094BF00F0AF
:1073100001000020704700BF9033002000470000AC
:107320004388C3F30B03012B02D900200870704778
:10733000064A12F8331041F0010102F8331002EB53
:10734000C3034268D2435A6001207047F8330020DB
:107350004388C3F30B0313B1002008707047024B3E
:1073600082881A80012070475433002007B51346E5
:107370004FF47042ADF804200122ADF806001A70F7
:1073800003480A4601A910F0EDFA03B05DF804FBCA
:107390006833002078460BF007BA000008B5064BAA
:1073A000064801221A7010F0CBFA20B10448BDE85B
:1073B000084010F005BD08BD8C3300206833002064
:1073C000C42D00202DE9F0410EF0CAFF494B0022E8
:1073D0001A70494B1B78A3BB484C23786BB9062223
:1073E0000121474810F06BFB58B302220125C580EC
:1073F0000281828010F092FB25700024414DDFF85D
:1074000000812646A1B2E6B915F8343003F0030333
:10741000032B4FEAC40710D1042241F440514046E7
:1074200010F04DFB88B1EB195B68DB43436010F053
:1074300075FB7B5D23F002037B550134022CE1D107
:107440002EB1314810F0BCFC50E01126F5E72F4D6D
:107450006B799B070FD522464FF48051284810F0D6
:107460002EFB0028EDD02A88828010F057FB6B7924
:1074700023F002036B71264C94F8303003F00303C1
:10748000032B16D114224FF400511D4810F017FBA6
:1074900005460028D5D014222146043015F01DFDE4
:1074A000284610F03BFB94F8303023F0020384F8B8
:1074B000303094F8643003F00303032B16D1142208
:1074C00042F201010E4810F0FAFA05460028B8D041
:1074D00014221049043015F000FD284610F01EFB60
:1074E00094F8643023F0020384F86430BDE8F0417E
:1074F0000EF076BFE42D00208C3300208D33002069
:1075000068330020F8330020D42D002054330020AD
:1075100090330020C433002010B50F4C68220021A6
:10752000204615F0E5FC062200210C4815F0E0FC91
:10753000102200210A4815F0DBFC4FF6FF730222EF
:10754000E380A380E281A38163872387A4F842209C
:10755000A4F8403010BD00BF903300205433002009
:10756000F833002030B5012A8DB004460D4607D10E
:1075700078460BF019F90E4B01221A700DB030BD90
:10758000022AF5D0032AF6D12C22002101A815F0F9
:10759000AFFC10238DF8043002238DF80830E36827
:1075A000059301A82369039506930CF0CFFAE2E74F
:1075B000E42D00204A0901F01F034FF0FF319940EC
:1075C00050F82230194009D04B420B40044959432E
:1075D000C90E044B585C00EB4210704718207047EE
:1075E00031B57C07E3D203002DE9F04F0B89B3F5E9
:1075F000BE7FADF5317D83460C46154679D2FFF747
:107600007DFE28B9052528460DF5317DBDE8F08FB2
:10761000994E342303FB0B639A89002AF2D13DB9BA
:1076200099884FF6FF72914207D0DB88934204D0CD
:107630002068FFF741FE00285DD10725E3E73946C2
:10764000D888B3F804A002F0FFF90028DAD17B88CB
:107650000BB91025D7E74FF6FF7969E0E36851933E
:107660002368529397E80300636853932389ADF826
:10767000503155AB83E8030051A8ADF852818DF825
:107680005CB1ADF85EA1ADF8609101F0E9F93B782D
:10769000012B05465CD1B6E7032582E011F47F4F4C
:1076A0001FBF080A18705970022004BF197001200A
:1076B00085E05C21714815F0EFFC08B15C219AE08F
:1076C0006E499CE06268D25C170902F00F02C75D48
:1076D00006F81370875C06EB430201335770ABE08A
:1076E0005C21664815F0D8FC08B15C21B2E0634922
:1076F000B4E0092587E704A802F028F9342303FB46
:107700000B63BDF81220B3F80C804245A1D9BDF837
:10771000102090441FFA88F805AF002D8FD0B5F8DF
:107720001EA0B5F824900C3595E8030087E8030007
:10773000342303FB0B66384696F811B0BBF1FF0FFC
:1077400004BF4F4B93F800B001F07CF9002885D1BD
:1077500007AE24220021304615F0CAFB0DAA51467F
:10776000484602F043FE054600287FF44CAF97E8F8
:107770000300A37AF37286E803006088E37A337328
:107780004FF6FF7551ABA842A6F8088086F80AB0FC
:107790003361228921887FF47FAFFF298CBF0225C6
:1077A00001251544B582E56835624FF6FF75A8429C
:1077B0003FF474AF5870000A987019700320616824
:1077C000184415F08AFB002130460DF093FE054663
:1077D00000287FF418AF2B4E326892041BD52A4B39
:1077E0001B68042B17DD2F21244815F055FC0028B9
:1077F0003FF45FAF2F21214815F04EFC411C234B75
:107800002288D3F804350192214A0092052040F2E3
:10781000AB120FF077FD33689B047FF5F4AE1A4B83
:107820001B68042B7FF7EFAE21891A4B802918685B
:1078300028BF8021002310AE8B427FF443AF00228B
:107840002F210E4806F8132015F026FC00283FF4DF
:1078500047AF2F21094815F01FFC411C0B4B0E4A66
:10786000D3F8043501920D4A009202964FF4D67275
:1078700005200FF047FDC6E69033002003D3030038
:10788000E52D0020702E00206C2E002000100140FD
:107890001FD30300742E002033D303003BD3030017
:1078A00038B54388C3F30B03012B044610D8028A72
:1078B00072B91B48342202FB0302D589628A012D6A
:1078C00009D8AA4204D1174D15F83250ED0702D459
:1078D0000020087038BD012A9FBF124D15F83210E4
:1078E00041F0040105F832103425211D05FB030089
:1078F000142215F0F2FAA188238A4FF6FF72914202
:10790000094A4FF0060101FB03234FF001000BBFB2
:107910009A78DA78013201320CBF9A70DA7038BD89
:1079200090330020F8330020543300202DE9F04339
:1079300085B004AB0622404F43F80C2D002402AA68
:1079400001213E483C7010F083F8054638B9BDF877
:107950000A30012B05D000243C70FFF71FFD2046A4
:1079600035E0BDF80C20022AF5D1BDF80820022A26
:10797000F1D10DF1030232493B704FF44050FFF753
:10798000F5FC9DF80330002BE5D02E4B2E495A799B
:107990009D7022F002025A71DD701D800DF103020C
:1079A0004FF48050FFF7E2FC9DF80330002BD2D05B
:1079B0000DF1030225494FF40050FFF7D7FC9DF865
:1079C00003303BB99DF80330002BC4D0012005B033
:1079D000BDE8F0830028F5D01D4CDFF8789004F165
:1079E0006808A2894FF6FF739A4203D13434A04548
:1079F000F7D1E7E7E088984205D001F0BDFF10B16C
:107A000078460AF0D1FEE689022EEFD009EBC606D1
:107A1000043600213046FFF7CDFD18280546E5D095
:107A2000A8B201F0F5FF10B178460AF0BDFE691C5E
:107A30001729EFD9DAE700BF8D3300206833002023
:107A4000217302005433002051730200A178020018
:107A500090330020F83300202DE9F74F00F1140493
:107A60000546204602F0FEFE064680B34FF6FF7341
:107A7000ADF802302B7D012B2CD101A801F066FF5F
:107A8000EF8ABDF80430FF1ABFB2324CDFF8C8905D
:107A90004FF0000886B3A088C21B5042504194F8B2
:107AA0002830DB070CD558B1E98B2046FFF7F7FBF0
:107AB00030B12888B5F802E0218C00238B4228D30E
:107AC00008F10108B8F1020F04F13404E2D103B067
:107AD000BDE8F08FEB8A04339BB2032B0AD90DF17A
:107AE0000201204602F046F810B178460AF05CFE2A
:107AF0000026CAE70027C8E7E088012807D809EB75
:107B0000C000BDF802100430FFF7C9FBC7E73046DC
:107B1000C5E7E2694FEAC30A02EB0A0C32F83320E8
:107B2000824203D1BCF80220724501D00133C5E77F
:107B30002B7D012B1FFA88FB04D1626A2946584627
:107B400000F0C4FEE369626A534429465B68584604
:107B50009847B5E798330020F8330020F0B5037854
:107B60008DB00446002B75D143681D7805F0C00226
:107B7000402A0ED003D862B1002635460EE0802A96
:107B80006AD0C02AF8D19A785E78ADB246EA022669
:107B900004E0ADB27F2D5DD04FF6FF76374B1B680A
:107BA0009B0418D5364B1B68042B14DD2F21354858
:107BB00015F072FA002853D02F21324815F06CFAD4
:107BC000411C314B314AD3F8043500920195F4221F
:107BD00005200FF097FB206A02F03AF80746E069AB
:107BE00002F022F84FF6FF729642ADF80850ADF859
:107BF0000A6063683DD1FF2D8CBF0222012213442D
:107C00004FF6FF7296420393238934D1FF2D8CBF28
:107C1000022201229B1AADF81030237B8DF814301C
:107C2000E389ADF8163023690693237D8DF81C3067
:107C3000E38AADF81E30A369089394F824308DF8D8
:107C40002430ADF82C00A36AADF8267002A80A9380
:107C5000FFF702FF0DB0F0BD5B7843EA05259BE717
:107C60005C21084815F018FA08B15C21A5E7054920
:107C7000A7E70322C3E70322CCE700BF702E002052
:107C80006C2E002003D3030000100140D0D203006B
:107C900008B5FFF741FC00F05BFEBDE80840FFF7C8
:107CA0007DBB00002DE9F0410446002800F0C380B0
:107CB000002900F0C080C3681BB18368002B00F06E
:107CC000BA804FF6FF730B80E3681BB9A368002BE3
:107CD00040F0B480A388002B40F0B3805D4EB378B1
:107CE000F078C34278D1D4F80880E7680025AF4225
:107CF00040F0988008884FF6FF739842564B46D163
:107D000093F8305015F0010500F0938093F864204B
:107D1000D20701D4012080B24FF6FF75A842088037
:107D200000F09580342202FB0030C580088802FBF9
:107D3000003085800888A78802FB0030878108888A
:107D4000678802FB003047800888278850431F520D
:107D5000088802FB00324148007850742088A288CD
:107D6000A8424FF0060000FB02620BBF9078D0786B
:107D7000013001300CBF9070D0700A88342000FBB5
:107D8000023292F8300040F0020082F830000A8897
:107D90002569342000FB0232D5620A88A56800FB01
:107DA000023255620A88E56800FB023215850A88AE
:107DB000646900FB023294610A8800FB0234A282EB
:107DC0000A8800FB0233002093F8302042F00102C1
:107DD00083F83020BDE8F0811F4B20889A896588A0
:107DE0002AB95F88AF4202D11F8887420DD0B3F80D
:107DF0004020002A7FF477AFDA8EAA427FF473AF77
:107E00009A8E82427FF46FAF012210460A8034229C
:107E100002FB003393F83030D8077FF564AF0F20B2
:107E2000BDE8F08158F83500FFF746FA60B101353A
:107E30005DE728466FE70E20BDE8F0810920BDE828
:107E4000F0810520BDE8F0810720BDE8F081042025
:107E5000BDE8F0815433002090330020E52D002050
:107E600011B10022FFF7C0BB0E20704713460A462F
:107E700019B113B11946FFF7B7BB0E2070470000C8
:107E800010B50446FFF73AFA88B1172911D80A4805
:107E9000342303FB0400C3888B4206D090F83030B3
:107EA000C18043F0020380F83030002010BD05206F
:107EB00010BD072010BD00BF9033002010B5044650
:107EC00051B1FFF71BFA48B1054B342202FB0434D1
:107ED0000020E3880B8010BD0E2010BD052010BDD2
:107EE00090330020012870B51DD8104A342404FBBB
:107EF000002494F83030DD0715D5E47C01F0070547
:107F000004F00706AE4204D1C1F3C405B5EBD40FAB
:107F100007D0342404FB002043F00203C17480F82E
:107F20003030002070BD052070BD00BF90330020B0
:107F300069B101280DD8084B342202FB003090F8BB
:107F40003030DB0705D5C37C0B70002070470E2056
:107F500070470520704700BF90330020012870B59E
:107F60002AD8184C342505FB004595F83030DB073E
:107F700022D5AB6913B33F2A22D8032920D8AD7C80
:107F8000B2EB950F03D105F003058D4212D03423D7
:107F90004343E5181433A87C62F3870061F30100C2
:107FA000A874E018FFF73AF995F8303043F002036F
:107FB00085F83030002070BD052070BD062070BDF2
:107FC000072070BD9033002038B50546144681B1B6
:107FD0007AB1FFF793F970B1094834236B43C218A3
:107FE000926952B1143318442246FFF747F9002032
:107FF00038BD0E2038BD052038BD062038BD00BF75
:1080000090330020F8B504460F46FFF777F9E0B14A
:10801000124B342202FB0434E689022E17D01729B2
:1080200017D80F4CF50004356019FFF738F990B9EF
:10803000012303FA07F163590B43635114F83630F7
:1080400043F0020304F83630F8BD0520F8BD0620E1
:10805000F8BD0720F8BD0020F8BD00BF9033002018
:10806000F8330020F8B504460F46FFF747F9F0B1A2
:10807000124B342202FB0434E689022E19D0172950
:1080800019D80F4CF50004356019FFF708F998B1BD
:10809000012303FA07F1635923EA0103635114F83A
:1080A000363043F0020304F836300020F8BD0520D6
:1080B000F8BD0620F8BD0720F8BD00BF90330020B2
:1080C000F83300202DE9F843064615460F4641B324
:1080D0003AB3FFF713F938B3184B342202FB0636D4
:1080E000F389022B23D00024DFF85490B5F80080E8
:1080F0002C80F08901280ED809EBC00021460430FD
:10810000FFF7CDF838B12B88984513D927F81340DD
:108110002B8801332B800134182CEAD10020BDE8D4
:10812000F8830E20BDE8F8830520BDE8F88306201B
:10813000BDE8F8830920BDE8F88300BF9033002034
:10814000F8330020F8B506460F46FFF7D7F8C0B160
:10815000082918D834250E4C754305F10806A019D6
:10816000FFF79DF888B9012303FA07F1A3590B43E0
:10817000A3512C4494F8303043F0020384F830309B
:10818000F8BD0520F8BD0720F8BD0020F8BD00BFF0
:1081900090330020F8B506460F46FFF7AFF8D0B190
:1081A00008291AD834250E4C754305F10806A01984
:1081B000FFF775F890B1012303FA07F1A35923EAF9
:1081C0000103A3512C44002094F8303043F0020303
:1081D00084F83030F8BD0520F8BD0720F8BD00BF99
:1081E000903300202DE9F041064615460F46F9B1BF
:1081F000F2B1FFF783F8F0B1124BB5F800803422EA
:10820000002402FB06362C80083621463046FFF754
:1082100046F838B12B88984510D927F813402B8899
:1082200001332B800134082CEFD10020BDE8F08110
:108230000E20BDE8F0810520BDE8F0810920BDE8F1
:10824000F08100BF9033002010B50446FFF756F8C8
:1082500088B1082911D80A48342303FB0400838815
:108260008B4206D090F83030818043F0020380F8D2
:108270003030002010BD052010BD072010BD00BF0C
:108280009033002010B5044651B1FFF737F848B1DC
:10829000054B342202FB04340020A3880B8010BD60
:1082A0000E2010BD052010BD90330020030605D41C
:1082B000012803D0024B1870002070470720704738
:1082C000E52D0020014B1878704700BFE52D0020F8
:1082D00010B50446FFF712F890B10A4A342303FBA5
:1082E0000423187C88421EBF93F8300040F002003F
:1082F00083F83000342303FB04240020217410BDD4
:10830000052010BD9033002010B5044651B1FEF792
:10831000F5FF48B1054B342202FB04340020237CD6
:108320000B7010BD0E2010BD052010BD9033002035
:1083300010B50446FEF7E2FF98B181F080037E2B72
:1083400011D90A48342303FB0400437C8B4206D036
:1083500090F83030417443F0020380F83030002050
:1083600010BD052010BD072010BD00BF90330020B8
:1083700010B5044651B1FEF7C1FF48B1054B342298
:1083800002FB04340020637C0B7010BD0E2010BD76
:10839000052010BD9033002048B9064B1A888A4248
:1083A00006D05A79198042F002025A7170470520AE
:1083B000704700BF5433002021B128B9034B1B88FC
:1083C0000B8070470E207047052070475433002003
:1083D00021B128B9034B9B780B7070470E20704772
:1083E000052070475433002021B128B9034BDB78B6
:1083F0000B7070470E2070470520704754330020E3
:1084000010B5044661B1FEF779FF58B1064B342030
:1084100060431A1852884A801B5A0B80002010BDF6
:108420000E2010BD052010BD9033002073B50191C2
:1084300012B310B1052002B070BD4FF6FF730F49A3
:1084400013808B89BDF80650BDF8044008462BB94F
:108450004E88AE4202D10988A1420AD0B0F840301D
:10846000002BE7D1C38EAB42E4D1838EA342E1D18E
:10847000012313800020DEE70E20DCE7903300208C
:1084800070B5C9B1C2B1C8B90E4B15881080148837
:10849000A54215D993F83060F60706D59E8926B90E
:1084A00021F814001488013414800130022803F1EB
:1084B0003403ECD1002070BD0E2070BD052070BDCE
:1084C000092070BD9033002010B5044651B1FEF76D
:1084D00015FF48B1054B342202FB04340020E36A47
:1084E0000B6010BD0E2010BD052010BD9033002084
:1084F00070B50646FEF702FF78B33424184D744376
:10850000002204F1140011462C442844FEF786FE94
:10851000304600F04DFAE08801F04EFAE27C02F0BD
:10852000F8026FF3C702E274A27C002002F003029B
:1085300060F301024FF6FF73A274A27DE380A38073
:1085400094F83030607402F0030260F3010243F0EB
:108550000203A27584F8303070BD052070BD00BFE5
:1085600090330020082873B5054614D80024A6B21D
:108570000DF106013046FFF785FE30B9BDF8063033
:10858000AB4202D13046FFF7B3FF0134022CEED1EB
:10859000002002B070BD0720FBE708B501F0D4F859
:1085A000A0F5805008BD000010B586B00D4B0393B8
:1085B0000D4B04930D4B059304230293FFF7EDFF3E
:1085C0000B4C0090012369460A48019323700FF079
:1085D000E2FA20B108480FF0F3FB06B010BD20709E
:1085E000FBE700BF65750200957302002986020053
:1085F0008C33002068330020B42D002008B5FEF72E
:108600008BFF0748074B03600CF076FF00F092F9F0
:10861000FEF7E8FD00F018FABDE80840FFF7C4BF18
:108620005C3300205D7B0200134B1A78D00744BFF7
:1086300042F002021A701A7AD10744BF42F00202D5
:108640001A720E4B1A881AB15A7942F002025A7104
:108650000B4B93F83020D00744BF42F0020283F85E
:10866000302093F86420D10744BF42F0020283F81F
:108670006420FFF799BF00BFF83300205433002077
:10868000903300202DE9F04F5B4DB5F8703085B088
:10869000804613B978460AF087F84FF6FF73574CB7
:1086A000DFF868A1DFF868B1A5F8723008F57A79CB
:1086B000002694F82430DBB16369A3EB0903002B97
:1086C0001CDA002384F82430B5F87030013BA5F89B
:1086D000703003A934F8040CFFF7F6FE10B17846A9
:1086E0000AF062F8A369039934F8040C0122984750
:1086F0000136022E04F12C044CD0DAE7E369A3EB37
:108700000902002A65DAA5F87260214634F8040CE3
:10871000FFF7A6FB0746E8B1DAF800309B0417D54F
:10872000DBF80030042B13DD2F21354814F0B4FCA6
:10873000E8B12F21324814F0AFFC411C314B324AD2
:10874000D3F8043500920197802205200EF0DAFD5F
:10875000082F15D1236AE2691A445B00E2612362A3
:108760006269E369D31A002BC2DAE261C0E75C21D7
:10877000234814F091FC08B15C21DBE72049DDE7D8
:10878000042F20D12C2303FB0656B36B03F51C43A7
:108790004033B363B5F870305BB3B5F87230012B7A
:1087A00002D978460AF000F8B5F872302C2202FBA4
:1087B00003539B6BB3EB080248BFA8EB0302EA60CC
:1087C00005B0BDE8F08F0F2FDCD0784609F0ECFF44
:1087D000C6E7B5F872204FF6FF718A4206D02C2109
:1087E00001FB0252926B9B1A002B81DAA5F8726092
:1087F0007EE7EB60E4E700BF08340020243400206B
:1088000043D303000010014068D30300702E002002
:108810006C2E002038B52B4C2C2303FB004305465F
:1088200093F8403013B9784609F0BEFFB4F87030C1
:1088300013B9784609F0B8FF2C2202FB0542002349
:1088400082F84030B4F87030013B9BB2A4F870302D
:108850008BB3B4F87230AB4232D1936B1A4A1A44DC
:1088600094F8403023B3A36B991A0029B8BF1A4675
:108870004FF6FF73B8BF002394F86C1021B1616EFE
:108880008A1A002AB8BF01234FF6FF729342A4F858
:10889000723002D1784609F087FFB4F87230094887
:1088A0002C2202FB0344A16BBDE838400DF051B807
:1088B0004FF6FF73E0E70348BDE838400DF032B8EB
:1088C00038BD00BF08340020008793030128F8B5A5
:1088D00005460E46174602D9784609F065FF0DF0A9
:1088E0003FFD134B93F8402012B11A8BAA421DD0C2
:1088F00093F86C20B2B1B3F84420AA4212D10120FF
:108900002C2404FB00343388A28D9A420AD1E28DD4
:1089100073889A4206D1FFF77DFF636B00223946C8
:1089200028469847BDE8F8400DF05ABD0020E7E71B
:108930000834002010B5044C74220021204614F0A5
:10894000D7FA024BA36010BD0834002085860200D0
:10895000F7B50DF005FD1448B0F8703023B10023D1
:10896000A0F870300CF0DEFF104C04F1580694F8BB
:10897000283093B12588E76900212C22204614F085
:10898000B7FA01A92846FFF79FFD10B1784609F014
:108990000BFF022201992846B8472C34B442E6D195
:1089A0000DF01EFD03B0F0BD08340020203400207F
:1089B000012873B505462DD8174C0DF0D1FC94F85D
:1089C000403013B1238BAB4220D094F86C30FBB114
:1089D000B4F84430AB421BD101263046FFF71AFFF2
:1089E00001A92846FFF770FD10B1784609F0DCFEBA
:1089F0002C2303FB06440222636B01992846984707
:108A000000240DF0EDFC204602B070BD0026E4E726
:108A10000524F6E70524F6E70834002038B5084DAC
:108A20002C680CB9012038BD04F11C00FFF714F8C4
:108A3000296828460EF0EDFB204610F0A8FFEFE76E
:108A40008034002001F00EBF08B503480DF0F8FC9B
:108A5000024B186008BD00BF1D8A02007C34002054
:108A600038B505468089443010F08FFF0446002851
:108A70002FD0052303712B6883606B68C36100F1FD
:108A800044030362AA898284012280F82820EA89AB
:108A9000428505F1100100F1300203C982E80300AC
:108AA0002A7E84F838206A8B6287221DE263AA8BB3
:108AB000A4F84020AA89A968184614F00EFA2146A5
:108AC00005480EF085FB054B18680DF0D7FC00201B
:108AD00038BD042038BD00BF803400207C34002025
:108AE0004A09012301F01F0103FA01F150F8223075
:108AF000194214BF0120002070474A09012301F0E8
:108B00001F0103FA01F150F822300B4340F82230E4
:108B100070474A09012301F01F0103FA01F150F8DF
:108B2000223023EA010340F822307047F0B501F10A
:108B30001F046409651E00230126A34201D1012000
:108B4000F0BDAB4204BFA1EB431206FA02F250F8AB
:108B500023700CBF02F1FF324FF0FF323A4201D1D5
:108B60000133EAE70020F0BDA0F1100189B2072926
:108B700002D80248FFF7B4BF0020704794340020A9
:108B80002DE9F0474FF6FF73DFF84480DFF844909B
:108B90000B8007460D4600241E464FF0A80A2146CA
:108BA0004046FFF79DFF40B10AFB04F333F809305C
:108BB000BB4206D12C80BDE8F0872B88B34208BFAA
:108BC0002C800134042CEAD10020BDE8F08700BFDE
:108BD0009C360020A436002038B54FF6FF730546BA
:108BE0000C460B8006480021FFF77AFF18B1054BB1
:108BF0001B88AB4202D10823238038BD002038BD3A
:108C0000343600203C3600202DE9F0474FF6FF7344
:108C1000DFF84480DFF844900B8007460D460024BF
:108C20001E464FF02A0A21464046FFF759FF40B141
:108C30000AFB04F333F80930BB4206D12C80BDE8AF
:108C4000F0872B88B34208BF2C800134082CEAD16E
:108C50000020BDE8F08700BFDC340020E4340020B1
:108C6000024B33F820300B80704700BF9C3400204B
:108C70002DE9F041A3F1080516240E4E6C4307467A
:108C8000A01D884630441146102214F026F93319ED
:108C900000225A7101222946A3F8028006481A715F
:108CA0003753FFF72AFF29460448BDE8F041FFF794
:108CB00024BF00BF3C360020343600203836002068
:108CC00010B40C4600F108030A1D208849885DF89D
:108CD000044B9BB2FFF7CCBF70B516244443074E3C
:108CE0000D46A11D10223144281D14F0F6F8325B08
:108CF0002A8033195B886B8070BD00BF3C36002032
:108D0000044A0B46142101FB0021043110221846AD
:108D100014F0E3B8443900200422014814F0DDB80F
:108D20008A36002008460422014914F0D6B800BF54
:108D30008A3600202DE9F0414488012C05463ED0BA
:108D400004F47043B3F5005F43D009D8002B39D049
:108D5000B3F5805F3BD0784609F026FD00240BE098
:108D6000B3F5804F07D0B3F5A04F2ED0B3F5405FD9
:108D7000F1D1032400E00424174F6E881C2202FB6B
:108D80000472052C9289A6EB02062A8802F1804221
:108D900002F1FF324FEA820205F1040895B202D9CE
:108DA000784609F001FD1C2303FB0474414630465C
:108DB000A3692A46984731466068FFF79EFE012066
:108DC000BDE8F081023CE4B2D6E70524D4E70124F3
:108DD000D2E70224D0E700BF8CD3030010B50446CD
:108DE00010B9784609F0E0FC2346BDE8104018476A
:108DF00010B5044610B9784609F0D6FC0B4B00229A
:108E000093F8421090B231B19C420DD003F1210190
:108E10008C4202D110BD9C4206D00132042A03F1DB
:108E2000A803EDD14FF6FF7010BD00BFC63600207D
:108E30002DE9F8432A255D43164C91468046A81D2E
:108E400010220F46204449461E4614F046F805F10C
:108E5000190000211022204414F04AF8691D214411
:108E600048460EF03DF910B1784609F09DFC2A23E2
:108E70007343E218002111719175578031460648FD
:108E800024F80380FFF739FE31460448BDE8F84373
:108E9000FFF733BEE4340020DC340020E03400204F
:108EA000F8B50D4606462A2474430021104E174695
:108EB0002846242214F01CF8A11D10223144281D3C
:108EC00014F00BF8325B2A8033195A886A809B7D34
:108ED0004BB104F11901314405F114001022BDE831
:108EE000F84013F0FABF3B88043B3B80F8BD00BF5D
:108EF000E43400202DE9F0418046A8240D46144EAC
:108F000004FB08F4002117462846242213F0F0FF42
:108F100006EB0408335B2B8098F86430AB70A11C1F
:108F200010223144E81C13F0D8FF98F864304BB19C
:108F300004F11201314405F113001022BDE8F041A3
:108F400013F0CBBF3B88043B3B80BDE8F08100BF02
:108F5000A436002001F11F0252099200002113F0F3
:108F6000C7BF00002DE9F041204CA8255543164607
:108F700005F16803621923440F465367804610B910
:108F80001B4B01221A7005F12201214438460EF0D4
:108F9000B0F810B1784609F007FC05F178012144DA
:108FA00038460EF0B7F810B1784609F0FDFBA81C62
:108FB00039461022204413F090FF05F112001022D0
:108FC0000021204413F094FFA8237343E21824F8EF
:108FD000038000233146074882F86430FFF78DFD97
:108FE00031460548BDE8F041FFF787BDA4360020B3
:108FF000883600209C360020A0360020F8B5A1F16C
:10900000100514246C430D4F0646201D31461022D6
:10901000384413F062FF391930460EF0A3F810B14E
:10902000784609F0C1FB29460548FFF766FD294649
:109030000448BDE8F840FFF760BD00BF4439002098
:1090400094340020983400200B4600F1100189B2BE
:109050001846FFF7D3BF000008B5064B06480022AC
:109060001A700EF06DFC20B10448BDE808400EF007
:10907000A7BE08BD5236002054360020E82D00203F
:109080002DE9F843044688460DF06AF9052C02D90B
:10909000784609F089FB154BDFF85C901F78C7B163
:1090A0001C2505FB04951248A9892A69414489B207
:1090B0000EF005FD064660B10246011D6B69404693
:1090C000984730460EF02AFD0DF08AF93846BDE883
:1090D000F8831C2303FB04944146A068FFF70DFDB1
:1090E00004480EF06DFE0027EEE700BF5236002068
:1090F00054360020783600208CD30300F8B505469E
:109100000E460DF02DF9052D02D9784609F04CFBDD
:109110000F4B104F1C7874B91C2303FB05753146A7
:10912000A868FFF7EAFC0C480EF04AFE00240DF098
:1091300057F92046F8BD1C2303FB0573074899899E
:10914000314489B20EF000FD0028F0D0E4E700BF02
:10915000523600208CD3030078360020543600208D
:109160002DE9F843184D0026AF68D5F80080384641
:1091700041465FFA86F9FFF7D9FC10B90446444529
:1091800003D1052E1AD1BDE8F88321463846FFF7F2
:10919000A7FC68B121466868FFF7A2FC214648B1E8
:1091A0004846FFF76DFF60B121463846FFF7B1FC36
:1091B0000134E4E74846FFF7A1FFF4E701361C3528
:1091C000D2E7BDE8F88300BF8CD303002DE9F04758
:1091D0004FF6FF73DFF84C80DFF84C900B800746AA
:1091E0000D4600244FF0140A21464046FFF778FC54
:1091F000064650B92A884FF6FF739A4200D12C8058
:109200000134082CF0D1002609E00AFB049010225A
:109210003946043013F052FE0028F1D12C8030463C
:10922000BDE8F08794340020443900202DE9F34153
:109230004FF6FF770E461446ADF80670804640B3F1
:1092400039B30DF10601FFF7C1FFBDF8063003F198
:109250001005ADB250B9BB421DD029464046FFF7BC
:10926000CDFEBDF806100220FFF70AFFBDF806305C
:109270000A4A3580142101FB032334B9DA7801321C
:10928000DA70002002B0BDE8F0819A7801329A705D
:10929000F7E70E20F6E70420F4E700BF443900208A
:1092A00008B528B9784609F07FFA4FF6FF7008BD77
:1092B000064B9842F9D303F5FC729042F5D8C01AD8
:1092C000A823B0FBF3F080B208BD00BF1437002024
:1092D00008B528B9784609F067FA4FF6FF7008BD5F
:1092E0000A4B984209D303F59372904205D8C01AED
:1092F0002A23B0FBF3F080B208BD054A4FF6FF7396
:10930000904214BF1846082008BD00BFE834002072
:1093100040360020F8B50C46154683B20A1D0646B5
:1093200049882088FFF784FD242D1DD1124F2A255E
:1093300075437B190122143405F119009A752146F1
:109340001022384413F0C9FD05F1180139442046B4
:109350000DF0C6FE10B1784609F026FA2A2303FB69
:1093600006763379F375F8BD142D04D07846BDE840
:10937000F84009F019BAF8BDE43400202DE9F041B5
:109380000D46174E07469046033182B2A82428881E
:10939000FFF7E8FDAB7804FB076282F86430D3B1D5
:1093A000B8F1240F02D0784609F0FEF97C4313355A
:1093B00004F1120029461022304413F08EFD04F10E
:1093C0004301314428460DF094FE38B17846BDE89B
:1093D000F04109F0E9B9B8F1140FF7D1BDE8F08117
:1093E000A436002010B501298CB0044604D178467B
:1093F00009F0DAF90CB010BD0229F8D00329F9D12F
:109400002C22002101A813F073FD10238DF80430E5
:1094100002238DF80830054B0394DA681B69059226
:1094200001A806930AF092FBE4E700BF543600203F
:1094300011460020FFF7D6BF08461146FFF7D2BFFE
:109440002DE9F74F80460F4691460BF07FFE02282C
:10945000064650D14FF6FF744D4B4E4A0025A246AA
:109460004FF0140B54450ED110462946019300923B
:10947000FFF736FB9DE80C0028B9ACB20135082D8A
:10948000F0D1002306E00BFB05F1C95A4145F5D1A7
:10949000ACB20123B9F1000F52D0B9F1010F03D1E1
:1094A00006F0FD06012E4BD1002B4ED14FF6FF7278
:1094B00094426AD0384A394822F8248002EB840268
:1094C0002146D3709370FFF718FB21463448FFF70D
:1094D00014FB21460120FFF7D3FD3C80B9F1000FBA
:1094E00034D12D4B03EB8404E3780133E370002087
:1094F00003B0BDE8F08F00F0FD03012B4FF6FF74C1
:10950000BFD1DFF894B0254B0025A24654450CD1BD
:10951000184629460093FFF7E3FA009B28B9ACB23E
:109520000135102DF2D1002305E03BF825204245FE
:10953000F6D1ACB20123B9F1000FB5D1032E01D0A1
:109540001020D5E7EBB13C80CBE73C80124B03EB1E
:109550008404A3780133A370C9E70F4A0F4822F8A7
:10956000248002EB84022146D3709370FFF7C5FA82
:1095700021460B48FFF7C1FA21460120FFF780FD85
:10958000E1E74FF6FF729442E7D10420B0E700BF55
:1095900044390020943400209C340020843400207E
:1095A0008834002041090B4A00F01F004FF0FF33C0
:1095B000834052F82100034009D05A421A40064B1A
:1095C0005343DB0E054AD05C00EB4110704704208A
:1095D000704700BF9C36002031B57C0734D40300AF
:1095E0000F2810B5044608D801460648FFF778FA58
:1095F00018B1012000F0010010BD2046FFF7B4FAB9
:10960000F8E700BF843400200F28014602D8024842
:10961000FFF766BA0020704784340020F8B504468E
:10962000FFF7F2FF064690B1164E06EB84039878DA
:1096300058B9DD7815BB21461348FFF76AFA26F8BA
:10964000245021460120FFF759FD0020F8BD204697
:10965000FFF78AFA98B1103C0C4F142565437B192B
:10966000987850B9DE784EB921460948FFF751FA8B
:109670007E5321460220FFF741FD3046F8BD05200C
:10968000F8BD00BF9C340020843400204439002001
:109690009434002010B50A4B0A8884B2214623F87E
:1096A000242003EB840300220648DA709A70FFF747
:1096B00024FA21460448BDE81040FFF71EBA00BF57
:1096C0009C34002084340020883400201FB51A4BBD
:1096D0001B781BB9002005B05DF804FB04AB0A221F
:1096E00043F8102D012101AA14480EF0B1F90346E8
:1096F0000028EFD1BDF80A20102A0FD1BDF80C20A8
:10970000082A0BD1BDF80620082A07D1BDF8082089
:10971000012A03D1BDF80420042A02D0FFF79CFCE3
:10972000D8E70146064A05480EF01CF9054B1868B3
:1097300000F00100CFE700BF523600205436002071
:10974000358D02008C34002008B50BF0B1F8A0F57F
:10975000805008BD70B586B01B4B03931B4B049320
:109760001B4B059300230293FFF7EEFF194E009069
:10977000012401940CF0F4FD694630460EF00BFA1A
:1097800040B100240CF02CFED4B1134B01221A700E
:1097900006B070BD3578012DF4D10A222946304635
:1097A0000EF08DF90028ECD010224281042108220D
:1097B00082818180C28005810EF0B0F92C46E1E7FC
:1097C00006480EF0FDFAE3E73994020031940200F6
:1097D000E19702005436002052360020F82D002078
:1097E000FFF7B8BFF8B5214F0024E6593D193146BF
:1097F0006868FFF7AFFB1C343146A868FFF7AAFB87
:10980000A82CF2D100231A481946C2180433402B61
:10981000D1709170F9D1002316491C46CA1814332F
:10982000A02BD4709470F9D101211348FFF792FB5B
:1098300001211248FFF78EFB01211148FFF78AFB37
:1098400001211048FFF786FB01210F48FFF782FB3B
:1098500001210E48FFF77EFB0D4B1C805C800D4BF9
:109860001C70BDE8F840FFF7F7BB00BF8CD30300C6
:109870009C340020443900208C34002084340020A3
:10988000943400209C360020DC3400203436002044
:109890008A36002088360020084808B5084B036047
:1098A0000BF02AFE074B084A9A60084ADA60084B18
:1098B00000221A70BDE80840FFF74CBF9036002028
:1098C000F59F020078360020DD8D020061910200D4
:1098D0005236002070B5054610B9784608F064FF8E
:1098E000174E346814F0010427D128886B8803448C
:1098F000984201DB0B2070BD0BF028FC0128F9D148
:1099000028886B881844013880B20BF01FFC0128AE
:10991000F0D1042229460B4813F0DFFA336843F0F4
:109920000103336021462046FFF7AAFB064A13686D
:1099300043F001031360204670BD0F2070BD00BFCF
:109940008C3400208A3600209034002010B5044664
:1099500010B9784608F028FF204604220249BDE8E5
:10996000104013F0BABA00BF8A36002011B10122AC
:10997000FFF766BD0E20704710B50446FFF730FEB6
:1099800078B10F2C89BF084B084B103C14228CBFB8
:1099900002FB043403EB84040020A3780133A3709A
:1099A00010BD052010BD00BF443900209C340020AC
:1099B0000122FFF73BBC000010B50446FFF724FE70
:1099C00050B10C4B03EB84039A78013A9A7020460D
:1099D000BDE81040FFF722BE2046FFF7C5F830B1C2
:1099E000054AA4F11003142101FB0323ECE7052031
:1099F00010BD00BF9C3400204439002011B100226A
:109A0000FFF71EBD0E2070470022FFF70FBC0000BD
:109A100010B50446FFF7E4FD78B10F2C89BF084B61
:109A2000084B103C14228CBF02FB043403EB84046B
:109A30000020E3780133E37010BD052010BD00BFA6
:109A4000443900209C34002070B506460D4601B311
:109A5000FFF7DAFD044658B1104B33F826206A8030
:109A600033F826000BF072FB28700020686070BD90
:109A70003046FFF779F870B1103E1420084B704360
:109A80001A5A6A8004301844022368602B702046FA
:109A900070BD0E2070BD052070BD00BF9C3400203D
:109AA0004439002013B50446FFF79AFD08B3694610
:109AB0002046FFF7C9FFC0B99DF80030032B0BD13A
:109AC0000D4B03EB8403DA789AB1013ADA70204641
:109AD000FFF7A4FD02B010BD022B08D1074AA4F184
:109AE0001003142101FB0323EDE70020F2E70F2010
:109AF000F0E70520EEE700BF9C3400204439002049
:109B00002DE9F0410E46074660B359B30025DFF852
:109B10005C802C4629464046FEF7E2FF40B13368A0
:109B2000A34202D10920BDE8F08127F81450013486
:109B30000135102DEED1DFF838800025294640464A
:109B4000FEF7CEFF38B13368A342EBD005F1100326
:109B500027F8143001340135082DEFD1346000208E
:109B6000BDE8F0810E20BDE8F08100BF8434002004
:109B7000943400202DE9F7430D46044600283CD0DC
:109B800000293AD040880BF0E1FA022824D00328BB
:109B900001D0012833D14FF6FF73DFF86880DFF87A
:109BA000689067882B8000241E4621464046FEF7B9
:109BB00097FF40B139F82430BB4208D12C800020F7
:109BC00003B0BDE8F0832B88B34208BF2C8001347A
:109BD000102CEAD10520F3E760684FF6FF73ADF86B
:109BE000063050B10DF10601FFF7F0FA0028F1D070
:109BF000BDF8063010332B80E1E70E20E0E710209F
:109C0000DEE700BF843400209C34002007B50DF14E
:109C10000601FEF7B5FF20B1BDF8060003B05DF800
:109C200004FB4FF6FF70F9E708B1FFF7E1B84FF614
:109C3000FF70704707B50DF10601FEF7E5FF20B193
:109C4000BDF8060003B05DF804FB4FF6FF70F9E7BE
:109C500008B1FFF73DBB4FF6FF70704738B50446BB
:109C60000D4669B107280DD801460748FEF738FFB1
:109C700040B12A206043054B1B5A2B80002038BD81
:109C80000E2038BD052038BDDC340020E43400202F
:109C9000082870B504460E463DD8002939D008285A
:109CA00021D001461D48FEF71BFF002833D01C4D74
:109CB0002A2303FB04535B88032B02D9784608F060
:109CC00073FD2A2303FB045316485988FEF708FF47
:109CD00010B9784608F068FD2A2303FB0454638812
:109CE0003380002070BD00210F48FEF7F9FE90B1CF
:109CF0000E4C6388032B02D9784608F055FD618825
:109D00000848FEF7EDFE0028E9D1784608F04CFD42
:109D1000E5E70E2070BD052070BD00BFDC340020DB
:109D2000E43400209C360020343600203C360020ED
:109D3000F8B5064615460F4671B36AB3B0F5805FB5
:109D40002CD21146FEF71CFF2A88044668B115483C
:109D5000A82303FB020039461022023013F0AEF8AC
:109D600000280CBF03200F20F8BD4FF6FF739A4266
:109D700016D039463046FFF7F5F829880320FFF75B
:109D80007FF92988074BA82202FB01313046883130
:109D90000BF0B9FB2046F8BD0E20F8BD0720F8BD3A
:109DA0000420F8BDA4360020032838B504460D462B
:109DB0000DD801460748FEF793FE40B1064BA82296
:109DC00002FB0434002094F864302B7038BD052069
:109DD00038BD00BF9C360020A43600202DE9F0419C
:109DE00005468846002950D0032851D801462A4804
:109DF000FEF776FE00284BD0284BA8246C431A1996
:109E00001E4692F864206AB1012A08D104F11200BA
:109E100010224146184413F051F8002839D0082088
:109E2000BDE8F08104F112071F4441461022384674
:109E300013F053F804F14301314440460DF059F951
:109E400010B1784608F0B0FC04F190013144384676
:109E50000DF060F910B1784608F0A6FCA8236B431A
:109E6000F118012281F8642004F1A001F05A314474
:109E70000AF0C8FE29460A48FEF73FFE294603209D
:109E8000FFF7FEF80020BDE8F0810E20BDE8F0816C
:109E90000520BDE8F08100BF9C360020A4360020DC
:109EA000A0360020032810B504461FD801461148EB
:109EB000FEF716FED0B11048A8236343C11891F8ED
:109EC0006420012A14D1022281F8642003F1A00148
:109ED0000144C05A0AF096FE21460848FEF70DFEDE
:109EE00021460320FFF7CCF8002010BD052010BD4F
:109EF000082010BD9C360020A4360020A03600208B
:109F000003282DE9F041074662D801463348FEF7A1
:109F1000E7FD00285CD0324EA8247C4306EB040801
:109F200098F86430002B56D004F11201A01C314483
:109F30001022304412F0D1FF04F1430104F1220059
:109F400031442122304412F0C8FF04F1900104F1A1
:109F5000780031441822304412F0BFFF002504F18C
:109F6000880188F86450305BDFF884802A463144E9
:109F70000AF048FE2C461B4E1B4D21462846FEF794
:109F8000AFFDA8B136F8023CBB4211D1B37C7BB126
:109F9000122206F11301304612F09FFF00232146E2
:109FA0004046B374FEF7A9FD21460420FFF768F888
:109FB0000134082C06F12A06DFD139460B48FEF79A
:109FC0009CFD39460320FFF75BF80020BDE8F081D7
:109FD0000520BDE8F0810820BDE8F0819C36002016
:109FE000A4360020E8340020DC340020A036002015
:109FF000E034002070B50378042B1ED144688668D5
:10A00000457E2046FFF74CF94FF6FF72904214D080
:10A010002034A64211D1094AA82101FB002393F85C
:10A0200064302DB1012B08D1BDE87040FFF73ABF75
:10A030001BB1BDE87040FFF763BF70BDA4360020C0
:10A040002DE9F0470D46064600B3F9B10024DFF8CC
:10A050004880DFF848900F680C604FF0A80A21464E
:10A060004046FEF73DFD58B12B689F4211D00AFBD8
:10A0700004F232F8092026F813202B6801332B60F4
:10A080000134042CEBD10020BDE8F0870E20BDE8A0
:10A09000F0870920BDE8F0879C360020A436002018
:10A0A0002DE9F34107460D461E46904652B34BB389
:10A0B0000BF04CF8012827D1032D27D82946164844
:10A0C000FEF70EFD10B30DF106013846FEF784FDD4
:10A0D0000446E8B9BDF806304FF6FF72934219D036
:10A0E000424629463846FEF7C3FDBDF80610052056
:10A0F0000839FEF7C5FFBDF806303380204602B0B0
:10A10000BDE8F0810E20FAE71020F8E70520F6E719
:10A110000F20F4E70420F2E79C360020082810B551
:10A1200011D100210948FEF7DBFC60B1084B07485C
:10A1300000241C802146FEF7ECFC21460520FEF79A
:10A14000DDFF204610BD052010BD00BF34360020C5
:10A150003C3600202DE9F041064688461D4617464C
:10A160007AB373B303292FD81C48FEF7B9FC58B350
:10A17000B6F5805F2BD229463046FEF745FD2B8889
:10A18000044670B116482A2202FB03003946102209
:10A19000063012F093FE00280CBF03200F20BDE80C
:10A1A000F0814FF6FF72934214D03A464146304652
:10A1B000FEF73EFE29880420FEF762FF2046BDE838
:10A1C000F0810E20BDE8F0810520BDE8F081072078
:10A1D000BDE8F0810420BDE8F08100BF9C3600207E
:10A1E000E4340020F8B505460E46002940D0072883
:10A1F00040D801462048FEF773FC00283AD01F489B
:10A200001F492A246C430319A8275A8807FB021206
:10A21000074692F86420012A09D1997D04F1190EAC
:10A2200039B110223146704412F048FE18B30820AC
:10A23000F8BD9A7531461022704412F04EFE04F1BA
:10A240001801394430460CF04BFF10B1784608F045
:10A25000ABFA2A2303FB057329461A79DA750948F4
:10A26000FEF74BFC29460420FEF70AFF0020F8BD4C
:10A270000E20F8BD0520F8BDDC340020E4340020B9
:10A28000A4360020E0340020072810B504460ED87C
:10A2900001460848FEF724FC48B121460548FEF770
:10A2A00038FC21460420FEF729FF002010BD0520C0
:10A2B00010BD00BFDC34002003282DE9F041044626
:10A2C00040D801462248FEF70BFC00283AD0002077
:10A2D000FFF768F9002504282CD1012D35D01D4E3B
:10A2E0001D4F00254FF02A0829463046FEF7F8FB9F
:10A2F00058B108FB05735B88A34206D1A8B2FFF7EB
:10A30000C3FF10B1784608F04FFA0135082DEBD1A4
:10A31000A8236343114AD35A0BB9114A137021463B
:10A320000B48FEF7F6FB21460320FEF7E7FE002070
:10A33000BDE8F0810130032805F10105CDD8FFF714
:10A3400031F9C8E70520BDE8F0810F20BDE8F081B4
:10A350009C360020DC340020E4340020A4360020A9
:10A36000883600202DE9F84F064615460F4669B39A
:10A3700062B303282DD801461948FEF7B1FB40B35C
:10A380000024DFF860A0DFF86080D5F800902C6032
:10A390004FF02A0B21465046FEF7A2FB80B10BFB83
:10A3A00004F208EB02035B88B34209D12B6899459C
:10A3B00012D032F8082027F813202B6801332B60C5
:10A3C0000134082CE6D10020BDE8F88F0E20BDE84E
:10A3D000F88F0520BDE8F88F0920BDE8F88F00BF91
:10A3E0009C360020DC340020E434002070B50446A4
:10A3F0000D461646002A44D0082944D847D125489E
:10A400000021FEF76DFB00283DD04FF6FF739C4204
:10A4100007D1082D17BF204A204B2A2303FB052311
:10A420005C88032C31D821461D48FEF759FB60B3E8
:10A43000082D1C4921D0A82303FB0413164893F8C8
:10A440006430022B08D12A236B43C218927D1AB1C3
:10A4500017330344736004E02A2202FB0505043528
:10A460007560A82060430B1893F86430022B06D166
:10A47000433008443060002070BD0B4BEAE72230C7
:10A48000F7E70E2070BD052070BD082070BD07489D
:10A49000B7E700BF34360020E43400203C3600200B
:10A4A0009C360020A436002040360020DC340020FA
:10A4B00038B50D46FFF7AAFB044675B103280ED840
:10A4C00001460848FEF70CFB48B1074BA82202FBE7
:10A4D000043422342C60002038BD0E2038BD052005
:10A4E00038BD00BF9C360020A43600202DE9F8437B
:10A4F000064690460F4611B9784608F055F9B8F16E
:10A50000000F02D1784608F04FF9386806F07F0650
:10A5100078B9002400233B60C8F800301D4BDFF8F9
:10A520007890A82505FB0435A3B2032B0AD9BDE812
:10A53000F883FEF75DFC4FF6FF739842E9D0441CA8
:10A54000A4B2E7E721464846FEF7CAFAF8B195F803
:10A55000641095F8222005F12203A1B1B24205F161
:10A56000430195F8430006D1B04204D13B60C8F8DE
:10A570000010BDE8F883B04205D139600023C8F867
:10A580000030BDE8F883B24201D13B60F6E7A83560
:10A590000134C9E7A43600209C3600202DE9F0479D
:10A5A00004468846164612B9784608F0FDF814B9F4
:10A5B000784608F0F9F82046FFF736FB4FF6FF73B0
:10A5C0009842074603D100233360BDE8F087306826
:10A5D000F8B1FEF77DFE441C1048DFF844A02A25A0
:10A5E00005FB04058146072CEDD821465046FEF7B1
:10A5F00077FA80B16B88BB420DD16B7988EA03038F
:10A600009B0608D12A2000FB049404343460BDE882
:10A61000F0870446E0E701342A35E4E7E43400201B
:10A62000DC34002038B504460D4611B9784608F0F0
:10A63000BBF834B1044B33F8042BA2420CBF1C46C8
:10A6400000242C6038BD00BF3C3600202DE9F047C7
:10A65000064690460F4611B9784608F0A5F8B8F1BD
:10A66000000F02D1784608F09FF8386888B1FEF7ED
:10A6700017FE00F1010A274DDFF8A090A82404FB83
:10A680000A548834BAF1030F05D900233B60BDE8B2
:10A69000F0878246EFE751464846FEF721FAA8B315
:10A6A00014F8243C4BB94EB108222146304612F032
:10A6B00005FCB0FA80F0400901E0E6B9012028B3BA
:10A6C000154B1B7833B1A82303FB0AF3E85AB0FA01
:10A6D00080F04009A82303FB0AFA05EB0A030AF1FC
:10A6E000700A554483F870003D6093F8643088F830
:10A6F0000030BDE8F08708222146304612F0DEFB2C
:10A700000028DBD0082204F11801CFE70AF1010A82
:10A71000A834B7E7A4360020883600209C360020F5
:10A720002DE9F74306460D460AF010FD022857D0E2
:10A7300003284FF0000313D0012803D1434A1268C5
:10A74000D20701D4002029E0414A11888E42F9D372
:10A7500052880A449642F5DA6E8028706B601DE0DC
:10A760006B60A6F57F43FC3B6E802870032B18D8E6
:10A7700001A252F823F000BF45A7020045A702003E
:10A7800089A70200DDA7020001A901200FF0A6F8A9
:10A7900010B1784608F008F89DF8040003B0BDE851
:10A7A000F0834FF6FF752B4FDFF8B0900024A846DA
:10A7B000454509D121464846FEF792F920B9A5B290
:10A7C0000134102CF4D1BDE737F82420B2424FEA0F
:10A7D0008403F5D13B44DB78002BF1D00120DDE789
:10A7E0006868E8B94FF6FF73ADF80430BDF804406F
:10A7F000DFF86C80184F072C4FF6FF7394BF0134BD
:10A800000024ADF804304FF01409082C9AD02146EA
:10A810004046FEF765F948B9ADF804400134F4E765
:10A8200001A9FEF7D3FC0028DCD0DFE709FB04F325
:10A83000DA5BB242F2D1FA18D278002A82D004331D
:10A8400002221F446E802A706F60A7E78C340020BC
:10A850008A3600209C3400204439002084340020B3
:10A860009434002007B50378022B0AD0032B01D0C3
:10A87000012B17D169464088FFF752FF03B05DF8FE
:10A8800004FB69464068FEF7A1FC0028F6D0BDF83D
:10A890000030054A142101FB0323D878003018BF8B
:10A8A0000120EBE70020E9E74439002038B50C46E9
:10A8B000054600B111B9784607F076FF024B1A88B9
:10A8C0002A805B88238038BD8A360020002839D052
:10A8D000002937D01C4B18601C4B19604FF0A04367
:10A8E0000C22C3F820274021C3F81C270322C3F8F9
:10A8F0001827C3F80815C3F81427154B0622C3F808
:10A900000C250822C3F814250722C3F810250522B8
:10A91000C3F8082501210F4AC3F86C158420C3F839
:10A9200024250422C3F80025C3F804030020C3F83B
:10A930000801C3F81C011960074BC02183F80213FA
:10A940001A6070470E207047E8390020EC3900206B
:10A950000020004000E0D70100E100E070B5124D9A
:10A96000124E134C29783368002011B1D4F8082115
:10A970006AB9D4F81C31ABB10023C4F81C31D4F847
:10A980001C310C4B1B686BB1BDE870401847C4F814
:10A990000801D4F80821002BE7D0D4F81805C0B27C
:10A9A0009847DFE770BD00BFE4390020E839002098
:10A9B00000200040EC390020FFF7D0BF014B187099
:10A9C000704700BFE439002038B50B4D2B788BB9A8
:10A9D0000A4C0B48214609F03BFA58B9236819790B
:10A9E000084B01222A70C3F81C1507490A80C3F8D6
:10A9F0001C019A60012038BD103C00202C3E002034
:10AA00001C3E002000200040F039002070B5174C9B
:10AA1000237813B9784607F0C7FE154D296849B960
:10AA2000144B0122DA602170134BBDE870401868A6
:10AA30000BF024BD114A08791388461CB3420BD190
:10AA400001330F48138009F065FA0A4A00230121F7
:10AA50002B60D1602370E7E7834206DC19440133A1
:10AA60001380044B0979C3F81C1570BD103C0020FD
:10AA70002C3E002000200040F4390020F039002056
:10AA80001C3E002008B54FF402721149114809F02C
:10AA9000DEF8114911484FF4027209F0D8F8104954
:10AAA0001048FFF713FF10B1784607F07DFE012034
:10AAB000FFF784FF0C4A0D48002313700C4A1380E3
:10AAC0000C4A13800BF0BCFC0B4B186008BD00BF98
:10AAD000143C00201C3E0020FA390020043C0020D9
:10AAE0000DAA02009DAB0200103C0020C9A9020083
:10AAF000123C0020F0390020F439002037B5421C08
:10AB000004460D4692B201A9044809F01EF918B98D
:10AB1000019B1A1D2A601C7103B030BD1C3E002031
:10AB200038B5044610B9784607F03EFE251FAB78CD
:10AB3000012B02D0784607F037FE227834F8043C27
:10AB40009A4202D9784607F02FFE0BF009FC074B1A
:10AB500018680BF093FC34F8042C0548294609F0DA
:10AB600046F9BDE838400BF03BBC00BFF43900208B
:10AB70001C3E002013B5044601A90320FFF7BEFFC9
:10AB800048B9019A84235370019A9470019AD37042
:10AB90000198FFF7C5FF02B010BD00002DE9F0419C
:10ABA0002A4A1388074690461BB1013B1380BDE833
:10ABB000F081274D2B8873BB264E348804B9441C82
:10ABC000012C07D8013CA8F800400020BDE8F04166
:10ABD000FFF7D0BF204809F02AF88442F2D8B4F534
:10ABE000807FEFD8DFF874801B482246414609F089
:10ABF000ACF828B134800020BDE8F041FFF7DEBE9C
:10AC0000338843B12B88D8F8002030801A44013CA7
:10AC1000013314712B80114C2B882168CA18013321
:10AC200017710A799BB2013293422B800BD153B139
:10AC30000A880948002609F0DAF8266000F02AFBA5
:10AC40002E80BDE8F081BDE8F08100BFF83900201A
:10AC5000303E0020123C0020043C0020283E002012
:10AC600013B5044601A90B4809F0F2F878B9019927
:10AC7000204631F8042B12F030F90199054809F00B
:10AC800049F90120FFF79AFE012002B010BD002013
:10AC9000FBE700BF043C002070B5044615461E4685
:10ACA000084649B900F00EFB33462A4601462046C5
:10ACB000BDE8704000F044BB00F004FB00231A46DE
:10ACC000F4E770B4002304469342607803D1002374
:10ACD0001A46822111E011F83360864201EBC30568
:10ACE00012D16B782278934204DAA97801330B44AD
:10ACF0009A4205DD00231A46842170BC00F020BB77
:10AD00006B68204670BC18470133DDE710B5044678
:10AD1000FCF758FB002360781A461946BDE810403E
:10AD200000F00EBB30B5C1B040ACFA2324F8FC3DB6
:10AD3000054622460DF106014088FDF7A1FB6D781E
:10AD4000034608B109280AD1184600F0BBFAFC23D3
:10AD500022460146284600F0F3FA41B030BD00F02B
:10AD6000B1FA00231A46F4E713B5044601AA416874
:10AD70004088FDF75BFB0223014601AA6078FFF7DC
:10AD80008BFF02B010BD13B5044601A94088FDF742
:10AD900037FB042301460DEB03026078FFF77CFFCD
:10ADA00002B010BD13B5044601A94088FDF71CFB95
:10ADB0000123014601AA6078FFF76EFF02B010BDC3
:10ADC00013B5044601A94088FDF702FB01230146A3
:10ADD00001AA6078FFF760FF02B010BD13B504460A
:10ADE00001A94088FDF7E8FA0223014601AA60782C
:10ADF000FFF752FF02B010BD10B5044681884088AD
:10AE0000FDF7CAFA647800F05DFA002301461A469D
:10AE10002046BDE8104000F093BA13B5044601A9DE
:10AE20004088FDF7A5FA0123014601AA6078FFF7E3
:10AE300033FF02B010BD10B5044601794088FDF71C
:10AE400077FA647800F03EFA002301461A4620465D
:10AE5000BDE8104000F074BA13B5044601A940885B
:10AE6000FDF710FA0223014601AA6078FFF714FFEC
:10AE700002B010BD10B5044681884088FDF7E4F9A2
:10AE8000647800F01FFA002301461A462046BDE808
:10AE9000104000F055BA30B5C1B040AC7D2324F865
:10AEA000FC3D054622460DF106014088FDF79AF962
:10AEB0006D78034608B109280AD1184600F002FA55
:10AEC000FC2322460146284600F03AFA41B030BD44
:10AED00000F0F8F900231A46F4E710B5044681881B
:10AEE0004088FDF757F9647800F0ECF9002301463B
:10AEF0001A462046BDE8104000F022BA10B50446BC
:10AF000081884088FDF71EF9647800F0DBF90023A2
:10AF100001461A462046BDE8104000F011BA30B58F
:10AF2000C1B040ACFA2324F8FC3D054622460DF1A1
:10AF300006014088FDF7C6F86D78034608B1092878
:10AF40000AD1184600F0BEF9FC23224601462846E5
:10AF500000F0F6F941B030BD00F0B4F900231A4614
:10AF6000F4E710B5044681884088FDF77BF86478E3
:10AF700000F0A8F9002301461A462046BDE810401B
:10AF800000F0DEB910B5044681884088FDF73AF834
:10AF9000647800F097F9002301461A462046BDE880
:10AFA000104000F0CDB913B504460DF1050201A91A
:10AFB0004088FDF709F80223014601AA6078FFF7EF
:10AFC0006BFE02B010BD10B504464279017940888D
:10AFD000FCF7C4FF647800F075F9002301461A46B7
:10AFE0002046BDE8104000F0ABB913B5044601A9F6
:10AFF0004088FCF763FF0223014601AA6078FFF74F
:10B000004BFE02B010BD10B5044681884088FCF7A5
:10B0100037FF647800F056F9002301461A462046AF
:10B02000BDE8104000F08CB910B54378F52B04460C
:10B0300002D9784607F0B8FB204616220249BDE83F
:10B040001040FFF73EBE00BF54D4030010B50446C5
:10B050004078452886B00FD842281DD240281BD002
:10B06000412820D040381F2802D9784607F09CFBA1
:10B0700000231A46822139E053282ED05428F1D1DA
:10B080002378012B12D107F0BDFB1022014602A844
:10B0900011F023FF10231EE000231A46822100F046
:10B0A0004FF906B010BD2378012B03D000231A46B8
:10B0B0008421F4E768460EF027FF9DF80030062251
:10B0C000C3F346030DF101010DF109008DF80830BD
:10B0D00011F003FF072302AA07E02378112BE5D123
:10B0E000A01C07F073FB00231A4600216078D6E706
:10B0F00010B504464078782811D12046002210F877
:10B10000021B013907F026F9647800F0DBF8002310
:10B1100001461A462046BDE8104000F011B9002350
:10B120001A468221F7E7000038B5054D2C782CB976
:10B13000FFF7A8FC01232B70204638BD082038BD3E
:10B14000333E002010B50B4B1B78022B10D1FFF7BC
:10B15000D5FC0428044604D0092802D020B9204692
:10B1600010BD01F0B7FAFAE7784607F01DFBF6E7E5
:10B170000824F4E7333E002010B5064B1B78022B61
:10B18000044602D0784607F00FFB2046BDE8104089
:10B19000FFF7C6BC333E00207FB5374D2B78012B1F
:10B1A00025D0364B1B681A0416D5354B1B68012B6E
:10B1B00012DD2F21334811F06FFF78B12F21314874
:10B1C00011F06AFF411C304B304AD3F8043500922D
:10B1D000022099220CF096F808242EE05C212948E0
:10B1E00011F05AFF08B15C21E9E72649EBE7022696
:10B1F00003A904202E70FFF7A5FF044648B31F4B98
:10B200001B681B0417D51E4B1B68002B13DD2F2159
:10B210001C4811F041FF98B12F211A4811F03CFF52
:10B22000411C194B1A4AD3F8043500920194A32209
:10B2300001200CF067F801232B70204604B070BD8C
:10B240005C21104811F028FF08B15C21E5E70D49A9
:10B25000E7E7039B81225A70039B9E704FF0804367
:10B26000039AD3F8003403F00803D3700398FE2345
:10B270000371FFF781FFE0E7333E0020702E0020CE
:10B280006C2E002063D50300001001407FD5030021
:10B2900090D5030038B5084C25785DB9074B1B786D
:10B2A000022B07D101232946054823700BF03EF8F5
:10B2B00000B1257038BD00BF323E0020333E002073
:10B2C00099B3020009282AD010D8042823D004D822
:10B2D000022826D858B38320704706281BD01AD3DB
:10B2E00007281AD00828F6D0802070470E2818D0DA
:10B2F00008D80B2817D0EED30C2810D00D28F3D186
:10B300009320704710280ED005D311280DD043F29A
:10B3100001039842E8D18E20704785207047842031
:10B320007047812070478720704786207047002033
:10B3300070470000014B1878704700BF333E002073
:10B34000F7B507460E461C461546EAB1F3B1114B58
:10B350001B78022B16D1E01C01A980B2FFF7F2FE88
:10B3600080B9019B84225A70019B9F70019BDE7003
:10B370002DB1019822462946043011F0AEFD019806
:10B38000FFF7FAFE03B0F0BD002BE0D0784607F0DF
:10B390000BFADCE7333E002030B5274B274C284D15
:10B3A0000022C3B01A7002A8FFF75AFC002841D04F
:10B3B0009DF80910002314F8330088424FEAC302B5
:10B3C00007D822445078884203D3536802A898478C
:10B3D000E9E70133092BEED11A4B1B681B0418D582
:10B3E000194B1B68012B14DD2F21184811F054FE56
:10B3F000B8B12F21154811F04FFE411C9DF80920CE
:10B40000D5F804350192124A0092022081220BF0F5
:10B4100079FF00231A4682219DF80900FFF790FF6B
:10B42000C1E75C21094811F037FE08B15C21E1E772
:10B430000649E3E743B030BD323E002004D50300A7
:10B4400000100140702E00206C2E002063D50300F8
:10B450004CD50300064B984206D003F59A739842E8
:10B4600004D10120C0B270470020FBE7FF207047E5
:10B47000E441002037B5037804460C2B73D8DFE88D
:10B4800013F00D003300420074007C00E100F50071
:10B49000B400720052008400C9000A01824B1B787C
:10B4A000002B60D001A91A20FFF74CFE00285AD1CA
:10B4B000019BC0225A70019D1022211DA81C11F071
:10B4C0000CFDE36993F90D30AB74237DEB74E369F4
:10B4D0009B7BC3F346032B75E16906220F3105F10F
:10B4E000150011F0FAFC3BE001A90220FFF72AFE4B
:10B4F000002838D1C122019B5A706068019AFFF779
:10B50000A9FF90702CE001A90320FFF71BFE50BBA0
:10B51000C222019B5A706068019AFFF79BFF9070EE
:10B52000237AD3701CE001A90B20FFF70BFED0B9E2
:10B53000019BC3225A706068019AFFF78BFF9070DD
:10B54000237AD370E37A1371237B5371637B9371F6
:10B55000E389A2F80730237C5372B4F81130538189
:10B560000198FFF709FE03B030BD01A90320FFF7E2
:10B57000E9FD0028F7D1C422CBE701A90220FFF79B
:10B58000E1FD0028EFD1CA22B5E701A92C20FFF781
:10B59000D9FD0028E7D1019BC5225A706068019D42
:10B5A000FFF758FFA870E368D3F81230C5F80330EE
:10B5B000E368DB8AA5F80930E3681B8AA5F8073041
:10B5C000E3681B7EC3F30003EB72E3681B7EC3F3E7
:10B5D00040032B731022A16805F10D0011F07DFCD2
:10B5E0001022E16805F11D007BE701A90520FFF7A6
:10B5F000A9FD01460028B6D1019BC6225A70606899
:10B60000019AFFF727FF0123D37090701171102367
:10B610005371A5E701A96220FFF794FD0028A2D18C
:10B62000019BC7225A706068019DFFF713FFA87045
:10B630004022A168E81C11F050FC2022E16805F1CD
:10B6400043004EE701A91320FFF77CFD00288AD1B3
:10B65000019BC8225A706068019DFFF7FBFEA8702D
:10B66000237AEB70627AE168281D3AE701A9052088
:10B67000FFF768FD00287FF476AF019BC6225A7061
:10B680006068019AFFF7E6FE03239070D370237A77
:10B690001371637ABCE701A90320FFF753FD00286B
:10B6A0007FF461AFC92234E79744002007B5244BEB
:10B6B0001B681B0418D5234B1B68032B14DD2F219B
:10B6C000214811F0E9FC002830D02F211E4811F04C
:10B6D000E3FC411C1D4B1E4AD3F8043500920420A4
:10B6E00040F20B120BF00EFE1A491B4804F03AFB15
:10B6F00010B1784607F058F8184805F0BFFA01462F
:10B70000174804F01BFB10B1784607F04DF81548B8
:10B7100005F0B4FA0146144804F010FB10B1784665
:10B7200007F042F8002003B05DF804FB5C210648F6
:10B7300011F0B2FC08B15C21C8E70349CAE700BFB9
:10B74000702E00206C2E0020C6D503000010014092
:10B75000EFD50300C441002057440020343E0020B0
:10B76000E4410020FC3F00201843002070B54378DE
:10B77000613B8AB00446092B7FD8DFE813F00A004A
:10B7800022002E0082007E009900B000C900DE0079
:10B79000EA007B4B1A7832B100231A4683216120DC
:10B7A000FFF7CEFD69E0012276481A7004F07FFBB6
:10B7B00010B1784606F0F8FF00231A461946607863
:10B7C000EEE76F4A13781BB91A4683216220E7E738
:10B7D0000025157004F073FBEEE78378012B4ED83B
:10B7E0001922002103A811F083FB102204F1130198
:10B7F00003A811F072FB022204F1230107A811F043
:10B800006CFB042204F125010DF11E0011F065FB13
:10B81000022204F129010DF1220011F05EFB94F8DF
:10B820002B209DF82430A078574D584962F300032F
:10B8300094F82C2062F341038DF824304FF49A766B
:10B84000504B0093524A534B06FB005004F05CFAF5
:10B8500050B9A07894F82D2001230093E11C03AB8C
:10B8600006FB005004F0DBFAA3788DF80C3001469B
:10B87000012303AA6320FFF70FFA0AB070BD0B2063
:10B88000F2E7404B0093424A424B40493E4804F0A5
:10B890003BFA28B90246014601233B4804F07BFAF3
:10B8A0006478FFF70FFD002301461A46204677E72C
:10B8B0008578012D11D8C1784379027932484FF447
:10B8C0009A7606FB050004F0D8FA01460AAAA37886
:10B8D00002F81C3D66200123CDE70B21F6E78378B3
:10B8E000012B13D80146284811F8032B4FF49A7501
:10B8F000023AD2B205FB030004F0CBFA01460AAAD1
:10B90000A37802F81C3D67200123B4E70B21F6E77A
:10B910008378012B0FD81C4AC11C4FF49A7000FB8E
:10B92000032004F0BDFA01460AAAA37802F81C3DE0
:10B93000682001239FE70B21F6E7811C2022144891
:10B9400011F0CBFA402204F12201104811F0C5FA9F
:10B9500032E7104A837813700023937001215170ED
:10B96000C178D17001791171017A1172B0F80910A2
:10B97000A2F8091041795171C188D1801DE700BF3B
:10B980009744002075B40200E44100205744002091
:10B99000C44100204C44002013B50378063B044604
:10B9A000062B29D8DFE803F0324E5C748F042A009E
:10B9B00001A91620FFF7C6FBF0B9A522019B5A701A
:10B9C000019B22799A702346019853F8052FC0F8FD
:10B9D00003205A68C0F807201B89A0F80B30019893
:10B9E00054F80F3FC0F80D306368C0F81130238958
:10B9F000A0F81530FFF7C0FB02B010BD01A916205A
:10BA0000FFF7A0FB0028F7D1A622D7E701A90D2058
:10BA1000FFF798FB0028EFD1019BA0225A70019BF1
:10BA200022799A702346019853F8052FC0F8032015
:10BA30005A68C0F807201B89A0F80B300198E37BF7
:10BA40004373D7E701A90220FFF77CFB0028D3D17D
:10BA5000019BA1225A70019B22799A700198C9E733
:10BA600001A90D20FFF76EFB0028C5D1019BA22282
:10BA70005A70019B22799A70019B6279DA70019861
:10BA800054F8063F43606368836023898381B1E78C
:10BA900001A90E20FFF756FB0028ADD1019BA32280
:10BAA0005A70019B22799A70019B6279DA70234661
:10BAB000019853F8062F42605A6882601B8983817F
:10BAC000237C837396E701A91520FFF73BFB002831
:10BAD00092D1019BA4225A70019B22799A7023462D
