:020000022000DC
:1060000000FD0320358F03005D8F03005F8F0300C9
:10601000618F0300638F0300658F030000000000A1
:10602000000000000000000000000000678F030077
:10603000698F0300000000006B8F03006D8F030069
:106040006F8F03006F8F03006F8F03006F8F03004C
:106050006F8F03006F8F0300ED6A02006F8F0300E4
:106060006F8F03006F8F0300F17903006F8F0300C0
:106070006F8F03006F8F03006F8F03006F8F03001C
:106080006F8F030079880300813E03006F8F030048
:10609000398903006F8F0300996E02006F8F030030
:1060A0006F8F03006F8F03006F8F03006F8F0300EC
:1060B0006F8F03006F8F03000000000000000000DE
:1060C0006F8F03006F8F03006F8F03006F8F0300CC
:1060D0006F8F03006F8F03006F8F03006F8F0300BC
:1060E0006F8F03006F8F03006F8F030000000000AD
:1060F000000000006F8F0300000000006F8F03009E
:10610000000000000000000000000000000000008F
:10611000000000000000000000000000000000007F
:10612000000000000000000000000000000000006F
:10613000000000000000000000000000000000005F
:10614000000000000000000000000000000000004F
:10615000000000000000000000000000000000003F
:10616000000000000000000000000000000000002F
:10617000000000000000000000000000000000001F
:10618000000000000000000000000000000000000F
:1061900000000000000000000000000000000000FF
:1061A00000000000000000000000000000000000EF
:1061B00000000000000000000000000000000000DF
:1061C00000000000000000000000000000000000CF
:1061D00000000000000000000000000000000000BF
:1061E00000000000000000000000000000000000AF
:1061F000000000000000000000000000000000009F
:1062000010B5054C237833B9044B13B10448AFF3F0
:1062100000800123237010BDF82E00200000000034
:1062200080BA03000C4B43B10C480D4910B5AFF3D5
:1062300000800C48036823B910BD0A48036833B9CD
:106240007047094B002BF7D0BDE810401847064BAC
:10625000002BF5D0184700BF0000000080BA0300F3
:10626000FC2E0020F42E002000000000154B002B17
:1062700008BF134B9D46A3F5803A00218B460F467D
:106280001348144A121A14F013FA0F4B002B00D0C3
:1062900098470E4B002B00D09847002000210400A7
:1062A0000D000D48002802D00C48AFF3008014F018
:1062B000B1F92000290000F0BDF814F097F900BFF3
:1062C0000000080000FD03200000000000000000A6
:1062D000F82E0020C455002000000000000000003F
:1062E00041DF704707B503781C2B2ED1184B1B6874
:1062F0005B0416D5174B1B68032B12DD2F211648A4
:1063000014F0AAFAC0B12F21134814F0A5FA411CC9
:10631000124B134AD3F8043500920420A2220EF047
:106320001DFC0322C8214FF4F03000F07FFB03B0C6
:106330005DF804EB00F09EBA5C21074814F08CFA7B
:1063400008B15C21E0E70449E2E703B05DF804FB33
:10635000702E00206C2E0020D8A8030000100140F1
:10636000F3A8030010B50378083B0446042B5BD860
:10637000DFE803F041454E0303000079022804F1F1
:10638000050126D004282DD1B4F81320B4F8093023
:106390009A4225D1D4F80F20D4F805309A421FD163
:1063A000D4F81530D4F80B2093422CBF00230123DE
:1063B000C3B11E4B1A6809F013FD18B11C4A8221A3
:1063C00012F0E3FD00214FF4F030BDE8104000F082
:1063D00023BBE27B63799A4202D1237CA279E3E773
:1063E0000023E5E709F048FDF0B1114A8821BDE836
:1063F000104012F0CABD01214FF42040E5E7002112
:106400004FF4F03000F008FB01214FF4C040DCE70E
:106410004FF4F030002100F0FFFA207909F060FD20
:1064200010B1034A9721E2E710BD00BF0C550020D0
:10643000D8A8030080B58CB012F0C6FB18B1A64AEC
:10644000C82112F0A2FDA54C00F024FBA44A0421AF
:106450004CF287000EF068FB23685A0418D5A14B54
:106460001B68032B14DD2F219B4814F0F5F900283D
:1064700000F00D812F21984814F0EEF9411C9A4B41
:106480009A4AD3F8043500920420CC220EF066FB21
:10649000974E984D984F2B6831685B1A3B602B687C
:1064A000964923F47F6323F00F0303F580530B60B9
:1064B000236813F4804FB0460E461BD0894B1B68EF
:1064C000052B17DD2F21844814F0C6F9002800F0B1
:1064D000E7802F21804814F0BFF9411C824BD3F88C
:1064E0000435D8F800200192854A00920620D52272
:1064F0000EF034FB23685B041AD57A4B1B68052B1E
:1065000016DD2F21744814F0A7F9002800F0D1807F
:106510002F21714814F0A0F9411C734BD3F80435B6
:106520002A680192774A00920620D6220EF016FBC6
:10653000236858041AD56B4B1B68052B16DD2F21D9
:10654000654814F089F9002800F0BC802F216248CA
:1065500014F082F9411C644B3A68D3F80435019277
:10656000694A00920620D7220EF0F8FA23685904EF
:106570001AD55C4B1B68052B16DD2F21564814F0ED
:106580006BF9002800F0D2802F21534814F064F9F1
:10659000411C554B3268D3F8043501925B4A009296
:1065A0000620D8220EF0DAFA00F0D6FA00212422D2
:1065B00003A814F07DF801238DF80C3007238DF823
:1065C0000F3006238DF814305149524B079303A81E
:1065D00000F01EF918B1404AB82112F0D6FC4E481E
:1065E0004E4B03600CF0D6FB23685A0418D53D4B84
:1065F0001B68032B14DD2F21374814F02DF90028D8
:1066000000F09D802F21344814F026F9411C364BB0
:10661000434AD3F8043500920420DE220EF09EFA9D
:106620003B4B1B7873B9039304930593069307932D
:1066300003A83C4B089300F08BF918B1264AEF21D0
:1066400012F0A3FC00F097F818B1234AF72112F0DA
:106650009CFC23685B0417D5224B1B68032B13DDBE
:106660002F211D4814F0F8F8002871D02F211A4866
:1066700014F0F2F8411C1C4B2B4AD3F8043500925D
:106680000420F9220EF06AFAFFF72AFEFCE75C21EB
:10669000114814F0E1F808B15C21ECE60E49EEE691
:1066A0005C210D4814F0D8F808B15C2112E70A49C2
:1066B00014E75C21084814F0CFF808B15C2128E702
:1066C00005492AE75C21044814F0C6F808B15C21AA
:1066D0003DE701493FE700BFD8A80300702E002026
:1066E000FD4A03006C2E0020001001400CA903009D
:1066F000A02D0020A42D0020105500200C550020B6
:1067000034A9030043A9030052A9030061A90300AF
:10671000142F0020E5620200182F0020656302009C
:1067200071A90300A1A903008BA903005C210D48F6
:1067300014F092F808B15C2127E70A4929E75C21A7
:10674000084814F089F808B15C215CE705495EE768
:106750005C21044814F080F808B15C2187E7014906
:1067600089E700BFD8A8030003780D2B02D10020D1
:106770000CF066BB70470CF0B7BA30B5837DC27DB4
:1067800085B043EA02230446ADF80C3003A8012388
:106790000D46ADF80E3003F057F810BB02AA2146A3
:1067A000208A03F045FAE0B90DF10A032A46BDF844
:1067B0000810E08A03F0F4FB98B9217ED4F81200A7
:1067C00001F001010BF0CCFE10B1784609F0A0FCFD
:1067D000BDF80A0006F066FA18B9019000F0BCFD99
:1067E000019805B030BD08B501F01CFA02F0B4FF05
:1067F000BDE808400BF052BC07B501A803F060F8F3
:10680000BDF80400003018BF012003B05DF804FBA0
:1068100073B50E46054648B30CF000FA044610BBAB
:1068200002F0F4FF01F0A4FE286906F00BFA04461A
:10683000C8B92B7F0193AB69009301466B690C4883
:106840004FF6FF7206F026FC044660B92B6A03B1CE
:10685000984710F067F802F0F3FE01F031F8FFF707
:10686000CBFF06B13070204602B070BD0E24FAE7AF
:10687000242F002008B50EF0E7FE20B10020BDE86F
:1068800008400CF0DDBA0248BDE808400CF082BABE
:10689000A82D00200349044809690123002207F0BC
:1068A00024B800BF842F00208431002010B5037865
:1068B000023B082B2CD8DFE803F01B05102B2B2CF8
:1068C0002B2B38001E4B5B6813B3007A00B31D4AB4
:1068D00001211170BDE810401847194B9B68BBB1EE
:1068E000184A1178A1B100211170BDE81040184775
:1068F000154B1A78124B42B9DB6813B111490A7073
:106900009847BDE81040FFF7C5BF1B68002BECD1CE
:1069100010BD0B4B0D485969102207F02AF80028CA
:10692000F6D0BDE8104012F023BB8168C068FFF7C5
:1069300024FF08B112F01CFB034B01221A70E7E799
:10694000842F0020802F0020812F00208431002000
:1069500070B5184A184E5168044686B0106803ABEB
:1069600003C31189927A19809A700FCC35460FC5EE
:1069700094E8030085E803007369CBB10F49104820
:1069800006F09AFF90B90F4B00930C4A0C490E4841
:1069900003AB06F063FF48B90C4807F095FE0146CB
:1069A000094806F075FF08B9FFF774FF06B070BD1F
:1069B0000720FBE7B1A90300842F00209C2F0020B3
:1069C000B8320020AD68020084310020BC2F0020C6
:1069D00038B50D4C206808B912F0CAFA4FF0A0453E
:1069E0000A4AD5F8043512685340C5F804352368BF
:1069F000013B236033B9064812F09AF9054B1B6836
:106A0000C5F8043538BD00BFF8320020FC32002044
:106A100000330020283300204FF0A04311B1C3F809
:106A20000C057047C3F8080570470000F8B542B37D
:106A3000132926D9134B144D5200013A4FF0A044AC
:106A40001A602860114BD4F804251A604FF40040F6
:106A50004FF4FA760027E0FB01674FF47A720023C7
:106A60003046394613F03AFC00220146084812F03D
:106A700019F930B9D4F804352A6823EA0203C4F8B6
:106A80000435F8BDF8320020FC3200202833002005
:106A90000033002008B54FF0A04303224FF400510B
:106AA000C3F83427C3F808154FF48041C3F83827DA
:106AB000C3F808154FF40041C3F83C27C3F8081584
:106AC000C3F840274FF48032C3F808250121054A56
:106AD000054812F0D5F818B1BDE8084012F048BAE0
:106AE00008BD00BFD1690200BCA90300124B70B5FC
:106AF0000024124E124DC3F87C414FF0A043A15D1B
:106B0000D3F8102501238B40934311D00D49D5F8BC
:106B100004250B68981A48BFD01A43F233339842C1
:106B200006D9D5F804350B60074B20461B689847FB
:106B30000134042CE1D170BD00600040C0A9030005
:106B400000100140243300202033002060DF704714
:106B500069DF70470CF020B910B588B000F04CF92F
:106B600008B112F005FA2B4B0393039B04930C22FC
:106B7000002105A813F09CFD0023049A8DF8143021
:106B800005A90120FFF7E4FF08B112F0F1F90C228A
:106B9000002105A813F08CFDF823049A059305A99C
:106BA000A120FFF7D5FF08B112F0E2F904A8FFF722
:106BB000CDFF039B049A9A4204461CD0164B1B68D7
:106BC0005B0418D5154B1B68012B14DD2F211448CD
:106BD00013F042FEA8B12F21114813F03DFE411CD5
:106BE000104B049AD3F8043501920F4A0092022008
:106BF000A2220DF0B3FF14B1204612F0B9F908B08B
:106C000010BD5C21064813F027FE08B15C21E3E7C4
:106C10000349E5E7A02D0020702E00206C2E0020F7
:106C2000C4A9030000100140F4A9030070B5EFF3FC
:106C3000108672B60C4A946801239CB993600B4B82
:106C40000B4DD3F8801029401160C3F88050D3F861
:106C5000841051604FF0FF32C3F88420047006B9ED
:106C600062B670BD0370FAE71455002000E100E041
:106C7000FC06FFBD10B5084B9A685AB150B9EFF346
:106C8000108272B605491C680C605C684C609860A4
:106C900002B962B610BD00BF1455002000E100E04B
:106CA00001600B6843604A68934204BF002343605D
:106CB0007047436843B1026891680B44436052686F
:106CC000934204BF0023436070474BDF70470000CE
:106CD0001FB50D4C01A8FFF7F8FF70B9214602A8B7
:106CE000FFF7DEFF039B002BF4D001981A68596868
:106CF000904702A8FFF7DDFFF4E7052801D012F066
:106D000037F904B010BD00BF30AA030061DF70473F
:106D100030B5114B1B7891B0E3B1104D34240DF117
:106D2000020103A8ADF80240FFF7F0FF70B9294651
:106D300001A8FFF7B5FF029B002BF0D003A81A684B
:106D40005968904701A8FFF7B4FFF4E7052801D080
:106D500012F00EF911B030BD2C3300203CAA030014
:106D600010DF704713B5044609496846FFF798FFDE
:106D7000019808B902B010BD0368416820469847E1
:106D800018B16846FFF795FFF2E71120F2E700BF60
:106D90004CAA030013B5044607496846FFF780FF75
:106DA000019B0BB902B010BD20461A685968904784
:106DB0006846FFF77EFFF3E764AA03000C4991F8E9
:106DC00016335A09EC231341DB0708D442F20200C0
:106DD00012F0CEB81A6842F480021A607047054B70
:106DE0009A68002AF6D14FF480030B60704700BF09
:106DF00000E100E014550020F7B5184F3C785CBB6B
:106E0000174E012520463570FFF7ACFF112820D022
:106E10002046FFF7BFFF134B1868019002A800F847
:106E2000054DFFF703FF104901A8FFF799FF04463E
:106E3000B0FA80F0400938709DF80300FFF71AFFA0
:106E40003CB90A4B34701C70FFF7B8FF2846FFF7B7
:106E5000A1FF204603B0F0BD0824FAE72E3300203E
:106E60002D33002048AA030009FF02002F33002021
:106E700007B508496846FFF713FF019B13B903B034
:106E80005DF804FB58681A6890476846FFF711FFE1
:106E9000F3E700BF58AA0300FFF7EABF38B58378CD
:106EA00003F003020446032A22D8DFE802F00214AA
:106EB000191D9B08154A1648126813440268A360FE
:106EC0000021EAB195685D1B002D16DAD1B9114693
:106ED000E160046038BD9B0803EB83035B00E9E7D6
:106EE0009B0864225343E5E79B0841F27072F9E77F
:106EF000784609F00DF90023DCE71146D268E0E797
:106F00000029E5D0CC60E26038BD00BF48330020E6
:106F10005033002008B5032809D8DFE800F00D023F
:106F20000406064808BD064808BD064808BD784660
:106F300009F0EEF8002008BD034808BD40420F00EC
:106F4000809698000046C323A08601002DE9F041F9
:106F5000574D2B78A3B1574B574E5C680CF07CF91A
:106F6000241A3078FFF7D6FF3278544B001B002AE2
:106F700040D14CF2503290423CD91A6801321A602A
:106F8000DFF84881D8F80020002A00F087804A4EB8
:106F90009378307803F003038342344664DD474B33
:106FA00097681B68FB1A464F5F43FFF7B3FFD8F89B
:106FB0000030B7FBF0F09F78C7F30107FBB2022B5C
:106FC0001FD031D8012B47D10A22B0FBF2F302FBCC
:106FD0001300002840D10CF03FF900F5742101F5B1
:106FE000107137702B78002B50D03248BDE8F0413B
:106FF0000CF0FDB81A683249B0FBF1F0104418608B
:10700000BEE7337863B96422B0FBF2F302FB1300EE
:1070100010BB0CF021F92B49022301442370E1E756
:10702000012B19D10A22EFE7337863B941F270726C
:10703000B0FBF2F302FB130070B90CF00DF922491A
:1070400003230144EAE7012B02D14FF41672EFE764
:10705000022B01D13C22EBE70CF0FEF8064620782B
:10706000FFF758FF3118BDE70CF0F6F8D8F80030FC
:107070000446987800F00300FFF74CFFD8F8003082
:107080009B78C3F3010321183370ABE70948012350
:107090002B704160BDE8F0410CF070B82B7823B143
:1070A0000448BDE8F0410CF08BB8BDE8F08100BFAA
:1070B0004C330020303300204D3300204833002073
:1070C000A0860100809698000046C323503300201C
:1070D0002DE9F341244B1B78032B2AD8DFE803F07A
:1070E000021B1F23214A136801331360204B214EDA
:1070F0001E4D00221A70B04634683CB1A3682A685D
:1071000093421AD02A689B1A002B16DBFFF71EFF4A
:1071100002B0BDE8F081154A13680A33E5E7134A67
:1071200013686433E1E7114A136803F5BB53103366
:10713000DBE7784608F0ECFFD8E72788E368C8F873
:10714000003002A9002341F8043D384601F076F9E9
:1071500010B1784608F0DCFF38466368019998471B
:107160002046FFF79BFEC7E74D3300204833002041
:107170004C3300205033002010B5084C1822002159
:10718000204613F095FA064B064AA36000231360CD
:10719000054A1360054A137010BD00BF303300204C
:1071A000D170020048330020503300204C330020BF
:1071B000F8B50F461646044610B9784608F0A8FF01
:1071C000124D0CF0F9FC2B6800220BB1A34216D132
:1071D000A17867F3010166F38701A1709BB1DB68B9
:1071E00082B92B602EB12046FFF758FE2B689C42D7
:1071F00001D1FFF7ABFEBDE8F8400CF01DBD1A460B
:10720000DB68E2E7D360002EF5D0ECE750330020D6
:1072100070B50E461546044610B9784608F078FF5A
:10722000A378C3F301033370A378C3F385032B70F2
:1072300070BD4A09012301F01F0103FA01F150F862
:107240002230194214BF0120002070474FF6FF7210
:10725000B2EB104F82B083B215D113F47F4007D048
:1072600003F44043B3F5004F14BF0020012006E0B3
:1072700023F07F022AB97F3B18BF0123184602B0D2
:1072800070470346FAE723F03F03C02BECE700000A
:1072900001289FBF054B342202FB003090F83000DC
:1072A00094BF00F001000020704700BF9033002021
:1072B000004700004388C3F30B03012B02D90020D1
:1072C00008707047064A12F8331041F0010102F8C5
:1072D000331002EBC3034268D2435A600120704767
:1072E000F83300204388C3F30B0313B10020087068
:1072F0007047024B82881A80012070475433002067
:1073000007B513464FF47042ADF804200122ADF8E2
:1073100006001A7003480A4601A90DF04FFF03B09A
:107320005DF804FB68330020784608F0F1BE0000E9
:1073300008B5064B064801221A700DF02DFF20B14A
:107340000448BDE808400EF067B908BD8C33002042
:1073500068330020C42D00202DE9F0410CF02CFCF6
:10736000494B00221A70494B1B78A3BB484C237829
:107370006BB90622012147480DF0CDFF58B3022218
:107380000125C580028182800DF0F4FF2570002464
:10739000414DDFF800812646A1B2E6B915F8343038
:1073A00003F00303032B4FEAC40710D1042241F476
:1073B000405140460DF0AFFF88B1EB195B68DB43ED
:1073C00043600DF0D7FF7B5D23F002037B55013452
:1073D000022CE1D12EB131480EF01EF950E01126F9
:1073E000F5E72F4D6B799B070FD522464FF480515F
:1073F00028480DF090FF0028EDD02A8882800DF0FB
:10740000B9FF6B7923F002036B71264C94F830308E
:1074100003F00303032B16D114224FF400511D482F
:107420000DF079FF05460028D5D0142221460430FE
:1074300013F033F928460DF09DFF94F8303023F017
:10744000020384F8303094F8643003F00303032B14
:1074500016D1142242F201010E480DF05CFF0546E0
:107460000028B8D014221049043013F016F9284629
:107470000DF080FF94F8643023F0020384F8643048
:10748000BDE8F0410CF0D8BBE42D00208C33002087
:107490008D33002068330020F8330020D42D0020E5
:1074A0005433002090330020C433002010B50F4C1B
:1074B00068220021204613F0FBF8062200210C4828
:1074C00013F0F6F8102200210A4813F0F1F84FF6F5
:1074D000FF730222E380A380E281A3816387238775
:1074E000A4F84220A4F8403010BD00BF9033002023
:1074F00054330020F833002030B5012A8DB0044603
:107500000D4607D1784608F003FE0E4B01221A7093
:107510000DB030BD022AF5D0032AF6D12C2200216D
:1075200001A813F0C5F810238DF8043002238DF85C
:107530000830E368059301A823690395069309F0D1
:10754000B9FFE2E7E42D00204A0901F01F034FF0E4
:10755000FF31994050F82230194009D04B420B407E
:1075600004495943C90E044B585C00EB4210704764
:107570001820704731B57C0783AA03002DE9F04F2E
:107580000B89B3F5BE7FADF5317D83460C461546BC
:1075900079D2FFF77DFE28B9052528460DF5317D06
:1075A000BDE8F08F994E342303FB0B639A89002AC0
:1075B000F2D13DB999884FF6FF72914207D0DB882E
:1075C000934204D02068FFF741FE00285DD10725D3
:1075D000E3E73946D888B3F804A002F0EFF90028B1
:1075E000DAD17B880BB91025D7E74FF6FF7969E030
:1075F000E36851932368529397E8030063685393B9
:107600002389ADF8503155AB83E8030051A8ADF89C
:1076100052818DF85CB1ADF85EA1ADF8609101F0DA
:10762000D9F93B78012B05465CD1B6E7032582E00A
:1076300011F47F4F1FBF080A18705970022004BF51
:107640001970012085E05C21714813F005F908B13B
:107650005C219AE06E499CE06268D25C170902F0F6
:107660000F02C75D06F81370875C06EB4302013317
:107670005770ABE05C21664813F0EEF808B15C216E
:10768000B2E06349B4E0092587E704A802F018F9DD
:10769000342303FB0B63BDF81220B3F80C80424582
:1076A000A1D9BDF8102090441FFA88F805AF002D2D
:1076B0008FD0B5F81EA0B5F824900C3595E80300DE
:1076C00087E80300342303FB0B66384696F811B0B5
:1076D000BBF1FF0F04BF4F4B93F800B001F06CF902
:1076E000002885D107AE24220021304612F0E0FFA9
:1076F0000DAA5146484602F0DDFD054600287FF4FC
:107700004CAF97E80300A37AF37286E80300608821
:10771000E37A33734FF6FF7551ABA842A6F80880A1
:1077200086F80AB03361228921887FF47FAFFF2970
:107730008CBF022501251544B582E56835624FF6F8
:10774000FF75A8423FF474AF5870000A9870197022
:1077500003206168184412F0A0FF002130460BF0AE
:1077600017FB054600287FF418AF2B4E32689204B1
:107770001BD52A4B1B68042B17DD2F21244813F03F
:107780006BF800283FF45FAF2F21214813F064F815
:10779000411C234B2288D3F804350192214A0092E0
:1077A000052040F2AB120DF0D9F933689B047FF548
:1077B000F4AE1A4B1B68042B7FF7EFAE21891A4BEE
:1077C0008029186828BF8021002310AE8B427FF4E7
:1077D00043AF00222F210E4806F8132013F03CF887
:1077E00000283FF447AF2F21094813F035F8411C1A
:1077F0000B4B0E4AD3F8043501920D4A00920296C3
:107800004FF4D67205200DF0A9F9C6E6903300209A
:10781000A3AA0300E52D0020702E00206C2E00206E
:1078200000100140BFAA0300742E0020D3AA030059
:10783000DBAA030038B54388C3F30B03012B0446CE
:1078400010D8028A72B91B48342202FB0302D58980
:10785000628A012D09D8AA4204D1174D15F8325079
:10786000ED0702D40020087038BD012A9FBF124DD9
:1078700015F8321041F0040105F832103425211DAD
:1078800005FB0300142212F008FFA188238A4FF69B
:10789000FF729142094A4FF0060101FB03234FF0AA
:1078A00001000BBF9A78DA78013201320CBF9A706E
:1078B000DA7038BD90330020F833002054330020B4
:1078C0002DE9F04385B004AB0622404F43F80C2D60
:1078D000002402AA01213E483C700DF0E5FC05465B
:1078E00038B9BDF80A30012B05D000243C70FFF7F1
:1078F0001FFD204635E0BDF80C20022AF5D1BDF869
:107900000820022AF1D10DF1030232493B704FF4F5
:107910004050FFF7F5FC9DF80330002BE5D02E4BCF
:107920002E495A799D7022F002025A71DD701D8035
:107930000DF103024FF48050FFF7E2FC9DF8033095
:10794000002BD2D00DF1030225494FF40050FFF770
:10795000D7FC9DF803303BB99DF80330002BC4D011
:10796000012005B0BDE8F0830028F5D01D4CDFF8FC
:10797000789004F16808A2894FF6FF739A4203D108
:107980003434A045F7D1E7E7E088984205D001F00C
:10799000ADFF10B1784608F0BBFBE689022EEFD0B0
:1079A00009EBC606043600213046FFF7CDFD182846
:1079B0000546E5D0A8B201F0E5FF10B1784608F021
:1079C000A7FB691C1729EFD9DAE700BF8D33002028
:1079D00068330020B572020054330020E5720200C3
:1079E0003578020090330020F83300202DE9F74F5E
:1079F00000F114040546204602F098FE064680B3C6
:107A00004FF6FF73ADF802302B7D012B2CD101A86E
:107A100001F056FFEF8ABDF80430FF1ABFB2324CB6
:107A2000DFF8C8904FF0000886B3A088C21B504210
:107A3000504194F82830DB070CD558B1E98B20462B
:107A4000FFF7F7FB30B12888B5F802E0218C00235E
:107A50008B4228D308F10108B8F1020F04F1340475
:107A6000E2D103B0BDE8F08FEB8A04339BB2032B65
:107A70000AD90DF10201204601F0FCFF10B1784651
:107A800008F046FB0026CAE70027C8E7E08801287F
:107A900007D809EBC000BDF802100430FFF7C9FB9E
:107AA000C7E73046C5E7E2694FEAC30A02EB0A0CB2
:107AB00032F83320824203D1BCF80220724501D053
:107AC0000133C5E72B7D012B1FFA88FB04D1626AC5
:107AD0002946584600F0B4FEE369626A53442946D9
:107AE0005B6858469847B5E798330020F833002084
:107AF000F0B503788DB00446002B75D143681D782E
:107B000005F0C002402A0ED003D862B100263546E7
:107B10000EE0802A6AD0C02AF8D19A785E78ADB299
:107B200046EA022604E0ADB27F2D5DD04FF6FF7627
:107B3000374B1B689B0418D5364B1B68042B14DD90
:107B40002F21354812F088FE002853D02F213248CB
:107B500012F082FE411C314B314AD3F804350092B9
:107B60000195F42205200CF0F9FF206A01F0F0FFE6
:107B70000746E06901F0D8FF4FF6FF729642ADF874
:107B80000850ADF80A6063683DD1FF2D8CBF02221A
:107B9000012213444FF6FF7296420393238934D196
:107BA000FF2D8CBF022201229B1AADF81030237BDF
:107BB0008DF81430E389ADF8163023690693237DE0
:107BC0008DF81C30E38AADF81E30A369089394F851
:107BD00024308DF82430ADF82C00A36AADF826705F
:107BE00002A80A93FFF702FF0DB0F0BD5B7843EAED
:107BF00005259BE75C21084812F02EFE08B15C21A8
:107C0000A5E70549A7E70322C3E70322CCE700BFA6
:107C1000702E00206C2E0020A3AA0300001001404B
:107C200070AA030008B5FFF741FC00F04BFEBDE869
:107C30000840FFF77DBB00002DE9F0410446002815
:107C400000F0C380002900F0C080C3681BB18368C6
:107C5000002B00F0BA804FF6FF730B80E3681BB96E
:107C6000A368002B40F0B480A388002B40F0B380C1
:107C70005D4EB378F078C34278D1D4F80880E768D5
:107C80000025AF4240F0988008884FF6FF73984275
:107C9000564B46D193F8305015F0010500F0938013
:107CA00093F86420D20701D4012080B24FF6FF750B
:107CB000A842088000F09580342202FB0030C58085
:107CC000088802FB003085800888A78802FB003006
:107CD00087810888678802FB0030478008882788EA
:107CE00050431F52088802FB00324148007850740C
:107CF0002088A288A8424FF0060000FB02620BBF5A
:107D00009078D078013001300CBF9070D0700A8824
:107D1000342000FB023292F8300040F0020082F87A
:107D200030000A882569342000FB0232D5620A88B7
:107D3000A56800FB023255620A88E56800FB023242
:107D400015850A88646900FB023294610A8800FB89
:107D50000234A2820A8800FB0233002093F830200C
:107D600042F0010283F83020BDE8F0811F4B2088EB
:107D70009A8965882AB95F88AF4202D11F888742F5
:107D80000DD0B3F84020002A7FF477AFDA8EAA42F4
:107D90007FF473AF9A8E82427FF46FAF0122104658
:107DA0000A80342202FB003393F83030D8077FF585
:107DB00064AF0F20BDE8F08158F83500FFF746FAB0
:107DC00060B101355DE728466FE70E20BDE8F08120
:107DD0000920BDE8F0810520BDE8F0810720BDE85D
:107DE000F0810420BDE8F08154330020903300205E
:107DF000E52D002011B10022FFF7C0BB0E20704717
:107E000013460A4619B113B11946FFF7B7BB0E2046
:107E10007047000010B50446FFF73AFA88B11729F9
:107E200011D80A48342303FB0400C3888B4206D0D0
:107E300090F83030C18043F0020380F830300020E9
:107E400010BD052010BD072010BD00BF90330020DD
:107E500010B5044651B1FFF71BFA48B1054B342267
:107E600002FB04340020E3880B8010BD0E2010BDFF
:107E7000052010BD90330020012870B51DD8104A90
:107E8000342404FB002494F83030DD0715D5E47C5D
:107E900001F0070504F00706AE4204D1C1F3C405A2
:107EA000B5EBD40F07D0342404FB002043F00203C9
:107EB000C17480F83030002070BD052070BD00BF57
:107EC0009033002069B101280DD8084B342202FB01
:107ED000003090F83030DB0705D5C37C0B700020F4
:107EE00070470E2070470520704700BF9033002078
:107EF000012870B52AD8184C342505FB004595F8A3
:107F00003030DB0722D5AB6913B33F2A22D80329CF
:107F100020D8AD7CB2EB950F03D105F003058D425F
:107F200012D034234343E5181433A87C62F387004E
:107F300061F30100A874E018FFF73AF995F83030C2
:107F400043F0020385F83030002070BD052070BD7D
:107F5000062070BD072070BD9033002038B505465F
:107F6000144681B17AB1FFF793F970B1094834230F
:107F70006B43C218926952B1143318442246FFF77A
:107F800047F9002038BD0E2038BD052038BD062039
:107F900038BD00BF90330020F8B504460F46FFF708
:107FA00077F9E0B1124B342202FB0434E689022E49
:107FB00017D0172917D80F4CF50004356019FFF7B3
:107FC00038F990B9012303FA07F163590B43635160
:107FD00014F8363043F0020304F83630F8BD0520BB
:107FE000F8BD0620F8BD0720F8BD0020F8BD00BF91
:107FF00090330020F8330020F8B504460F46FFF711
:1080000047F9F0B1124B342202FB0434E689022E08
:1080100019D0172919D80F4CF50004356019FFF74E
:1080200008F998B1012303FA07F1635923EA010320
:10803000635114F8363043F0020304F83630002060
:10804000F8BD0520F8BD0620F8BD0720F8BD00BF2B
:1080500090330020F83300202DE9F84306461546FA
:108060000F4641B33AB3FFF713F938B3184B342234
:1080700002FB0636F389022B23D00024DFF854904C
:10808000B5F800802C80F08901280ED809EBC000DB
:1080900021460430FFF7CDF838B12B88984513D925
:1080A00027F813402B8801332B800134182CEAD198
:1080B0000020BDE8F8830E20BDE8F8830520BDE868
:1080C000F8830620BDE8F8830920BDE8F88300BFE7
:1080D00090330020F8330020F8B506460F46FFF72E
:1080E000D7F8C0B1082918D834250E4C754305F1CE
:1080F0000806A019FFF79DF888B9012303FA07F1D4
:10810000A3590B43A3512C4494F8303043F002039D
:1081100084F83030F8BD0520F8BD0720F8BD0020F8
:10812000F8BD00BF90330020F8B506460F46FFF7B4
:10813000AFF8D0B108291AD834250E4C754305F193
:108140000806A019FFF775F890B1012303FA07F1AB
:10815000A35923EA0103A3512C44002094F83030A2
:1081600043F0020384F83030F8BD0520F8BD072045
:10817000F8BD00BF903300202DE9F04106461546BA
:108180000F46F9B1F2B1FFF783F8F0B1124BB5F831
:1081900000803422002402FB06362C80083621465B
:1081A0003046FFF746F838B12B88984510D927F8A4
:1081B00013402B8801332B800134082CEFD1002091
:1081C000BDE8F0810E20BDE8F0810520BDE8F0811A
:1081D0000920BDE8F08100BF9033002010B50446AF
:1081E000FFF756F888B1082911D80A48342303FB51
:1081F000040083888B4206D090F83030818043F0B1
:10820000020380F83030002010BD052010BD07208B
:1082100010BD00BF9033002010B5044651B1FFF7E8
:1082200037F848B1054B342202FB04340020A38800
:108230000B8010BD0E2010BD052010BD9033002016
:10824000030605D4012803D0024B187000207047A4
:1082500007207047E52D0020014B1878704700BFBC
:10826000E52D002010B50446FFF712F890B10A4A38
:10827000342303FB0423187C88421EBF93F830008C
:1082800040F0020083F83000342303FB0424002074
:10829000217410BD052010BD9033002010B5044698
:1082A00051B1FEF7F5FF48B1054B342202FB04340F
:1082B0000020237C0B7010BD0E2010BD052010BDCA
:1082C0009033002010B50446FEF7E2FF98B181F02C
:1082D00080037E2B11D90A48342303FB0400437C1E
:1082E0008B4206D090F83030417443F0020380F89E
:1082F0003030002010BD052010BD072010BD00BF8C
:108300009033002010B5044651B1FEF7C1FF48B1CB
:10831000054B342202FB04340020637C0B7010BD3B
:108320000E2010BD052010BD9033002021B128B9CA
:10833000034B1B880B8070470E2070470520704749
:108340005433002021B128B9034B9B780B70704740
:108350000E207047052070475433002021B128B902
:10836000034BDB780B7070470E2070470520704779
:108370005433002010B5044661B1FEF789FF58B1AF
:10838000064B342060431A1852884A801B5A0B80CF
:10839000002010BD0E2010BD052010BD9033002020
:1083A00073B5019112B310B1052002B070BD4FF644
:1083B000FF730F4913808B89BDF80650BDF8044048
:1083C00008462BB94E88AE4202D10988A1420AD094
:1083D000B0F84030002BE7D1C38EAB42E4D1838E9E
:1083E000A342E1D1012313800020DEE70E20DCE769
:1083F0009033002070B5C9B1C2B1C8B90E4B158811
:1084000010801488A54215D993F83060F60706D578
:108410009E8926B921F81400148801341480013093
:10842000022803F13403ECD1002070BD0E2070BD92
:10843000052070BD092070BD9033002010B50446A2
:1084400051B1FEF725FF48B1054B342202FB04343D
:108450000020E36A0B6010BD0E2010BD052010BD8A
:108460009033002070B50646FEF712FF78B334242F
:10847000184D7443002204F1140011462C44284482
:10848000FEF796FE304600F04DFAE08801F04EFA15
:10849000E27C02F0F8026FF3C702E274A27C0020D3
:1084A00002F0030260F301024FF6FF73A274A27D93
:1084B000E380A38094F83030607402F0030260F32C
:1084C000010243F00203A27584F8303070BD05202C
:1084D00070BD00BF90330020082873B5054614D83E
:1084E0000024A6B20DF106013046FFF795FE30B923
:1084F000BDF80630AB4202D13046FFF7B3FF01347E
:10850000022CEED1002002B070BD0720FBE708B5B9
:1085100001F0D4F8A0F5805008BD000010B586B079
:108520000D4B03930D4B04930D4B059304230293C2
:10853000FFF7EDFF0B4C0090012369460A480193B9
:1085400023700CF054FF20B108480DF065F806B018
:1085500010BD2070FBE700BFF97402002973020010
:108560009D8502008C33002068330020B42D00204C
:1085700008B5FEF79BFF0748074B03600AF00AFCAB
:1085800000F092F9FEF7F8FD00F018FABDE8084097
:10859000FFF7C4BF5C330020F17A0200134B1A7856
:1085A000D00744BF42F002021A701A7AD10744BFC2
:1085B00042F002021A720E4B1A881AB15A7942F02E
:1085C00002025A710B4B93F83020D00744BF42F09F
:1085D000020283F8302093F86420D10744BF42F0B0
:1085E000020283F86420FFF799BF00BFF833002030
:1085F00054330020903300202DE9F04F5B4DB5F847
:10860000703085B0804613B9784607F081FD4FF68B
:10861000FF73574CDFF868A1DFF868B1A5F8723036
:1086200008F57A79002694F82430DBB16369A3EB6E
:108630000903002B1CDA002384F82430B5F87030CD
:10864000013BA5F8703003A934F8040CFFF7F6FEDF
:1086500010B1784607F05CFDA369039934F8040C67
:10866000012298470136022E04F12C044CD0DAE79F
:10867000E369A3EB0902002A65DAA5F872602146D6
:1086800034F8040CFFF7B6FB0746E8B1DAF800301F
:108690009B0417D5DBF80030042B13DD2F21354860
:1086A00012F0DAF8E8B12F21324812F0D5F8411C67
:1086B000314B324AD3F804350092019780220520CD
:1086C0000CF04CFA082F15D1236AE2691A445B00BA
:1086D000E26123626269E369D31A002BC2DAE261C4
:1086E000C0E75C21234812F0B7F808B15C21DBE752
:1086F0002049DDE7042F20D12C2303FB0656B36B62
:1087000003F51C434033B363B5F870305BB3B5F881
:108710007230012B02D9784607F0FAFCB5F87230B6
:108720002C2202FB03539B6BB3EB080248BFA8EB60
:108730000302EA6005B0BDE8F08F0F2FDCD0784669
:1087400007F0E6FCC6E7B5F872204FF6FF718A42E3
:1087500006D02C2101FB0252926B9B1A002B81DA6E
:10876000A5F872607EE7EB60E4E700BF0834002004
:1087700024340020E3AA03000010014008AB0300EA
:10878000702E00206C2E002038B52B4C2C2303FBC0
:108790000043054693F8403013B9784607F0B8FC1B
:1087A000B4F8703013B9784607F0B2FC2C2202FB03
:1087B0000542002382F84030B4F87030013B9BB290
:1087C000A4F870308BB3B4F87230AB4232D1936BF3
:1087D0001A4A1A4494F8403023B3A36B991A00291B
:1087E000B8BF1A464FF6FF73B8BF002394F86C1059
:1087F00021B1616E8A1A002AB8BF01234FF6FF72B9
:108800009342A4F8723002D1784607F081FCB4F8A4
:10881000723009482C2202FB0344A16BBDE83840AA
:108820000AF0E5BC4FF6FF73E0E70348BDE83840C7
:108830000AF0C6BC38BD00BF08340020008793038F
:108840000128F8B505460E46174602D9784607F0C6
:108850005FFC0BF0B1F9134B93F8402012B11A8B67
:10886000AA421DD093F86C20B2B1B3F84420AA42BA
:1088700012D101202C2404FB00343388A28D9A42AB
:108880000AD1E28D73889A4206D1FFF77DFF636BB0
:108890000022394628469847BDE8F8400BF0CCB98D
:1088A0000020E7E70834002010B5044C74220021B2
:1088B000204611F0FDFE024BA36010BD08340020DD
:1088C000F9850200F7B50BF077F91448B0F870306D
:1088D00023B10023A0F870300AF072FC104C04F1B0
:1088E000580694F8283093B12588E76900212C2296
:1088F000204611F0DDFE01A92846FFF79FFD10B1CB
:10890000784607F005FC022201992846B8472C3426
:10891000B442E6D10BF090F903B0F0BD083400206A
:1089200020340020012873B505462DD8174C0BF0D4
:1089300043F994F8403013B1238BAB4220D094F824
:108940006C30FBB1B4F84430AB421BD10126304649
:10895000FFF71AFF01A92846FFF770FD10B178460E
:1089600007F0D6FB2C2303FB06440222636B01991C
:108970002846984700240BF05FF9204602B070BDEE
:108980000026E4E70524F6E70524F6E7083400208E
:1089900038B5084D2C680CB9012038BD04F11C0015
:1089A000FFF724F8296828460CF05FF820460EF0FF
:1089B0001AFCEFE78034002001F0B8BE08B5034888
:1089C0000BF06AF9024B186008BD00BF91890200E4
:1089D0007C34002038B50546808944300EF001FC17
:1089E000044600282FD0052303712B6883606B6831
:1089F000C36100F144030362AA898284012280F8E2
:108A00002820EA89428505F1100100F1300203C9EE
:108A100082E803002A7E84F838206A8B6287221D50
:108A2000E263AA8BA4F84020AA89A968184611F02D
:108A300034FE214605480BF0F7FF054B18680BF094
:108A400049F9002038BD042038BD00BF8034002023
:108A50007C3400204A09012301F01F0103FA01F1CF
:108A600050F82230194214BF0120002070474A09F3
:108A7000012301F01F0103FA01F150F822300B43EA
:108A800040F8223070474A09012301F01F0103FA20
:108A900001F150F8223023EA010340F822307047F8
:108AA000F0B501F11F046409651E00230126A342ED
:108AB00001D10120F0BDAB4204BFA1EB431206FA85
:108AC00002F250F823700CBF02F1FF324FF0FF3278
:108AD0003A4201D10133EAE70020F0BDA0F11001D4
:108AE00089B2072902D80248FFF7B4BF00207047B7
:108AF000943400202DE9F0474FF6FF73DFF84480EF
:108B0000DFF844900B8007460D4600241E464FF0C8
:108B1000A80A21464046FFF79DFF40B10AFB04F337
:108B200033F80930BB4206D12C80BDE8F0872B8892
:108B3000B34208BF2C800134042CEAD10020BDE8E8
:108B4000F08700BF9C360020A436002038B54FF6D1
:108B5000FF7305460C460B8006480021FFF77AFF9D
:108B600018B1054B1B88AB4202D10823238038BDC6
:108B7000002038BD343600203C3600202DE9F04777
:108B80004FF6FF73DFF84480DFF844900B80074610
:108B90000D4600241E464FF02A0A21464046FFF7A4
:108BA00059FF40B10AFB04F333F80930BB4206D148
:108BB0002C80BDE8F0872B88B34208BF2C8001349D
:108BC000082CEAD10020BDE8F08700BFDC3400208B
:108BD000E4340020024B33F820300B80704700BF94
:108BE0009C3400202DE9F041A3F1080516240E4E17
:108BF0006C430746A01D884630441146102211F0F0
:108C00004CFD331900225A7101222946A3F8028033
:108C100006481A713753FFF72AFF29460448BDE872
:108C2000F041FFF724BF00BF3C360020343600205F
:108C30003836002010B40C4600F108030A1D2088C5
:108C400049885DF8044B9BB2FFF7CCBF70B5162482
:108C50004443074E0D46A11D10223144281D11F03A
:108C60001CFD325B2A8033195B886B8070BD00BFAE
:108C70003C360020044A0B46142101FB002104313C
:108C80001022184611F009BD443900200422014881
:108C900011F003BD8A36002008460422014911F074
:108CA000FCBC00BF8A3600202DE9F0414488012C2D
:108CB00005463ED004F47043B3F5005F43D009D8B5
:108CC000002B39D0B3F5805F3BD0784607F020FA0F
:108CD00000240BE0B3F5804F07D0B3F5A04F2ED0A2
:108CE000B3F5405FF1D1032400E00424174F6E88F0
:108CF0001C2202FB0472052C9289A6EB02062A882C
:108D000002F1804202F1FF324FEA820205F10408CB
:108D100095B202D9784607F0FBF91C2303FB0474D3
:108D200041463046A3692A46984731466068FFF7B6
:108D30009EFE0120BDE8F081023CE4B2D6E70524A6
:108D4000D4E70124D2E70224D0E700BF2CAB030014
:108D500010B5044610B9784607F0DAF92346BDE8A5
:108D60001040184710B5044610B9784607F0D0F9FE
:108D70000B4B002293F8421090B231B19C420DD0BF
:108D800003F121018C4202D110BD9C4206D0013278
:108D9000042A03F1A803EDD14FF6FF7010BD00BF08
:108DA000C63600202DE9F8432A255D43164C91462E
:108DB0008046A81D10220F46204449461E4611F049
:108DC0006CFC05F1190000211022204411F070FC08
:108DD000691D214448460BF0AFFD10B1784607F0FD
:108DE00097F92A237343E218002111719175578076
:108DF0003146064824F80380FFF739FE314604481F
:108E0000BDE8F843FFF733BEE4340020DC34002033
:108E1000E0340020F8B50D4606462A2474430021AC
:108E2000104E17462846242211F042FCA11D1022A4
:108E30003144281D11F031FC325B2A8033195A88E5
:108E40006A809B7D4BB104F11901314405F1140096
:108E50001022BDE8F84011F020BC3B88043B3B8069
:108E6000F8BD00BFE43400202DE9F0418046A8247D
:108E70000D46144E04FB08F4002117462846242210
:108E800011F016FC06EB0408335B2B8098F8643075
:108E9000AB70A11C10223144E81C11F0FEFB98F8C5
:108EA00064304BB104F11201314405F1130010227A
:108EB000BDE8F04111F0F1BB3B88043B3B80BDE8CD
:108EC000F08100BFA436002001F11F025209920078
:108ED000002111F0EDBB00002DE9F041204CA82548
:108EE0005543164605F16803621923440F4653673C
:108EF000804610B91B4B01221A7005F12201214452
:108F000038460BF022FD10B1784607F001F905F163
:108F10007801214438460BF029FD10B1784607F05E
:108F2000F7F8A81C39461022204411F0B6FB05F1D1
:108F3000120010220021204411F0BAFBA823734331
:108F4000E21824F8038000233146074882F8643091
:108F5000FFF78DFD31460548BDE8F041FFF787BDBD
:108F6000A4360020883600209C360020A036002041
:108F7000F8B5A1F1100514246C430D4F0646201DD1
:108F800031461022384411F088FB391930460BF075
:108F900015FD10B1784607F0BBF829460548FFF7E4
:108FA00066FD29460448BDE8F840FFF760BD00BFF4
:108FB0004439002094340020983400200B4600F1FE
:108FC000100189B21846FFF7D3BF000008B5064B61
:108FD000064800221A700CF0DFF820B10448BDE802
:108FE00008400CF019BB08BD523600205436002052
:108FF000E82D00202DE9F843044688460AF0DCFD00
:10900000052C02D9784607F083F8154BDFF85C9001
:109010001F78C7B11C2505FB04951248A9892A6948
:10902000414489B20CF077F9064660B10246011D51
:109030006B694046984730460CF09CF90AF0FCFDFD
:109040003846BDE8F8831C2303FB04944146A0681E
:10905000FFF70DFD04480CF0DFFA0027EEE700BF34
:109060005236002054360020783600202CAB030006
:10907000F8B505460E460AF09FFD052D02D9784643
:1090800007F046F80F4B104F1C7874B91C2303FBF4
:1090900005753146A868FFF7EAFC0C480CF0BCFAED
:1090A00000240AF0C9FD2046F8BD1C2303FB05730C
:1090B00007489989314489B20CF072F90028F0D040
:1090C000E4E700BF523600202CAB030078360020C6
:1090D000543600202DE9F843184D0026AF68D5F826
:1090E0000080384641465FFA86F9FFF7D9FC10B98F
:1090F0000446444503D1052E1AD1BDE8F883214624
:109100003846FFF7A7FC68B121466868FFF7A2FC64
:10911000214648B14846FFF76DFF60B12146384609
:10912000FFF7B1FC0134E4E74846FFF7A1FFF4E79D
:1091300001361C35D2E7BDE8F88300BF2CAB030035
:109140002DE9F0474FF6FF73DFF84C80DFF84C90C5
:109150000B8007460D4600244FF0140A2146404676
:10916000FFF778FC064650B92A884FF6FF739A42FB
:1091700000D12C800134082CF0D1002609E00AFB34
:10918000049010223946043011F078FA0028F1D109
:109190002C803046BDE8F08794340020443900200C
:1091A0002DE9F3414FF6FF770E461446ADF80670F1
:1091B000804640B339B30DF10601FFF7C1FFBDF89A
:1091C000063003F11005ADB250B9BB421DD029469F
:1091D0004046FFF7CDFEBDF806100220FFF70AFF5C
:1091E000BDF806300A4A3580142101FB032334B947
:1091F000DA780132DA70002002B0BDE8F0819A78A6
:1092000001329A70F7E70E20F6E70420F4E700BF7A
:109210004439002008B528B9784606F079FF4FF6A2
:10922000FF7008BD064B9842F9D303F5FC729042DB
:10923000F5D8C01AA823B0FBF3F080B208BD00BF78
:109240001437002008B528B9784606F061FF4FF6BC
:10925000FF7008BD0A4B984209D303F59372904200
:1092600005D8C01A2A23B0FBF3F080B208BD054A26
:109270004FF6FF73904214BF1846082008BD00BF88
:10928000E834002040360020F8B50C46154683B27D
:109290000A1D064649882088FFF784FD242D1DD12C
:1092A000124F2A2575437B190122143405F1190048
:1092B0009A7521461022384411F0EFF905F1180192
:1092C000394420460BF038FB10B1784606F020FFF9
:1092D0002A2303FB06763379F375F8BD142D04D0E9
:1092E0007846BDE8F84006F013BFF8BDE43400202E
:1092F0002DE9F0410D46174E07469046033182B2E4
:10930000A8242888FFF7E8FDAB7804FB076282F801
:109310006430D3B1B8F1240F02D0784606F0F8FEDD
:109320007C43133504F1120029461022304411F019
:10933000B4F904F14301314428460BF006FB38B17F
:109340007846BDE8F04106F0E3BEB8F1140FF7D15E
:10935000BDE8F081A436002010B501298CB0044688
:1093600004D1784606F0D4FE0CB010BD0229F8D026
:109370000329F9D12C22002101A811F099F9102319
:109380008DF8043002238DF80830054B0394DA6819
:109390001B69059201A8069308F08CF8E4E700BF6A
:1093A0005436002011460020FFF7D6BF084611466C
:1093B000FFF7D2BF2DE9F74F80460F46914609F0DF
:1093C00041FB0228064650D14FF6FF744D4B4E4AE2
:1093D0000025A2464FF0140B54450ED110462946E5
:1093E00001930092FFF736FB9DE80C0028B9ACB260
:1093F0000135082DF0D1002306E00BFB05F1C95A19
:109400004145F5D1ACB20123B9F1000F52D0B9F109
:10941000010F03D106F0FD06012E4BD1002B4ED1DA
:109420004FF6FF7294426AD0384A394822F82480B5
:1094300002EB84022146D3709370FFF718FB21469C
:109440003448FFF714FB21460120FFF7D3FD3C8091
:10945000B9F1000F34D12D4B03EB8404E3780133D1
:10946000E370002003B0BDE8F08F00F0FD03012B96
:109470004FF6FF74BFD1DFF894B0254B0025A2460C
:1094800054450CD1184629460093FFF7E3FA009B98
:1094900028B9ACB20135102DF2D1002305E03BF81C
:1094A00025204245F6D1ACB20123B9F1000FB5D168
:1094B000032E01D01020D5E7EBB13C80CBE73C80F8
:1094C000124B03EB8404A3780133A370C9E70F4A5E
:1094D0000F4822F8248002EB84022146D370937057
:1094E000FFF7C5FA21460B48FFF7C1FA21460120D4
:1094F000FFF780FDE1E74FF6FF729442E7D10420C9
:10950000B0E700BF44390020943400209C34002090
:10951000843400208834002041090B4A00F01F00E9
:109520004FF0FF33834052F82100034009D05A42E4
:109530001A40064B5343DB0E054AD05C00EB41104A
:1095400070470420704700BF9C36002031B57C076F
:10955000D4AB03000F2810B5044608D801460648CE
:10956000FFF778FA18B1012000F0010010BD204685
:10957000FFF7B4FAF8E700BF843400200F28014653
:1095800002D80248FFF766BA0020704784340020F2
:10959000F8B50446FFF7F2FF064690B1164E06EB0B
:1095A0008403987858B9DD7815BB21461348FFF736
:1095B0006AFA26F8245021460120FFF759FD0020C1
:1095C000F8BD2046FFF78AFA98B1103C0C4F1425DD
:1095D00065437B19987850B9DE784EB92146094821
:1095E000FFF751FA7E5321460220FFF741FD304636
:1095F000F8BD0520F8BD00BF9C3400208434002055
:10960000443900209434002010B50A4B0A8884B2F3
:10961000214623F8242003EB840300220648DA7055
:109620009A70FFF724FA21460448BDE81040FFF77E
:109630001EBA00BF9C3400208434002088340020EF
:109640001FB51A4B1B781BB9002005B05DF804FB51
:1096500004AB0A2243F8102D012101AA14480BF093
:1096600023FE03460028EFD1BDF80A20102A0FD1AF
:10967000BDF80C20082A0BD1BDF80620082A07D116
:10968000BDF80820012A03D1BDF80420042A02D025
:10969000FFF79CFCD8E70146064A05480BF08EFD13
:1096A000054B186800F00100CFE700BF52360020DC
:1096B00054360020A98C02008C34002008B508F034
:1096C00073FDA0F5805008BD70B586B01B4B0393A9
:1096D0001B4B04931B4B059300230293FFF7EEFFF4
:1096E000194E0090012401940AF066FA694630464A
:1096F0000BF07DFE40B100240AF09EFAD4B1134B6A
:1097000001221A7006B070BD3578012DF4D10A22FD
:10971000294630460BF0FFFD0028ECD01022428194
:109720000421082282818180C28005810BF022FE03
:109730002C46E1E706480BF06FFFE3E7AD9302002C
:10974000A59302005597020054360020523600209F
:10975000F82D0020FFF7B8BFF8B5214F0024E659D7
:109760003D1931466868FFF7AFFB1C343146A868E5
:10977000FFF7AAFBA82CF2D100231A481946C218F9
:109780000433402BD1709170F9D1002316491C4647
:10979000CA181433A02BD4709470F9D10121134846
:1097A000FFF792FB01211248FFF78EFB01211148C0
:1097B000FFF78AFB01211048FFF786FB01210F48C4
:1097C000FFF782FB01210E48FFF77EFB0D4B1C804B
:1097D0005C800D4B1C70BDE8F840FFF7F7BB00BF85
:1097E0002CAB03009C340020443900208C34002032
:1097F00084340020943400209C360020DC34002087
:10980000343600208A36002088360020084808B503
:10981000084B036009F0BEFA074B084A9A60084AF1
:10982000DA60084B00221A70BDE80840FFF74CBF11
:1098300090360020F59E020078360020518D0200FF
:10984000D59002005236002070B5054610B9784612
:1098500006F05EFC174E346814F0010427D1288806
:109860006B880344984201DB0B2070BD09F0EAF8D5
:109870000128F9D128886B881844013880B209F092
:10988000E1F80128F0D1042229460B4810F005FF29
:10989000336843F00103336021462046FFF7AAFBFB
:1098A000064A136843F001031360204670BD0F2081
:1098B00070BD00BF8C3400208A3600209034002018
:1098C00010B5044610B9784606F022FC2046042262
:1098D0000249BDE8104010F0E0BE00BF8A3600200B
:1098E00011B10122FFF766BD0E20704710B5044686
:1098F000FFF730FE78B10F2C89BF084B084B103CA6
:1099000014228CBF02FB043403EB84040020A378F0
:109910000133A37010BD052010BD00BF44390020E5
:109920009C3400200122FFF73BBC000010B5044628
:10993000FFF724FE50B10C4B03EB84039A78013AF5
:109940009A702046BDE81040FFF722BE2046FFF780
:10995000C5F830B1054AA4F11003142101FB03231B
:10996000ECE7052010BD00BF9C34002044390020E6
:1099700011B10022FFF71EBD0E2070470022FFF735
:109980000FBC000010B50446FFF7E4FD78B10F2CC2
:1099900089BF084B084B103C14228CBF02FB0434D7
:1099A00003EB84040020E3780133E37010BD05204D
:1099B00010BD00BF443900209C34002070B506461D
:1099C0000D4601B3FFF7DAFD044658B1104B33F8EA
:1099D00026206A8033F8260009F034F82870002029
:1099E000686070BD3046FFF779F870B1103E142002
:1099F000084B70431A5A6A80043018440223686086
:109A00002B70204670BD0E2070BD052070BD00BFBC
:109A10009C3400204439002013B50446FFF79AFD1A
:109A200008B369462046FFF7C9FFC0B99DF800306A
:109A3000032B0BD10D4B03EB8403DA789AB1013A77
:109A4000DA702046FFF7A4FD02B010BD022B08D14A
:109A5000074AA4F11003142101FB0323EDE70020C2
:109A6000F2E70F20F0E70520EEE700BF9C3400206E
:109A7000443900202DE9F7430D46044600283CD028
:109A800000293AD0408808F0DDFF022824D00328BE
:109A900001D0012833D14FF6FF73DFF86880DFF87B
:109AA000689067882B8000241E4621464046FEF7BA
:109AB000D1FF40B139F82430BB4208D12C800020BE
:109AC00003B0BDE8F0832B88B34208BF2C8001347B
:109AD000102CEAD10520F3E760684FF6FF73ADF86C
:109AE000063050B10DF10601FFF72AFB0028F1D036
:109AF000BDF8063010332B80E1E70E20E0E71020A0
:109B0000DEE700BF843400209C34002007B50DF14F
:109B10000601FEF7EFFF20B1BDF8060003B05DF8C7
:109B200004FB4FF6FF70F9E708B1FFF71BB94FF6DA
:109B3000FF70704707B50DF10601FFF71FF820B160
:109B4000BDF8060003B05DF804FB4FF6FF70F9E7BF
:109B500008B1FFF777BB4FF6FF70704738B5044682
:109B60000D4669B107280DD801460748FEF772FF78
:109B700040B12A206043054B1B5A2B80002038BD82
:109B80000E2038BD052038BDDC340020E434002030
:109B9000082870B504460E463DD8002939D008285B
:109BA00021D001461D48FEF755FF002833D01C4D3B
:109BB0002A2303FB04535B88032B02D9784606F063
:109BC000A7FA2A2303FB045316485988FEF742FFDD
:109BD00010B9784606F09CFA2A2303FB04546388E4
:109BE0003380002070BD00210F48FEF733FF90B195
:109BF0000E4C6388032B02D9784606F089FA6188F7
:109C00000848FEF727FF0028E9D1784606F080FAD9
:109C1000E5E70E2070BD052070BD00BFDC340020DC
:109C2000E43400209C360020343600203C360020EE
:109C3000F8B5064615460F4671B36AB3B0F5805FB6
:109C40002CD21146FEF756FF2A88044668B1154803
:109C5000A82303FB020039461022023010F00EFD4B
:109C600000280CBF03200F20F8BD4FF6FF739A4267
:109C700016D039463046FFF72FF929880320FFF721
:109C8000B9F92988074BA82202FB013130468831F7
:109C900009F087F82046F8BD0E20F8BD0720F8BD72
:109CA0000420F8BDA4360020032838B504460D462C
:109CB0000DD801460748FEF7CDFE40B1064BA8225D
:109CC00002FB0434002094F864302B7038BD05206A
:109CD00038BD00BF9C360020A43600202DE9F0419D
:109CE00005468846002950D0032851D801462A4805
:109CF000FEF7B0FE00284BD0284BA8246C431A195D
:109D00001E4692F864206AB1012A08D104F11200BB
:109D100010224146184410F0B1FC002839D0082028
:109D2000BDE8F08104F112071F4441461022384675
:109D300010F0B3FC04F14301314440460AF005FE43
:109D400010B1784606F0E4F904F190013144384648
:109D50000AF00CFE10B1784606F0DAF9A8236B433E
:109D6000F118012281F8642004F1A001F05A314475
:109D700008F0C4FB29460A48FEF779FE294603206D
:109D8000FFF738F90020BDE8F0810E20BDE8F08132
:109D90000520BDE8F08100BF9C360020A4360020DD
:109DA000A0360020032810B504461FD801461148EC
:109DB000FEF750FED0B11048A8236343C11891F8B4
:109DC0006420012A14D1022281F8642003F1A00149
:109DD0000144C05A08F092FB21460848FEF747FEAE
:109DE00021460320FFF706F9002010BD052010BD15
:109DF000082010BD9C360020A4360020A03600208C
:109E000003282DE9F041074662D801463348FEF7A2
:109E100021FE00285CD0324EA8247C4306EB0408C7
:109E200098F86430002B56D004F11201A01C314484
:109E30001022304410F031FC04F1430104F12200FF
:109E400031442122304410F028FC04F1900104F147
:109E5000780031441822304410F01FFC002504F132
:109E6000880188F86450305BDFF884802A463144EA
:109E700008F044FB2C461B4E1B4D21462846FEF79E
:109E8000E9FDA8B136F8023CBB4211D1B37C7BB1ED
:109E9000122206F11301304610F0FFFB0023214689
:109EA0004046B374FEF7E3FD21460420FFF7A2F815
:109EB0000134082C06F12A06DFD139460B48FEF79B
:109EC000D6FD39460320FFF795F80020BDE8F08164
:109ED0000520BDE8F0810820BDE8F0819C36002017
:109EE000A4360020E8340020DC340020A036002016
:109EF000E034002070B50378042B1ED144688668D6
:109F0000457E2046FFF786F94FF6FF72904214D047
:109F10002034A64211D1094AA82101FB002393F85D
:109F200064302DB1012B08D1BDE87040FFF73ABF76
:109F30001BB1BDE87040FFF763BF70BDA4360020C1
:109F40002DE9F0470D46064600B3F9B10024DFF8CD
:109F50004880DFF848900F680C604FF0A80A21464F
:109F60004046FEF777FD58B12B689F4211D00AFB9F
:109F700004F232F8092026F813202B6801332B60F5
:109F80000134042CEBD10020BDE8F0870E20BDE8A1
:109F9000F0870920BDE8F0879C360020A436002019
:109FA0002DE9F34107460D461E46904652B34BB38A
:109FB00008F048FD012827D1032D27D82946164847
:109FC000FEF748FD10B30DF106013846FEF7BEFD61
:109FD0000446E8B9BDF806304FF6FF72934219D037
:109FE000424629463846FEF7FDFDBDF8061005201D
:109FF0000839FEF7FFFFBDF806303380204602B077
:10A00000BDE8F0810E20FAE71020F8E70520F6E71A
:10A010000F20F4E70420F2E79C3600202DE9F04100
:10A02000064688461D4617467AB373B303292FD8D0
:10A030001C48FEF70FFD58B3B6F5805F2BD22946BA
:10A040003046FEF79BFD2B88044670B116482A2245
:10A0500002FB030039461022063010F00FFB0028E7
:10A060000CBF03200F20BDE8F0814FF6FF72934232
:10A0700014D03A4641463046FEF794FE2988042023
:10A08000FEF7B8FF2046BDE8F0810E20BDE8F08164
:10A090000520BDE8F0810720BDE8F0810420BDE87F
:10A0A000F08100BF9C360020E4340020F8B505465E
:10A0B0000E46002940D0072840D801462048FEF728
:10A0C000C9FC00283AD01F481F492A246C430319B1
:10A0D000A8275A8807FB0212074692F86420012A33
:10A0E00009D1997D04F1190E39B11022314670441D
:10A0F00010F0C4FA18B30820F8BD9A753146102242
:10A10000704410F0CAFA04F11801394430460AF0DC
:10A1100013FC10B1784605F0FBFF2A2303FB0573FF
:10A1200029461A79DA750948FEF7A1FC2946042068
:10A13000FEF760FF0020F8BD0E20F8BD0520F8BD39
:10A14000DC340020E4340020A4360020E034002079
:10A15000072810B504460ED801460848FEF77AFCD9
:10A1600048B121460548FEF78EFC21460420FEF743
:10A170007FFF002010BD052010BD00BFDC34002093
:10A1800003282DE9F041044640D801462248FEF755
:10A1900061FC00283AD00020FFF7BEF90025042812
:10A1A0002CD1012D35D01D4E1D4F00254FF02A0812
:10A1B00029463046FEF74EFC58B108FB05735B8814
:10A1C000A34206D1A8B2FFF7C3FF10B1784605F04D
:10A1D0009FFF0135082DEBD1A8236343114AD35AC1
:10A1E0000BB9114A137021460B48FEF74CFC21466F
:10A1F0000320FEF73DFF0020BDE8F0810130032879
:10A2000005F10105CDD8FFF787F9C8E70520BDE8BE
:10A21000F0810F20BDE8F0819C360020DC34002066
:10A22000E4340020A4360020883600202DE9F84FC1
:10A23000064615460F4669B362B303282DD801467A
:10A240001948FEF707FC40B30024DFF860A0DFF8F0
:10A250006080D5F800902C604FF02A0B21465046C4
:10A26000FEF7F8FB80B10BFB04F208EB02035B88FE
:10A27000B34209D12B68994512D032F8082027F84B
:10A2800013202B6801332B600134082CE6D1002009
:10A29000BDE8F88F0E20BDE8F88F0520BDE8F88FE7
:10A2A0000920BDE8F88F00BF9C360020DC34002078
:10A2B000E434002070B504460D461646002A44D00A
:10A2C000082944D847D125480021FEF7C3FB0028C0
:10A2D0003DD04FF6FF739C4207D1082D17BF204A8F
:10A2E000204B2A2303FB05235C88032C31D821460D
:10A2F0001D48FEF7AFFB60B3082D1C4921D0A823F1
:10A3000003FB0413164893F86430022B08D12A2368
:10A310006B43C218927D1AB117330344736004E093
:10A320002A2202FB050504357560A82060430B183E
:10A3300093F86430022B06D143300844306000208B
:10A3400070BD0B4BEAE72230F7E70E2070BD052009
:10A3500070BD082070BD0748B7E700BF3436002045
:10A36000E43400203C3600209C360020A436002037
:10A3700040360020DC34002038B50D46FFF7C6FB20
:10A38000044675B103280ED801460848FEF762FB63
:10A3900048B1074BA82202FB043422342C60002071
:10A3A00038BD0E2038BD052038BD00BF9C360020CA
:10A3B000A43600202DE9F843064690460F4611B911
:10A3C000784605F0A5FEB8F1000F02D1784605F0F9
:10A3D0009FFE386806F07F0678B9002400233B60B2
:10A3E000C8F800301D4BDFF87890A82505FB043530
:10A3F000A3B2032B0AD9BDE8F883FEF7B3FC4FF6EE
:10A40000FF739842E9D0441CA4B2E7E721464846CE
:10A41000FEF720FBF8B195F8641095F8222005F1BD
:10A420002203A1B1B24205F1430195F8430006D1E0
:10A43000B04204D13B60C8F80010BDE8F883B042D8
:10A4400005D139600023C8F80030BDE8F883B24276
:10A4500001D13B60F6E7A8350134C9E7A4360020F6
:10A460009C3600202DE9F04704468846164612B96E
:10A47000784605F04DFE14B9784605F049FE2046B1
:10A48000FFF752FB4FF6FF739842074603D10023B4
:10A490003360BDE8F0873068F8B1FEF7D3FE441CA6
:10A4A0001048DFF844A02A2505FB04058146072C47
:10A4B000EDD821465046FEF7CDFA80B16B88BB42FD
:10A4C0000DD16B7988EA03039B0608D12A2000FB93
:10A4D000049404343460BDE8F0870446E0E70134B6
:10A4E0002A35E4E7E4340020DC34002038B50446A3
:10A4F0000D4611B9784605F00BFE34B1044B33F824
:10A50000042BA2420CBF1C4600242C6038BD00BFA7
:10A510003C3600202DE9F047064690460F4611B91B
:10A52000784605F0F5FDB8F1000F02D1784605F048
:10A53000EFFD386888B1FEF76DFE00F1010A274D86
:10A54000DFF8A090A82404FB0A548834BAF1030F62
:10A5500005D900233B60BDE8F0878246EFE751460E
:10A560004846FEF777FAA8B314F8243C4BB94EB12D
:10A5700008222146304610F081F8B0FA80F04009F8
:10A5800001E0E6B9012028B3154B1B7833B1A823AD
:10A5900003FB0AF3E85AB0FA80F04009A82303FB52
:10A5A0000AFA05EB0A030AF1700A554483F87000B1
:10A5B0003D6093F8643088F80030BDE8F0870822E9
:10A5C0002146304610F05AF80028DBD0082204F16A
:10A5D0001801CFE70AF1010AA834B7E7A436002032
:10A5E000883600209C3600202DE9F74306460D46AC
:10A5F00008F028FA022857D003284FF0000313D0A0
:10A60000012803D1434A1268D20701D4002029E06F
:10A61000414A11888E42F9D352880A449642F5DAAB
:10A620006E8028706B601DE06B60A6F57F43FC3B7D
:10A630006E802870032B18D801A252F823F000BFB7
:10A640000DA602000DA6020051A60200A5A602005A
:10A6500001A901200CF06EFD10B1784605F058FDFF
:10A660009DF8040003B0BDE8F0834FF6FF752B4F53
:10A67000DFF8B0900024A846454509D12146484658
:10A68000FEF7E8F920B9A5B20134102CF4D1BDE7EA
:10A6900037F82420B2424FEA8403F5D13B44DB78FB
:10A6A000002BF1D00120DDE76868E8B94FF6FF73B1
:10A6B000ADF80430BDF80440DFF86C80184F072C6B
:10A6C0004FF6FF7394BF01340024ADF804304FF00F
:10A6D0001409082C9AD021464046FEF7BBF948B928
:10A6E000ADF804400134F4E701A9FEF729FD002884
:10A6F000DCD0DFE709FB04F3DA5BB242F2D1FA18EF
:10A70000D278002A82D0043302221F446E802A703D
:10A710006F60A7E78C3400208A3600209C3400202C
:10A7200044390020843400209434002007B5037895
:10A73000022B0AD0032B01D0012B17D16946408888
:10A74000FFF752FF03B05DF804FB69464068FEF76F
:10A75000F7FC0028F6D0BDF80030054A142101FBB3
:10A760000323D878003018BF0120EBE70020E9E789
:10A770004439002038B50C46054600B111B9784679
:10A7800005F0C6FC024B1A882A805B88238038BDFE
:10A790008A3600202DE9F04F0C4689B0064600B1FC
:10A7A00011B9784605F0B4FC2388152B02D87846F9
:10A7B00005F0AEFC4FF6FF73ADF8143028230025EA
:10A7C000ADF81A3005A901230A223046ADF81C3035
:10A7D000ADF80650ADF81650ADF818500FF05DFF0B
:10A7E0000A2323800DF10E012846FDF7ABFD10B1C1
:10A7F000784605F08DFC0DF10F010020FDF7AEFD50
:10A8000010B1784605F084FC9DF80E309DF80F20BD
:10A81000D3422ED003A90020FDF788FD002878D16F
:10A8200008AA02230DF1080822F81A3D414600202B
:10A83000FDF7E0FD002868D12088042203A93044F8
:10A840000FF02BFF25889DF80E300435ADB2258022
:10A8500093BB9DF80F3063B12388BDF806900027A5
:10A860001E443D464FF6FF7A4F4505D323881D44CD
:10A87000258009B0BDE8F08F04A938F81700FDF76E
:10A8800079FDA8B9BDF81030534501D10137EBE788
:10A89000022204A970190FF000FFA81C02220DF17A
:10A8A000120116FA80F004350FF0F7FEADB2EDE7B5
:10A8B000784605F02DFCE5E70027BDF806A0B9466F
:10A8C0004FF6FF7B574503D323884B442380C0E7D3
:10A8D00004A938F81700FDF74DFD90B9BDF8103008
:10A8E0005B4501D00137EDE709EB050002220DF1D0
:10A8F000120130440FF0D1FE09F102031FFA83F96F
:10A90000F0E7784605F004FCE8E7784605F000FC3F
:10A9100092E7784605F0FCFB82E70000024B1B68DB
:10A9200003B11847704700BFE439002013B504464F
:10A9300001A8FEF7C5FFBDF80430A34206D814BF36
:10A940004FF0FF30002080B202B010BD4FF6FF7014
:10A95000FAE737B504460BF049FC0546002301A889
:10A960000093FEF7ADFF6946288AFFF705FD30B971
:10A97000009B6360BDF80430238003B030BD052028
:10A98000FBE71FB50193BDF81830ADF80830002380
:10A99000ADF800208DF80A304FF6FF720223ADF8B3
:10A9A00002208DF80B306A46079B0393FDF728FAC7
:10A9B00005B05DF804FB7FB505460E46002003A9EF
:10A9C0008DF808000CF0B6FB10B1784605F0A0FB3E
:10A9D0009DF80D309DF80820013B0A2104AC63F37B
:10A9E0000202BDF80E30B3FBF1F3013B63F3C70283
:10A9F00004F8082D08F0D6F901230190009348F2DD
:10AA00002502234631462846FFF7BBFF04B070BD40
:10AA10007FB50B89012B06460D4631D14C688DF868
:10AA200004302378C3F3020301338DF80530237813
:10AA3000DA080A2302FB0333142BB8BF142301A93D
:10AA40000020ADF806300CF063FB10B1784605F03D
:10AA50005FFB30462946FFF7AEFF002303930293C6
:10AA600011238DF808302378C3F302038DF80C30DE
:10AA7000237802A8C3F3C4038DF80D30FFF74EFF0F
:10AA800004B070BD0B890BB9FFF795BF704700008C
:10AA900037B504460D4608F085F9084B1860084B99
:10AAA00001221A7000230190009348F24A022946BD
:10AAB0002046FFF766FF03B030BD00BFEC39002031
:10AAC000E839002030B585B004460D468DF80C20DD
:10AAD000ADF80D3008F066F903230190009348F2B9
:10AAE000440203AB29462046FFF74BFF05B030BDBB
:10AAF00030B585B004460D46002303A90120ADF80A
:10AB000008300CF017FB10B1784605F001FB9DF8FA
:10AB10000C308DF808309DF80D309DF80920013B70
:10AB200063F30202BDF80E308DF80920142B15D105
:10AB3000D2B212F0070111D161F3C7028DF80920DA
:10AB400008F030F902230190009348F2280202AB8A
:10AB500029462046FFF715FF05B030BD0A22B3FB9A
:10AB6000F2F39DF80920013B63F3C702E6E77FB5E6
:10AB70000B89022B05460E463ED14C682378012BEB
:10AB80003AD803F001038DF804306378C3F302036D
:10AB900001338DF80530637883BB1423ADF806309C
:10ABA000BDF80630142B38BF142301A90120ADF8DD
:10ABB00006300CF0ADFA10B1784605F0A9FA284637
:10ABC0003146FFF795FF00230393029312238DF87C
:10ABD000083023785A1E534253418DF80C30637865
:10ABE000C3F302038DF80D30637802A8C3F3C403E6
:10ABF0008DF80E30FFF792FE04B070BDDB08013314
:10AC000003EB83035B00C9E70B890BB9FFF770BF48
:10AC1000704770B586B00D46ADF80F309DF82C30FA
:10AC2000ADF80D2000218B4204460A988DF80C10D7
:10AC300014BF07260926CDF8110008F0B3F80096D6
:10AC4000019003AB48F21F0229462046FFF799FE08
:10AC500006B070BD30B587B00446039306AB8DF8DF
:10AC6000142033F80C2DADF815209B788DF8173093
:10AC70000D4608F097F804230190009348F2030270
:10AC800005AB29462046FFF77CFE07B030BD2DE915
:10AC9000F0430B89022B87B081460C464DD14B689F
:10ACA0001F88C7F30B00FEF731FFA38C8342804659
:10ACB0001BD13B460C2221464846FFF703FF3CE0F0
:10ACC00036F81500FEF736FF26F815000135019B12
:10ACD0009D42F5D318E036F81500FDF7FDFB10B1E5
:10ACE000784605F015FA013513E04FF6FF739842E8
:10ACF00002AE11D006AA082342F8143D3146FFF7F0
:10AD000095FA05460028E2D04046FFF739FA054695
:10AD1000B0B9019B9D42DED33B4648460022214606
:10AD2000FFF7D0FE002302937360304619238DF89D
:10AD30000830ADF80C80FFF7F1FD07B0BDE8F083F7
:10AD40000F28B6D03B460422B5E70000F0B50B89CA
:10AD5000122B85B007460D4625D14E680A88344629
:10AD600048F2400334F8020B9A42C0F30B001CD1A6
:10AD700021460DF10602FEF75BFF182304460F2C57
:10AD80008DF80830BDF80630ADF80C3096BF0C4B8E
:10AD900010221A5D338829463846FFF793FE14B90E
:10ADA00002A8FFF7BBFD05B0F0BDFEF7AFFE2146E0
:10ADB000ADF80600FEF792FF1A230446DFE700BF56
:10ADC000F4AB03002DE9F0431F460B8847F6E57806
:10ADD00043449BB2102B87B005460C46164656D806
:10ADE0004FF0010909FA03F313F0EF011BD113F43B
:10ADF000803060D15B044AD50146052203A80FF0DC
:10AE000057FC63688DF80C701A88ADF80D205B88CC
:10AE1000ADF80F3007F0C6FF05230093019003AB98
:10AE200048F22A022FE00922002103A80FF040FC7B
:10AE300023888DF80C7043449BB2072B0AD809FA7B
:10AE400003F313F00B0F09D113F004022DD113F00B
:10AE5000E00F1FD1784605F05BF909E063681A88B6
:10AE6000ADF80D205A88ADF80F205B68CDF8113091
:10AE7000002E14BF0726092607F094FF00960190C4
:10AE800003AB48F21F0221462846FFF77AFD07B0C0
:10AE9000BDE8F083636833F8121BADF80D108DF830
:10AEA0000F208DF810201B68E0E7636833F8022B51
:10AEB000ADF80D20F7E7072203A80FF0F9FB636850
:10AEC0008DF80C701A88ADF80D209A88ADF8112015
:10AED0005B88ADF80F3007F065FF07230093019002
:10AEE00003AB48F22C02CEE773B502AA022322F884
:10AEF000063D01A90646FDF7AFF8062825D010B19A
:10AF0000784605F005F90025BDF80220ABB29A425B
:10AF100002D8002002B070BDACB2640002AB234482
:10AF2000304633F8041CFDF767F810B1784605F099
:10AF3000EFF802AB1C4434F8040CFEF76DFD10B1C1
:10AF4000784605F0E5F80135DEE70820E2E72DE96F
:10AF5000F0438DB01C46154606460F4609220021D7
:10AF60000DF125000FF0A4FB00230DF10B0120468D
:10AF70008DF82030ADF82150FDF790F910B17846EA
:10AF800005F0C6F89DF826309DF80B2062F30413F7
:10AF90006FF3471305A920468DF82630FDF7EAF92F
:10AFA00010B1784605F0B4F8BDF814504FF6FF73B1
:10AFB0009D420DF10E01BDF8163008BFADF82A30E4
:10AFC00020461CBFADF82C30ADF82A50FCF740FFEE
:10AFD00010B1784605F09CF8BDF80E004FF6FF73EF
:10AFE000984218D100238DF823308DF824304FF685
:10AFF000FF739D420CBF0C250E2507F0D3FE009574
:10B00000019008AB48F2190239463046FFF7B9FC07
:10B010000DB0BDE8F08306A9FEF7D0FC10B178466C
:10B0200005F076F8BDF81A30ADF8233004A92046B3
:10B03000FDF7F2F805288046D4D0002846D10DF15E
:10B040001201BDF81000FEF789FD0528814604D1E4
:10B050008DF823808DF82480C9E70028C7D19DF89A
:10B0600012308DF825309DF8133003F00F029DF853
:10B07000263023F00F0313430DF1270120468DF8EE
:10B080002630FDF73FF90122494603A80FF010FBD7
:10B090000DF10D0203A92046FCF760FF9DF80C207E
:10B0A0009DF80D3002A943EA821320468DF828301E
:10B0B000FCF708FF9DF808209DF8293062F3020391
:10B0C000D20862F3C7038DF8293090E7784605F07F
:10B0D0001FF88CE7F0B50B89032B87B007460C46A9
:10B0E00019D14D6804238DF80C302B88ADF80D3044
:10B0F00000238DF80F302888C0F30B00FEF706FD03
:10B100000DF10B010646FEF7CFFDD0B9AB78022B4F
:10B1100003D0032B32D007B0F0BD9DF80B305A1E80
:10B12000012AF8D8012B06D13046FEF73BFE10B1BC
:10B13000784604F0EDFF00238DF80C3002238DF8E3
:10B140000F3007F02FFE04230190009348F21702FE
:10B1500003AB21463846FFF714FC9DF80C30002B5A
:10B16000D9D10493059308238DF8103004A89DF8D5
:10B170000F308DF81430FFF7D1FBCCE79DF80B3082
:10B18000032BC8D033B13046FEF73AFE10B17846F3
:10B1900004F0BEFF00238DF80C30D0E770B50D89A8
:10B1A000012D86B006460C461ED14B6818788DF8E6
:10B1B0000F00FDF745F8B8B90523049005908DF808
:10B1C000103004A89DF80F308DF81430FFF7A6FB5F
:10B1D00007F0E8FD009501900DF10F0348F20E0213
:10B1E00021463046FFF7CDFB06B070BD7FB50E4659
:10B1F00005460BF0D3F904AC04F8040D07F0D2FDBA
:10B2000001230190009348F20B0223463146284661
:10B21000FFF7B7FB04B070BD0B890BB9FFF7E6BFB2
:10B2200070472DE9F04F0E468DB0D1F804A005907F
:10B230000AF0DCFF3389092B05465AD1BAF8009091
:10B240009AF802701FFA89F82FB1112F54D87B1E7B
:10B25000012000FA03F79AF8034044B1112C9DBF76
:10B2600004F1FF34012000FA04F44FF0FF34BAF87F
:10B2700005300493BAF807300293BDF808009AF835
:10B2800004B0FEF743FC4FF6FF7E70453CD104232B
:10B290008DF82430BAF80030ADF825309AF8033034
:10B2A0008DF828309AF802308DF827309AF804305B
:10B2B0008DF82930BAF8053003F00F03ADF82A30C5
:10B2C000BAF80730ADF82C3007F06CFD0A23019076
:10B2D0000093062209AB31460598FFF752FB9DF813
:10B2E000243033B9142307A88DF81C300895FFF7D4
:10B2F00015FB0DB0BDE8F08FFF2F4FF6FF730CBFAD
:10B300001F464FF0FF37A6E7404607F09BFB022899
:10B3100005D0B4F5803F02D81BF0800F01D00F2379
:10B32000B6E7A5F80090B8F1000F10D1C5F8048079
:10B33000C5F8088085F80C80049B03F00F07BDF862
:10B3400008302B82EF810AF055FF0023A0E76F60E1
:10B35000AC6085F80CB0EFE737B50378012B03D06C
:10B360000D2B1DD003B030BD154B42681B689A42AF
:10B37000F8D1144C2378012BF4D1FBF734FA0AF0FE
:10B3800063F950B100251C236846009501958DF89E
:10B390000030FFF7C3FA2570E4E702232370E1E7EA
:10B3A000084D2B78022BDDD100241C236846009425
:10B3B00001948DF80030FFF7B1FA2C70D2E700BF8E
:10B3C000EC390020E839002030B50B89032B85B01B
:10B3D00005460C4615D14B6800228DF80C201B88C1
:10B3E000ADF80D3002238DF80F3007F0DBFC04239D
:10B3F0000190009348F2480203AB21462846FFF72C
:10B40000C0FA05B030BD30B50B89022B85B00546BA
:10B410000C4614D14A6800218DF80C101288ADF842
:10B420000D208DF80F3007F0BDFC04230190009330
:10B4300048F2480203AB21462846FFF7A2FA05B0BE
:10B4400030BD7FB504AC022304F8043D05460E462A
:10B4500007F0A8FC01230190009348F21402234650
:10B4600031462846FFF78DFA04B070BD0A89012ADB
:10B4700005D14B681B78012B01D8FFF7E2BF70475D
:10B480000B890BB9FFF7DDBF70477FB504AC022312
:10B4900004F8043D05460E4607F084FC01230190A4
:10B4A000009348F21102234631462846FFF769FA15
:10B4B00004B070BD0A89012A05D14B681B78012BA5
:10B4C00001D8FFF7E2BF70470B890BB9FFF7DDBF6B
:10B4D000704770B50B8988B006460D46FBB908A9C0
:10B4E000042341F8143D06A8FEF72AFD039B9AB2F7
:10B4F0005B0803EB430302F0010404A906A803EB75
:10B50000440401F0D7FB07F04DFCA4B20190009475
:10B5100004AB48F2430229463046FFF732FA08B03E
:10B5200070BDF0B50B89022B8DB006460D4632D1A9
:10B530004F680CAC0823388844F8243DC0F30B0056
:10B54000FEF7E4FA224608A9FEF770FE3B88ADF844
:10B55000113018B1052820D010231FE0039C8DF86E
:10B560001000A2B2640804EB440402F0010304EBEF
:10B57000430403340DF1130108A8A4B201F09AFBAF
:10B5800007F010FC0094019004AB48F20202294637
:10B590003046FFF7F6F90DB0F0BD04238DF81030FA
:10B5A0000324EDE7F0B516460A881F4648F2180353
:10B5B0009A4287B005460C4605D048F21A039A42D3
:10B5C00001D0032A2CD10E22002102A80FF070F81E
:10B5D00023888DF8087048F21802934209D048F287
:10B5E0001A0293421ED0032B20D1636833F8092B33
:10B5F00002E0636833F8022BADF809201B68CDF830
:10B600001230002E14BF0C260E2607F0CBFB00963E
:10B61000019002AB48F2190221462846FFF7B1F922
:10B6200007B0F0BD636833F8172BE5E7784604F000
:10B630006FFDE6E77FB50B89022B06460C461FD14E
:10B640004D682888C0F30B00FEF760FA0DF10B017E
:10B65000FEF72AFB002303932B88ADF80D3088B941
:10B660009DF80B308DF80F3007F09CFB0423019000
:10B67000009348F2170203AB21463046FFF781F9E9
:10B6800004B070BD04238DF80C30EDE77FB50B8955
:10B6900006460D4683B9FCF7DFFD04AC04F8010D46
:10B6A00007F080FB01230190009348F20E0223462D
:10B6B00029463046FFF765F904B070BD37B50B89F0
:10B6C000012B05460C4618D14B681A78012A14D86C
:10B6D00000220092019204228DF800201878431E67
:10B6E000584258418DF804000AF042FF284621468E
:10B6F000FFF77CFD6846FFF711F903B030BD70B568
:10B700000B89012B8AB006460D461ED14B681B786B
:10B71000013BDBB2FD2B18D90AA900238DF81030AC
:10B72000162321F81A3D0DF11100FFF733F8BDF88B
:10B730000E4007F037FB0134A4B20190009404AB33
:10B74000022229463046FFF71CF90AB070BD0000FE
:10B750002DE9F0470B89132B88B080460C4670D139
:10B760004E68B578707837783388ADF814304FEA82
:10B77000051A4AEA101A00F00F0047EA00208DF877
:10B780001650FEF7C3F900238DF81830F21C07ABF2
:10B79000014681465046FEF741FC384B1B685B046E
:10B7A00006461CD5364B1B68032B18DD2F21354868
:10B7B0000FF052F8F8B12F2132480FF04DF8411C2C
:10B7C000314BBDF81C20D3F8043501922F4A00926A
:10B7D000CDF808A040F25922042009F0BFF90F2E3D
:10B7E00048D8DFE806F03E4747114049473347470E
:10B7F0004747474747315C2122480FF02DF808B1F1
:10B800005C21D9E71F49DBE70DF11201BDF81C00EF
:10B81000FEF7BEF910B1784604F07AFCBDF81220AC
:10B820004A4514BF042200228DF814708DF816507A
:10B83000059B21464046FFF70DFA16B906A8FFF70B
:10B840006DF808B0BDE8F0870622EDE78DF81470BA
:10B850008DF81650059B032221464046FFF7FAF962
:10B86000EFE70022E0E78DF814708DF81650059B85
:10B870000522F1E71022D7E70422D5E7702E002039
:10B880006C2E002004AC03000010014034AC030017
:10B8900073B50D461646FCF7DFFB0528044608D0B5
:10B8A00006281BD0C0B9023D33889C4204D3002037
:10B8B00000E0022002B070BD694635F8020FFEF7C5
:10B8C0007DF848B99DF80030023B012B04D8BDF843
:10B8D00002302B800134E7E71020EBE70820E9E78E
:10B8E00008B578B1B0F5803F08D800224008D3B23F
:10B8F00002F10102FAD1581CC0B208BD784604F02A
:10B9000007FC112008BD2DE9F04F0B89132B85B0E2
:10B9100080460D4634D14C68607823882778ADF88E
:10B9200004304FEA101B002300F00F00A6780293AA
:10B93000039347EA002001238DF806608DF8083054
:10B94000FEF7E4F84FF6FF7A5045814609D04BEAFE
:10B950000610FEF7EFF85045ADF80C0013D10324A4
:10B9600000E004248DF804708DF80660019B2246E7
:10B9700029464046FFF76EF914B902A8FEF7CEFF3C
:10B9800005B0BDE8F08F0DF10201FEF701F910B12D
:10B99000784604F0BDFBBDF802304B450FD1E11CE9
:10B9A000BDF80C00FEF782FB0528D8D0082804D08B
:10B9B00000280CBF00241024D4E70B24D2E7112464
:10B9C000D0E72DE9F0430A89032A85B080460D4669
:10B9D00035D14B689E7819881F785B78ADF80410D4
:10B9E000300140EA13108DF8066003F00F048DF863
:10B9F0000820FEF79FF84FF6FF794845ADF80C0098
:10BA00003ED047EA0420FEF781F84845044619D1A4
:10BA1000042400E011248DF804708DF80660019B69
:10BA2000224629464046FFF715F944B9BDF80C20D7
:10BA30004FF6FF739A4202D002A8FEF76FFF05B0DF
:10BA4000BDE8F0830DF10201BDF80C00FEF7A0F88F
:10BA500010B1784604F05CFBBDF80230A342D9D1A6
:10BA6000BDF80C00FCF738FD10B1784604F050FB2F
:10BA7000BDF80C00FEF76CFB10B1784604F048FBF3
:10BA80000024C8E708B578B1B0F5803F08D8002297
:10BA90004008D3B202F10102FAD1581CC0B208BD6D
:10BAA000784604F035FB112008BD70B50C4686B011
:10BAB00005460AF09BFB2189064619BB8DF80C1040
:10BAC0000388ADF80D304368012B1DD8DBB2B06898
:10BAD0008DF80F30FFF7D6FF337B8DF81130F389E7
