:020000022000DC
:1060000000FD0020E99303001194030013940300A2
:106010001594030017940300199403000000000076
:106020000000000000000000000000001B940300BE
:106030001D940300000000001F940300219403003E
:106040002394030023940300239403002394030068
:10605000239403002394030061700200239403003F
:106060002394030023940300158303002394030067
:106070002394030023940300239403002394030038
:106080002394030089030300A5470300239403001E
:1060900049040300239403000D74020023940300B9
:1060A0002394030023940300239403002394030008
:1060B000239403002394030000000000000000006C
:1060C00023940300239403002394030023940300E8
:1060D0002394030023940300239403000000000092
:1060E00000000000000000000000000000000000B0
:1060F00000000000000000000000000000000000A0
:10610000000000000000000000000000000000008F
:10611000000000000000000000000000000000007F
:10612000000000000000000000000000000000006F
:10613000000000000000000000000000000000005F
:10614000000000000000000000000000000000004F
:10615000000000000000000000000000000000003F
:10616000000000000000000000000000000000002F
:10617000000000000000000000000000000000001F
:10618000000000000000000000000000000000000F
:1061900000000000000000000000000000000000FF
:1061A00000000000000000000000000000000000EF
:1061B00000000000000000000000000000000000DF
:1061C00000000000000000000000000000000000CF
:1061D00000000000000000000000000000000000BF
:1061E00000000000000000000000000000000000AF
:1061F000000000000000000000000000000000009F
:1062000010B5054C237833B9044B13B10448AFF3F0
:1062100000800123237010BDE82E00200000000044
:10622000A0C403000C4B43B10C480D4910B5AFF3AB
:1062300000800C48036823B910BD0A48036833B9CD
:106240007047094B002BF7D0BDE810401847064BAC
:10625000002BF5D0184700BF00000000A0C40300C9
:10626000EC2E0020E42E002000000000154B002B37
:1062700008BF134B9D46A3F5803A00218B460F467D
:106280001348144A121A14F0CFFC0F4B002B00D005
:1062900098470E4B002B00D09847002000210400A7
:1062A0000D000D48002802D00C48AFF3008014F018
:1062B0006DFC2000290000F08FFC14F053FC00BF9F
:1062C0000000080000FD00200000000000000000A9
:1062D000E82E00202C5200200000000000000000EA
:1062E00041DF704738B5174A1748002102F0D8F847
:1062F00020B1164A4FF4A17113F0A1F8144D124CBD
:106300002988208807F0F8FC20B1104A40F2431198
:1063100013F095F82988208807F06AFD20B10B4A10
:106320004FF4A27113F08BF80621208807F0D4FDFA
:1063300030B1064A40F24511BDE8384013F07FB84D
:1063400038BD00BF556302007C320020DEAF030081
:10635000042F0020F0B50378714D0A2BC7B0044616
:106360001DD00B2B49D0042B40F0B2802B68580471
:106370002FD56C4B1B68032B2BDD2F216A4814F0A3
:1063800027FD002830D02F21674814F021FD411C43
:10639000664B674AD3F804350092E02216E02B687A
:1063A0005C0416D55F4B1B68032B12DD2F215E4862
:1063B00014F00EFD78B12F215B4814F009FD411C4B
:1063C0005A4B5C4AD3F804350092DC2204200FF0CB
:1063D00057F847B0F0BD5C21534814F0F9FC08B100
:1063E0005C21E9E75049EBE75C214F4814F0F0FCF1
:1063F00008B15C21C8E74C49CAE72B68590430D57D
:10640000484B1B68032B2CDD4B4B4768196805AEC6
:106410000023FA5C100902F00F02085C06F8130072
:10642000885C06EB43020133102B5070F1D100233E
:106430002F213D4886F8203014F0CAFC002835D0C2
:106440002F21394814F0C4FC411C384B3B4AD3F887
:10645000043501923A4A00920296E42204200FF099
:106460000FF82B685A0418D52E4B1B68032B14DD2C
:106470002F212D4814F0ACFC08B32F212A4814F02A
:10648000A7FC411C294B227AD3F8043501922D4AEE
:1064900000920420E5220EF0F3FF207A2A4B616877
:1064A000102203EB001014F0B4FB92E75C211E48AD
:1064B00014F08EFC08B15C21C3E71B49C5E75C21E1
:1064C000194814F085FC08B15C21D7E71649D9E7D3
:1064D0002B685B047FF57DAF124B1B68032B7FF7A6
:1064E00078AF2F21104814F073FC80B12F210E4893
:1064F00014F06EFC411C0D4B2278D3F80435019248
:10650000124A00920420EA220EF0BAFF61E75C21F1
:10651000054814F05DFC08B15C21E8E70249EAE7B0
:10652000602E00205C2E0020DEAF03000010014032
:1065300013B10300F1B00300642E00202FB103005B
:106540003FB1030047B10300BC32002056B1030045
:1065500010B58AB050238DF80C3042238DF80D30E1
:1065600052238DF80F3045238DF810308DF81430FC
:106570008DF817308DF81A3059238DF81B301B4BCE
:106580004D221B888DF811204F228DF81220ADF876
:10659000223054229DF824308DF813208DF81820D5
:1065A0004B228DF8192003F0FE0300225F2462F3D2
:1065B00041038DF80E408DF81540ADF81C204E2497
:1065C000ADF81E20ADF820208DF82430009103ABEB
:1065D0000146052206488DF8164002F0C1FA18B1AE
:1065E000044A8D2112F02BFF0AB010BDA02D00200F
:1065F00008310020DEAF030037B5A24C2378012B11
:10660000254600F0F18008D3022B00F06081784627
:1066100003B0BDE830400AF02FBA31282FD007DC94
:106620000A2803D00D2801D0013009D103B030BDB4
:1066300033284FD027DB342879D0352800F0A480C8
:10664000914B1B685904F1D5904B1B68032BEDDD72
:106650002F218F4814F0BCFB002800F0BC802F21B4
:106660008B4814F0B5FB411C8A4B8B4AD3F8043598
:106670000092042040F21D120EF002FFD6E7874B75
:1066800001221A70D2E7804B1B685A0416D57F4B43
:106690001B68032B12DD2F217D4814F099FB80B17C
:1066A0002F217B4814F094FB411C7A4B7C4AD3F891
:1066B000043500920420FE220EF0E2FE01232B702E
:1066C000B4E75C21724814F083FB08B15C21E8E771
:1066D0006F49EAE7734801F029FF04460028A5D076
:1066E000694B1B685B04A1D5684B1B68002B9DDDC3
:1066F0002F21674814F06CFB80B12F21644814F0FF
:1067000067FB411C634B684AD3F80435009201943F
:106710004FF4837201200EF0B3FE87E75C215C48E2
:1067200014F056FB08B15C21E8E75949EAE75D48F7
:1067300001F01EFF044600283FF478AF524B1B685F
:106740005D047FF573AF514B1B68002B7FF76EAF75
:106750002F214F4814F03CFB68B12F214C4814F016
:1067600037FB411C4B4B514AD3F80435009201943E
:106770004FF48772CEE75C21454814F029FB08B13D
:106780005C21EBE74249EDE73F4B1B68580417D506
:106790003E4B1B68032B13DD2F213D4814F018FBE3
:1067A00080B12F213A4814F013FB411C394B404A69
:1067B000D3F804350092042040F213120EF060FE6C
:1067C00002237CE75C21324814F002FB08B15C2113
:1067D000E8E72F49EAE75C212D4814F0F9FA08B1FF
:1067E0005C213DE72A493FE7303809283FF61EAFD4
:1067F0002C4B81B2188807F01DF9234B04461B6807
:1068000028B35A0418D5214B1B68002B14DD2F2107
:106810001F4814F0DDFA88B12F211D4814F0D8FA72
:10682000411C1C4B234AD3F804350092019440F2DA
:10683000291201200EF024FE002340E75C211448B9
:1068400014F0C6FA08B15C21E7E71149E9E75B04F7
:10685000F2D50E4B1B68032BEEDD2F210C4814F0F4
:10686000B7FA58B32F210A4814F0B2FA411C094B69
:10687000114AD3F804350092042040F22D120EF094
:10688000FFFDD9E7EC320020602E00205C2E0020B6
:10689000DEAF0300001001406FAE03000E2F00209A
:1068A00064B103007C3200208BB10300B6B1030059
:1068B000E2B1030008B2030031B203005C210A48D0
:1068C00014F086FA08B15C21CDE70749CFE73038EC
:1068D00002283FF6ABAE054B042103EB0010FFF797
:1068E00037FE00232370A1E6DEAF0300BC32002098
:1068F000F0B5037889B004460A2B15D8DFE813F009
:106900000B0016003B0014001400140014000C01CE
:106910001400B6005D009E4D2978012904D1043091
:10692000FFF716FE00232B7009B0F0BD994B1B68D2
:106930005D04F9D5984B1B68032BF5DD2F21974893
:1069400014F046FA70B12F21944814F041FA411C1A
:10695000934B944AD3F8043500929D2204200EF004
:106960008FFDE1E75C218D4814F032FA08B15C211B
:10697000EAE78A49ECE7874B1B685C04D4D5864B71
:106980001B68032BD0DD2F21844814F021FA58B165
:106990002F21824814F01CFA411C814B824AD3F803
:1069A00004350092A122D9E75C217C4814F010FA4A
:1069B00008B15C21EDE77949EFE77C4D7C4F297800
:1069C0007C4E07EB4101308808F004FE18B1734A91
:1069D000A62112F034FD2B78774AE0687749C08A07
:1069E0000988013302EB4303A26809F0FFF818B1EC
:1069F0006A4AAA2112F023FD664B1B6858041DD574
:106A0000654B1B68032B19DD2F21644814F0E0F956
:106A100018B32F21614814F0DBF9411C2A78604B30
:106A200037F81220D3F804350292E268D28A019234
:106A3000634A00920420AF220EF022FD2B78614AB7
:106A400001332B7012883388C82113444FF4F0109F
:106A50000422338000F0A4FA66E75C214F4814F06A
:106A6000B7F908B15C21D5E74C49D7E710230022DC
:106A70000121406802F0A2F8464B054630B31B687E
:106A800059047FF551AF444B1B68002B7FF74CAF87
:106A90002F21424814F09CF978B12F213F4814F07F
:106AA00097F9411C3E4B484AD3F8043500920195B2
:106AB000BF2201200EF0E4FC36E75C21374814F0D9
:106AC00087F908B15C21E9E73449EBE73D4A1B68E7
:106AD000217A11805A047FF527AF2F4B1B68032BB7
:106AE0007FF722AF2F212D4814F072F958B12F21D2
:106AF0002A4814F06DF9411C294B344AD3F8043567
:106B00000092C4222AE75C21244814F061F908B1FC
:106B10005C21EDE72149EFE72D4B04AA03F11007B3
:106B2000164618685968154603C50833BB422A46FD
:106B3000F7D110223146606802F04CF818B1174ABC
:106B4000CD2112F07CFC134B1B685B047FF5ECAE8F
:106B5000114B1B68032B7FF7E7AE2F210F4814F072
:106B600037F958B12F210D4814F032F9411C0C4B64
:106B7000184AD3F804350092CE22EFE65C2107488C
:106B800014F026F908B15C21EDE70449EFE700BFF6
:106B90000E2F0020602E00205C2E0020DEAF0300B0
:106BA0000010014006B003002BB003001C2F002092
:106BB000062F0020A02D0020102F00201A2F0020CB
:106BC0004BB003001E2F00207BB00300AFB00300CA
:106BD00050AE0300CCB0030000B57F4C7F4A93B0A9
:106BE00004214FF4C0400EF031FC2268520419D544
:106BF0007B4B1B68032B15DD2F217A4814F0E8F836
:106C0000002800F0D6802F21764814F0E1F8411CCE
:106C1000754B764AD3F80435009204204FF4B072D5
:106C20000EF02EFC09F058FD20B16E4A4FF4B17100
:106C300012F005FC00F0E8F900F048FA24220021E7
:106C40000DEB020013F0F0FF01238DF82430072331
:106C50008DF8273006238DF82C300DF10F01644B91
:106C6000119309A800F0F8F820B15E4A40F25111E2
:106C700012F0E5FB9DF80F1039BB102205A813F0A8
:106C8000D3FF5C4B1868049004A808F057FC20B1AF
:106C9000544A40F2571112F0D2FB574A574900208C
:106CA00008F036FE20B14F4A4FF4AC7112F0C7FB2A
:106CB0005149534B098805AA002008F0D3FF20B1A1
:106CC000484A40F2591112F0BAFB64214D4800F0D5
:106CD00003F94D4A1068516809AB03C31189198043
:106CE000927A4A494A489A7001F038FF18B13D4AF1
:106CF0007A2112F0A4FB474B0093444A444946488A
:106D000009AB01F0FEFE18B1364A7B2112F097FB69
:106D1000424802F013FE01463F4801F00BFF18B154
:106D2000304A7C2112F08BFB3D4801F043FC0146C8
:106D3000394801F0FFFE18B12A4A7D2112F07FFB8D
:106D4000344801F04EFF18B1264A7E2112F077FB3D
:106D500000F06AF820B1234A40F26F1112F06FFB85
:106D600023685B0417D51E4B1B68032B13DD2F21F3
:106D70001C4814F02DF828B32F211A4814F028F8D5
:106D8000411C194B274AD3F804350092042040F2E5
:106D900071120EF075FB00214FF4F01000F0F6F8C0
:106DA0000222C8214FF4F01000F0FAF8FFF798FA29
:106DB000FCE75C210B4814F00BF808B15C2123E7D9
:106DC000084925E75C21074814F002F808B15C2166
:106DD000D3E70449D5E700BF602E0020215403000B
:106DE0005C2E0020DEAF0300001001409AAF0300CC
:106DF000E562020060AE03001A2F00208AAF030094
:106E0000042F0020F965020064AE0300202F00204B
:106E10003C320020F168020008310020402F0020A1
:106E20007C3200206FAE03000CF008BC08B506F001
:106E300007FD08F011FBBDE808400BF00BBE07B5DD
:106E400001A808F0B7FBBDF80400003018BF01200E
:106E500003B05DF804FB000073B50E46054648B369
:106E60000CF086FB044610BB08F04AFB07F086F9DD
:106E7000286905F0D5FB0446C8B92B7F0193AB699F
:106E8000009301466B690C484FF6FF7205F0E8FD70
:106E9000044660B92B6A03B1984710F0D5F908F0A1
:106EA0004FFA06F01BFBFFF7CAFF06B13070204611
:106EB00002B070BD0E24FAE7F032002010B5054C88
:106EC000226832B112F0EEFB002802DB23689847FB
:106ED000F8E710BD4C330020154B164A10B50C4690
:106EE00018600121144809F053FC18B1134A4A21D3
:106EF00012F0A5FA610C0023E00341F26F728B429D
:106F000008BF824210D24FF47A72002313F0A2FC21
:106F1000014600220A4809F04DFC38B1074A4B21CE
:106F2000BDE8104012F08BBA0521F2E710BD00BF9A
:106F30004C330020BD6E020040B2030044B2030097
:106F40005033002038B50D4C206808B912F06AFAA9
:106F50004FF0A0450A4AD5F8043512685340C5F8E9
:106F600004352368013B236033B9064809F068FC07
:106F7000054B1B68C5F8043538BD00BF70330020D1
:106F80007433002078330020A03300204FF0A0435A
:106F900011B1C3F80C057047C3F80805704700002D
:106FA000F8B542B3132926D9134B144D5200013AB8
:106FB0004FF0A0441A602860114BD4F804251A60E1
:106FC0004FF400404FF4FA760027E0FB01674FF4DE
:106FD0007A7200233046394613F03CFC0022014609
:106FE000084809F0E7FB30B9D4F804352A6823EAE9
:106FF0000203C4F80435F8BD703300207433002058
:10700000A03300207833002008B54FF0A0430322BE
:107010004FF40031C3F84427C3F808154FF480211A
:10702000C3F84827C3F808154FF40021C3F84C27CC
:10703000C3F80815C3F850274FF48012C3F8082589
:107040000121054A054809F0A3FB18B1BDE8084035
:1070500012F0E8B908BD00BF456F020068B2030036
:10706000124B70B50024124E124DC3F87C414FF004
:10707000A043A15DD3F8102501238B40934311D089
:107080000D49D5F804250B68981A48BFD01A43F269
:107090003333984206D9D5F804350B60074B2046A8
:1070A0001B6898470134042CE1D170BD006000409A
:1070B0006CB20300001001409C3300209833002084
:1070C00060DF704769DF70470CF010BB10B588B007
:1070D00000F04CF908B112F0A5F92B4B0393039B78
:1070E00004930C22002105A813F09EFD0023049AAE
:1070F0008DF8143005A90120FFF7E4FF08B112F064
:1071000091F90C22002105A813F08EFDF823049AB2
:10711000059305A9A120FFF7D5FF08B112F082F968
:1071200004A8FFF7CDFF039B049A9A4204461CD0A3
:10713000164B1B685B0418D5154B1B68012B14DD1F
:107140002F21144813F044FEA8B12F21114813F049
:107150003FFE411C104B049AD3F8043501920F4AAC
:1071600000920220A2220EF08BF914B1204612F0F8
:1071700059F908B010BD5C21064813F029FE08B18A
:107180005C21E3E70349E5E7A02D0020602E002005
:107190005C2E002070B2030000100140A0B203007A
:1071A00070B5EFF3108672B60C4A946801239CB94F
:1071B00093600B4B0B4DD3F8801029401160C3F83E
:1071C0008050D3F8841051604FF0FF32C3F8842010
:1071D000047006B962B670BD0370FAE780510020F2
:1071E00000E100E0FC06FFBD10B5084B9A685AB1FB
:1071F00050B9EFF3108272B605491C680C605C68E8
:107200004C60986002B962B610BD00BF805100208A
:1072100000E100E001600B6843604A68934204BFEC
:10722000002343607047436843B1026891680B4490
:1072300043605268934204BF0023436070474BDFB2
:10724000704700001FB50D4C01A8FFF7F8FF70B99B
:10725000214602A8FFF7DEFF039B002BF4D0019824
:107260001A685968904702A8FFF7DDFFF4E7052880
:1072700001D012F0D7F804B010BD00BFDCB203009B
:1072800061DF704730B5114B1B7891B0E3B1104D01
:1072900034240DF1020103A8ADF80240FFF7F0FF1E
:1072A00070B9294601A8FFF7B5FF029B002BF0D06B
:1072B00003A81A685968904701A8FFF7B4FFF4E7DC
:1072C000052801D012F0AEF811B030BDA433002073
:1072D000E8B2030010DF704713B504460949684659
:1072E000FFF798FF019808B902B010BD0368416824
:1072F0002046984718B16846FFF795FFF2E711203E
:10730000F2E700BFF8B2030013B504460749684628
:10731000FFF780FF019B0BB902B010BD20461A6831
:10732000596890476846FFF77EFFF3E710B3030004
:107330000C4991F816335A09EC231341DB0708D4A2
:1073400042F2020012F06EB81A6842F480021A602B
:107350007047054B9A68002AF6D14FF480030B6002
:10736000704700BF00E100E080510020F7B5184FE2
:107370003C785CBB174E012520463570FFF7ACFF0B
:10738000112820D02046FFF7BFFF134B186801904B
:1073900002A800F8054DFFF703FF104901A8FFF709
:1073A00099FF0446B0FA80F0400938709DF8030058
:1073B000FFF71AFF3CB90A4B34701C70FFF7B8FF97
:1073C0002846FFF7A1FF204603B0F0BD0824FAE7E6
:1073D000A6330020A5330020F4B203007108030097
:1073E000A733002007B508496846FFF713FF019B44
:1073F00013B903B05DF804FB58681A6890476846F3
:10740000FFF711FFF3E700BF04B30300FFF7EABF84
:1074100013B5154B1B689B04044619D5134B1B6809
:10742000012B15DD2F21124813F0D2FC98B12F212A
:107430000F4813F0CDFC411C0E4B227ED3F80435CF
:1074400001920D4A0092022040F261120EF018F8EB
:10745000207E02B010BD5C21054813F0B9FC08B1D4
:107460005C21E5E70249E7E7602E00205C2E002062
:1074700053B60300001001408BB603001FB5002374
:10748000024601A80193029303938DF804109047DC
:1074900005B05DF804FB00007FB5067E4B68042E46
:1074A00004465D680ED12B78002B36D0036902218B
:1074B000DB6804309847E06B3146FFF7DFFF0120BF
:1074C00004B070BD164B1B689B041BD5154B1B6885
:1074D000032B17DD2F21144813F07AFCA0B12F21C4
:1074E000114813F075FC411C104B227ED3F8043573
:1074F00002922A7801920E4A0092042040F28322DE
:107500000DF0BEFF207EDBE75C21074813F060FC36
:1075100008B15C21E4E70449E6E70220D0E700BFB8
:10752000602E00205C2E002053B6030000100140A6
:10753000EDB5030037B50446007E4B6802285D6850
:1075400028D003287DD00128764B40F0C3802A78CC
:1075500012B3012A46D01B6899041AD5724B1B68D6
:10756000042B16DD2F21714813F032FC00285FD068
:107570002F216E4813F02CFC411C6D4B2A78D3F858
:10758000043501926B4A009205204FF4DE720DF033
:1075900077FF207E03B030BD1B689C04FAD5624B98
:1075A0001B68042BF6DD2F21604813F011FC80B11D
:1075B0002F215E4813F00CFC411C5D4B5E4AD3F852
:1075C0000435009205204FF4DA720DF059FF0120C6
:1075D000E0E75C21554813F0FBFB08B15C21E8E7CC
:1075E0005249EAE71B68980417D54F4B1B68042BD8
:1075F00013DD2F214D4813F0EBFB80B12F214B48B9
:1076000013F0E6FB411C4A4B4C4AD3F80435009278
:1076100005204FF4DC720DF033FF0220BAE75C2145
:10762000424813F0D5FB08B15C21E8E73F49EAE79F
:107630005C213E4813F0CCFB08B15C2199E73B4943
:107640009BE72B78052B1DD801A252F823F000BF31
:10765000CF75020069760200737602007D76020023
:10766000817602001B7602000621E06BFFF706FF21
:10767000D3E70821E06BFFF701FFA8E70521F9E751
:107680000921F7E7274B1B689A04A0D5264B1B68F6
:10769000032B9CDD2F21254813F09AFB88B12F2165
:1076A000224813F095FB411C214B2A78D3F804356E
:1076B0000192234A009204204FF4F0720DF0E0FE94
:1076C00085E75C21194813F083FB08B15C21E7E7EB
:1076D0001649E9E71B689B047FF55BAF124B1B68FB
:1076E000032B7FF756AF2F21104813F071FB78B1B1
:1076F0002F210E4813F06CFB411C0D4B2A78D3F858
:10770000043501920B4A0092042040F2E5123EE754
:107710005C21064813F05CFB08B15C21E9E70349F2
:10772000EBE700BF602E00205C2E002053B6030064
:107730000010014083B4030056B403006FB403008B
:1077400098B4030037B50446007E052829D14B685C
:107750005D682B78032B5AD8DFE803F0022E5557CB
:107760003F4B1B68990417D53E4B1B68042B13DD58
:107770002F213D4813F02CFBA8B12F213A4813F0DC
:1077800027FB411C394B3A4AD3F8043500920520B7
:1077900040F28D120DF074FE0021E06BFFF76EFEDB
:1077A000012003B030BD5C212F4813F011FB08B15C
:1077B0005C21E3E72C49E5E7294B1B689A0417D5C0
:1077C000284B1B68042B13DD2F21274813F000FBE7
:1077D00080B12F21244813F0FBFA411C234B254A8A
:1077E000D3F80435009205204FF4C9720DF048FE1D
:1077F0000121D2E75C211C4813F0EAFA08B15C21B0
:10780000E8E71949EAE70221C7E70321C5E7144B76
:107810001B689B04C4D5134B1B68012BC0DD2F21B3
:10782000114813F0D5FA88B12F210F4813F0D0FA80
:10783000411C0E4B2A78D3F8043501920E4A00926F
:1078400002204FF4D1720DF01BFEA9E75C2106481F
:1078500013F0BEFA08B15C21E7E70349E9E700BF8E
:10786000602E00205C2E002053B603000010014063
:107870008BB50300ADB50300D1B5030010B5037E91
:10788000032B044603D3042B05D9052B0CD07846D3
:1078900009F0F2F80CE0036902210430DB68984734
:1078A0000421E06BFFF7EAFD0A21E06BFFF7E6FD3C
:1078B000012010BD70B50385012316464FF6FF75F4
:1078C0000C4A80F82A30022301844584426280F801
:1078D0002B3004460BF010FF2686E062658604F12B
:1078E0001C0006F051FE20B17846BDE8704009F05A
:1078F000C3B870BDA933002037B5037E022B044600
:107900000D4614D18B88412B02D9784609F0B4F882
:10791000AA881B48A91D13F07CF92046AB8848F2C1
:1079200060021221FFF7C6FF042003B030BD154BE3
:107930001B689B0419D5144B1B68012B15DD2F21E7
:10794000124813F045FA90B12F21104813F040FA75
:10795000411C0F4B227ED3F8043501920D4A009250
:10796000022040F2D5220DF08BFD207EDDE75C2168
:10797000064813F02DFA08B15C21E6E70349E8E771
:10798000A9330020602E00205C2E002053B6030097
:107990000010014007B5030010B5037E012B04461B
:1079A0000ED110220431094813F033F92046102378
:1079B00048F2630248F26201FFF77CFF032010BD2A
:1079C000784609F059F8207E10BD00BFA933002089
:1079D00013B5037E022B04460CD11B4B0A791A7097
:1079E00048F26101012348F26302FFF763FF0320BD
:1079F00002B010BD154B1B689B0419D5144B1B68B6
:107A0000012B15DD2F21134813F0E2F990B12F213E
:107A1000104813F0DDF9411C0F4B227ED3F80435DA
:107A200001920E4A0092022040F23F220DF028FD02
:107A30000120DDE75C21074813F0CAF908B15C2199
:107A4000E6E70449E8E700BFA9330020602E0020E4
:107A50005C2E002053B60300001001402CB403003C
:107A600013B5037E012B044609D1002348F26702B7
:107A700048F26401FFF71EFF052002B010BD144B51
:107A80001B689B0419D5134B1B68012B15DD2F2197
:107A9000114813F09DF990B12F210F4813F098F978
:107AA000411C0E4B227ED3F8043501920C4A009201
:107AB00002204FF4BF720DF0E3FC207EDDE75C2175
:107AC000054813F085F908B15C21E6E70249E8E7CB
:107AD000602E00205C2E002053B6030000100140F1
:107AE00050B5030013B5037E012B044609D10023D2
:107AF00048F2670248F26501FFF7DCFE052002B09C
:107B000010BD144B1B689B0419D5134B1B68012B2C
:107B100015DD2F21114813F05BF990B12F210F488B
:107B200013F056F9411C0E4B227ED3F80435019216
:107B30000C4A0092022040F26F120DF0A1FC207E50
:107B4000DDE75C21054813F043F908B15C21E6E765
:107B50000249E8E7602E00205C2E002053B60300A7
:107B6000001001406EB503002DE9F041384C237838
:107B700096B0804653B90123364E374F237004A97F
:107B800036480AF08DFE20B10023237016B0BDE800
:107B9000F08133689A041AD5314B1B68042B16DD2B
:107BA0002F21304813F014F900283ED02F212D4802
:107BB00013F00EF9411C9DF81020D7F804350192FE
:107BC000294A0092052040F2E9220DF059FC9DF867
:107BD0001020264B04A953F822304046984798F8C5
:107BE000183083420546CAD033689B041AD51C4B13
:107BF0001B68042B16DD2F211A4813F0E9F8E8B1B1
:107C00002F21184813F0E4F8411C98F81820D7F8F1
:107C100004350192164A0092029540F2F3220520A3
:107C20000DF02EFC88F81850A9E75C210D4813F0E0
:107C3000CFF808B15C21BAE70A49BCE75C210948E2
:107C400013F0C6F808B15C21DBE70649DDE700BFA9
:107C5000A8330020602E002000100140EC330020EB
:107C60005C2E002053B60300DAB60300F4B3030021
:107C7000E6B6030030B5154695B00C4611B9784606
:107C800008F0FAFE012D2DD005D3022D65D07846DF
:107C900008F0F2FE56E0434B1B68990452D5424B64
:107CA0001B68042B4EDD2F21404813F091F880B162
:107CB0002F213E4813F08CF8411C3D4B228CD3F809
:107CC000043501923B4A00920520EA220DF0D8FBD0
:107CD00038E05C21354813F07BF808B15C21E8E717
:107CE0003249EAE72F4B1B689A0418D52E4B1B68C4
:107CF000012B14DD2F212D4813F06AF820B32F211A
:107D00002A4813F065F8411C294B228CD3F804351E
:107D10000192294A00920220EF220DF0B1FB0021CE
:107D2000482202A812F080FF0D2302A923488DF8F3
:107D300008300AF08DFD10B1784608F09DFE20460F
:107D4000FFF712FF15B030BD5C21184813F040F862
:107D500008B15C21D4E71549D6E7124B1B689B0498
:107D6000F0D5114B1B68012BECDD2F210F4813F0D0
:107D70002FF870B12F210D4813F02AF8411C0C4B3D
:107D8000228CD3F8043501920D4A00920220F7228A
:107D90009CE75C21054813F01BF808B15C21EAE779
:107DA0000249ECE7602E00205C2E002053B6030051
:107DB0000010014046B3030060B30300EC33002021
:107DC00085B3030030B50D4693B0044610B978462C
:107DD00008F052FE48220021684612F025FF0723D2
:107DE000694606488DF800308DF804500AF030FDE1
:107DF000201FFFF7B9FE13B030BD00BFEC330020E9
:107E000070B50E4692B0054600B111B9784608F03B
:107E100033FE2B7D012B14D112AC0B2304F8483D0B
:107E20001022314601A812F0F4FE214606480AF05D
:107E30000FFD044610B9281FFFF796FE204612B02A
:107E400070BD0824FAE700BFEC33002010B592B0F3
:107E5000B0B1A9B10C208DF800000DF10600ADF80D
:107E6000042012F0D6FE694606480AF0F1FC0446EA
:107E700018B9054B1868FFF777FE204612B010BD01
:107E80000E24FAE7EC3300209034002008B505F00A
:107E9000C7FD30F0040304D07846BDE8084008F080
:107EA000EBBD08BDF0B5037E022B89B005460E463A
:107EB00025D0042B444B1B6861D19A0418D5434B41
:107EC0001B68042B14DD2F21414812F081FF00288C
:107ED0003FD02F213E4812F07BFF411C3D4B3E4AD4
:107EE000D3F804350092052040F28D220DF0C8FA37
:107EF000288806F015FB10B1784608F0BDFD7368C0
:107F00005B681B7873BB48F26002ADF810204FF637
:107F1000FF72ADF8122003AA059202240122ADF8E7
:107F200018208DF81A308DF81B400BF0E5FB2F461A
:107F30000323079004AA716837F8040B8DF80C30FE
:107F4000FFF7A4FF2B6938465B689847204609B0C5
:107F5000F0BD5C211E4812F03BFF08B15C21B9E77F
:107F60001B49BBE71D4B32791A702846012348F2A2
:107F7000630248F26101FFF79DFC0320E7E79B04E1
:107F800017D5124B1B68032B13DD2F21104812F05D
:107F90001FFF80B12F210E4812F01AFF411C0D4B1C
:107FA0000F4AD3F80435009204204FF42B720DF0E1
:107FB00067FA287ECBE75C21054812F009FF08B17B
:107FC0005C21E8E70249EAE7602E00205C2E0020F1
:107FD00053B603000010014012B60300A93300207D
:107FE00020B603002DE9F04188B048F26003ADF8F7
:107FF00010304FF6FF73ADF8123003AB0446059313
:108000000123ADF81830002702230E468DF81A70B0
:108010008DF81B300BF070FB257E0790022D0AD0E7
:10802000042D1ED18DF80C702088716804AAFFF70A
:108030002DFF207E12E08DF80C702746716837F80E
:10804000040BD1F8048004AAFFF720FF72682369AB
:1080500012891B68384641469847284608B0BDE853
:10806000F081154B1B689B0419D5144B1B68032B1F
:1080700015DD2F21124812F0ABFEA0B12F211048C0
:1080800012F0A6FE411C0F4B227ED3F8043501925C
:108090000D4A0092042040F267220DF0F1F901230D
:1080A0008DF80C30C0E75C21054812F091FE08B154
:1080B0005C21E4E70249E6E7602E00205C2E002008
:1080C00053B603000010014023B50300F0B54B6820
:1080D0005E68037E013B8BB004460F46032B7DD8C0
:1080E000DFE803F009090202008806F019FA10B16E
:1080F000784608F0C1FC48F26303ADF818304FF63B
:10810000FF73ADF81A3005AB002207930223ADF8D8
:1081100020308DF822208DF823300BF0EDFA254623
:10812000052309908DF8143006AA0123796835F8E3
:10813000040B8DF81530FFF7A9FE3378042B1AD8FD
:10814000DFE803F01203070707000721E06BFFF7E2
:1081500095F923697178DB68284698470421E06B1C
:10816000FFF78CF9012004E0236928469B689847B3
:1081700002200BB0F0BD23690221DB682846984736
:108180000421E06BFFF77AF92A4B1B689A04E9D5C2
:10819000294B1B68012BE5DD2F21284812F018FE22
:1081A00098B12F21254812F013FE411C244B227E4A
:1081B000D3F80435029232780192224A00920220CA
:1081C00040F225220DF05CF9CCE75C211B4812F04F
:1081D000FFFD08B15C21E5E71849E7E7154B1B688F
:1081E0009B041BD5144B1B68012B17DD2F21134853
:1081F00012F0EEFDA0B12F21104812F0E9FD411C54
:108200000F4B227ED3F804350292327801920E4A47
:108210000092022040F22B220DF032F9207EA8E7D6
:108220005C21064812F0D4FD08B15C21E4E7034963
:10823000E6E700BF602E00205C2E002053B603004E
:1082400000100140B8B40300DBB40300F0B58BB0FC
:1082500048F26D03ADF818304FF6FF73ADF81A30E1
:1082600002AB04460793002702230E46ADF82030E8
:108270008DF823308DF822700BF03EFA237E716862
:108280000990012B4D6815D12B7C20888DF8093081
:1082900006AA8DF80870FFF7F9FD0B238DF80C3056
:1082A0002B7C8DF814300495E36B03A89847207E4F
:1082B0000BB0F0BD194B1B689B0419D5184B1B68FC
:1082C000032B15DD2F21174812F082FDE0B12F217D
:1082D000144812F07DFD411C134B227ED3F8043567
:1082E0000192124A0092042040F253120DF0C8F895
:1082F00001238DF8083006AA2B7C716820888DF840
:108300000930FFF7C3FDD2E75C21064812F060FD9B
:1083100008B15C21DCE70349DEE700BF602E0020E6
:108320005C2E002053B6030000100140B6B60300D7
:108330002DE9F0410C469EB0154612B9784608F07A
:108340009BFB554B01AA03F1280E17461868596884
:10835000164603C6083373453246F7D11B8833806F
:10836000218812290AD108238DF830302389013B56
:108370009BB2402B14D91EB0BDE8F081002206202C
:1083800000FB02F3FE5A8E4230D11EAA134422890A
:1083900033F8721C9142EED113F8703C8DF83030F6
:1083A0001EAE4FF6FF7826F8788D2888314605F006
:1083B0005FFB00284DD1BDF80000404549D039464B
:1083C00007F074F9002844D1BDF80620E3899A42E9
:1083D0003FD10CA931480D940AF03AFA10B1784611
:1083E00008F04AFB2846FFF7BFFBC4E70132072A23
:1083F000C6D1C0E704238DF800300123ADF80C305E
:1084000000238DF80E300223ADF8042002968DF87B
:108410000F300BF071F93A46049021462888FFF797
:1084200035FDA8E705238DF8003048F26703ADF865
:10843000043002960123ADF80C30EAE706238DF8EC
:10844000003000238DF80130ADF80420029602239D
:10845000F1E74FF6FF73ADF80630238848F2630268
:10846000934288D00CD8112B06D3122B48F260020D
:10847000C0D993423FF47FAF784608F0FDFA7AE71F
:1084800048F26A018B42CDD048F26C018B42D5D0C4
:1084900048F26702EDE700BF1CB30300EC33002095
:1084A00030B50D4687B0044600282FD0002A2DD0C5
:1084B000174BC2631860174802238360164B036092
:1084C000482343600AF0AAF948F20403ADF80230E9
:1084D0004FF6FF73ADF80030104B02930723039360
:1084E000214600236846ADF804500494059305F036
:1084F000B1F948B92388A383094BA363094B63638C
:1085000001232376084B187007B030BD0E20FBE71F
:1085100090340020EC33002000340020BCB3030072
:10852000757C020000879303A833002030B5054610
:1085300093B0B0B1037E012B15D1482200216846CB
:1085400012F072FB0223694608488DF800300AF0E9
:108550007FF9044610B92846FFF706FB204613B002
:1085600030BD0E24FAE70824F8E700BFEC33002002
:1085700030B5054693B0B0B1037E012B15D148222A
:108580000021684612F050FB0323694608488DF825
:1085900000300AF05DF9044610B92846FFF7E4FA06
:1085A000204613B030BD0E24FAE70824F8E700BFD8
:1085B000EC33002010B5044610B9784608F05CFA98
:1085C00004232372014BE360201D10BDA8B30300F8
:1085D00000B5036993F80B2189B05AB1002283F8E2
:1085E0000B21022201938DF800208DF80810DB6822
:1085F0006846984709B05DF804FB10B5046994F823
:108600000B31012B88B010D18DF8003068460194F1
:10861000E368984704F1F50294F83111A06800F07E
:108620000BFB20B9032384F80B3108B010BDA06800
:10863000836802211B699847F7E71FB5044600F1DC
:10864000D50100F1A5036A4600F024FC6946A06844
:1086500000F029FB10B90F2384F80B3104B010BDD2
:1086600030B590F80C3189B00446032B3BD8DFE8D5
:1086700003F0312B1D0200F1C505294600F0DBFC9B
:1086800005238DF8003094F806318DF8093094F800
:1086900007318DF8083001940395102384F80B31CD
:1086A0006846E3689847002009B030BD06238DF87E
:1086B000003090F806318DF8093090F807318DF8C8
:1086C000083001900B23E9E707238DF80030019073
:1086D0000C23E3E710220021C53012F0A5FA204652
:1086E000FFF7ABFFE0E70320DEE710B588B00446F4
:1086F00000F01CFD88B10A2384F80B310B238DF8A0
:1087000000306369039304F11803029368460194EF
:10871000E3689847002008B010BD04F158012046D6
:1087200000F06EFC0028F6D12046FFF799FFF2E733
:1087300010B5046994F80B31062B88B01DD194F85C
:1087400008315BB108238DF80030092384F80B3120
:108750000194E3686846984708B010BD2169A06895
:1087600000F08EFA18B9082384F80B31F4E7A068FA
:10877000836802211B699847EEE7072BECD120465E
:10878000FFF7B3FFE8E70000F0B50D46A3B00469BA
:108790001146284600F042FA20B9A06883680221F9
:1087A0001B6902E12B78013B082BF6D801A252F895
:1087B00023F000BFD98702009B870200498802008E
:1087C0006988020079880200A58802009B87020060
:1087D0007F890200AF89020094F80B31032B31D15D
:1087E0000B22691C04F1F60012F013FA042384F83A
:1087F0000B3109238DF864306B788DF86C301A9446
:108800006A88130A43EA0223ADF86D302B798DF89C
:108810006F306B798DF87030AB798DF87130B5F8B9
:108820000720130A43EA0223ADF872306B7A8DF801
:1088300074306A89130A43EA0223ADF87530E3689D
:1088400019A8984723B0F0BD94F80B31082BF9D143
:108850004022691C04F1180012F0DBF92046FFF7F2
:1088600044FF0028EED098E794F80B31102BE9D1A3
:108870002046FFF7E2FEF4E794F80B310F2BE1D12D
:10888000691C102204F1E50012F0C3F904F1A501FE
:10889000A06800F01BFA00287FF47FAF112384F852
:1088A0000B31CFE794F80B31112BCBD11022691C7F
:1088B00004F1B50012F0ADF9204600F001FC0028EB
:1088C0003FF46BAF01AD05AE04F178032A463146A3
:1088D000204609AF00F03EFB0723102204F58C71FF
:1088E00038468DF8403012F094F9D4F82A311A0E37
:1088F000190242EA036201F47F011B0A0A4303F4EE
:108900007F431343B4F82E21CDF83730130A43EADE
:108910000223B4F82821ADF83B30130A43EA0223BE
:1089200094F83021ADF834309DF836301996C2F302
:10893000400161F3000362F341036FF387038DF895
:1089400036301923ADF870300DF141031F930DF14E
:108950005A03209300231D93ADF8783019A80823FB
:108960001A951B978DF884300BF075FF10A9A0683D
:1089700000F0BFF900287FF410AF13238FE794F8BD
:108980000B31132B7FF45EAF0A238DF8643004F1B2
:1089900078031B9304F58C731A941C93E36819A84D
:1089A0009847A06883681B69002198474AE70C2311
:1089B0008DF864306B781A948DF86C30E36819A8E0
:1089C0009847EAE670B5044690F80B010E46B8B930
:1089D000A5680C49E960194684F8090184F8312139
:1089E00004F58C70192212F014F9AB68064ADB68A2
:1089F00031462846984720B9012384F80B3170BDD1
:108A0000082070BD00B703000087930337B5044604
:108A100090F80B01042836D1102B32D863BB81BBF0
:108A2000022594F810018DF8005001294FF000053F
:108A300000F0010084F8072108BF2A4684F80C11D1
:108A400084F8063184F8080108BF2B468DF802002F
:108A50008DF803108DF80420694604F1F502A06832
:108A60008DF801508DF8053000F0FAF810B90623A2
:108A700084F80B3103B030BD19B1102BD0D00129CF
:108A8000CED10920F6E70820F4E738B5044694F87B
:108A90000B310B3B012B2AD8102A2AD894F8065107
:108AA000954226D104F1C50012F0B3F805F1C500D6
:108AB000C5F110020021204412F0B6F894F80B31F1
:108AC0000B2B04D02046BDE83840FFF7B6BD04F1BB
:108AD000C40304F1D50204F1CC0112F8015C58780A
:108AE00003F8015F8B4202F8010DF6D1EAE7082096
:108AF00038BD092038BD00790B79C31A5842584156
:108B0000704738B5049D88B181B17AB173B16DB148
:108B100090F80B4164B9C5600161426119460B22AE
:108B200000F20D1012F075F8204638BD0E2038BD49
:108B3000082038BD38B50D46044650B149B1064A43
:108B40000CF042FC30B92C612A79636813436360EE
:108B500038BD0E2038BD00BFF78A020000F0EAB928
:108B60002DE9F0410E4617461D469DF81880044633
:108B7000F0B1E9B1E3B11B8AB3F5805F02D30B20FA
:108B8000BDE8F081E88A0AF007FC0128F7D12068E7
:108B900048B9A06078B12B463A4631462046BDE838
:108BA000F041FFF70FBF03794345F2D00068EFE7CC
:108BB0000E20BDE8F0810620BDE8F08110B490F8E9
:108BC00009411CB95DF8044BFFF720BF08205DF890
:108BD000044B704790F809310BB9FFF756BF07F007
:108BE00045BE08B518B100F0F5F8002008BD0E200C
:108BF00008BD70B5044616460D4611B9784607F013
:108C00003BFF14B9784607F037FFA3683246294680
:108C100020461B68BDE870401847000048B1037843
:108C2000092B05D8034AD05C431A58425841704773
:108C30000020704710B7030013B5002304468DF8D9
:108C4000051010460DF1050101228DF8043011F0D8
:108C5000E0FF022201A92046FFF7CBFF02B010BDC2
:108C600038B505460C4602F10C000131052211F021
:108C7000D0FF214628460622BDE83840FFF7B9BF9D
:108C800030B593B012AC032304F8443D05464022AE
:108C90000DF1050011F0BDFF412221462846FFF7E6
:108CA000A8FF13B030BD30B587B006AC052304F87B
:108CB000143D054610220DEB030011F0AAFF11220E
:108CC00021462846FFF795FF07B030BD30B587B085
:108CD00006AC062304F8143D054610220DF10500EC
:108CE00011F097FF112221462846FFF782FF07B0B7
:108CF00030BD2222FFF77DBF70B506468AB014460C
:108D00000D4609B3084612F05BF86A4681B2284660
:108D10000BF003FE042269460DF1220011F079FFE9
:108D2000162564BAADF8204007F0D4FE10220146A3
:108D30000DEB020011F06DFF2B4604AA0021304616
:108D40000DF0E2FA0AB070BD1225EAE7F0B50F4661
:108D500089B01446064610B9784607F08DFE14B95E
:108D6000784607F089FE07F0FB03122B25D1184D3A
:108D70002A6812B320220021684611F055FF102204
:108D8000314601A8079411F044FF23785A1E53423C
:108D900053410021162F8DF814308DF800100ED19C
:108DA0000123042206F112010DF116008DF8153091
:108DB00011F02FFF2B686846984709B0F0BD0422D8
:108DC0000DF116008DF8151011F02EFFF2E700BF1F
:108DD0009434002010B5044610B9784607F04CFED4
:108DE000014B1C6010BD00BF943400200B4682B0C4
:108DF0000449019001EB10410122184602B011F024
:108E000008BF00BF9832002007B5054B0190012232
:108E100003EB104011F0FDFE002003B05DF804FBF1
:108E20009832002037B50D46042104460DEB0100B1
:108E30000AF0B3FF094B019953F82520B1FBF2F377
:108E400002FB131304221BBA0DEB020104F10C0008
:108E5000019311F0DEFE03B030BD00BF44B7030044
:108E600073B505460A4E68460C460AF096FF002385
:108E70002421A34201D302B070BD1DF80300B0FB52
:108E8000F1F201FB1202D2B2B25CEA540133F0E714
:108E90001EB703002DE9F0410446ACB00F469046E2
:108EA00000F1F501112207A81E4611F0B2FE94F858
:108EB000093104F11805402293BB21690DF12D0001
:108EC00011F0A7FE402229460DF16D0011F0A1FE20
:108ED0003A4607A891210BF020FD03AD04233A4642
:108EE000009304F15800124B019520210BF02BFD4B
:108EF000304610210AF051FF3146102207A811F028
:108F000088FE04F1C50110220BA811F082FE434631
:108F1000202207A928460BF09CFC2CB0BDE8F0816C
:108F200029460DF12D0011F074FE40222169CBE796
:108F300068B7030038B504460D4611F08DFB29468D
:108F40000246204611F08CFB012814BF03200020AC
:108F500038BD00002DE9F043044697B0894690469D
:108F600000F1D50110220AA81F4611F052FE94F814
:108F7000093104F1A50504F1B5061022002B32D108
:108F800029460EA811F045FE1022314612A811F014
:108F900040FE5834042502AA0AA830210BF0BDFC7B
:108FA00002AA2046CDF804900095124B20210BF028
:108FB000CAFC06AB019302AA0F4B00952046202164
:108FC0000BF0C1FC0DF11B010D22404611F021FEFA
:108FD0008DE8A000094B02AA202120460BF0B3FC2B
:108FE00017B0BDE8F08331460EA811F012FE102232
:108FF0002946CBE76DB7030072B7030077B70300CC
:1090000070B50E4600F11804054611F025FB014627
:10901000204611F006FC08B9032070BD6D6911F0FF
:109020001BFB324603462946204611F059FB002817
:10903000F2D0002070BD37B590F80631013B072B08
:1090400004460D4602D9784607F016FD102200218D
:10905000284611F0E9FD94F80C31022B03D0032BC4
:109060000AD003B030BD94F80731042BF9D8DFE8FB
:1090700003F00B0B0B1B210094F80731032BF0D8E6
:10908000DFE803F00202121801210DF1070094F845
:1090900006410AF082FE9DF80720B2FBF4F304FBC0
:1090A00013230133EB73DCE794F806112846FFF72E
:1090B000B9FED6E794F806112846FFF7D1FED0E7AF
:1090C00030B593B002AD04230446009300F1D502FD
:1090D000114B0195202158300BF035FC04F1B501FE
:1090E00010220AA811F095FD04F1C50110220EA866
:1090F00011F08FFD06AB0AA9284620220BF0A9FB30
:10910000102204F1E50106A811F074FDB0FA80F018
:10911000400913B030BD00BF68B70300024B0146E1
:1091200018680EF037B900BF1AB7030007B50DF184
:109130000700FFF7F3FF10B1784607F09DFC9DF89C
:10914000070003B05DF804FBD1F8B83108461B698D
:10915000012100F5D8701847F8B5114D2B68064667
:1091600013B9784607F088FCEFF3108772B62C68C5
:10917000B4420BD1D6F8C4312B6007B962B6F8BD42
:1091800013B9784607F078FCD4F8C441D4F8C43158
:109190009E42F5D1D6F8C431C4F8C431EDE700BF22
:1091A0009C34002070B590F8A130023B022B04469D
:1091B0000D4602D9784607F05FFC2046FFF7CCFF4A
:1091C00094F8A030012B02D0784607F055FC2046D9
:1091D0000EF019FF002384F8A03084F8E03084F802
:1091E000A13004F1C0000AF07DFCD4F8BC3129465E
:1091F00004F5D870DB68BDE87040184710B5044628
:1092000010B9784607F038FCA4F5D87494F8A1306A
:10921000012B09D12046FFF79FFF20460EF0F3FEF9
:10922000002084F8A10010BD082010BD2DE9F041F8
:109230008846911C064615461F460EF029FE044638
:1092400000B36B1C4374292383742A4641461330B0
:1092500011F0DFFC2771EFF3108772B6D6F8A85132
:1092600001356B1CC6F8A85102D1784607F004FC02
:1092700007B962B63046256021460EF044FE002054
:10928000BDE8F0810420BDE8F0812DE9F04190F8BF
:10929000E030022B88B0044602D0784607F0ECFBA1
:1092A00094F8E330002B42D194F8A130032B02D084
:1092B000784607F0E1FB94F8E030022B02D07846C4
:1092C00007F0DAFBD4F89C2094F8E13012BA00924F
:1092D00094F8A3208DF804209DF8052002F0FC02EC
:1092E000142B03F102014FF01700B1FBF0F161F311
:1092F00087021D468DF8052028BF142594F8E2202A
:109300008DF808201B022A4604F1E4010DF1090042
:10931000ADF8063011F07DFC012305F10902694624
:109320002046FFF783FF80B9012384F8E33094F8E7
:10933000E3501726022794F8E18008F10203B3FBFB
:10934000F6F30133DBB29D4202D308B0BDE8F081F1
:109350006B1E03EB4301C3EBC101D4F89C30143105
:1093600089B21BBAA8EB0108009394F8A3308DF8DA
:1093700004301FFA88F89DF80530B8F1170F28BFA0
:109380004FF0170867F30103E43165F387034246A2
:1093900021440DF106008DF8053011F03AFC01234F
:1093A00008F1060269462046FFF740FF0028CCD1AD
:1093B00094F8E330013384F8E3300135BBE700B5BE
:1093C000D0F89C3089B01BBA009300238DF804308C
:1093D0009DF805308DF80610022243F0030362F376
:1093E00087038DF80530072204236946FFF71EFF27
:1093F00009B05DF804FB38B50D46044610B978464F
:1094000007F03AFB022D02D9784607F035FBA4F5A8
:10941000D87494F8A13013F0FB0F16D0023B012B47
:1094200002D9784607F028FB29462046FFF7C7FFF8
:1094300028B9042384F8A13084F8A45038BD294603
:109440002046BDE83840FFF7ADBE38BD00B5D0F8C6
:109450009C3089B01BBA00938DF8041001230622BA
:1094600069468DF80530FFF7E1FE09B05DF804FBB1
:1094700000B589B0D0F89C309DF805201BBA009348
:1094800000238DF8043042F00302012363F38702C6
:109490008DF8052069460622FFF7C8FE09B05DF881
:1094A00004FB10B504460AF069FBD4F8DC10014453
:1094B00004F1C000BDE810400AF02BBB0023C0F847
:1094C000CC3080F8E03080F8A33080F8A23080F80B
:1094D000A130C0F8A83190F8A030C0F8DC10012B02
:1094E000024612D0012380F8A030084BC0F8B030FB
:1094F000074BC2F8B8000749C0F8C830C2F8D0001E
:10950000802300F594720EF0A9BD704735950200D6
:109510004991020019950200D0F8A8318B4206D17A
:10952000012380F8AC31024B18680BF065B8704726
:10953000A42D002037B591F8A130032B05460C4629
:109540004ED191F8E030022B4AD1D1F8D8301B1A15
:10955000002B14DA01212046FFF731FF48B904231C
:1095600084F8A130012384F8A430C4F8B40003B017
:1095700030BD1D4BC4F8B430C4F8D850F7E71B4BCE
:109580001B681B071AD51A4B1B68042B16DD2F21ED
:10959000184811F01DFCD0B12F21164811F018FC0D
:1095A000411C154B94F8E420D3F804350192134A7A
:1095B0000092052040F2AD320BF062FF00232046FE
:1095C00084F8E33003B0BDE83040FFF75EBE5C21B5
:1095D000084811F0FDFB08B15C21DEE70549E0E732
:1095E0000023C4F8B430C2E740420F00602E0020D0
:1095F0005C2E00202ABB0300001001404DBB03007D
:1096000013B50446EFF3108372B6174A1168C0F819
:10961000C411106003B962B6144B1B681B0718D540
:10962000134B1B68032B14DD2F21124811F0D0FBC4
:1096300088B12F210F4811F0CBFB411C0E4B0F4A74
:10964000D3F80435009201944FF4C17204200BF05A
:1096500017FF02B010BD5C21064811F0B9FB08B13C
:109660005C21E7E70349E9E79C340020602E0020F5
:109670005C2E00202ABB0300001001407CB70300D1
:10968000F0B50E4689B01746054610B9784607F082
:10969000F3F9A5F5D87494F8A030012B02D194F811
:1096A000A130CBBBA5F58A7539462046FFF706FFEA
:1096B000284604210AF071FB0022802384F8A320AD
:1096C00084F8A2302B688DF804201BBA00939DF813
:1096D000053043F0030362F38703314610220DF196
:1096E00006008DF8053011F094FA0423162269461D
:1096F0002046FFF79BFD054658B92046FFF7D1FEEF
:1097000020460EF0ABFB2046FFF77AFF022384F8D9
:10971000A130284609B0F0BD0825FAE7F8B50D4696
:1097200016461F46044610B9784607F0A5F9A4F579
:10973000D87494F8A030012B02D194F8A13073BBF7
:1097400039462046FFF7BAFE0023802284F8A32082
:109750002946C4F89C3084F8A23032462046FFF7F0
:10976000CBFA054610B9784607F086F9FF232B712E
:109770004FF0FF332B6020464FF4FA610EF019FCD6
:10978000294620460EF0BFFB20460EF067FB204620
:10979000FFF736FF012384F8A1300020F8BD082030
:1097A000F8BD000038B5124B1C6800250CB901202B
:1097B00038BD94F8AC3193B194F8A13084F8AC5131
:1097C000042B94F8E0300DD1022B03D104F1A80052
:1097D0000AF088F994F8A4102046FFF7E3FCD4F8C7
:1097E000C441E3E7022BFAD12046FFF74EFDF6E72E
:1097F0009C34002030B5074D0246FF23141AA142C5
:1098000002DCD843C0B230BD12F8014B6340EB5CC0
:10981000F4E700BFA8B703002DE9F843A0F5D8741A
:10982000804694F8A130032B0F46164640D1412ABA
:1098300041D810F8D05C002D40D12046FFF731FE12
:109840000AF09CF9B11C1723B1FBF3F10131CBB243
:10985000216F594301F5F4111A4B01F5906148F855
:10986000FC1C8146C4F8B0300144A8F584700AF0AD
:1098700050F9154B4B4448F8D83C022384F8E030AB
:109880003146C4F8B84084F8E35084F8E1603846C3
:10989000FFF7B0FF324684F8E2003946A8F1CC0069
:1098A00011F0B7F92046FFF7F0FC2846BDE8F88331
:1098B0000820BDE8F8830920BDE8F8831120BDE841
:1098C000F88300BF3595020080C3C9012DE9F0413E
:1098D0000B78012B92B005460C46164602D078460E
:1098E00007F0CAF804F1040861784046FFF782FFE8
:1098F000A37883421ED195F8A2102846002701368E
:10990000FFF7A4FDE77085F8A2606678414632460D
:1099100001A811F07EF928462770FFF7C2FDD5F89F
:10992000BC3132461B6801A905F5D870984712B0C2
:10993000BDE8F08100232370F9E7000038B5044644
:1099400010B9784607F098F8084D2B68013303D119
:1099500007480AF033FE2860012384F8B431054B30
:10996000C4F8B83104F5D87038BD00BFA42D00206C
:10997000A5970200A8B803002DE9FF4188461446C8
:10998000054610B9784607F077F814B9784607F01D
:1099900073F82B681A0E190242EA036201F47F0180
:1099A0001B0A0A4303F47F431343EFF3108172B69B
:1099B000944E34686CB901B962B6687900F003035B
:1099C000032B00F2EE80DFE813F00B002F01A7015C
:1099D0003202D4F89C209342EDD0D4F8C441E9E798
:1099E000002C00F0DE8094F8A130032B40F0D980E9
:1099F00094F8E030002B63D12A7994F8A2309A428F
:109A000032D3EB881B0A84F8E13017220233B3FB10
:109A1000F2F30133DBB2072B07D9022104F5D8702A
:109A200004B0BDE8F041FFF7E6BC2B7A84F8E230E1
:109A3000A8F10908012384F8E03084F8E3304246B5
:109A400005F1090104F1E40011F0E3F894F8E130C4
:109A5000984540F0A6802A7904F1E001204604B040
:109A6000BDE8F041FFF732BF674B1B681A0717D5F7
:109A7000664B1B68042B13DD2F21654811F0A8F9F4
:109A8000A8B12F21624811F0A3F9411C614B624A31
:109A9000D3F80435009240F2BB2205200BF0F0FC15
:109AA0002979204604B0BDE8F041FFF7CFBC5C2126
:109AB000574811F08DF908B15C21E3E75449E5E717
:109AC000022B514B79D1297994F8A2201B6891423D
:109AD00020D21B07E4D54D4B1B68042BE0DD2F2162
:109AE0004B4811F075F960B12F21494811F070F918
:109AF000411C484B484AD3F80435009240F2C72233
:109B0000CBE75C21424811F063F908B15C21ECE736
:109B10003F49EEE726D91F0743D53C4B1B68012B75
:109B20003FDD2F213A4811F053F990B12F213848E9
:109B300011F04EF9411C374B94F8A220D3F80435AC
:109B400002922A790192354A00924FF43372022030
:109B500025E05C212E4811F03BF908B15C21E6E7D5
:109B60002B49E8E71E071CD5284B1B68042B18DD82
:109B70002F21274811F02CF9B0B12F21244811F0E2
:109B800027F9411C234B94F8A220D3F80435029204
:109B90002A790192224A009205204FF434720BF088
:109BA0006FFC04B0BDE8F0815C21194811F010F998
:109BB00008B15C21E2E71649E4E71B681C07F0D511
:109BC000124B1B68012BECDD2F21114811F000F91D
:109BD00078B12F210E4811F0FBF8411C0D4B114AB2
:109BE000D3F80435009240F2D52202200BF048FC55
:109BF000D7E75C21064811F0EBF808B15C21E9E7F2
:109C00000349EBE79C340020602E00205C2E0020EE
:109C10002ABB030000100140BCB803000CB90300CC
:109C200056B903008FB90300002CBAD094F8A130C4
:109C3000032BB6D194F8E030022BAF4B48D12979F1
:109C400094F8A320914243D11B6818071AD5AB4B57
:109C50001B68032B16DD2F21A94811F0B9F870B34A
:109C60002F21A74811F0B4F8411CA64B94F8E4202A
:109C7000D3F804350192A44A009204204FF44472B0
:109C80000BF0FEFB002504F1A800C4F8B45009F065
:109C900029FF20460EF0B7F994F8A33084F8E0507D
:109CA000013384F8A3302046FFF7FBFBD4F8BC3126
:109CB0005B6804F5D87004B0BDE8F04118475C213A
:109CC0008F4811F085F808B15C21CAE78C49CCE7D0
:109CD0001B6819077FF565AF884B1B68012B7FF761
:109CE00060AF2F21864811F073F860B12F218448AE
:109CF00011F06EF8411C834B844AD3F8043500926E
:109D000040F2223271E75C217D4811F061F808B120
:109D10005C21ECE77A49EEE7002C3FF442AF94F87F
:109D2000A130032B7FF43DAF94F8E060297994F8DB
:109D3000A230012E4CD1994225D194F8E33080080D
:109D40000341DA073FF52DAF1727013807FB004025
:109D5000A8F10602A91DF83010F05BFF6B7994F8AA
:109D6000E3209B0806FA03F3134394F8E120023240
:109D7000B2FBF7F70137DBB2FFB284F8E330BE4045
:109D80000133B34265E65C4B1B681B077FF509AFE7
:109D90005A4B1B68012B7FF704AF2F21584811F055
:109DA00017F860B12F21564811F012F8411C554B9D
:109DB000574AD3F80435009240F2FA2215E75C21A5
:109DC0004F4811F005F808B15C21ECE74C49EEE78B
:109DD0009942FFF466AE7FF6E4AE474B1B681F075F
:109DE0007FF5DFAE454B1B68012B7FF7DAAE2F21E5
:109DF000434810F0EDFF88B12F21414810F0E8FFF3
:109E0000411C404B94F8A220D3F8043502922A79E1
:109E10000192404A009240F2063298E65C213848AE
:109E200010F0D6FF08B15C21E7E73549E9E7800883
:109E3000012873D023D3022800F0D1802E4B1B6859
:109E40001B077FF5AEAE2D4B1B68012B7FF7A9AE2C
:109E50002F212B4810F0BCFF002800F025812F2176
:109E6000274810F0B5FF411C6A79264B9208D3F8B9
:109E700004350192284A00924FF46172A2E0B8F1D1
:109E8000160F7FF48EAE06F025FE10220146A81DA7
:109E900010F0B0FE00287FF484AE002C40F0128158
:109EA000EFF3108372B634681CB9002B00F0068102
:109EB00077E694F8A120012A00F0FF80D4F8C4418D
:109EC000F2E75C210E4810F083FF08B15C2126E127
:109ED0000B4928E10023C4F89C3062E6032B7FF491
:109EE00060AE94F8E030002B7FF45BAE204604B007
:109EF000BDE8F041FFF7BCBA602E00205C2E0020C8
:109F00002ABB030000100140C1B90300DCB9030003
:109F1000FCB903002DBA030003BB0300002C3FF47F
:109F200040AEB8F1060F7FF43CAE94F8A130884DF6
:109F3000022B2AD120460EF066F8142120460EF09E
:109F400038F82B681D0740F1F880824B1B68032B03
:109F500040F3F3802F21804810F03AFF60B12F21A9
:109F60007D4810F035FF411C7C4B7D4AD3F8043509
:109F700000924FF45872DDE05C21774810F028FF22
:109F800008B15C21ECE77449EEE72B6818077FF510
:109F900008AE704B1B68012B7FF703AE2F216E4874
:109FA00010F016FF90B12F216B4810F011FF411CEB
:109FB0006A4B94F8A120D3F804350192694A0092C3
:109FC0004FF45A7202200BF05BFAEAE55C2162481A
:109FD00010F0FEFE08B15C21E6E75F49E8E7002CDF
:109FE0003FF4DFADB8F1070F7FF4DBAD94F8A1309B
:109FF000574E023B012B30D894F8E030022B03D1AE
:10A0000004F1A80009F06EFDA9792046FFF7CAF80F
:10A01000336819077FF5C5AD4E4B1B68032B7FF7DF
:10A02000C0AD2F214C4810F0D3FE68B12F214A4813
:10A0300010F0CEFE411C494B4B4AD3F80435009238
:10A04000042040F27A32D1E55C21434810F0C0FE92
:10A0500008B15C21EBE74049EDE733681A077FF56B
:10A06000A0AD3C4B1B68012B7FF79BAD2F213A48DD
:10A0700010F0AEFE78B12F21374810F0A9FE411C38
:10A08000364B94F8A120D3F804350192374A009258
:10A0900040F27F3296E75C212F4810F099FE08B11C
:10A0A0005C21E9E72C49EBE75C212B4810F090FE9E
:10A0B00008B15C21D4E62849D6E61BB962B6002C6B
:10A0C0003FF46FAD94F8A130012B7FF407AF2B68FC
:10A0D0001A0E190242EA036201F47F011B0A0A43C5
:10A0E00003F47F4313432046C4F89C3014210DF041
:10A0F00060FF2046FFF7BCF900287FF4EBAE144B5D
:10A100001B681E0719D5134B1B68032B15DD2F2168
:10A11000114810F05DFE00283FF4D3AE2F210E4809
:10A1200010F056FE411C0D4B0D4AD3F80435009239
:10A1300040F2433204200BF0A3F9032384F8A1304A
:10A140002046FFF7AEF9D4F8BC319B68B1E500BFFB
:10A15000602E00205C2E00202ABB0300001001406E
:10A1600073BA030089BA0300BABA0300D0BA030075
:10A170002DE9F04F0C4689B0064600B111B978467A
:10A1800006F07AFC2388192B02D8784606F074FC76
:10A190004FF6FF73ADF8143028230025ADF81A30C0
:10A1A00005A901230A223046ADF81C30ADF8025053
:10A1B000ADF81650ADF8185010F02BFD0A2323808F
:10A1C0000DF10601284603F0C7FE10B1784606F0EF
:10A1D00053FC0DF10701002003F0CAFE10B17846D0
:10A1E00006F04AFC9DF806309DF80720D3422FD098
:10A1F00001A9002003F0A4FE002879D108AA0323B6
:10A200000DF10C0822F81E3D4146002003F0F8FE37
:10A21000002869D1208804220DEB0201304410F09F
:10A22000F8FC25889DF806300435ADB2258093BB37
:10A230009DF8073063B12388BDF8029000271E44C3
:10A240003D464FF6FF7A4F4505D323881D442580B0
:10A2500009B0BDE8F08F02A938F8170003F094FEAA
:10A26000A8B9BDF80830534501D10137EBE7022208
:10A2700002A9701910F0CDFCA81C02220DF10A01F0
:10A2800016FA80F0043510F0C4FCADB2EDE7784664
:10A2900006F0F2FBE5E70027BDF802A0B9464FF64D
:10A2A000FF7B574503D323884B442380C0E702A993
:10A2B00038F8170003F068FE90B9BDF808305B4528
:10A2C00001D00137EDE709EB050002220DF10A018B
:10A2D000304410F09EFC09F102031FFA83F9F0E705
:10A2E000784606F0C9FBE8E7784606F0C5FB91E73B
:10A2F000784606F0C1FB81E7024B1B6803B11847A3
:10A30000704700BFA034002013B5044601A805F033
:10A3100051F9BDF80430A34206D814BF4FF0FF3006
:10A32000002080B202B010BD4FF6FF70FAE737B5DB
:10A3300004460CF0EDFB0546002301A8009305F050
:10A3400039F96946288A05F0F3FD30B9009B63604E
:10A35000BDF80430238003B030BD0520FBE71FB5F6
:10A360000193BDF81830ADF808300023ADF8002097
:10A370008DF80A304FF6FF720223ADF802208DF8F7
:10A380000B306A46079B039303F04AFB05B05DF868
:10A3900004FB7FB505460E46002003A98DF8080092
:10A3A0000DF05AFB10B1784606F066FB9DF80D30B3
:10A3B0009DF80820013B0A2104AC63F30202BDF8BA
:10A3C0000E30B3FBF1F3013B63F3C70204F8082D31
:10A3D00009F092F901230190009348F225022346E7
:10A3E00031462846FFF7BBFF04B070BD7FB50B892F
:10A3F000012B06460D4631D14C688DF80430237888
:10A40000C3F3020301338DF805302378DA080A23F9
:10A4100002FB0333142BB8BF142301A90020ADF8AD
:10A4200006300DF007FB10B1784606F025FB3046EC
:10A430002946FFF7AEFF00230393029311238DF803
:10A4400008302378C3F302038DF80C30237802A878
:10A45000C3F3C4038DF80D30FFF74EFF04B070BD99
:10A460000B890BB9FFF795BF7047000037B504465D
:10A470000D4609F041F9084B1860084B01221A708B
:10A4800000230190009348F24A0229462046FFF734
:10A4900066FF03B030BD00BFA8340020A434002004
:10A4A00030B585B004460D468DF80C20ADF80D3062
:10A4B00009F022F903230190009348F2440203AB10
:10A4C00029462046FFF74BFF05B030BD30B585B0BB
:10A4D00004460D46002303A90120ADF808300DF015
:10A4E000BBFA10B1784606F0C7FA9DF80C308DF82B
:10A4F00008309DF80D309DF80920013B63F30202FE
:10A50000BDF80E308DF80920142B15D1D2B212F0FF
:10A51000070111D161F3C7028DF8092009F0ECF8A9
:10A5200002230190009348F2280202AB29462046FC
:10A53000FFF715FF05B030BD0A22B3FBF2F39DF81B
:10A540000920013B63F3C702E6E77FB50B89022BC5
:10A5500005460E463ED14C682378012B3AD803F0CD
:10A5600001038DF804306378C3F3020301338DF8DF
:10A570000530637883BB1423ADF80630BDF8063090
:10A58000142B38BF142301A90120ADF806300DF0BB
:10A5900051FA10B1784606F06FFA28463146FFF7B7
:10A5A00095FF00230393029312238DF8083023783C
:10A5B0005A1E534253418DF80C306378C3F30203A3
:10A5C0008DF80D30637802A8C3F3C4038DF80E3004
:10A5D000FFF792FE04B070BDDB08013303EB830389
:10A5E0005B00C9E70B890BB9FFF770BF704770B507
:10A5F00086B00D46ADF80F309DF82C30ADF80D202B
:10A6000000218B4204460A988DF80C1014BF0726CF
:10A610000926CDF8110009F06FF80096019003AB00
:10A6200048F21F0229462046FFF799FE06B070BD8A
:10A6300030B587B00446039306AB8DF8142033F889
:10A640000C2DADF815209B788DF817300D4609F0CC
:10A6500053F804230190009348F2030205AB294606
:10A660002046FFF77CFE07B030BD2DE9F0430B8993
:10A67000022B85B081460C464DD14B681E88C6F32F
:10A680000B0005F0B9F8A38C834207461BD1334673
:10A690000C2221464846FFF703FF3CE038F815003E
:10A6A00005F0BEF828F815000135029B9D42F5D350
:10A6B00018E038F8150003F015FD10B1784606F0E3
:10A6C000DBF9013513E04FF6FF73984212D00DF11C
:10A6D0000408012302AA4146029305F0A1FB0546A6
:10A6E0000028E2D0384605F059FB0546B0B9029B78
:10A6F0009D42DED33346484600222146FFF7D0FE76
:10A7000000230293039302A819238DF80830ADF8B3
:10A710000C70FFF7F1FD05B0BDE8F0830F28B6D04F
:10A7200033460422B5E70000F0B50B89122B85B043
:10A7300007460D4625D14E680A88344648F2400344
:10A7400034F8020B9A42C0F30B001CD121460DF1E4
:10A75000060205F0DDF8182304460F2C8DF80830AA
:10A76000BDF80630ADF80C3096BF0C4B10221A5DC8
:10A77000338829463846FFF793FE14B902A8FFF73D
:10A78000BBFD05B0F0BD05F037F82146ADF8060079
:10A7900005F010F91A230446DFE700BF61BB030090
:10A7A0002DE9F0431F460B8847F6E57843449BB2FA
:10A7B000102B87B005460C46164656D84FF00109B7
:10A7C00009FA03F313F0EF011BD113F4803060D1C9
:10A7D0005B044AD50146052203A810F025FA6368F8
:10A7E0008DF80C701A88ADF80D205B88ADF80F302D
:10A7F00008F082FF05230093019003AB48F22A0280
:10A800002FE00922002103A810F00EFA23888DF80A
:10A810000C7043449BB2072B0AD809FA03F313F0D8
:10A820000B0F09D113F004022DD113F0E00F1FD14B
:10A83000784606F021F909E063681A88ADF80D2022
:10A840005A88ADF80F205B68CDF81130002E14BF88
:10A850000726092608F050FF0096019003AB48F246
:10A860001F0221462846FFF77AFD07B0BDE8F083B6
:10A87000636833F8121BADF80D108DF80F208DF8BA
:10A8800010201B68E0E7636833F8022BADF80D2059
:10A89000F7E7072203A810F0C7F963688DF80C707A
:10A8A0001A88ADF80D209A88ADF811205B88ADF8B4
:10A8B0000F3008F021FF07230093019003AB48F20B
:10A8C0002C02CEE77FB504AA032322F80A3D02A991
:10A8D000064603F0D1F9062825D010B1784606F0D7
:10A8E000CBF80025BDF80620ABB29A4202D8002072
:10A8F00004B070BDACB2640004AB2344304633F8FE
:10A90000081C03F089F910B1784606F0B5F804ABDD
:10A910001C4434F8080C04F0F7FE10B1784606F039
:10A92000ABF80135DEE70820E2E72DE9F0438DB012
:10A930001C46154606460F46092200210DF125004A
:10A9400010F072F900230DF10B0120468DF8203034
:10A95000ADF8215003F0ACFA10B1784606F08CF84F
:10A960009DF826309DF80B2062F304136FF3471314
:10A9700005A920468DF8263003F006FB10B1784675
:10A9800006F07AF8BDF814504FF6FF739D420DF1B2
:10A990000E01BDF8163008BFADF82A3020461CBFA6
:10A9A000ADF82C30ADF82A5003F062F810B17846BB
:10A9B00006F062F8BDF80E004FF6FF73984218D10A
:10A9C00000238DF823308DF824304FF6FF739D421D
:10A9D0000CBF0C250E2508F08FFE0095019008ABEA
:10A9E00048F2190239463046FFF7B9FC0DB0BDE810
:10A9F000F08306A904F05AFE10B1784606F03CF840
:10AA0000BDF81A30ADF8233004A9204603F00EFA41
:10AA100005288046D4D0002846D10DF11201BDF89A
:10AA2000100004F011FF0528814604D18DF8238021
:10AA30008DF82480C9E70028C7D19DF812308DF821
:10AA400025309DF8133003F00F029DF8263023F0D7
:10AA50000F0313430DF1270120468DF8263003F034
:10AA60005BFA0122494603A810F0DEF80DF10D0251
:10AA700003A9204603F082F89DF80C209DF80D30C4
:10AA800002A943EA821320468DF8283003F02AF801
:10AA90009DF808209DF8293062F30203D20862F382
:10AAA000C7038DF8293090E7784605F0E5FF8CE77D
:10AAB000F0B50B89032B87B007460C4619D14D68BA
:10AAC00004238DF80C302B88ADF80D3000238DF861
:10AAD0000F302888C0F30B0004F08EFE0DF10B013F
:10AAE000064604F051FFD0B9AB78022B03D0032BFC
:10AAF00032D007B0F0BD9DF80B305A1E012AF8D8AD
:10AB0000012B06D1304604F0A7FF10B1784605F0BE
:10AB1000B3FF00238DF80C3002238DF80F3008F0BE
:10AB2000EBFD04230190009348F2170203AB21468A
:10AB30003846FFF714FC9DF80C30002BD9D1049354
:10AB4000059308238DF8103004A89DF80F308DF878
:10AB50001430FFF7D1FBCCE79DF80B30032BC8D0A6
:10AB600033B1304604F0A0FF10B1784605F084FF01
:10AB700000238DF80C30D0E770B50D89012D86B01B
:10AB800006460C461ED14B6818788DF80F0003F06E
:10AB900061F9B8B90523049005908DF8103004A828
:10ABA0009DF80F308DF81430FFF7A6FB08F0A4FDD8
:10ABB000009501900DF10F0348F20E022146304638
:10ABC000FFF7CDFB06B070BD7FB50E4605460CF015
:10ABD00077F904AC04F8040D08F08EFD0123019010
:10ABE000009348F20B02234631462846FFF7B7FB95
:10ABF00004B070BD0B890BB9FFF7E6BF70472DE9B4
:10AC0000F04F0E468DB0D1F804A005900BF080FFF8
:10AC10003389092B05465AD1BAF800909AF8027088
:10AC20001FFA89F82FB1112F54D87B1E012000FA8A
:10AC300003F79AF8034044B1112C9DBF04F1FF348F
:10AC4000012000FA04F44FF0FF34BAF80530049301
:10AC5000BAF807300293BDF808009AF804B004F07F
:10AC6000CBFD4FF6FF7E70453CD104238DF8243098
:10AC7000BAF80030ADF825309AF803308DF8283056
:10AC80009AF802308DF827309AF804308DF8293080
:10AC9000BAF8053003F00F03ADF82A30BAF80730E0
:10ACA000ADF82C3008F028FD0A230190009306220D
:10ACB00009AB31460598FFF752FB9DF8243033B9B4
:10ACC000142307A88DF81C300895FFF715FB0DB06D
:10ACD000BDE8F08FFF2F4FF6FF730CBF1F464FF0FC
:10ACE000FF37A6E7404608F057FB022805D0B4F529
:10ACF000803F02D81BF0800F01D00F23B6E7A5F8E4
:10AD00000090B8F1000F10D1C5F80480C5F8088094
:10AD100085F80C80049B03F00F07BDF808302B82E8
:10AD2000EF810BF0F9FE0023A0E76F60AC6085F8BF
:10AD30000CB0EFE737B50378012B03D00D2B1DD0F6
:10AD400003B030BD154B42681B689A42F8D1144CD1
:10AD50002378012BF4D1FCF769F80BF007F950B117
:10AD600000251C236846009501958DF80030FFF7FB
:10AD7000C3FA2570E4E702232370E1E7084D2B783E
:10AD8000022BDDD100241C236846009401948DF829
:10AD90000030FFF7B1FA2C70D2E700BFA8340020D2
:10ADA000A434002030B50B89032B85B005460C4632
:10ADB00015D14B6800228DF80C201B88ADF80D30A2
:10ADC00002238DF80F3008F097FC042301900093C4
:10ADD00048F2480203AB21462846FFF7C0FA05B007
:10ADE00030BD30B50B89022B85B005460C4614D119
:10ADF0004A6800218DF80C101288ADF80D208DF8EE
:10AE00000F3008F079FC04230190009348F24802C7
:10AE100003AB21462846FFF7A2FA05B030BD7FB547
:10AE200004AC022304F8043D05460E4608F064FC19
:10AE300001230190009348F214022346314628462C
:10AE4000FFF78DFA04B070BD0A89012A05D14B685D
:10AE50001B78012B01D8FFF7E2BF70470B890BB9B4
:10AE6000FFF7DDBF70477FB504AC022304F8043D53
:10AE700005460E4608F040FC01230190009348F27D
:10AE80001102234631462846FFF769FA04B070BD27
:10AE90000A89012A05D14B681B78012B01D8FFF7DD
:10AEA000E2BF70470B890BB9FFF7DDBF704770B584
:10AEB0000B8986B006460D46FBB906A9012341F869
:10AEC000043D03A804F074FE059B9AB25B0803EBF3
:10AED000430302F0010404A903A803EB440401F0B6
:10AEE000CFFB08F009FCA4B20190009404AB48F237
:10AEF000430229463046FFF732FA06B070BDF0B57E
:10AF00000B89022B87B006460D4632D14F6806AC3E
:10AF10000123388844F80C3DC0F30B0004F06CFCAE
:10AF2000224602A904F07CFF3B88ADF8113018B12D
:10AF3000052820D010231FE0039C8DF81000A2B23A
:10AF4000640804EB440402F0010304EB43040334FB
:10AF50000DF1130102A8A4B201F092FB08F0CCFBA2
:10AF60000094019004AB48F2020229463046FFF7F4
:10AF7000F6F907B0F0BD04238DF810300324EDE797
:10AF8000F0B516460A881F4648F218039A4287B061
:10AF900005460C4605D048F21A039A4201D0032A0E
:10AFA0002CD10E22002102A80FF03EFE23888DF83E
:10AFB000087048F21802934209D048F21A029342EC
:10AFC0001ED0032B20D1636833F8092B02E063689D
:10AFD00033F8022BADF809201B68CDF81230002E93
:10AFE00014BF0C260E2608F087FB0096019002ABDA
:10AFF00048F2190221462846FFF7B1F907B0F0BD23
:10B00000636833F8172BE5E7784605F035FDE6E78A
:10B010007FB50B89022B06460C461FD14D68288848
:10B02000C0F30B0004F0E8FB0DF10B0104F0ACFCE5
:10B03000002303932B88ADF80D3088B99DF80B30B1
:10B040008DF80F3008F058FB04230190009348F26C
:10B05000170203AB21463046FFF781F904B070BDFB
:10B0600004238DF80C30EDE77FB50B8906460D46BD
:10B0700083B902F0FBFE04AC04F8010D08F03CFBC0
:10B0800001230190009348F20E02234629463046E0
:10B09000FFF765F904B070BD37B50B89012B054684
:10B0A0000C4618D14B681A78012A14D80022009255
:10B0B000019204228DF800201878431E584258410E
:10B0C0008DF804000BF0E6FE28462146FFF77CFDD4
:10B0D0006846FFF711F903B030BD70B50B89012B3D
:10B0E0008AB006460D461ED14B681B78013BDBB289
:10B0F000FD2B18D90AA900238DF80C301A2321F84A
:10B100001E3D0DF10D00FFF733F8BDF80A4008F0C1
:10B11000F3FA0134A4B20190009403AB0222294651
:10B120003046FFF71CF90AB070BD00002DE9F0476A
:10B130000B89132B88B080460C4670D14E68B578C9
:10B14000707837783388ADF814304FEA051A4AEA38
:10B15000101A00F00F0047EA00208DF8165004F096
:10B160004BFB00238DF81830F21C07AB01468146DB
:10B17000504604F077FD384B1B685B0406461CD52F
:10B18000364B1B68032B18DD2F2135480FF020FEAE
:10B19000F8B12F2132480FF01BFE411C314BBDF896
:10B1A0001C20D3F8043501922F4A0092CDF808A054
:10B1B00040F2592204200AF063F90F2E48D8DFE844
:10B1C00006F03E47471140494733474747474747FF
:10B1D00047315C2122480FF0FBFD08B15C21D9E723
:10B1E0001F49DBE70DF11201BDF81C0004F044FB20
:10B1F00010B1784605F040FCBDF812204A4514BF56
:10B20000042200228DF814708DF81650059B2146FB
:10B210004046FFF70DFA16B906A8FFF76DF808B01B
:10B22000BDE8F0870622EDE78DF814708DF8165012
:10B23000059B032221464046FFF7FAF9EFE700227B
:10B24000E0E78DF814708DF81650059B0522F1E7A4
:10B250001022D7E70422D5E7602E00205C2E0020C4
:10B2600071BB030000100140A1BB030073B50D4684
:10B27000164602F001FD0528044608D006281BD01A
:10B28000C0B9023D33889C4204D3002000E0022074
:10B2900002B070BD694635F8020F04F007FA48B9EC
:10B2A0009DF80030023B012B04D8BDF802302B8002
:10B2B0000134E7E71020EBE70820E9E708B578B1AB
:10B2C000B0F5803F08D800224008D3B202F1010255
:10B2D000FAD1581CC0B208BD784605F0CDFB11204C
:10B2E00008BD2DE9F04F0B89132B85B080460D4624
:10B2F00034D14C68607823882778ADF804304FEA61
:10B30000101B002300F00F00A6780293039347EA76
:10B31000002001238DF806608DF8083004F06CFAE7
:10B320004FF6FF7A5045814609D04BEA061004F0EB
:10B3300077FA5045ADF80C0013D1032400E0042443
:10B340008DF804708DF80660019B22462946404620
:10B35000FFF76EF914B902A8FEF7CEFF05B0BDE8FD
:10B36000F08F0DF1020104F087FA10B1784605F074
:10B3700083FBBDF802304B450FD1E11CBDF80C003A
:10B3800004F0AEFC0528D8D0082804D000280CBF53
:10B3900000241024D4E70B24D2E71124D0E72DE9B0
:10B3A000F0430A89032A85B080460D4635D14B68A3
:10B3B0009E7819881F785B78ADF80410300140EA58
:10B3C00013108DF8066003F00F048DF8082004F0C8
:10B3D00027FA4FF6FF794845ADF80C003ED047EA12
:10B3E000042004F009FA4845044619D1042400E079
:10B3F00011248DF804708DF80660019B22462946C1
:10B400004046FFF715F944B9BDF80C204FF6FF731D
:10B410009A4202D002A8FEF76FFF05B0BDE8F083A4
:10B420000DF10201BDF80C0004F026FA10B17846C7
:10B4300005F022FBBDF80230A342D9D1BDF80C00C3
:10B4400002F050FE10B1784605F016FBBDF80C0076
:10B4500004F08EFC10B1784605F00EFB0024C8E71E
:10B4600008B578B1B0F5803F08D800224008D3B2C3
:10B4700002F10102FAD1581CC0B208BD784605F0AD
:10B48000FBFA112008BD70B50C4686B005460BF0DE
:10B490003FFB2189064619BB8DF80C100388ADF8D7
:10B4A0000D304368012B1DD8DBB2B0688DF80F302A
:10B4B000FFF7D6FF337B8DF81130F389ADF81230EA
:10B4C000338AADF814308DF8100008F015F90A230E
:10B4D00001900093062203AB21462846FEF73FFF6A
:10B4E00006B070BDB3F5803F07D8013B5B08CAB218
:10B4F00001F10101FAD1931CD6E7784605F0BCFAB8
:10B500001123D2E7F0B50E8987B007460D462EBB52
:10B510000BF0FAFA8DF80C60038804460BB14288F0
:10B52000F2B900238DF80D308DF80E308DF80F3004
:10B530008DF810308DF811308DF812308DF81330F1
:10B540008DF8143008F0D8F809230190009348F2E0
:10B550003C0203AB29463846FEF701FF07B0F0BDB9
:10B56000ADF80D304388ADF80F304068FFF7A6FE08
:10B570008DF81200A068FFF773FFA3898DF81330D0
:10B580008DF81100E389DBE7F0B50B89052B8DB051
:10B5900007460D464AD14C681022002108A80FF03A
:10B5A00043FB2388ADF820306388ADF8223023793F
:10B5B00043B1112B9DBF03F1FF33012202FA03F3C4
:10B5C0004FF0FF3308A80A930BF04CFA064668BB0D
:10B5D0000BF09AFA8DF814600388ADF81530044624
:10B5E00043888068ADF81730FFF73AFF8DF81900EF
:10B5F0006068FFF763FEA3898DF81B30E3898DF83F
:10B600001C308DF81A0008F077F809230190009398
:10B61000384605AB48F23C022946FEF7A0FE15234A
:10B6200003A88DF80C300494FEF766FE0DB0F0BD53
:10B630002DE9F347B1F8088028F00203042B0646F1
:10B640000D461DD1B8F1040F4C680CBF4FF0010935
:10B650004FF0000917D1A378E27843EA0223ADF84E
:10B6600006304FF6FF772088FEF74EFE4FF6FF7A42
:10B67000504510D101234A4629463046FFF780FC49
:10B6800002B0BDE8F08723796279678843EA022334
:10B69000ADF80630E7E7ADF804700DF1020201994C
:10B6A00002F088FC20B9B8F1040F03D0574501D14E
:10B6B0000223E0E7BDF80230228829463046FFF732
:10B6C00034F9DDE72DE9F047B1F8089029F00203DD
:10B6D000042B86B007460D461DD1B9F1040F4C6806
:10B6E0000CBF4FF001084FF0000817D1A378E278A3
:10B6F00043EA0223ADF80E304FF6FF762088FEF7BE
:10B7000003FE4FF6FF7A504510D1012342462946E9
:10B710003846FFF745F806B0BDE8F087237962792F
:10B72000668843EA0223ADF80E30E7E7ADF80C6017
:10B730000DF10A02039902F03DFC20B9B9F1040FA2
:10B7400003D0564501D10223E0E7BDF80A00FFF718
:10B75000B9F8064608B10346D8E701F015FC34F8FD
:10B76000022BCDF8048020680090334638462946E5
:10B77000FEF73DFF0C23049604A88DF81030BDF8A9
:10B780000A300596ADF81430FEF7B6FDC3E72DE993
:10B79000F047B1F8089029F00203142B88B0064650
:10B7A0000D4632D1B9F1140F4C680CBF01270027A8
:10B7B00010D1A37CE27C43EA0223ADF80E304FF6B1
:10B7C000FF782088FEF7A0FD4FF6FF7A50450AD19A
:10B7D000012315E0237D627DB4F8128043EA022341
:10B7E000ADF80E30EDE7ADF80C8002AA039902F037
:10B7F000E1FB20B9B9F1140F0AD0D04508D10223DA
:10B800003A4629463046FEF7CBFF08B0BDE8F08740
:10B8100002238DF81030A01C00230DF11201ADF8A9
:10B820001230059009F05CFD10B1784605F024F95E
:10B830000DF10A0104A803F093FF0528C8D008B150
:10B840001023DDE7BDF80A10BDF8080002F0E4F9A6
:10B8500008B10C23D4E7BDF80A0003F055FF10B17E
:10B86000784605F009F901F08FFB34F8122B0197A7
:10B870002068BDF81230009029463046FEF7B7FE2A
:10B880000B238DF81830BDF80830ADF81C3006A831
:10B89000BDF80A30ADF81E30FEF72EFDB5E72DE9F4
:10B8A000F047B1F8089029F00203142B88B006463F
:10B8B0000D461BD1B9F1140F4C680CBF01270027AE
:10B8C00017D1A37CE27C43EA0223ADF80E304FF699
:10B8D000FF782088FEF718FD4FF6FF7A504511D10A
:10B8E00001233A4629463046FEF75AFF08B0BDE824
:10B8F000F087237D627DB4F8128043EA0223ADF81D
:10B900000E30E6E7ADF80C8002AA039902F052FB74
:10B9100020B9B9F1140F03D0D04501D10223E0E7DB
:10B920000DF10A01A01C03F0A1FE20B104280CBFF8
:10B9300005231023D5E7BDF80A10BDF8080002F072
:10B940003BF98046BDF80A00B8F1000F0BD003F0B8
:10B95000DBFE10B1784605F08FF8B8F1060F0CBF8A
:10B9600008231023BDE704A903F0A0FE10B1784618
:10B9700005F082F801F008FB34F8122B01972068DB
:10B98000BDF81230009029463046FEF730FE0A23FB
:10B990008DF81830BDF80830ADF81C3006A8BDF899
:10B9A0000A30ADF81E30FEF7A7FC9FE72DE9F04FF7
:10B9B000B1F80880B8F1080F89B006460D4602D0EC
:10B9C000B8F1060F1CD1B8F1060F6C680CBF012747
:10B9D000002718D12379627943EA0223ADF80E30AB
:10B9E0004FF6FF792088FEF78FFC4FF6FF7A50451F
:10B9F000834611D101233A4629463046FEF7D0FE50
:10BA000009B0BDE8F08FA379E279B4F8049043EA75
:10BA10000223ADF80E30E5E7608807F0BDFC03288F
:10BA2000E8D1ADF80C9002AA0399584602F0C2FA88
:10BA300020B9B8F1060F03D0D14501D10223DAE7CE
:10BA400003238DF810306388ADF812300DF10A0130
:10BA5000002304A8059303F083FE78BBBDF80A1009
:10BA6000BDF8080002F0D8F8062801D10823C2E783
:10BA700008B11023BFE7BDF80A0003F045FE10B17E
:10BA8000784604F0F9FF01F07FFA638834F8042B5C
:10BA900001972068009029463046FEF7A8FD0B2349
:10BAA0008DF81830BDF80830ADF81C3006A8BDF888
:10BAB0000A30ADF81E30FEF71FFCA1E70528D8D1EB
:10BAC000E3E72DE9F04FB1F80880B8F1080F87B02F
:10BAD00006460D4602D0B8F1060F1CD1B8F1060F8C
