:020000022000DC
:1060000000FD03200DA6030035A6030037A60300FC
:1060100039A603003BA603003DA6030000000000D4
:106020000000000000000000000000003FA6030088
:1060300041A603000000000043A6030045A603009C
:1060400047A6030047A6030047A6030047A6030090
:1060500047A6030047A60300718D020047A6030070
:1060600047A6030047A60300CD0B030047A6030085
:1060700047A6030047A6030047A6030047A6030060
:1060800047A60300B183030039D0020047A60300EE
:106090007184030047A603001D91020047A6030078
:1060A00047A6030047A6030047A6030047A6030030
:1060B00047A6030047A60300000000000000000000
:1060C00047A6030047A6030047A6030047A6030010
:1060D00047A6030047A6030047A6030047A6030000
:1060E00047A6030047A6030047A6030000000000E0
:1060F0000000000047A603000000000047A60300C0
:10610000000000000000000000000000000000008F
:10611000000000000000000000000000000000007F
:10612000000000000000000000000000000000006F
:10613000000000000000000000000000000000005F
:10614000000000000000000000000000000000004F
:10615000000000000000000000000000000000003F
:10616000000000000000000000000000000000002F
:10617000000000000000000000000000000000001F
:10618000000000000000000000000000000000000F
:1061900000000000000000000000000000000000FF
:1061A00000000000000000000000000000000000EF
:1061B00000000000000000000000000000000000DF
:1061C00000000000000000000000000000000000CF
:1061D00000000000000000000000000000000000BF
:1061E00000000000000000000000000000000000AF
:1061F000000000000000000000000000000000009F
:1062000010B5054C237833B9044B13B10448AFF3F0
:1062100000800123237010BD2C2F002000000000FF
:10622000B4DA03000C4B43B10C480D4910B5AFF381
:1062300000800C48036823B910BD0A48036833B9CD
:106240007047094B002BF7D0BDE810401847064BAC
:10625000002BF5D0184700BF00000000B4DA03009F
:10626000302F0020282F002000000000154B002BAD
:1062700008BF134B9D46A3F5803A00218B460F467D
:106280001348144A121A15F0E1FD0F4B002B00D0F1
:1062900098470E4B002B00D09847002000210400A7
:1062A0000D000D48002802D00C48AFF3008015F017
:1062B0007FFD2000290000F0F9FE15F065FD00BF0C
:1062C0000000080000FD03200000000000000000A6
:1062D0002C2F00206455002000000000000000006A
:1062E00041DF704700470000024A8221032014F07A
:1062F000B8B900BFDCC3030070B59E4C23685E04D0
:10630000C6B019D59C4B1B68032B15DD2F219B486C
:1063100015F070FE002800F0F6802F21974815F048
:1063200069FE411C964B974AD3F80435009204202D
:1063300040F2432207F0EEFC23685D0420D58E4B2B
:106340001B68032B1CDD2F218C4815F053FE002801
:1063500000F0E2802F21894815F04CFE411C8A4A4A
:10636000874BD088D3F80435039050880290128868
:106370000192864A0092042040F2452207F0CAFCAE
:106380002368580434D57C4B1B68032B30DD804BCD
:106390007D4E196805AD0023F21892F828201009E7
:1063A00002F00F02085C05F81300885C05EB43025D
:1063B0000133102B5070EFD100232F216F4885F847
:1063C000203015F017FE002800F0AF802F216B4819
:1063D00015F010FE411C6A4B6E4AD3F80435019249
:1063E0006D4A0092029540F24622042007F092FC8A
:1063F0002368590433D5604B1B68032B2FDD644B96
:10640000614E196805AD0023F218127A100902F0E6
:106410000F02085C05F81300885C05EB43020133AA
:10642000102B5070F0D100232F21544885F82030D4
:1064300015F0E0FD002800F081802F214F4815F075
:10644000D9FD411C4E4B554AD3F804350192524AAE
:106450000092029540F24722042007F05BFC23687B
:106460005A0432D5444B1B68032B2EDD484B464E55
:10647000196805AD0023F218127E100902F00F0210
:10648000085C05F81300885C05EB43020133102B10
:106490005070F0D100232F21384885F8203015F0B6
:1064A000A9FD002853D02F21344815F0A3FD411C2D
:1064B000334B3B4AD3F804350192374A0092029598
:1064C0004FF41272042007F025FC23685B0418D5F2
:1064D000294B1B68032B14DD2F21284815F08AFD5A
:1064E00000283DD02F21254815F084FD411C244B68
:1064F0002C4AD3F804350092042040F2492207F0D8
:1065000009FC46B070BD5C211C4815F073FD08B154
:106510005C2103E7194905E75C21184815F06AFD7D
:1065200008B15C2117E7154919E75C21134815F0FC
:1065300061FD08B15C214AE710494CE75C210F4836
:1065400015F058FD08B15C2178E70C497AE75C2129
:106550000A4815F04FFD08B15C21A5E70749A7E7F8
:106560005C21064815F046FD08B15C21BBE70349F4
:10657000BDE700BF3C2E0020382E0020DCC3030006
:1065800000100140DEC10300A22F0020F8C103006B
:10659000402E002039C2030042C203004AC2030059
:1065A00053C203005CC2030007B5224B1B685B04A7
:1065B00017D5214B1B68032B13DD2F211F4815F026
:1065C00019FD58B32F211D4815F014FD411C1C4B1B
:1065D0001C4AD3F804350092042040F2F31207F06D
:1065E00099FB194B19484FF6FF725A809A801A800E
:1065F0000BF030FB20B1114A40F2FB1114F031F8DE
:10660000134A144800210EF0DFF980B10B4A4FF411
:10661000FE7103B05DF804EB14F023B85C21074869
:1066200015F0E8FC08B15C21CDE70449CFE703B0E1
:106630005DF804FB3C2E0020382E0020DCC3030054
:1066400000100140DCC40300582F002059660200EE
:10665000416E0200602F002073B5184B1B685B046D
:1066600004460D46164617D5154B1B68032B13DD44
:106670002F21144815F0BEFCB0B12F21114815F0A0
:10668000B9FC411C104B114AD3F804350092042088
:106690004FF4A87207F03EFB32462946204602B06E
:1066A000BDE8704001F0C2BF5C21064815F0A2FCB5
:1066B00008B15C21E2E70349E4E700BF3C2E00207B
:1066C000382E0020DCC30300001001408CC0030002
:1066D00007B5184B1B685B041AD5174B1B68032BB7
:1066E00016DD2F21154815F085FCD0B12F21134858
:1066F00015F080FC411C124A124B5288D3F8043525
:106700000192114A0092042040F2171207F002FB96
:106710000E4B00210E20197003B05DF804EB02F05F
:106720008BBA5C21054815F065FC08B15C21DEE7F9
:106730000249E0E73C2E0020382E0020DCC3030095
:10674000A22F002000100140A1C00300A02F0020B4
:1067500007B5174B1B685B0417D5164B1B68032B3B
:1067600013DD2F21144815F045FCB8B12F21124834
:1067700015F040FC411C114B114AD3F8043500922E
:1067800004204FF4937207F0C5FA0E4B00210D2040
:10679000197003B05DF804EB02F04EBA5C210648B4
:1067A00015F028FC08B15C21E1E70349E3E700BFED
:1067B0003C2E0020382E0020DCC3030000100140D6
:1067C00096C10300A02F002007B5184B1B685B047F
:1067D00017D5174B1B68032B13DD2F21154815F018
:1067E00009FCC8B12F21134815F004FC411C124BC1
:1067F000124AD3F80435009204204FF48F7207F048
:1068000089FA00210D2002F017FA01210E2003B0B1
:106810005DF804EB02F010BA5C21064815F0EAFBC3
:1068200008B15C21DFE70349E1E700BF3C2E00200F
:10683000382E0020DCC3030000100140C5C1030056
:1068400008B538220021064815F000FB054807F07E
:106850007FFD20B10448BDE8084007F0B9BF08BD7E
:10686000A22F00207C2F0020CC2D002073B58B4C54
:1068700023685904054640F18581894E3268032A10
:1068800040F386812F21874815F0B4FBB0B12F214A
:10689000844815F0AFFB411C834B6A1CD3F80435C8
:1068A0000192824A0092042040F2CB1207F032FAA1
:1068B0006DB1032D00F0148102B070BD5C217948E8
:1068C00015F098FB08B15C21E2E77649E4E7784EE1
:1068D0003378002B40F0BE80764D2B886A889A4230
:1068E00032D223685A0417D56D4B1B68032B13DD76
:1068F0002F216C4815F07EFBE8B12F21694815F077
:1069000079FB411C684B6C4AD3F804350092042093
:106910004FF4B17207F0FEF9684BA888684A0093FB
:106920000221002301F0F2FF01210E2002F084F980
:1069300001233370C0E75C215A4815F05BFB08B1B6
:106940005C21DBE75749DDE7002B33D15D4B5E4A25
:106950001A6003225A6023685B0417D5504B1B68EA
:10696000934213DD2F214F4815F044FBC8B12F216E
:106970004C4815F03FFB411C4B4B544AD3F80435AF
:10698000009240F26D12042007F0C4F9E9884B4BE5
:106990004C4A022001F034F901F094F901210D2054
:1069A000C4E75C213F4815F025FB08B15C21DFE717
:1069B0003C49E1E71E2B26D8424B454A1A60032288
:1069C0005A6023685C04E1D5354B1B689342DDDDDA
:1069D0002F21344815F00EFB60B12F21314815F0FE
:1069E00009FB411C304B3B4AD3F80435009240F27E
:1069F0007912C8E75C212B4815F0FCFA08B15C213C
:106A0000ECE72849EEE7236858047FF555AF244B9F
:106A10001B68032B7FF750AF2F21224815F0EAFAAD
:106A200078B12F211F4815F0E5FA411C1E4B2A4A68
:106A3000D3F8043500924FF4C172042007F06AF9CC
:106A40003AE75C21174815F0D5FA08B15C21E9E76F
:106A50001449EBE7236859047FF52EAF104B1B68F0
:106A6000032B7FF729AF2F210E4815F0C3FA60B131
:106A70002F210C4815F0BEFA411C0B4B174AD3F8D6
:106A8000043500924FF4C572D7E75C21054815F034
:106A9000B1FA08B15C21ECE70249EEE73C2E002098
:106AA000382E0020DCC30300001001409EC203000A
:106AB000A02F0020A22F0020B1C20300482F0020E9
:106AC000BA2F0020742F002039C40300E4C2030051
:106AD0003CC4030013C3030042C303005BC30300B1
:106AE00023685A0417D53368032B14DD2F212C4853
:106AF00015F080FA002833D02F21294815F07AFAB2
:106B0000411C284B284AD3F804350092042040F257
:106B1000D91207F0FFF8FFF793FE00F051FC0422B2
:106B2000C8214FF4803002F09BF823685B047FF5A6
:106B3000C3AE1E4B1B68032B7FF7BEAE2F21184838
:106B400015F058FAA8B12F21154815F053FA411C39
:106B5000144B174AD3F80435009240F2DF126CE769
:106B60005C210F4815F046FA08B15C21C5E70C49D5
:106B7000C7E75C210A4815F03DFA08B15C21E3E75C
:106B80000749E5E700283FF4A2AE0328C3D093E607
:106B900000283FF49CAE03287FF48EAEA3E700BF2D
:106BA000DCC303000010014089C30300382E00201D
:106BB000A1C303003038042801D8FFF757BE70473F
:106BC00010B538220121094807F081FC044620B99C
:106BD000074807F0FDFD002010BD382205490430AC
:106BE00015F029F9204607F0A1FCF4E77C2F0020DE
:106BF000B02D0020A22F002037B53E4D3E4C2A6814
:106C000012F4804F19D03D4B1B68032B15DD2F214B
:106C10003B4815F0EFF9002836D02F21384815F001
:106C2000E9F9411C374B6288D3F804350192364AA2
:106C300000920420FB2207F06DF800210E2001F0E5
:106C4000FBFF6388013363800EF04AF9FFF7B8FF5A
:106C500020B12B4A40F2011113F003FD63881E2B73
:106C60001BD82A4A2A4B136003235360E188294B1F
:106C7000022000F0C5FF01F025F801210D2003B02E
:106C8000BDE8304001F0D8BF5C211D4815F0B2F9D5
:106C900008B15C21C2E71A49C4E72B685B0417D529
:106CA000164B1B68032B13DD2F21154815F0A2F995
:106CB000B8B12F21124815F09DF9411C114B164A0D
:106CC000D3F804350092042040F20F1207F022F8A6
:106CD0000422C8214FF4F03003B0BDE8304001F089
:106CE000BFBF5C21064815F085F908B15C21E1E7DA
:106CF0000349E3E73C2E0020A22F0020382E00207D
:106D0000DCC3030000100140F7C00300742F002013
:106D10003CC40300482F002042C3030008B5FFF71E
:106D20004FFF28B1034AF321BDE8084013F099BC96
:106D300008BD00BFDCC3030013B5194B1B685B041F
:106D4000044619D5174B1B68032B15DD2F21164858
:106D500015F050F9C8B12F21134815F04BF9411C1B
:106D6000124B2278D3F804350192114A0092042084
:106D70004FF4A27206F0CEFF23781C2B0ED1002018
:106D800002B0BDE8104005F037B95C21064815F0A7
:106D900031F908B15C21DFE70349E1E702B010BD3A
:106DA0003C2E0020382E0020DCC3030000100140E0
:106DB000DEC0030013B51D4B1B685B04144616D5DB
:106DC0001B4B1B68032B12DD2F211A4815F012F9FB
:106DD000A8B12F21174815F00DF9411C164B174A81
:106DE000D3F8043500920420722206F093FF012CA0
:106DF0000ED1784602B0BDE8104002F097BA5C218F
:106E00000C4815F0F7F808B15C21E3E70949E5E71C
:106E1000022CEED0032C07D1064A7B21042002B0BD
:106E2000BDE8104013F01DBC02B010BD3C2E002088
:106E3000382E0020DCC303000010014023C40300EF
:106E400030B50B7885B00C4633BB1A4B1B685B041E
:106E500022D5194B1B68032B1EDD2F21174815F077
:106E6000C9F8D8B12F21154815F0C4F8411C626843
:106E7000134B50885269D3F804351578247BB5B983
:106E800092F90D2003920F4A01900092029440F271
:106E90003B12042006F03EFF05B030BD5C210748E0
:106EA00015F0A8F808B15C21DDE70449DFE700220E
:106EB000E8E700BF3C2E0020382E0020DCC3030092
:106EC0000010014048C1030013B503780D2B22D1F7
:106ED000164B1B685B0417D5154B1B68042B13DD81
:106EE0002F21144815F086F8B8B12F21114815F05C
:106EF00081F8411C104B114AD3F80435009205204B
:106F000040F2951206F006FF0D4C23781BB9FFF7EF
:106F1000F3F90123237002B010BD5C21054815F080
:106F200069F808B15C21E1E70249E3E73C2E002063
:106F3000382E0020DCC30300001001407DC1030097
:106F4000DA2F002007B5134B1B685B0416D5124BD4
:106F50001B68032B12DD2F21104815F04BF880B170
:106F60002F210E4815F046F8411C0D4B0D4AD3F861
:106F70000435009204208E2206F0CCFE03B05DF8AA
:106F800004FB5C21054815F035F808B15C21E8E701
:106F90000249EAE73C2E0020382E0020DCC3030023
:106FA000001001400CC4030000B58BB003A902A877
:106FB00000F04EFA18B1204A9B2113F052FB1F4BF0
:106FC00007931F4B08931F4B099304230693029BBF
:106FD0001D48A3F58053049304A90123059307F0EA
:106FE000E2FAE8B1194807F0F3FB194B1B685B04A0
:106FF00016D5184B1B68002B12DD2F210E4814F0FC
:10700000F9FF80B12F210C4814F0F4FF411C124B02
:10701000124AD3F8043500920120A82206F07AFE25
:107020000BB05DF804FB5C21034814F0E3FF08B1EA
:107030005C21E8E70049EAE7DCC30300B56D020024
:10704000E9620200456F02007C2F0020A02D002085
:107050003C2E0020382E0020001001401EC10300ED
:1070600010B5104CA18820890EF02CFE20B10E4ADC
:107070004FF4D67113F0F5FAA18820890EF0AAFE1C
:1070800020B1094A40F2AD1113F0EBFA20880DF05F
:1070900021FA30B1044A4FF4D871BDE8104013F022
:1070A000E0BA10BD582F0020DCC3030080B5AF4EFE
:1070B000AF4A92B005214FF4C04006F011FE33688C
:1070C0005C0419D5AB4B1B68032B15DD2F21AA4897
:1070D00014F090FF002800F0E0802F21A64814F063
:1070E00089FF411CA54BA64AD3F804350092042021
:1070F00040F2322206F00EFE11F002FB20B19E4A51
:107100004FF40D7113F0ADFA01F0DEFD9D4801F072
:1071100007FE20B1984A4FF40E7113F0A2FA01F065
:107120005DFE242200210DEB020014F08FFE0123EE
:107130008DF8243007238DF8273006238DF82C3066
:10714000914B0D930DF10B01904B119309A800F099
:107150004DF920B1884A40F2092113F082FA12AFAA
:107160008B488C4C4FF0380804F0F0FEFFF71CFF02
:1071700047F83C8D874A88483B46012107F070F963
:10718000054620B142460021204614F05FFE002D46
:107190000CBF0125002500F0898000232380638037
:1071A0004FF48073E380FFF70BFD20B1724A4FF478
:1071B000E07113F056FA794B1D76794D0FCD3C46B0
:1071C0000FC495E8030084E80300384600F028FE69
:1071D0009DF80B30002B40F098803368590419D586
:1071E000644B1B68032B15DD2F21634814F002FF4D
:1071F000002800F081802F215F4814F0FBFE411C25
:107200005E4B684AD3F804350092042040F21F22F6
:1072100006F080FD00F028FEFFF722FF0DF060FE73
:10722000FFF77CFD6049614801F08AFC64216048F9
:1072300001F0A8FC33685B0419D54E4B1B68032B87
:1072400015DD2F214C4814F0D5FE002800F0848075
:107250002F21494814F0CEFE411C484B554AD3F823
:1072600004350092042040F24F2206F053FD04F052
:1072700017FE20B1404A40F2552113F0F2F90021E7
:107280004FF4F03001F0E3FC0222C8214FF4F0305B
:1072900001F0E6FCFFF724F8FCE75C21364814F027
:1072A000A9FE08B15C2119E733491BE7336858048C
:1072B00081D5304B1B68032B7FF77DAF2F212E48E4
:1072C00014F098FE78B12F212B4814F093FE411C46
:1072D0002A4B394AD3F80435009204204FF4E27265
:1072E00006F018FD67E75C21234814F083FE08B11F
:1072F0005C21E9E72049EBE75C211F4814F07AFEA6
:1073000008B15C2178E71C497AE733685A0417D53D
:10731000184B1B68032B13DD2F21174814F06AFE4E
:1073200088B12F21144814F065FE411C134B234AE9
:10733000D3F80435009204204FF40A7206F0EAFCF8
:1073400000F002FD6EE75C210B4814F053FE08B11B
:107350005C21E7E70849E9E75C21074814F04AFEA9
:1073600008B15C2175E7044977E700BF3C2E002097
:10737000B5DC0200382E0020DCC303000010014001
:107380003FC403006D680200396D0200A965020068
:10739000C02D0020A22F00207C2F0020582F00207D
:1073A00074C0030087C40300D1660200F96B0200B9
:1073B000B56B0200D2C4030073C40300BEC4030053
:1073C00008B50EF0EFF910F03DF8BDE8084003F005
:1073D00073BF07B501A810F0E3F8BDF80400003052
:1073E00018BF012003B05DF804FB000073B50E4622
:1073F000054640B304F0EEFC044608BB10F076F8F6
:107400000EF0AEFE28690DF035F80446C0B92B7FAA
:107410000193AB69009301466B690C4859220DF04A
:1074200051FA044660B92B6A03B1984708F056FB3D
:107430000FF07CFF0EF002F8FFF7CBFF06B13070C3
:10744000204602B070BD0E24FAE700BFDC2F0020FA
:1074500037B50D460446A0B199B1684608F0FCFD69
:10746000009B53B1236007F001FA2368C01A00F5AE
:1074700080502860002003B030BD0EF040FE206038
:10748000F1E70E20F7E7000073B50B6806460C46DF
:107490000BB14B683BBB2F4B1B685A0402D4012035
:1074A00002B070BD2C4B1B68032BF8DD2F212B483D
:1074B00014F0A0FD70B12F21284814F09BFD411C51
:1074C000274B284AD3F8043500925622042006F0B0
:1074D00021FCE4E75C21214814F08CFD08B15C211B
:1074E000EAE71E49ECE7102B02D9784601F01EFFAF
:1074F00000256268E8B2C2F11003834201D2002085
:10750000CEE72168304414F087FC01350028F0D123
:10751000104B1B685B04C2D50F4B1B68032BBEDDF1
:107520002F210E4814F066FD58B12F210B4814F09E
:1075300061FD411C0A4B0C4AD3F8043500925F22CE
:10754000C4E75C21054814F055FD08B15C21EDE766
:107550000249EFE73C2E0020382E0020F3C703003D
:107560000010014031C8030044C803002DE9F04178
:107570000378C8B004460A2B00F2CC80DFE813F091
:107580000B000D038100CA00CA00CA00CA00CE0267
:10759000CA0024027B01A04E3378012B40F0BA8050
:1075A0009E4B1B6813F4804F04F104042FD09C4BB6
:1075B0001B68032B2BDD9B4B2046196807AD00236E
:1075C00010F8012B170902F00F02CF5D5F558F5C99
:1075D000EA180233202B5770F2D100232F21924852
:1075E00085F8203014F006FD002841D02F218E4868
:1075F00014F000FD411C8D4B8D4AD3F804350192E7
:107600008C4A009202958F22042006F083FB8A4B5D
:1076100020461968FFF738FF00287BD0874B186891
:1076200018B11022214614F006FC854D19220021C4
:1076300007A814F00BFC2B89ADF82C306968814B3E
:1076400010221B88ADF83230083107A814F0F3FB84
:107650000123AA7A7C480093214607AB11F0E2FB94
:1076600018B1714A722112F0FCFF0323337051E00C
:107670005C216D4814F0BEFC08B15C21B7E76A4993
:10768000B9E7664D644E2B6813F4804F1CD0644BF1
:107690001B68032B18DD2F21634814F0ABFC002876
:1076A0003BD02F21604814F0A5FC411C674A5F4B7A
:1076B0001278D3F80435029232780192644A00922B
:1076C00004209F2206F026FB3378032B65D15F4F01
:1076D0003B78002B33D02B685C0416D5504B1B68CD
:1076E000032B12DD2F21504814F084FCF0B12F2120
:1076F0004D4814F07FFC411C4C4B564AD3F80435DE
:1077000000920420A42206F005FB012333703B788D
:10771000013B3B7048B0BDE8F0815C21424814F069
:1077200069FC08B15C21BDE73F49BFE75C213E48E9
:1077300014F060FC08B15C21DAE73B49DCE72B6818
:1077400058041BD5364B1B68002B17DD2F213648FC
:1077500014F050FCC0B12F21334814F04BFC411CF5
:10776000384A324B1288D3F804350292227A0192B9
:10777000394A00920120AB2206F0CCFA0023337084
:107780002F4B5B699847C5E75C21274814F032FC12
:1077900008B15C21E0E72449E2E7022BBAD1284F87
:1077A000284A7B6812889A801A882C4C01322188DA
:1077B0001A80DA880A44DA80FB6898473B69984760
:1077C0002B6859041CD5164B1B68032B18DD2F2181
:1077D000154814F00FFC002844D02F21124814F053
:1077E00009FC411C114B2288D3F8043502927A68B7
:1077F000928801921A4A00920420B92206F08AFA6D
:107800000E4B7A681B68908800931832002302217F
:1078100001F07CF8002329E7583300203C2E00209B
:10782000382E0020402E0020F3C703000010014036
:107830001CC5030042C20300C0330020BC3300203B
:107840005C330020B633002024320020B533002002
:1078500026C503006DC503008FC50300B8330020A3
:10786000D2C503005C219C4814F0C4FB08B15C2124
:10787000B4E79949B6E7994F3A68520417D5984B3F
:107880001B68032B13DD2F21934814F0B3FB002852
:107890007FD02F21904814F0ADFB411C914B924AB0
:1078A000D3F8043500920420C42206F033FA8F4B3B
:1078B00002221A703B685B0417D5894B1B68032BA7
:1078C00013DD2F21844814F095FB00286AD02F2166
:1078D000814814F08FFB411C824B854AD3F8043554
:1078E00000920420C92206F015FAE3688149D88A7B
:1078F0000FF066FE18B1784ACB2112F0B2FE7E4D31
:10790000E06829687D4BA2684988C08A10F068F950
:10791000A84618B1704ACF2112F0A3FE774E3088E6
:107920000AF006FA18B16C4AD22112F09AFE714D93
:10793000308829880AF0B8F918B1674AD42112F0C2
:1079400090FE3B685F047FF5E5AE654B1B68032B3B
:107950007FF7E0AE2F21604814F04CFB58B32F2185
:107960005D4814F047FB411C5E4B3288D3F8043568
:107970000492D8F80020528803922A880292E26882
:10798000D28A01925E4A00920420DA2206F0C2F9FD
:10799000C0E65C21504814F02DFB08B15C2179E76A
:1079A0004D497BE75C214C4814F024FB08B15C2175
:1079B0008EE7494990E75C21474814F01BFB08B16A
:1079C0005C21CDE74449CFE74E4B027A1A80012172
:1079D00010230022406811F053FA054600283FF4B6
:1079E00099AE3E4C2268560418D53D4B1B68002BBF
:1079F00014DD2F21384814F0FDFA002832D02F2151
:107A0000354814F0F7FA411C364B3F4AD3F8043599
:107A100000920195EA22012006F07CF93B4D334E9D
:107A20002A78236882B3580416D52D4B1B68032B84
:107A300012DD2F21284814F0DDFAE0B12F2126486D
:107A400014F0D8FA411C274B314AD3F80435009280
:107A50000420ED2206F05EF9012333702B78013B00
:107A60002B7057E65C211C4814F0C4FA08B15C2165
:107A7000C6E71949C8E75C21174814F0BBFA08B1FA
:107A80005C21DCE71449DEE759047FF577AE144B3F
:107A90001B68032B7FF772AE2F210F4814F0AAFA50
:107AA00088B12F210C4814F0A5FA411C194A0D4B3E
:107AB0001288D3F804350192174A00920420F42268
:107AC00006F028F95AE65C21034814F093FA08B14D
:107AD0005C21E7E70049E9E7F3C703003C2E0020FB
:107AE000382E00200010014009C603005833002042
:107AF0002AC60300383000205C3300203A300020D2
:107B000052C60300B833002094C60300B5330020EA
:107B1000C4C60300B6330020D2C60300314B07AD04
:107B200003F11006186859682A4603C20833B342A5
:107B30001546F7D1102207A9606811F0ADF920B100
:107B4000294A40F2011112F08CFD284B1B685A049F
:107B50007FF5E0AD264B1B68032B7FF7DBAD2F21B4
:107B6000214814F047FA78B12F211F4814F042FA47
:107B7000411C204B204AD3F8043500924FF4817207
:107B8000042006F0C7F8C5E55C21174814F032FA66
:107B900008B15C21E9E71449EBE7144B1B685B046F
:107BA0007FF5B8AD124B1B68032B7FF7B3AD2F21C8
:107BB0000D4814F01FFA60B12F210B4814F01AFA87
:107BC000411C0C4B0D4AD3F80435009240F20712C9
:107BD000D6E75C21044814F00DFA08B15C21ECE70B
:107BE0000149EEE7FCC40300F3C703003C2E00206C
:107BF000382E00200010014039C703005EC7030083
:107C000030B51D46224B1870224B14461980224B6A
:107C100001221A706368102B87B002D9784601F0F0
:107C200085FB1E4B1E4A1C601E4C1560227852BB01
:107C30001D4A1068516803AB03C311891980927AF9
:107C40001A491B489A7011F0EBF818B1194A7B21B8
:107C500012F007FD184B0093144A1549174803AB5F
:107C600011F0B1F818B1134A7C2112F0FAFC144853
:107C700011F0C6FF0146114811F0BEF818B10D4AC7
:107C80007D2112F0EEFC0123237007B030BD00BF50
:107C9000B5330020B633002058330020C033002015
:107CA000BC330020743300200CC503003C3000209E
:107CB00075330020F3C703006D75020024320020E5
:107CC0005C30002007B51A4B1B685B0417D5194BB5
:107CD0001B68032B13DD2F21174814F08BF9D0B14B
:107CE0002F21154814F086F9411C144B144AD3F87F
:107CF0000435009204204FF4907206F00BF81148FE
:107D000011F0D1F880B10C4A40F2211103B05DF8B6
:107D100004EB12F0A6BC5C21074814F06BF908B123
:107D20005C21DEE70449E0E703B05DF804FB00BF37
:107D30003C2E0020382E0020F3C703000010014025
:107D4000CFC703006D75020030B587B006AD2E4C6D
:107D5000012345F8043D2068294602300FF022FF38
:107D600020B12A4A4FF4957112F07BFC059B012B40
:107D700002D0784601F0DAFA23682A46191D58889D
:107D800010F062F820B1214A4FF4967112F069FCAC
:107D900004A80FF005FC2168BDF810000FF05CFF8F
:107DA00020B11A4A4FF4987112F05BFC184B1B6813
:107DB0005B041ED5174B1B68032B1ADD2F211348BC
:107DC00014F018F9B8B12F21104814F013F9411C20
:107DD0002268114B1088D3F80435039090880290E4
:107DE000528801920D4A0092042040F2331205F0AD
:107DF00091FF07B030BD5C21044814F0FBF808B1D6
:107E00005C21E1E70149E3E75C330020F3C70300AD
:107E10003C2E0020382E0020001001407DC70300BA
:107E200038B5C368044613B9784601F07FFA636930
:107E300013B9784601F07AFA236913B9784601F04C
:107E400075FA0FCC054D0FC594E80300044A0023D2
:107E5000137085E80300034A137038BD5C330020BB
:107E600074330020583300201FB5374B1868039037
:107E700003A80FF059FB20B1344A4FF4A37112F05C
:107E8000F0FB334C60681021083004F0D0FB6068D0
:107E90001021183004F0CBFB60681021283004F06A
:107EA000C6FB226861680232083100200FF02AFD0B
:107EB00020B1264A4FF4A77112F0D3FB254B1B6863
:107EC0005B041AD5244B1B68032B16DD2F211F489A
:107ED00014F090F870B32F211C4814F08BF8411C5B
:107EE00022681E4B5288D3F8043501921C4A009236
:107EF000042040F24F1205F00DFF94E80600002028
:107F00000B1D183249880FF0C1FE20B10F4A4FF403
:107F1000A87112F0A6FB23686268598828320120F4
:107F20000FF05EFE20B1094A40F2531112F099FBA6
:107F300004B010BD5C21054814F05CF808B15C2168
:107F4000CAE70249CCE700BF18C50300F3C7030026
:107F50005C3300203C2E0020382E00200010014011
:107F6000BCC7030030B50446018085B010461546F5
:107F700003F044FE214B20711B88A3811E23E37371
:107F8000237CE580002203F0030362F301032374E2
:107F9000012363741A4BA273A2741A88A4F81320E5
:107FA0005B88A4F81530174B1B685B041BD5164B78
:107FB0001B68032B17DD2F21144814F01BF8A0B108
:107FC0002F21124814F016F8411C114BE288D3F807
:107FD00004350292228801920E4A0092042040F257
:107FE000251205F097FE05B030BD5C21074814F05E
:107FF00001F808B15C21E4E70449E6E7C433002056
:10800000C63300203C2E0020382E002062C803001A
:108010000010014098C8030010B5054804F0ACF901
:10802000044B054A1A60054BBDE810401B68184711
:10803000E4330020E42D0020DDC90300D433002008
:1080400030B5844B1B681B78013B8DB0092B00F2C7
:10805000D782DFE813F00A004C008000BB00250146
:108060007A01D201A102BB022D027B4B1B685A048C
:1080700017D57A4B1B68032B13DD2F21784813F09B
:10808000B9FF58B32F21764813F0B4FF411C754B4C
:10809000754AD3F804350092042040F25D1205F0D1
:1080A00039FE002009F05CFE704B02225A8000224B
:1080B0001A705A60002800F03D816D4C09F07CFF79
:1080C0002378002B00F0A382013B237004F0A0F979
:1080D00068490144201D04F066F92BE15C216048E9
:1080E00013F088FF08B15C21CDE75D49CFE75A4B1B
:1080F0001B685B0417D5594B1B68032B13DD2F211D
:10810000574813F077FFE8B12F21554813F072FF5D
:10811000411C544B584AD3F804350092042040F2D5
:10812000671205F0F7FD554B1A68554B002019886A
:1081300009F03AFE4D4B48F203025A8002221A70AF
:10814000504AB6E75C21464813F054FF08B15C2161
:10815000DBE74349DDE7404B1B685D0417D53F4B28
:108160001B68032B13DD2F213D4813F043FF20B381
:108170002F213B4813F03EFF411C3A4B424AD3F8B3
:108180000435009204204FF4B97205F0C3FD4FF698
:10819000FF73ADF818300223ADF81A30384B069A49
:1081A00019883A4B188809F0FFFE304B48F23E021E
:1081B0005A8001221A70364A7BE75C21284813F066
:1081C00019FF08B15C21D4E72549D6E7224B314C91
:1081D0001B6813F4804F19D0204B1B68032B15DD4F
:1081E0002F211F4813F006FF58B32F211C4813F00E
:1081F00001FF411C1B4B6288D3F804350192264ACB
:108200000092042040F2811205F084FD6278237808
:1082100043EA0223ADF81830E278A37843EA022358
:10822000ADF81A30164B069A1988184B188809F0C1
:10823000BBFE0E4B48F23E025A8001221A70174ACA
:1082400037E75C21064813F0D5FE08B15C21CDE785
:108250000349CFE7E42D00203C2E0020382E0020DB
:1082600062C8030000100140C6C80300CC330020E0
:10827000E0330020404B4C00E0C8030004340020F1
:10828000C4330020CFC90300EFC80300CA33002065
:10829000D1C90300FC3300200CC90300D2C903007C
:1082A000AB4C23881BB9AB4B1B8801332380AA4BF3
:1082B000AA4D1B6813F4804F1CD0A94B1B68032BDD
:1082C00018DD2F21A74813F095FE002834D02F2168
:1082D000A44813F08FFE411CA34B2288D3F8043529
:1082E00002926A880192A14A009204204FF4CA7255
:1082F00005F010FD6A782B78208843EA0223ADF858
:108300001830EA78AB7843EA0223ADF81A30984B7C
:10831000069A198809F048FE964B48F23E025A80A8
:1083200001221A70944A5A6000287FF4C6AE23884E
:10833000013323800DB030BD5C218A4813F05AFE12
:1083400008B15C21C4E78749C6E7182200210DEB7C
:10835000020013F07BFD7F4B1B88ADF81830012322
:1083600099008DF81C30ADF81E308DF829304FF093
:10837000FF338DF82B308DF82C3000238DF82E3004
:10838000754B1E221B688DF82720022262F3010123
:108390005C048DF828108DF82D201AD5704B1B68C1
:1083A000032B16DD2F216F4813F024FEE0B12F219F
:1083B0006C4813F01FFE411C6B4BBDF81E20D3F818
:1083C000043501926D4A0092042040F2B51205F086
:1083D000A1FC06A809F020FD664B48F219025A805C
:1083E00001221A70664A64E65C215E4813F002FEC0
:1083F00008B15C21DCE75B49DEE7182200210DEBC8
:10840000020013F023FD534B5E4C1B88ADF818306F
:10841000D80754BF4FF4817340F20113ADF81E30FA
:10842000534B1B88ADF8243001221E238DF81C20ED
:108430008DF827302288ADF82B2001238DF82930C4
:108440006288ADF82D20444A126851041CD5444B73
:108450001B68032B18DD2F21424813F0CBFDF0B130
:108460002F21404813F0C6FD411C3F4BBDF81E2094
:10847000D3F80435029262880192434A00920420A4
:1084800040F2D71205F046FC06A809F0C5FC394BAE
:1084900048F219025A8001221A703C4A09E65C210E
:1084A000304813F0A7FD08B15C21DAE72D49DCE77D
:1084B000294B1B685A0418D5294B1B68032B14DD64
:1084C0002F21284813F096FD002837D02F2125486A
:1084D00013F090FD411C244B2D4AD3F80435009233
:1084E00004204FF4F17205F015FC1A4B1888002394
:1084F000079303238DF81830C3074CBF4CF20303D6
:108500004CF20203ADF81A301E4B59781A7842EA41
:108510000122ADF814209A78DB7842EA0323ADF803
:10852000163006AA059B06CA09F018FD114B48F241
:108530001F025A8001221A70164ABAE55C210948C6
:1085400013F058FD08B15C21C1E70649C3E700BF3D
:1085500000340020CA3300203C2E0020C633002007
:10856000382E002062C803000010014029C9030012
:10857000C4330020CC330020D3C9030058C9030002
:10858000D4C90300FC33002095C90300D5C90300FA
:10859000BAC90300D6C90300182200210DEB02005E
:1085A00013F054FC1B4B198801314CF2030289B2C1
:1085B00006A8FFF7D7FC06A809F02EFC164B48F2D8
:1085C00019025A8001221A70144A72E518220021F9
:1085D0000DEB020013F03AFC0E4B198802314CF2FD
:1085E000020289B206A8FFF7BDFC06A809F014FC38
:1085F000094B48F219025A8001221A70084A58E5BC
:10860000084A40F21321052012F02BF855E5FFF738
:1086100003FD8FE6CA330020CC330020D7C9030006
:10862000D8C9030062C80300FFF70ABDF0B50D46C4
:1086300085B0002856D19F4D2A68560418D59E4B08
:108640001B68032B14DD2F219C4813F0D3FC00285A
:1086500036D02F21994813F0CDFC411C984B994AF4
:10866000D3F804350092042040F2692205F052FB51
:10867000954C2388002B00F08E802B685D0417D565
:108680008D4B1B68032B13DD2F218C4813F0B2FC9C
:10869000F8B12F21894813F0ADFC411C884B8B4A5F
:1086A000D3F804350092042040F26D2205F032FB2D
:1086B0002388013B238005B0BDE8F040FFF7C0BC34
:1086C0005C217E4813F096FC08B15C21C2E77B492F
:1086D000C4E75C21794813F08DFC08B15C21D9E72F
:1086E0007649DBE7022828D111B9784600F01EFE52
:1086F000774C23681B780BB10B2B29D16D4B1B6872
:1087000058041AD56C4B1B68012B16DD2F216B48C2
:1087100013F070FC98B12F21684813F06BFC411CDA
:108720002268674B1278D3F804350192694A0092A7
:10873000022040F2412205F0EDFA05B0F0BD5C21C7
:108740005E4813F057FC08B15C21E5E75B49E7E7B9
:10875000614E2F887388BB422BD0564B1B6859043F
:1087600019D5554B1B68002B15DD2F21534813F0ED
:1087700041FCA8B12F21514813F03CFC411C504B47
:10878000D3F80435029772880192544A009201206E
:10879000E32205F0BFFA05B0BDE8F040FFF73CBCAE
:1087A0005C21464813F026FC08B15C21E3E743490D
:1087B000E5E748F219018B426A6806D047D8022BD8
:1087C0006DD048F203018B4248D11578337843B31A
:1087D000384B1B685B041AD5374B1B68032B16DD1F
:1087E0002F21364813F006FC002800F083802F214B
:1087F000324813F0FFFB411C314B394AD3F80435A2
:10880000009201954FF48472042005F083FA726897
:1088100030781346991A8842BDD913F8011B8D424E
:10882000F8D123682F485A1C5B7822600B2B4FF03D
:10883000030202707FF43FAF043003F09DFD2A4B2A
:1088400023602A4B1B6805B0BDE8F040184748F28A
:108850001F018B42B9D048F23E01B4E7154B1B68AB
:108860005A0416D5144B1B68002B12DD2F21134818
:1088700013F0C0FBA8B12F21104813F0BBFB411C23
:108880000F4B1B4AD3F8043500920120FF2205F05C
:1088900041FA0A4A4FF48071052011F0E2FEFF25EB
:1088A00094E75C21054813F0A5FB08B15C21E3E7E0
:1088B0000249E5E73C2E0020382E002062C8030064
:1088C00000100140E2C90300DC3300200DCA0300A0
:1088D000E42D002018CA0300CC3300204ACA03004C
:1088E00094CA0300E0330020DDC90300D833002020
:1088F00074CA03005C21044813F07CFB08B15C21BE
:1089000076E7014978E700BF62C80300F0B5774D0C
:10891000774E2C68247889B02CB33368590417D566
:10892000744B1B68002B13DD2F21734813F062FB7F
:1089300080B12F21704813F05DFB411C6F4B704AD2
:10894000D3F804350092012040F2852205F0E2F9C7
:1089500009B0F0BD5C21684813F04CFB08B15C2104
:10896000E8E76549EAE7674F674C39806749684F30
:10897000CF6003270F70674920800A60664A674905
:108980001380B0F5807F654B0CBF654A654A0E9831
:108990001A60FEF779FD644A644B002800F08E806F
:1089A000012191701021D1700020D9704FF0FF315A
:1089B0009870197059703368117051705A041AD533
:1089C0004C4B1B68032B16DD2F214B4813F012FB79
:1089D000002879D02F21484813F00CFB411C474B4D
:1089E0002288D3F804350192514A0092042040F2C3
:1089F000A72205F08FF94FF6FF732288ADF81430E7
:108A0000ADF8163005A9012306A88DF81830ADF889
:108A10001A200EF09FFE20B1374A40F2332111F0A8
:108A200020FE0DF11601BDF81A000FF015F920B166
:108A3000314A4FF40D7111F014FEBDF8160009F023
:108A400077F920B12C4A40F2372111F00AFEBDF827
:108A50001410BDF8160009F027F920B1264A4FF48A
:108A60000E7111F0FEFD33685B041DD5214B1B68B0
:108A7000032B19DD2F21204813F0BCFA68B32F21F6
:108A80001D4813F0B7FA411C1C4BBDF81420D3F855
:108A900004350292BDF816200192264A0092042065
:108AA00040F2392205F036F92388B3F5807F0CBFF8
:108AB000214B224B2B60FFF7C3FA49E7032191704A
:108AC0001021D170022070E75C210B4813F092FA5C
:108AD00008B15C217FE7084981E75C21064813F073
:108AE00089FA08B15C21CBE70349CDE7E42D0020EA
:108AF0003C2E0020382E002062C8030000100140E8
:108B0000AECA0300DC330020CA330020E03300206B
:108B10002986020004340020C4330020DC2D00200C
:108B2000D9C90300DEC90300C6330020FC3300208E
:108B3000E2CA0300FCCA030059C8030032CB030099
:108B400038B50C46054610B9784600F0EFFB14B96D
:108B5000784600F0EBFB024B1D60024B1C6038BDF9
:108B6000D8330020D433002010B5054C226832B130
:108B700011F0AAFE002802DB23689847F8E710BD31
:108B800008340020154B164A10B50C461860012118
:108B900014480FF011FE18B1134A4A2111F061FD7B
:108BA000610C0023E00341F26F728B4208BF8242E6
:108BB00010D24FF47A72002312F05EFF01460022B9
:108BC0000A480FF00BFE38B1074A4B21BDE81040B0
:108BD00011F047BD0521F2E710BD00BF08340020A9
:108BE000698B02003CCB030040CB03000C34002017
:108BF00038B50D4C206808B911F026FD4FF0A0459E
:108C00000A4AD5F8043512685340C5F8043523687C
:108C1000013B236033B906480FF026FE054B1B6865
:108C2000C5F8043538BD00BF2C3400203034002096
:108C3000343400205C34002001234FF0A0428340F4
:108C400011B1C2F80C357047C2F8083570474FF0C3
:108C5000A04311B1C3F80C057047C3F8080570476D
:108C6000F8B542B3132926D9134B144D5200013ADB
:108C70004FF0A0441A602860114BD4F804251A6004
:108C80004FF400404FF4FA760027E0FB01674FF401
:108C90007A7200233046394612F0EEFE0022014679
:108CA00008480FF09BFD30B9D4F804352A6823EA50
:108CB0000203C4F80435F8BD2C3400203034002001
:108CC0005C3400203434002008B54FF0A043032268
:108CD0004FF40051C3F83427C3F808154FF480410E
:108CE000C3F83827C3F808154FF40041C3F83C27F0
:108CF000C3F80815C3F840274FF48032C3F808259D
:108D00000121054A05480FF057FD18B1BDE808409C
:108D100011F09ABC08BD00BFF18B020064CB0300C8
:108D2000D8B10F4B0F4A18604FF0A0430020C3F892
:108D30002C27C3F83027C3F86027C3F864270A4BF1
:108D40004FF00042C3F80423C3F87C01074BC02254
:108D500083F8062340221A6070470E20704700BF38
:108D6000543400200C0003000060004000E100E0EB
:108D7000124B70B50024124E124DC3F87C414FF0D7
:108D8000A043A15DD3F8102501238B40934311D05C
:108D90000D49D5F804250B68981A48BFD01A43F23C
:108DA0003333984206D9D5F804350B60074B20467B
:108DB0001B6898470134042CE1D170BD006000406D
:108DC00068CB0300001001405834002054340020C8
:108DD00060DF704769DF704703F0BAB810B588B03C
:108DE00000F04CF908B111F02FFC2B4B0393039BBF
:108DF00004930C22002105A813F028F80023049AFC
:108E00008DF8143005A90120FFF7E4FF08B111F037
:108E10001BFC0C22002105A813F018F8F823049A73
:108E2000059305A9A120FFF7D5FF08B111F00CFCAF
:108E300004A8FFF7CDFF039B049A9A4204461CD076
:108E4000164B1B685B0418D5154B1B68012B14DDF2
:108E50002F21144813F0CEF8A8B12F21114813F098
:108E6000C9F8411C104B049AD3F8043501920F4AFB
:108E700000920220A22204F04DFF14B1204611F00E
:108E8000E3FB08B010BD5C21064813F0B3F808B14D
:108E90005C21E3E70349E5E7A02D00203C2E0020FC
:108EA000382E00206CCB0300001001409CCB030047
:108EB00070B5EFF3108672B60C4A946801239CB922
:108EC00093600B4B0B4DD3F8801029401160C3F811
:108ED0008050D3F8841051604FF0FF32C3F88420E3
:108EE000047006B962B670BD0370FAE7B85400208A
:108EF00000E100E0FC06FFBD10B5084B9A685AB1CE
:108F000050B9EFF3108272B605491C680C605C68BA
:108F10004C60986002B962B610BD00BFB854002022
:108F200000E100E001600B6843604A68934204BFBF
:108F3000002343607047436843B1026891680B4463
:108F400043605268934204BF0023436070474BDF85
:108F5000704700001FB50D4C01A8FFF7F8FF70B96E
:108F6000214602A8FFF7DEFF039B002BF4D00198F7
:108F70001A685968904702A8FFF7DDFFF4E7052853
:108F800001D011F061FB04B010BD00BFD8CB0300CD
:108F900061DF704730B5114B1B7891B0E3B1104DD4
:108FA00034240DF1020103A8ADF80240FFF7F0FFF1
:108FB00070B9294601A8FFF7B5FF029B002BF0D03E
:108FC00003A81A685968904701A8FFF7B4FFF4E7AF
:108FD000052801D011F038FB11B030BD60340020FD
:108FE000E4CB030010DF704713B504460949684617
:108FF000FFF798FF019808B902B010BD03684168F7
:109000002046984718B16846FFF795FFF2E7112010
:10901000F2E700BFF4CB030013B5044607496846E6
:10902000FFF780FF019B0BB902B010BD20461A6804
:10903000596890476846FFF77EFFF3E70CCC0300C2
:109040000C4991F816335A09EC231341DB0708D475
:1090500042F2020011F0F8BA1A6842F480021A6073
:109060007047054B9A68002AF6D14FF480030B60D5
:10907000704700BF00E100E0B8540020F7B5184F7A
:109080003C785CBB174E012520463570FFF7ACFFDE
:10909000112820D02046FFF7BFFF134B186801901E
:1090A00002A800F8054DFFF703FF104901A8FFF7DC
:1090B00099FF0446B0FA80F0400938709DF803002B
:1090C000FFF71AFF3CB90A4B34701C70FFF7B8FF6A
:1090D0002846FFF7A1FF204603B0F0BD0824FAE7B9
:1090E0006234002061340020F0CB0300259102009F
:1090F0006334002007B508496846FFF713FF019B5A
:1091000013B903B05DF804FB58681A6890476846C5
:10911000FFF711FFF3E700BF00CC0300FFF7EABF42
:109120000620704730B541F20103984287B00D46E2
:109130001446744B00F083801FD8012847D01B6869
:109140005B0460D5704B1B68002B5CDD2F216F48E2
:1091500012F050FF002800F0C9802F216B4812F058
:1091600049FF411C6A4B6B4AD3F8043500920195C4
:109170007B22012004F0CEFD45E044F20102904242
:1091800000F0898044F202029042D8D11B68590451
:1091900039D55D4B1B68002B35DD2F215B4812F064
:1091A00029FF00286ED02F21584812F023FF411CC0
:1091B000574B2288D3F80435039262680292564ACC
:1091C000009201956C22012004F0A4FD1BE01B68B5
:1091D0005B0418D54C4B1B68002B14DD2F214B482A
:1091E00012F008FF10B32F21484812F003FF411C72
:1091F000474B4A4AD3F80435009202940195602205
:10920000012004F087FD4FF0A0434FF4F032C3F883
:109210001825C3F80C25EFF3108372B64DF6AD6C2C
:109220003F4A1378002B6AD107B030BD5C21374824
:1092300012F0E0FE08B15C21D6E73449D8E71B689C
:109240005804E0D5304B1B68002BDCDD2F212F4864
:1092500012F0D0FE68B12F212C4812F0CBFE411C39
:109260002B4B304AD3F804350092029401956322C7
:10927000C6E75C21254812F0BDFE08B15C21EBE792
:109280002249EDE75C21214812F0B4FE08B15C21CF
:109290008AE71E498CE71B685A04B4D51A4B1B6831
:1092A000002BB0DD2F21194812F0A4FEA8B12F2108
:1092B000164812F09FFE411C154B2268D3F8043566
:1092C0000492626803920295A2680192164A009283
:1092D0000120772204F01EFD95E75C210B4812F077
:1092E00089FE08B15C21E3E70849E5E75C2107480E
:1092F00012F080FE08B15C2130E7044932E730BF4C
:109300008FE700BF3C2E0020382E002018CC030031
:1093100000100140BCCC03007CCC030040CC030017
:10932000E82D00205ACC03009BCC030007B5002396
:10933000ADF800300146054B01936A4644F2020045
:10934000FFF7F0FE03B05DF804FB00BF9DC2030011
:1093500001461022014812F06EBD00BF64340020A7
:1093600010B5064C06490822204612F064FD08227A
:10937000A0180449BDE8104012F05DBD643400201F
:1093800060000010A4000010004870476434002002
:10939000002306491A46C818428042605A540833CE
:1093A000B3F5807FF7D1024B1A6070477434002008
:1093B00074350020F0B50C4B0C4C1B68064620227F
:1093C0007BB1013B14F8330050B104EBC3056F8847
:1093D000B74202D16D688D4202D0013AF0D11046F9
:1093E000F0BD1F23EEE700BF743500207434002069
:1093F00030B5084A084C136804EBC30569600121C5
:1094000004F833100B44202B08BF0023688013603E
:1094100030BD00BF7435002074340020C0F30C034D
:109420008B42084438BFA0F50050C01A70470000B6
:10943000F0B50E4B0E4C1F680022BA4213D0D1007B
:1094400063185E6800230AE0655805EBC30E15F843
:109450003350854202D1DEF80400F0BD0133B3423F
:10946000F2D10132E9E70020F0BD00BF78350020DD
:109470007C35002000B58DB040B99A1C06D0012281
:1094800001A88DF80420029301F022F9034B18681B
:1094900003F0FCFC0DB05DF804FB00BF8435002038
:1094A00010B50378044613B97846FFF73FFFE0791B
:1094B000431C01209840013810BD0000F8B5037826
:1094C00004460F4613B97846FFF730FF0B4B0C4E9E
:1094D0001A68511C02F0070206EBC2051960A38A44
:1094E0006B80A188A069FFF799FF6860E36906F8BF
:1094F000327003F001036B70F8BD00BFC835002067
:10950000883500202DE9F0410E468EB015461C46E8
:10951000074610B97846FFF709FF16B97846FFF7F6
:1095200005FF14B97846FFF701FF636A62780233DA
:109530000593A378A2F10800002B14BF012102219A
:109540000DF1040842424241434604F10C0003F08D
:10955000D0FD63788DF83430237BADF82050022B9A
:1095600016FA85F5CDF8188007970B960C950FD154
:10957000236913B97846FFF7D9FE236909931023AD
:1095800005A8ADF8283003F0B0FD0EB0BDE8F081BD
:109590000023F5E738B5044604F13005C06E06F047
:1095A00010FF284602F01BFF10B1284602F0E4FE2F
:1095B00094F84830022B08D104F15005284602F0F7
:1095C0000EFF10B1284602F0D7FE2046702200217F
:1095D00012F03CFC002084F84800BDE8384002F05E
:1095E0007DB810B590F84830012B8CB0044602D0FD
:1095F0007846FFF79BFE01238DF8043001A8636DC8
:10960000029301F065F82046FFF7C4FF0CB010BDCF
:109610004B1E012B2DE9F04707468846914602D99B
:109620007846FFF783FEB9F5C07F02D97846FFF789
:109630007DFE264B002570229A4602FB053494F8E5
:1096400048603EB9484606F0BAFEE06630B90020F0
:10965000BDE8F0870135042DEFD1F8E73022394617
:10966000204612F0E8FBE664A4F84A90B988B8698D
:10967000FFF7D4FEB8F1010FA0611CD1144B84F8A0
:1096800052601B7D84F8513084F8536084F8506038
:10969000BB6A63656FF00103A3620E4BA36324648E
:1096A000012002F01BF8702303FB05A5204685F876
:1096B0004880BDE8F0876FF00103A362064BA36505
:1096C00084F868602466054BE8E700BFE4350020B5
:1096D000CC3500209D9A02004DA60200959A02000A
:1096E0001FB500220B468DF80F2028B3023008600A
:1096F00018460DF10F0103F0FAFC9DF80F30DBB1B5
:10970000144B1B685B0717D5134B1B68032B13DD2A
:109710002F21124812F06EFC98B12F210F4812F041
:1097200069FC411C0E4B0F4AD3F80435009204200B
:109730004FF4697204F0EEFA9DF80F0005B05DF881
:1097400004FB5C21054812F055FC08B15C21E5E7FB
:109750000249E7E73C2E0020382E00200CCD030004
:109760000010014029CD03002DE9F04799461378F8
:10977000D2F81880F2B007468A46144623B1918881
:109780004046FFF74BFE9061A3786278002BA2F170
:10979000080003AD14BF0121022104F10C0642426E
:1097A00042412B46304603F0A4FC627808951FFA2C
:1097B0008AF5AB1A9BB20997ADF828301F440023F5
:1097C000ADF83030237B8DF83C20022B04BF1022F3
:1097D000ADF83020A2780E9712AFC4F818800D971C
:1097E00004F12408002A5ED04FF0000A237BC4F85D
:1097F00024A0022B04BF23690B93206AE178424620
:109800000EF018FC606A40BB237B022B05D1314669
:10981000E0890EF0BDFC0028E8D1354B1B685B07E2
:1098200018D5344B1B68052B14DD2F21324812F05C
:10983000E1FB002852D02F212F4812F0DBFB411C06
:109840002E4B2F4AD3F804350092062040F21762BF
:1098500004F060FA72B0BDE8F08707A9FFF740FF97
:109860000028CAD06178A28AADF82A206D1A012199
:109870008DF8281096E8030000230B938DF81C3018
:109880000CAB83E80300A37D8DF84030236A0E9370
:1098900007A8636A0897ADF824500F93CDF8449059
:1098A00000F016FFD6E7012B62620CD00023414680
:1098B000A08A63620EF0F6FB07A9606AFFF710FF4B
:1098C0000028AAD0CEE74146E0890EF0EBFB07A9BD
:1098D000606AFFF705FF0028E8D0C3E75C2106486F
:1098E00012F088FB08B15C21A6E70349A8E700BF96
:1098F0003C2E0020382E00200CCD0300001001402B
:1099000060CD0300C37D0A7830B5002B3DD083784D
:1099100022F07F0203F07F031A430A700B7802786B
:1099200003F07F0343EAC2130B70037863B34378F9
:10993000083B5A425A414B7803F07F0343EAC21373
:109940004B708A78858802F00302C5F3861442EAD8
:10995000850223F07F032343D2B28A704B70CB7809
:10996000857903F01F03C5F3C10422F0030243EA23
:1099700045132243DBB2CB708A70C27923F01F03F8
:1099800002F01F021343CB7030BD83789B0122F09D
:10999000400203F0400313430B70C27823F03F03EF
:1099A00002F03F0213430B70B8E7000038B590F89F
:1099B0004830012B044602D07846FFF7B7FC02F08E
:1099C00027FD237B084A012B03BFA37D1569D168BE
:1099D000D16808BF05FB0311014404F13000BDE864
:1099E000384002F0E0BC00BFCC35002070B50D4619
:1099F00090B0044610B97846FFF798FC0021204645
:109A0000FFF75CFD2C22002105A8666D12F01EFAFE
:109A10000F2305A88DF8143006968DF81C5000F021
:109A200057FE2046FFF7B6FD154B1B685B071BD59D
:109A3000144B1B68032B17DD2F21134812F0DAFAA1
:109A4000A0B12F21104812F0D5FA411C0F4BD3F8CA
:109A50000435029594F8482001920D4A00920420A2
:109A600040F2EF1204F056F910B070BD5C210648C8
:109A700012F0C0FA08B15C21E4E70349E6E700BF51
:109A80003C2E0020382E00200CCD03000010014099
:109A9000DBCC030008460021FFF7A8BF10B591F802
:109AA0004830012B0C4602D07846FFF73FFC94F873
:109AB00051305BB1013B84F85130002384F85030C1
:109AC000084BBDE81040186803F0E0B9217B01297C
:109AD000204603D1BDE81040FFF788BFBDE8104025
:109AE000FFF77FBD843500202DE9F04F044687B095
:109AF0000F4609B100230B6094F850504FF0010855
:109B000004F10C09E279954203D9002007B0BDE8C1
:109B1000F08FE16C08FA05F30B4259D1E37DA57192
:109B2000002B0CBF0C260826954206FB05FA23786D
:109B300008BFB4F84A60CDF8009008BFA6EB0A064B
:109B4000002B14BF4FF0040B4FF0010B06EB0B037F
:109B50000293A36A0193684694F82C308DF80C3078
:109B600003F063FC0028D1D1059B9B4445B994F8D0
:109B700053302BB9A36984F85380C3F30C03A3803B
:109B8000E37D8BB994F8523073B915B17846FFF77D
:109B9000CDFBB4F84A1062788A1AE16E2346084673
:109BA000FFF7B0FC84F8528005992046FFF7AAFE23
:109BB000E16E32465144584612F03DF9684603F0D2
:109BC0004CFC17B13B6801333B606B1C84F8503090
:109BD0000135EDB296E700002DE9F041D47D8AB061
:109BE00006460F4615469846002C00F09280947861
:109BF000002C6BD106294AD10278437881789201F2
:109C000002F4FE5242EA9302C3781B0443EA016362
:109C100041790B43017943EA01233F49084691F812
:109C20004860012E12D18F8AEE89B7420ED18E88FC
:109C300096420BD1702202FB0404E56C1D43E564DF
:109C40008BBB03212046FFF7D1FE20E00134042C1A
:109C500001F17001E3D1314B1B685B0717D5304B25
:109C60001B68012B13DD2F212E4812F0C3F988B198
:109C70002F212C4812F0BEF9411C2B4B2B4AD3F854
:109C800004350092022040F2A55204F043F80AB0D5
:109C9000BDE8F0815C21234812F0ACF908B15C21E9
:109CA000E7E72049E9E72046FFF7FAFB854203D1C1
:109CB0002046FFF796FCEAE7002184F85010204682
:109CC000FFF712FF2046FFF771FEE0E72046FFF79F
:109CD000AFFB03460028DAD005F10C012A6A08928E
:109CE00003C9AA8AADF8162006AA82E80300AA7D55
:109CF0008DF824202A788DF8142095F82C208DF8E2
:109D00000840039604978DF82520414602A89847FD
:109D1000BDE7FFF729FDBAE7E43500203C2E00201F
:109D2000382E00200CCD03000010014089CD030027
:109D3000F0B5C37D15464278002B2A4414BF4FF47A
:109D400080734FF4C0739342C7B00E4677D33F4B36
:109D500003F5E07193F84840012C07D19F8A848A6B
:109D6000A74203D1DF89C489A7426AD070339942E0
:109D7000F0D10121FFF74CFC0446002863D02A46AD
:109D80003146C06E12F057F8002304A92046049310
:109D9000FFF7AAFE30F0040506464BD1049B13B131
:109DA0002046FFF703FE2A4B1B685B0728D5294B8B
:109DB0001B68032B24DDB4F84A10274B8029186850
:109DC00028BF8021002305AE8B421CD100222F2109
:109DD000224806F8132012F00DF910B32F211F4866
:109DE00012F008F9411C1E4B1E4AD3F804350192AB
:109DF0001D4A0092029640F2CF42042003F08AFFEF
:109E0000284647B0F0BDE26ED25C170902F00F029F
:109E1000C75D06F81370875C06EB43020133577089
:109E2000D2E75C210D4812F0E5F808B15C21D6E7D5
:109E30000A49D8E72046FFF7ADFB3546E0E709259C
:109E4000DEE70825DCE70425DAE700BFE43500207B
:109E50003C2E0020382E0020402E00200CCD030088
:109E600000100140FECC030042C203002DE9F04186
:109E7000044686B0808A0F46164601F0BFFE0128D0
:109E80004BD1237B002B48D0022B02D12369002B1E
:109E900043D094F91630002B41DB23784BB1324686
:109EA00039462046FFF744FF0546284606B0BDE880
:109EB000F081E27D6378002A334414BF0B220F2225
:109EC000934228D80133029304F10C030093A36A50
:109ED0000193684694F82C308DF80C3003F0A5FA05
:109EE00005460028E1D10599204601F10108FFF758
:109EF00009FDE37D43B132463946404611F09BFFF0
:109F0000684603F0AAFAD0E723463246414638466F
:109F1000FFF7F8FAF4E70925C7E71025C5E7072595
:109F2000C3E7000010B54FF4E0720021144811F0AF
:109F30008DFF002404F030FE124B13481C602146B4
:109F4000402211F083FF114B1148124A12499C75AF
:109F500083E805004CF250329A601A6104221A75A7
:109F60000E48D96008225A7502F072FF0C4B186037
:109F70000C4B0D481C60BDE8104004F007BF00BF4B
:109F8000E4350020C835002088350020CC3500207D
:109F900080969800F049020020A10700A1A10200CC
:109FA000843500207835002075940200F0B5044611
:109FB0008DB000284FD00569002D4CD0C369002B0F
:109FC00049D08669002E46D05A788DF803201A7839
:109FD0000993037BC17A022B04BF214B9B7D002B8D
:109FE00082F0010214BF082304238DF802208DF8AB
:109FF0000130828AC3F10F0019B9824201DC082BBB
:10A000002BD08242C8BF01218DF8001051B11344FA
:10A010000B330C2193FBF1F3013B8DF80730002348
:10A020008DF8063094E8030003AF87E80300218928
:10A03000ADF81410A17A8DF81610216A0A91002348
:10A04000294668468DF8173008968DF82C30FFF7B2
:10A050000DFF0DB0F0BD0E20FBE70720F9E700BFB4
:10A06000CC350020F0B503468DB00F4600283DD01A
:10A070004468002C3AD08569002D37D0027C12F05C
:10A08000FD0F35D00278110634D48DF80220826895
:10A090000B2A98BF007B4FF0000188BF0120099177
:10A0A0008DF800008DF8011030B1D01DC0080138C6
:10A0B0008DF807008DF8061001218DF8171003F1B7
:10A0C000100103C903AE86E80300D989ADF8141066
:10A0D000197F8DF816105B7F0895214668468DF82C
:10A0E0002C300A97FFF7C2FE0DB0F0BD0E20FBE743
:10A0F0001020F9E70720F7E7F0B5077B012F8DB0B7
:10A1000004460D4647D101AE0B220021304611F026
:10A110009DFEA1889DF804208DF80950C1F3861397
:10A1200022F07F021A439DF805308DF8042003F0D9
:10A13000030343EA81038DF805302B0E8DF80630BA
:10A140002B0C8DF807302B0A8DF808300623069368
:10A15000A38AADF82230002309938DF810308DF8D2
:10A160001C30E389ADF81E3094F82C308DF82D307A
:10A17000A37D226A8DF8207005960A9243B96FF08C
:10A18000010104A88DF82C30FFF76CFF0DB0F0BD75
:10A19000024B5B7DF3E70020F8E700BFCC350020E1
:10A1A000F7B500241D4E2746351995F84830012B88
:10A1B0000BD101A928460197FFF796FC042801D08E
:10A1C000019B13B12846FFF7F1FB7034B4F5E07F33
:10A1D000EAD1124C04F5E07594F84830022B17D1FF
:10A1E00094F86830022B13D1E16C2046FFF784FF0E
:10A1F00070B984F868002046E66CFFF751F9864292
:10A2000006D120460121FFF759F92046FFF7C2F990
:10A210007034AC42E0D1012003B0F0BDE435002041
:10A220002DE9F0470D469CB0144698460646002896
:10A2300000F0F181002A00F0EE810DF10C090021FF
:10A240000822484611F002FE494660880DF0A0FF42
:10A2500020B9002738461CB0BDE8F0872269E168C4
:10A26000208902F0010204F067FC82460028F0D148
:10A270002269E168208902F0010204F031FC0746FE
:10A28000A8B12C22514610A82589247C11F0DEFDAE
:10A290000E238DF840309DF84630ADF8445064F3FD
:10A2A000000310A88DF8463000F012FAD2E70DF145
:10A2B0004C0A18222146504611F0BDFD337803F0B8
:10A2C0008002111C18BF01218DF840109DF8571015
:10A2D000E1B103F07F038DF842308DF841705AB33D
:10A2E0007278B378920102F4FE5242EA9302ADF81A
:10A2F0004420DB00F27803F0180343EA521302F023
:10A300001F028DF846308DF8472015E0C3F3801109
:10A310008DF8421003F03F018DF84310190608D55F
:10A3200096F90130002BACBF042308238DF841308F
:10A33000D5E704238DF841300023199398F80030B5
:10A34000052B02D97846FEF7F1FF98F80030B54AA0
:10A3500099E80300D35C8DF86C308AE8030002F0C2
:10A3600007FD9DF84030002B00F04E81AE4BBDF84C
:10A3700054200024194693F8480002280DD1988AE9
:10A3800090420AD1702303FB0414BDF84420A38833
:10A390009A4230D202F02CFD5CE70134042C03F128
:10A3A0007003E8D100249DF8403013B97846FEF7D9
:10A3B000BDFF179BBDF844101698BDF854A003F0DC
:10A3C0000109FFF72BF8994B00229E4659688842F5
:10A3D00017D15988514514D15978494511D11EF8E2
:10A3E0003230002BD6D010A8FFF75AF8014610A83B
:10A3F000FFF782FECEE7D6D905212046FFF7F6FA11
:10A40000D0E70132082A03F10803DFD1002C51D133
:10A410009DF857209DF84730002A0CBF0C240824D3
:10A4200003FB04440CBF4FF4C0734FF480739C4291
:10A4300026D97F4B1B685A07ACD57E4B1B68002B77
:10A44000A8DD2F217C4811F0D5FD80B12F217A485D
:10A4500011F0D0FD411C794B794AD3F804350092B4
:10A4600001944FF44D72012003F054FC92E75C21FB
:10A47000714811F0BFFD08B15C21E8E76E49EAE7D9
:10A480002246022110A8FFF7C3F8044690B90146FE
:10A4900010A8FFF731FE2C22214605A811F0D6FCAA
:10A4A0000F238DF8143005A802238DF81C3000F01E
:10A4B0000FF96FE75E4B1B685B071CD55D4B1B6894
:10A4C000032B18DD2F215C4811F094FD002800F0CB
:10A4D0008A802F21584811F08DFD411C574B9DF863
:10A4E0004620D3F804350192564A0092042040F2E7
:10A4F0004F3203F00FFC94F84830022B02D078461C
:10A50000FEF714FFDFF84091D9F800A001F080FFBA
:10A510000AEB000104F1300001F045FF237B012B21
:10A520001CD194F86830CBB994F84830022B02D093
:10A530007846FEF7FBFED9F8043099F81510D9F8E3
:10A54000082002FB013901F063FF00EB090104F16F
:10A55000500001F028FF012384F868309DF8463050
:10A56000E16C0120984001427FF414AF0143E164A3
:10A57000E1799942A5F104029DF857103CD10029D8
:10A5800014BF08210C2103FB0121E56EA4F84A1039
:10A590000CBF0C20082000FB0350311D11F04BFCB8
:10A5A0002046E56CFEF77CFF85427FF4F3AE022384
:10A5B00084F86830E16C2046FFF79EFD434605466F
:10A5C0002246B4F84A10E06EFFF706FB002D7FF438
:10A5D000E1AE204684F868500121FEF76FFF204667
:10A5E000FEF7D8FFD6E65C21134811F003FD08B151
:10A5F0005C216FE7104971E779B90C2A0EE004215C
:10A600002046FFF7F3F9C5E6434610AA691E701C01
:10A61000FFF7E2FABEE60E271CE6082AEFD1E56E48
:10A620001046B8E7D5CC0300E4350020883500207B
:10A630003C2E0020382E00200CCD030000100140DD
:10A640003CCD030050CD0300CC35002010B591F86F
:10A650004830022B0C4602D07846FEF767FE0223F4
:10A6600084F86830E16C2046FFF746FD08B984F8AD
:10A67000680010BD2DE9F04188460746E8B1124E4A
:10A680003468C4B92546454507D1104B1F605D604D
:10A69000012333602046BDE8F08107EBC5035B680A
:10A6A0005BB117F83500030609D450B1FEF7C0FEC0
:10A6B00038B90135E7E70424ECE70E24EAE70B2478
:10A6C000E8E70F24E6E700BF783500207C3500205E
:10A6D000F8B5074610B97846FEF728FE0F4E3468E5
:10A6E00094B10F4D01232B7023791BB954F8043C0E
:10A6F000384698472468002CF6D12B78022B03D1DA
:10A700003168064C09B92970F8BD0B790E6813B190
:10A71000204603F086FA3146F4E700BFA837002050
:10A72000A437002010B5044610B97846FEF7FEFDA8
:10A7300000232372211D0248BDE8104003F050BAE7
:10A74000A837002010B5044610B97846FEF7EEFD94
:10A75000074A1378013B012B04D80223137001230D
:10A76000237210BD211D0348BDE8104003F059BA03
:10A77000A4370020A83700200B888268D25A0732FD
:10A7800022F00302134402889BB2043A934288BF2A
:10A7900000230B80704713B58368CB1A02A921F8F8
:10A7A000023DFFF7E9FFBDF806308068184402B0AB
:10A7B00010BD70B5064615460C4611BB7846FEF72F
:10A7C000B5FDFEB17846FEF7B1FD6B1E2344B3F133
:10A7D000005F34D94FF08052D2F80C2102F50022EC
:10A7E000B3EB822F2ED2042D02D87846FEF79EFDC1
:10A7F00035800023043D7380B380B4602580A3704E
:10A8000070BD10B97846FEF791FDB4F1005F12D922
:10A810004FF08053D3F80C3103F50023B4EB832FB2
:10A82000D3D34FF08053D3F80C3103F50053B4EB7E
:10A83000832FC7D2C9E7B4F5000FF2D8C2E7B3F54A
:10A84000000F08D94FF08052D2F80C2102F50052C7
:10A85000B3EB822FC7D37846FEF768FDC3E738B560
:10A86000044610B97846FEF761FD6288A368134478
:10A870009B78012B02D17846FEF758FDEFF3108547
:10A8800072B6A268A18811448B78032B0AD12046A6
:10A89000FFF781FFA368C31A63800023837005B9A3
:10A8A00062B638BD002393706380A380F7E7F8B5E4
:10A8B0000E461546044610B97846FEF737FD16B920
:10A8C0007846FEF733FD6288A36813449B78012B1A
:10A8D00002D17846FEF72AFD002D37D02388043BAD
:10A8E0009BB29D4232D8EFF3108772B66188A3887D
:10A8F000EA1D22F00302994292B206D25B1A9A42F2
:10A9000012DD042027BB62B6F8BD16D92088401A94
:10A91000904209D29A42F4D8032881BFA3685B18F9
:10A9200004229A70002363806288A1688B188D527C
:10A9300001229A7000203360E4E7A26813449B78F8
:10A94000002BDED193706380A380EDE70920F8BD72
:10A95000F8BDF8B50D461646044610B97846FEF720
:10A96000E5FC15B97846FEF7E1FCAB78012B02D087
:10A970007846FEF7DBFC2B88B34202D27846FEF71E
:10A98000D5FC16B97846FEF7D1FCEFF3108772B606
:10A990000223AB70E1182E802046FFF7EDFE62889F
:10A9A000A38893421FBFA3689B1800229A7007B91F
:10A9B00062B6F8BD70B50D46044610B97846FEF78C
:10A9C000B5FC15B97846FEF7B1FCEFF3108672B608
:10A9D000A288A36813449A78042A06D1211D204630
:10A9E000FFF7CAFEA288A36813449A78022A03D00C
:10A9F000032A08D0052003E003229A702B60002070
:10AA000006B962B670BD7846FEF790FCF7E738B538
:10AA1000044610B97846FEF789FCEFF3108572B64C
:10AA2000A088A16801448B78042B03D12046FFF74E
:10AA3000B2FE01468878831E5842584105B962B675
:10AA400038BD38B5044610B97846FEF76FFCEFF311
:10AA5000108572B6A088A16801448878C31E012BB6
:10AA600005D9831E5842584105B962B638BD204603
:10AA7000FFF791FE0146F0E7F8B50D46044610B920
:10AA80007846FEF753FC15B97846FEF74FFCEFF316
:10AA9000108672B6AB78012B19D0032B22D1A28875
:10AAA000A36813449D4202D07846FEF73FFC00277E
:10AAB000AF70211D2046FFF75FFEA288A3681344F4
:10AAC0009B78042B00D1A78006B962B6F8BD6288D6
:10AAD000A36813449D4202D07846FEF727FC00236A
:10AAE000AB70F1E77846FEF721FCEDE710B5EFF328
:10AAF000108472B68288816811448B78042B02D14D
:10AB0000FFF749FE01468878B0FA80F0400904B9A1
:10AB100062B610BD037942799B1A03F57F2303F6D1
:10AB2000FF7300EB0330704710B5054884681C22A2
:10AB3000002111F08BF92046BDE8104003F070BEF3
:10AB4000AC37002070B51C4CE36813B97846FEF7AB
:10AB5000EDFB237E13B17846FEF7E8FB6368092B13
:10AB600002D97846FEF7E2FB144D0026636855F8DB
:10AB700023309847022811D003280DD0012815D181
:10AB800063680133092B636002D97846FEF7CEFB78
:10AB9000237E002BEAD00DE06660F9E7237E0BB13F
:10ABA000207070BDBDE87040FFF7BEBF00F0FD0033
:10ABB0000128EDD070BD00BFAC370020B8CD030038
:10ABC00010B50388044613B97846FEF7AFFB20881A
:10ABD000074B04EB800030EA030203D06288B2F531
:10ABE000FE4F04D11C4004F580542078204410BD51
:10ABF00000F0FFFF70B504460E4647F6FE65FFF70E
:10AC0000DFFFB04207D2844205D24388013B9BB2AA
:10AC1000AB42F4D870BD002070BD00000B78032B50
:10AC2000094B04BF00221A761A78012A03D11B7E31
:10AC300043B9FFF787BF022A04D10B78032B01D158
:10AC4000FFF772BF704700BFAC37002010B50C4C47
:10AC5000E3681878002203F58051184404F05AF88C
:10AC600050B9E1680846FFF755FF814206D001F56B
:10AC70008051E160032010BD012010BD022010BDF5
:10AC8000AC3700201FB50A4B02221B688DF800204C
:10AC90000193084A4FF4805369460120029300F063
:10ACA000EDFEB0FA80F0400905B05DF804FB00BF8E
:10ACB000CC370020C83700201FB501230190039135
:10ACC00002926946044A8DF80030184600F0D6FE1C
:10ACD00005B05DF804FB00BFC83700202DE9F04740
:10ACE000264BD86802794179013A91421E4603D138
:10ACF00001205876BDE8F08700F5805320491C7884
:10AD00001C440B6813F8045F1D44FFF703FF6388BE
:10AD1000013B9BB247F6FE62934200F5805788469E
:10AD200004D920463946FFF765FF0446DFF854A0F2
:10AD30004FF0010934B9B4FA84F46409747601203F
:10AD4000BDE8F087D8F800106288284601F58051E8
:10AD500003F0E0FF05460028EDD0042251462046CE
:10AD600086F81890FFF7A8FF28B920463946FFF764
:10AD700041FF0446DEE70020BDE8F087AC37002045
:10AD8000CC37002058CF030038B5104CE368187852
:10AD90004FF6FF7203F58051184403F0BBFF88B1F2
:10ADA000E36819780B4498420CD0657E084B09493A
:10ADB0000422002D08BF1946FFF77EFF20B90120AD
:10ADC000207638BD012038BD002038BDAC370020CA
:10ADD0005CCF030060CF030070B50C4D0C4EE968EA
:10ADE00030680C7804302246FFF766FF58B93368A4
:10ADF00004F0FC0404341C44EB686C611A781344BE
:10AE00002B61012070BD002070BD00BFAC37002059
:10AE1000CC37002008B5054B054918680422FFF718
:10AE20004BFFB0FA80F0400908BD00BFCC370020CE
:10AE3000B837002010B5074B074C1968E06840F69A
:10AE4000FC720431FFF738FF10B90120207610BDE5
:10AE5000002010BDCC370020AC37002010B50C4CC2
:10AE6000E1680846FFF756FE81420AD1094B0A49BC
:10AE700018680422FFF720FF40B90123237602203F
:10AE800010BD01F58051E160032010BD002010BD10
:10AE9000AC370020CC370020D03700202DE9F74F09
:10AEA000334C236913B97846FEF740FA636913B946
:10AEB0007846FEF73BFADFF8BC9047F6FE6A636916
:10AEC0002769E06803EA0908A8EB0308FFF722FEF8
:10AED0007B88013B9BB2534508F5805800F5805BA9
:10AEE00006D938465946FFF785FE0746002837D071
:10AEF0003D4600265D4519D22A8806EB8202904520
:10AF000009D987EA050313EA090F04D16B88013BCD
:10AF10009BB2534502D956B901231AE02846019243
:10AF2000FFF74EFE019A05461646E3E7F6B13246B4
:10AF300039466069FFF7C0FEA0B9636926F00306D1
:10AF40003344636115B97846FEF7F0F925610023B3
:10AF500035B1698847F6FF72914201D0002BAED01F
:10AF6000012000E0002003B0BDE8F08F0123EFE7EF
:10AF7000AC37002000F0FFFF1FB50A4B0222DB6850
:10AF80008DF800200193084A4FF480536946012050
:10AF9000029300F073FDB0FA80F0400905B05DF84F
:10AFA00004FB00BFAC370020C837002010B54FF0BD
:10AFB00010235A69013225D05A691AB35B69A3F587
:10AFC0008053A3F58053174A196813604B1E03334F
:10AFD00025D8C1F30B0313BB134A1448D1600121D8
:10AFE0001170134913765376936051F823408442CD
:10AFF0000ED153600F49012000F030FDFFF7A2FD94
:10B00000012010BD4FF08052516913694B43D8E7BE
:10B0100001330A2BE9D17846FEF788F9EAE70020E8
:10B0200010BD00BFCC370020AC37002079AF020044
:10B03000B8CD03001DAC020010B5044610B9784627
:10B04000FEF774F9094B187870B1E068D968437954
:10B05000A0EB0333994206D3FFF75CFD81428CBF1E
:10B060000020012010BD002010BD00BFAC37002023
:10B07000024B1878003018BF01207047AC37002011
:10B0800038B50E4C2378054613B17846FEF74EF9D5
:10B090002B78032B02D07846FEF748F9EB68E36083
:10B0A000012000230649A560636023762070637643
:10B0B00000F0D4FCBDE83840FFF744BDAC370020B9
:10B0C0001DAC0200014B1868704700BFCC37002050
:10B0D00010B5044610B97846FEF728F963681BB12D
:10B0E00023680BB1A36813B97846FEF71FF9A3686C
:10B0F0005A1E1A4202D07846FEF718F90023E36080
:10B10000236110BD70B50E460446F0B18368F3B1FB
:10B11000EFF3108572B60169C368994203D105B98E
:10B1200062B605250FE04EB18368013B0B4090E805
:10B130000600304602FB031110F07DFE2369013347
:10B14000236135B962B6284670BD0E25FBE7092597
:10B15000F9E70025F7E70000024AD2F80034002B97
:10B16000FBD0704700E00140C0F30B0310B5E3B91A
:10B17000E9B1104C0223C4F80435FFF7EDFF01F6E6
:10B18000FF7121F47F6121F00F010144884205D154
:10B190000020C4F80405FFF7DFFF10BDC4F8080560
:10B1A000FFF7DAFF00F58050F0E7102010BD09200E
:10B1B00010BD00BF00E0014070B540EA010414F08A
:10B1C00003041BD1E2B195071AD10E4E0123C6F834
:10B1D00004359508FFF7C0FFAC4205D10020C6F842
:10B1E0000405FFF7B9FF70BD51F824305A1C03D095
:10B1F00040F82430FFF7B0FF0134EDE7102070BDB8
:10B20000092070BD00E001404388012B05D0022BCE
:10B2100001D1043008600120704704304860FAE72B
:10B2200008B508220221094803F051F920B908485D
:10B23000BDE8084003F0CCBA064A91684160127B31
:10B240000272BDE8084003F071B900BFDC3700208E
:10B25000FC2D00202838002010B5044610B978468F
:10B26000FEF764F82346BDE81040184738B50E4D88
:10B270002B78C3B90D4B5C6804F50054B4F1807FA2
:10B2800011D8042201210A4803F021F920B9094804
:10B29000BDE8384003F09CBA012344602B70BDE840
:10B2A000384003F043B938BD3C380020283800202E
:10B2B000DC370020EC2D002010B501210C4803F0F4
:10B2C0004BF980B902210A4803F046F9044650B907
:10B2D00001461422074810F0B9FD074B1C70BDE869
:10B2E0001040FFF7C3BF054803F072FAF7E700BF4D
:10B2F000DC37002028380020003800201C2E0020D9
:10B3000030B50D468DB07AB94B88012B0AD1124C5D
:10B31000227812B97846FEF709F8104B6A685A602D
:10B32000002323700DB030BD032A02D07846FDF70C
:10B33000FDFF2C22002101A810F088FD10238DF8BC
:10B340000430074B0395DA681B69059201A8069340
:10B35000FFF7BEF9E6E700BF3C38002028380020A0
:10B36000DC37002013B501F003FD00216B46124AC3
:10B3700012480091019102F0FDFF009B104C0BB1AF
:10B38000019A6AB900232360A3602373FFF748FF83
:10B3900023686360FFF76AFF01F02AFD02B010BD69
:10B3A0001968A16019792173934203D91B790BB9EC
:10B3B0002360EDE71368FBE709B20200DC370020E9
:10B3C0002838002008B503F051FAA0F5805008BDD8
:10B3D0007FB500211822684610F038FD0023029343
:10B3E000FFF7F0FF0123009001936946054B0648E3
:10B3F000039303F0D8F810B1044803F0E9F907B05B
:10B400005DF804FB01B30200DC3700200C2E0020A5
:10B4100008B5142200210A4810F018FD00F0F8FFCA
:10B42000084B094A9A60094ADA60002258601A619A
:10B430005A61074B1A70BDE80840FFF7C9BF00BF4B
:10B4400028380020043800206DB5020000879303DF
:10B450003D38002010B5074C23784BB90648074B00
:10B46000036000F073FD064800F064FF01232370C1
:10B4700010BD00BFD83700201C380020D5B5020011
:10B480000438002030B58DB001F072FC154B1A7BEA
:10B490001D4622BB9A7B12BB1A8A41F282639A42F2
:10B4A00002D8114B1B78D3B101232B73AB68002456
:10B4B0000133AB602C82FFF7B3FEAB682A7B8DF8BB
:10B4C0000820013B0CA80493022300F82C3D0394B0
:10B4D000FFF7FEF801F08CFC20460DB030BD0824CB
:10B4E000F8E700BF283800203D38002010B58CB0A8
:10B4F00001F03EFC1B4B5A7B42B1997B99B9188AEB
:10B5000041F28261884201D8174A127802F00104A0
:10B510007AB1197B00225A7339B101290ED07846CD
:10B52000FDF704FF05E00022F0E7FFF7ABFF00287E
:10B53000F5D101F05DFC20460CB010BD1A605A60D8
:10B540001A731A820CA89B680493022300F82C3DFE
:10B550008DF808200392FFF7BBF8FFF761FEFFF7B5
:10B5600085FEE6E7283800203D38002038B5174C26
:10B57000257B2DB1012D12D07846FDF7D7FE21E0B5
:10B58000228A41F282639A4202D8114B1B78CBB1D6
:10B59000FFF7ACFF638A0BB1013B638238BD238A9E
:10B5A00041F28262934202D8094A157855B142F2BB
:10B5B000B012934282BF012300256373FFF796FF09
:10B5C000002DE7D0238A01332382E3E728380020C7
:10B5D0003D38002030B50378042B8DB00FD143687F
:10B5E0001B7863B1224C4369217B027E002939D14B
:10B5F000618A61BB012AA26803D0934204D80DB0CE
:10B6000030BD0132934224D9A2682A329342F6D83F
:10B61000A27B002AF3D18568A36042F6065322601C
:10B6200062602282638262732273FFF7F9FDFFF783
:10B630001DFE237B8DF808300CA80223A26800F8B9
:10B640002C3D103504920395FFF742F8D7E7012A05
:10B65000D5D1A26801329342D1D101236373FFF7A0
:10B6600045FFCCE70129CAD1012AC8D0A268F2E778
:10B670002838002038B5164C94E80C009A4205464C
:10B680001FD2207B1349144B012808BF0B4693425D
:10B6900007D963682268403B9A4208D3FFF7E6FD6A
:10B6A00005E001236373FFF721FF0028F1D0EFF3DA
:10B6B000108072B623685A1C22602B6028B962B6CB
:10B6C00038BDFFF7D3FD0F2038BD002038BD00BFC7
:10B6D0002838002000E0FF00FFFF7F0010B50C4C71
:10B6E00030B10C4B01229A7323681344236010BDC0
:10B6F000236813B97846FDF719FE2368013B2360E0
:10B700002BB9044A9373BDE81040FFF7EFBE10BD9C
:10B71000D43700202838002000B58DB00323ADF8C1
:10B7200008000CA88DF8102000F82C3D0391FEF7BE
:10B73000CFFF0DB05DF804FB014B9868704700BF68
:10B7400028380020034B1A7B9868012A08BF00F1B3
:10B75000FF30704728380020044B9B685840C207D0
:10B7600048BF03F1FF331846704700BF2838002058
:10B77000014B187B704700BF283800202DE9F843A3
:10B780001D4CDFF8789000260221204602F035F9A2
:10B790005FFA86F805460027ADB967B1294620460D
:10B7A00002F093F9082806D154F8043C1BB12A464C
:10B7B0004946404698470136032E04F1BC04E3D1C4
:10B7C0000120BDE8F88354F8043C23B134F80C2C74
:10B7D00029464046984734F80C3C013324F80C3C89
:10B7E0000221204602F025F90221204602F005F947
:10B7F00001370546D0E700BF54380020E0CD0300F4
:10B8000038B5012104460C3002F0F7F8054620B3A4
:10B81000164BC4F89C300023C4F8A030037862684B
:10B82000012B07D0022B1AD07846FDF77FFD4FF48D
:10B83000FA7306E081688B1A990829234B4303F5B4
:10B84000FA730B4A934294BFC4F8A830C4F8A820F6
:10B850000123C4F8AC4084F8B830284638BD83686A
:10B860009B1A1A0B034B5343E9E700BF99B8020038
:10B8700060850100084C010010B50446FFF7C0FFC9
:10B8800048B104F19C0005F013FA20B17846BDE8F8
:10B890001040FDF74BBD10BD2DE9F74F4A4B1B780B
:10B8A00080460D463BB105F039FA002385F8B830E3
:10B8B00003B0BDE8F08F01F10C09D1F8A87048463B
:10B8C000012102F09AF8064610B97846FDF72EFDE0
:10B8D000DFF8FCA0A7F5FA7700244FF0290B3378A6
:10B8E000012BA7EB040406D0022B3BD07846FDF7D2
:10B8F0001DFD00231FE06B68B268B4FBFBF4D21A95
:10B90000A400944228BF144624B901937846FDF759
:10B910000DFD019BF168706823F003032246194472
:10B920001844FFF749FC10B17846FDF7FFFC6B683F
:10B930001C446C60B3686A689A422AD105F0EEF93B
:10B940004846012102F075F800236B6085F8B83095
:10B950001E4B186801F09AFA284603B0BDE8F04F74
:10B96000FFF78ABF6B68B268B4FBFAF4D21A2403FB
:10B97000944228BF144624B901937846FDF7D6FCBB
:10B98000019B706823F0030321461844FFF7ECFB8A
:10B99000C9E701F0DBF83378B0EB080448BFA8EB47
:10B9A0000004012B0DD0022B06D1534623449F42A5
:10B9B00095D205F0B3F9CFE77846FDF7B7FC002341
:10B9C000F4E72923F2E700BF443800204038002084
:10B9D000084C0100F8B51E481E4C01F039FA1E4B08
:10B9E000186004F11C03082710260325636104F185
:10B9F0000C0004F118032361A7736673257302F02A
:10BA00003FF804F1D803C4F8D03004F1C80004F1C1
:10BA1000D403C4F8CC3084F8CA7084F8C96084F8C0
:10BA2000C85002F02DF804F5CA73C4F88C3104F53F
:10BA3000C87384F8867184F8856184F88451C4F8E9
:10BA4000883104F5C270BDE8F84002F019B800BFB3
:10BA50007DB702004838002040380020022838B561
:10BA600004460D4602D97846FDF760FC024BBC2225
:10BA700002FB0434A56038BD4838002002282DE9B7
:10BA8000F84F07460C46924602D97846FDF74EFC21
:10BA900014B97846FDF74AFC2378012B12D163686C
:10BAA000990702D07846FDF741FCE3689A0702D077
:10BAB0007846FDF73BFCA3689B0711D07846FDF75D
:10BAC00035FC0DE0022B0DD16368C3F30B0313B1FA
:10BAD0007846FDF72BFCA368C3F30B03002BEDD1D5
